:020000040002F8
:10AFF0004B2A000002000A000000000000000000D0
:10B0000001488047FEE770477DB2020030B50B462D
:10B01000014600202022012409E00D46D5409D4232
:10B0200005D31D469540491B2546954040191546B8
:10B03000521E002DF1DC30BD70B5002425460028DD
:10B0400001DA01244042002901DA01254942FFF7D3
:10B05000DDFFAC4200D04042002C00D0494270BD20
:10B0600003460B439B0703D009E008C9121F08C021
:10B07000042AFAD203E00B780370401C491C521ECC
:10B08000F9D27047D2B201E00270401C491EFBD2D7
:10B0900070470022F6E710B513460A4604461946E3
:10B0A000FFF7F0FF204610BD0321001D401E03786E
:10B0B00012021A43491EF9D51046704710B5202ACE
:10B0C00004DB0146203A9140002010BD914020232E
:10B0D0009C1A0346E3401943904010BD10B5202A46
:10B0E00004DB0846203AD040002110BD0B46D34077
:10B0F000D0402024A21A91400843194610BD0000F8
:10B1000010B50C4801F0E1FA02F0B8FB02F068FB60
:10B1100001F048F801F0B4F801F0CEF901F00AF9B5
:10B1200001F096FE01F0CEF9E6F79CFCE6F7C4FCD0
:10B1300010BD000080841E00F0B51FB4064600203C
:10B1400082B005464024019100901BE001992246FF
:10B150000F463046FFF7C2FF049A059B801A9941BB
:10B1600010D3104619462246FFF7A8FF361A8F4122
:10B170000197224601200021009FFFF79FFF38180A
:10B180004D4100902046641E0028DFDC019B0098A2
:10B190002946324607B0F0BD064C0125064E05E0B3
:10B1A000E36807CC2B430C3C98471034B442F7D3E8
:10B1B00000F068F868F2020088F2020001B00200B4
:10B1C000000000000000000000000000000000007F
:10B1D000000000000000000000000000000000006F
:10B1E000000000000000000000000000000000005F
:10B1F000000000000000000000000000000000004F
:10B200000000000005B002001DBA020091B7020064
:10B2100009B8020099B2020019B3020005B0020099
:10B2200029B5020061B502007DBA020000000000ED
:10B230000000000079B8020005B9020091B90200CF
:10B240001DB3020051B3020085B3020005B0020035
:10B2500000000000000000000000000000000000EE
:10B2600000000000000000000000000000000000DE
:10B2700000000000000000000000000003488546B8
:10B28000FFF78AFF004800471DD70200008000201A
:10B2900040BA7047C0BA704770B51D4D2E686868D7
:10B2A0001C4C0640F00606D01F20A86061680029EB
:10B2B00001D030408847B005C10E07D01F21490199
:10B2C000A960A168002901D0C00E88477004C10E92
:10B2D00007D01F218902A960E168002901D0C00EB2
:10B2E00088473003C10E07D01F21C903A960216917
:10B2F000002901D0C00E8847F001C10E07D01F21E0
:10B300000905A9606169002901D0C00E884770BD98
:10B3100000200040FC5700207047000070B5094D28
:10B320002C68E86A044068680440074801680029FE
:10B3300001D020468847AC600120044940040860E1
:10B3400070BD0000001000402057002080E200E0A7
:10B3500070B5094D2C68286B0440686804400748A4
:10B360004168002901D020468847AC60012004498B
:10B370008004086070BD00000010004020570020CD
:10B3800080E200E070B5094D2C68686B0440686885
:10B39000044007488168002901D020468847AC60F6
:10B3A00001200449C004086070BD00000010004086
:10B3B0002057002080E200E08EB0FF206A460D2179
:10B3C000813002F0B1FC1CA000F09AFB1FA0009994
:10B3D00000F096FB22A0019900F092FB25A00299B3
:10B3E00000F08EFB28A0039900F08AFB2BA00499A3
:10B3F00000F086FB2EA0059900F082FB31A0069993
:10B4000000F07EFB34A0079900F07AFB37A0089982
:10B4100000F076FB35A0099900F072FB24A00A9990
:10B4200000F06EFB36A00B9900F06AFB39A00C9976
:10B4300000F066FBFEE700006861726420666175DB
:10B440006C74206F63637572730A000052303A2087
:10B4500020202020203078253038780A0000000095
:10B4600052313A2020202020203078253038780AA8
:10B470000000000052323A20202020202030782581
:10B480003038780A0000000052333A202020202073
:10B49000203078253038780A000000005231323AE6
:10B4A00020202020203078253038780A0000000045
:10B4B0004C523A2020202020203078253038780A3D
:10B4C000000000004558435F5245543A203078252B
:10B4D0003038780A00000000785053523A2020207B
:10B4E000203078253038780A0000000053505F4F34
:10B4F0004C443A20203078253038780A000000008B
:10B500004552525F545950453A3078253038780AC0
:10B510000000000053503A202020202020307825C1
:10B520003038780A0000000010B50A48807B0028F7
:10B5300002D001F063FE08E001F054FD0648816886
:10B54000C26811400905090D01610120034940024B
:10B55000086010BD245800200010014080E200E087
:10B5600010B50A48807B002802D002F01FF808E0DE
:10B5700001F00CFF06488168C26811400905090DF9
:10B580000161012003498002086010BD3C58002081
:10B590000020014080E200E010B50124E4042046D0
:10B5A00001F0C4FA2548E8F7B7F9204601F052FB4C
:10B5B000AE2000F04BFAD52000F048FA802000F0D1
:10B5C00045FAA82000F042FA1F2000F03FFAD320ED
:10B5D00000F03CFA002000F039FA402000F036FA82
:10B5E0008D2000F033FA142000F030FAA12000F092
:10B5F0002DFAC82000F02AFADA2000F027FA0220FB
:10B6000000F024FA812000F021FA682000F01EFAF0
:10B61000D92000F01BFAF12000F018FADB2000F02E
:10B6200015FA402000F012FAA42000F00FFAA6202C
:10B6300000F00CFAAF2000F009FA10BDB80B0000C2
:10B6400010B500F0F5F8012010BD10B500F006F9B6
:10B65000012010BD08B50021009140680178012942
:10B6600002D002290DD010E000A940780231FFF786
:10B67000E7FF0221684601700121417002F01EFDC2
:10B6800003E0C1788078FFF7E0FF022008BD0000EA
:10B69000C106C90E012088400149086070470000BA
:10B6A00080E200E0C106C90E01208840014908601F
:10B6B0007047000000E100E08307FF22DB0E9A40A4
:10B6C0008907090E994000280BDA0007000F083897
:10B6D000830808489B001818C36993430B43C36150
:10B6E0007047830804489B001B1818689043084360
:10B6F0001860704700ED00E000E400E08307FF22DF
:10B70000DB0E9A408907090E994000280BDA0007E2
:10B71000000F0838830808489B001818C369934332
:10B720000B43C3617047830804489B001B181868CB
:10B73000904308431860704700ED00E000E400E02B
:10B74000F8B5114C074640072668800F0BD0002E35
:10B7500009D0E588A1882846FFF758FC0B48715CA2
:10B7600001606D1CE580292007420CD0002E0AD014
:10B77000A189E089FFF74AFC0448A2684068505458
:10B78000E089401CE081F8BD1458002000A0014071
:10B7900010B5074CE068A1680840FFF7D1FFE068EA
:10B7A000A1680840206103491020086010BD000016
:10B7B0000090014080E200E0F8B5114C07464007D8
:10B7C0002668800F0BD0002E09D0E588A188284676
:10B7D000FFF71CFC0B48715C01606D1CE5802920A3
:10B7E00007420CD0002E0AD0A189E089FFF70EFC99
:10B7F0000448A26840685054E089401CE081F8BDCC
:10B800001458002000A0014010B5074CE068A16862
:10B810000840FFF7D1FFE068A168084020610349B4
:10B820002020086010BD000000A0014080E200E080
:10B830001CB50C4600210091019180210843694606
:10B8400008705520487001AA034802F000F96946C3
:10B850004879207001201CBD0202000008B50022BA
:10B8600040060092400E6A461070517069460220F0
:10B8700002F0DEF808BD000070B51F4E75681E4866
:10B8800040308068054030681C4C0540A80703D054
:10B890002068002800D080472807800F03D0606808
:10B8A000002800D08047A806800F03D0A068002899
:10B8B00000D080472806800F03D0E068002800D021
:10B8C0008047A805800F03D02069002800D080475A
:10B8D0002805800F03D06069002800D08047A804A5
:10B8E000800F03D0A069002800D08047B5600120F8
:10B8F00003498003086070BD005001408C57002050
:10B9000080E200E070B51F4E75681E484030C06888
:10B91000054030681C4C0540A80703D0206800286B
:10B9200000D080472807800F03D06068002800D02F
:10B930008047A806800F03D0A068002800D0804769
:10B940002806800F03D0E068002800D08047A805B3
:10B95000800F03D02069002800D080472805800F81
:10B9600003D06069002800D08047A804800F03D06E
:10B97000A069002800D08047B56001200349C003BA
:10B98000086070BD005001408C57002080E200E04C
:10B9900070B51F4E75681E4840300069054030681C
:10B9A0001C4C0540A80703D02068002800D0804721
:10B9B0002807800F03D06068002800D08047A806C1
:10B9C000800F03D0A068002800D080472806800F91
:10B9D00003D0E068002800D08047A805800F03D07E
:10B9E0002069002800D080472805800F03D06069B7
:10B9F000002800D08047A804800F03D0A069002849
:10BA000000D08047B560012003490004086070BD84
:10BA1000005001408C57002080E200E00948816816
:10BA2000C2681140C905C90D4822114203D0402205
:10BA3000026108220261C80602D50349102008618C
:10BA400070470000004001400030014010B504493B
:10BA50003C23087000220121014801F029FC10BD9F
:10BA6000413F002010B504493C23087040220121C9
:10BA7000014801F01DFC10BD413F0020044903486E
:10BA80000861C8140349086070470000FFFFFF0009
:10BA90000010024080E200E070B5174C0546606877
:10BAA000002810D0A16800290DD0E16800290AD033
:10BAB0001B2101F05FF81D21A06801F05BF81C213B
:10BAC000E06801F057F80D490120002D0BD0012D41
:10BAD00008D14A69920892004A614A6902231A43CE
:10BAE0004A61886170BD4A69920892004A61886122
:10BAF0004A690243F4E70000D83F002000100240EA
:10BB00000FB410B503A9044B044A029800F018F8CA
:10BB100010BC08BC04B01847D5C60200FC3F00208A
:10BB200002E008C8121F08C1002AFAD17047704706
:10BB3000002001E001C1121F002AFBD17047000064
:10BB4000FFB591B00F460546002606E025280AD02D
:10BB5000149A139990476D1C761C28780028F5D10B
:10BB6000304615B0F0BD002400940121F34A029440
:10BB700000E004436D1C2B780846203B984010429F
:10BB8000F7D128782A280ED0022128780246303AA8
:10BB9000092A15D8009A0A235A43303A80180C43D0
:10BBA0006D1C0090F1E701CF0090002805DA01201C
:10BBB00040030443009840420090022004436D1C5F
:10BBC00028782E2815D10420044368786D1C2A2873
:10BBD0000AD101CF6D1C02900BE002990A22514359
:10BBE000303940186D1C02902878014630390929F7
:10BBF000F3D928786C2810D006DC4C281AD0682895
:10BC00000ED06A2817D104E0742813D07A2812D1F4
:10BC100010E00120400504430CE00121090501E08A
:10BC2000032109050C436978814203D101200005F5
:10BC300024186D1C6D1C287803906E281ED00CDC17
:10BC4000632831D004DC00288AD0582811D1B2E012
:10BC500064287BD069280CD178E073282DD004DCCF
:10BC60006F2870D0702804D1A7E075286CD0782890
:10BC70006BD0149A13999047761C62E06002400FD3
:10BC8000022807D003280AD0042838680AD00660A2
:10BC90003F1D56E03868F11706604160F8E73868E4
:10BCA0000680F5E70670F3E73878694608740020E7
:10BCB000487404A80390012003E038680390002032
:10BCC000C0433F1D61070FD5002101E00199491CC8
:10BCD000029A0191914213DA8142F7DB019A0399AA
:10BCE000895C0029F2D10BE0002101E00199491C97
:10BCF00001918142FADB019A0399895C0029F5D10F
:10BD000001990098139A401A00902146149B00F064
:10BD10003BF901998019461807E0039803990078C8
:10BD2000491C0391149A139990470198401E019061
:10BD3000401CF2D12146149B139A009800F014F98C
:10BD400086196D1C09E741E033E034E00A20002148
:10BD5000049005916002410F022905D001CFC2175E
:10BD60009446032905D007E0FF1DFF08FF0003CF1D
:10BD700006E000B2C2179446042902D140B2C117AE
:10BD80008C4600226146944506DA0A46002140426C
:10BD900091418C462D2102E0210504D52B216A46D4
:10BDA0001176012103E0E10701D02021F7E701919D
:10BDB00054E00A200BE0102009E01020049000213C
:10BDC0000420044308200591029003E0082000218C
:10BDD000059104906002410F022905D001CF002295
:10BDE0009446032906D006E0FF1DFF08FF0003CF9D
:10BDF0008C4603E080B2042900D1C0B20021019139
:10BE000021072BD50399702906D0049A1021059B90
:10BE10004A401A4305D00EE040216A4611760121BE
:10BE200008E06146014306D030216A461176039945
:10BE3000517602210191049A0821059B4A401A4338
:10BE40000CD16146014301D1610707D530216A4613
:10BE50001176012101910299491E029103995829F5
:10BE600004D037A103910FA90F910DE039A1F9E793
:10BE70006146059B049AFFF75FF9039B8C469B5C28
:10BE80000F9A521E0F92137061460143F0D10F9822
:10BE900007A9081A20300390600704D50120000488
:10BEA0008443029801E0012002900399884201DD59
:10BEB000401A00E0002041180290019809180098EB
:10BEC000401A0090E00306D42146149B139A009870
:10BED00000F05AF886190020049008E006A9085CD2
:10BEE000149A139990470498401C761C0490019969
:10BEF0008842F3DBE0030CD52146149B139A00988B
:10BF000000F042F8861904E0149A30201399904703
:10BF1000761C0299481E02900029F5DC08E00F9873
:10BF20000F990078491C0F91149A13999047761C29
:10BF30000399481E03900029F1DCFBE60928010063
:10BF4000303132333435363738396162636465668F
:10BF50000000000030313233343536373839414251
:10BF60004344454600000000F8B5044600251E463F
:10BF70001746880404D405E039462020B0476D1CDC
:10BF8000641EF9D52846F8BDFFB50446002581B0EA
:10BF90001E46C80301D5302700E02027880404D5B9
:10BFA00005E038460399B0476D1C641EF9D5284654
:10BFB00005B0F0BD10B5084A00214B009C186488FC
:10BFC000491CD4523F29F8DB03494031C88740213E
:10BFD000014800F091FB10BDE045002010B5184964
:10BFE0004A690723DB039A431A434A618B6901229A
:10BFF000120513438B61CB699343CB61CB69134328
:10C00000CB6110490024002818D04000401C8861F2
:10C01000FF200D4A0121043001F086FE0A48018804
:10C02000C905C90DCA1FFF3A0180F93A04D0FF22A1
:10C030000132511A018010BD048010BD8C61E7E708
:10C0400000B0014000700140F83F002000B51049E9
:10C0500000238969C90201D4002000BD89210D4A4D
:10C0600008439060C82000F0EFFAD068D0687D20C7
:10C070000001D168002902DB5B1C8342F9D3D06840
:10C08000054900040988800D401880B200BD0000F9
:10C0900000B0014000700140F83F002010B50120C1
:10C0A0004003FFF7D3FF0446014605A0FFF728FD34
:10C0B000044A054BD16848001C52491CD16010BD90
:10C0C00025642C00803F00208046002010B50446E7
:10C0D000002906D008A0FFF713FD104901200870C1
:10C0E00010BD0FA0FFF70CFD2046D6F707FB01217E
:10C0F000204600F024F810BD0A3C3C616E637320BA
:10C100007365727669636520686173206265656432
:10C1100020666F756E643E3E0A000000543F0020AA
:10C120000A3C3C6E6F20616E6373207365727669A2
:10C13000636520666F756E643E3E0A00704710B5F9
:10C14000D6F730FB10BD10B5D6F7D8FA10BD10B534
:10C15000D6F750FC10BD10B5052101F0D4FA00F05F
:10C1600017F810BD10B508480178002908D14178AA
:10C17000002905D0491E41708078D6F7F5FA10BD28
:10C180000248E8F75FFD10BD543F0020C84500207D
:10C1900010B502460E210248D6F74EFC10BD000035
:10C1A0001E3F002010B50220FFF772FA0321022083
:10C1B000FFF782FA0220FFF775FA0920FFF768FA05
:10C1C00003210920FFF778FA0920FFF76BFA0A200C
:10C1D000FFF75EFA03210A20FFF76EFA0A20FFF745
:10C1E00061FA0620FFF754FA00210620FFF764FAEF
:10C1F0000620FFF757FA0720FFF74AFA0021072029
:10C20000FFF75AFA0720FFF74DFA10BD0026184D28
:10C21000184CF64331462868E5F7D6FA0028F9D0DD
:10C220000828F7D01028F5D108780F4603280FD03A
:10C230000628EFD1084601F0FDFE7968002902D0FA
:10C24000A068E5F769FB39466068E5F765FBE1E75B
:10C25000084600F095F87968002903D00648006880
:10C26000E5F75AFB002FD5D0044839460068ECE7C3
:10C2700084020020483F0020900200208C02002011
:10C2800010B50B48E5F72EFB0A4C606008480C30EF
:10C29000E5F728FBA060064800211038E5F7BCFB55
:10C2A0002060002802D104A0FFF72AFC10BD000086
:10C2B00058E20200483F00200A61707020746173E8
:10C2C0006B20637265617465206661696C0A0000A9
:10C2D0001CB513A103C901910090134C6420208068
:10C2E000608006226946E01DFEF7BAFE00206071FC
:10C2F000A071207107216173A0730D2121740B4976
:10C30000616114212176094920221439E16108492B
:10C310000A804A8001220A7148718871C8711CBD67
:10C32000AACD443322110000F03A0020703F0020D3
:10C33000E83A002000B585B014220D496846FEF7A2
:10C340008FFE0C48002101704170D8F7F5FBFFF714
:10C35000BFFF6846D8F7D6FA0120D8F77FFAD8F79A
:10C360003BFA054A01210548E8F77CFB05B000BD12
:10C3700070E20200573F002065C10200C84500205E
:10C38000F8B50446407832284FD016DC002501224B
:10C39000294917282CD011DC05280ED0CE1E1428D0
:10C3A0001CD0152809D10D704D703570D5F79EFF42
:10C3B000D8F712FA21A0FFF7A3FBF8BD182823D065
:10C3C000302823D03128F8D161680029F5D0E078F1
:10C3D000C91CC01EC0B2FFF7B1FEF8BD0A70A0783C
:10C3E000FFF7B1FEA078B070D8F73EFB18A0E2E7E7
:10C3F0004A70A0780121FFF7A2FE1A4A00231A48CA
:10C400000095E8F7C9FBF8BD4D70F8BD60680028DD
:10C41000FBD001780029F8D00129F6D10020FFF7E0
:10C4200055FE0120FFF793FEF8BD60680028FBD0A1
:10C43000FFF791FEF8BD0000573F0020626C6520B9
:10C44000697320646973636F6E65637465640A0061
:10C45000626C6520697320636F6E65637465640A3E
:10C4600000000000B80B0000C8450020F8B50746E2
:10C470000F481C4615460E460068E5F705FA011EF2
:10C480000C480BD00F704E708D70CC70069A4A60BD
:10C49000EFF30582002A03D0002203E00220F8BD5A
:10C4A0000022D2430068E5F79DF90020F8BD0000A6
:10C4B0004C3F00208402002010B501F0D1FC01F0B7
:10C4C00081F910BD10B50021082000F06BFB07209A
:10C4D000FFF784FD01220021500500F08FFB00F0E2
:10C4E0008DFC00F0E5FB10BDFFB5044646A207CA6F
:10C4F00085B06D4607C547491846FEF787FD87B2E8
:10C5000008463C21FEF782FD05466846807F0818F4
:10C51000C0B23C21FEF77AFD064603913C21284635
:10C52000FEF774FD05466846407F711808180399A8
:10C53000A171C0B23C21FEF769FD064603913C2182
:10C540002846FEF763FD6846007F711808180399B6
:10C550006171C0B21821FEF759FD02466846C07EDF
:10C5600000251018E07021716846807EA070684632
:10C57000008B208001F052FE1D26002801D0684665
:10C580004670A0786946401EA84204D94A5DD21977
:10C5900097B26D1CF8E7E0787F1EC01985B20120C4
:10C5A000E070FF27A0706E370CE001F037FE002826
:10C5B00002D0FF3D6F3D01E0FF3D6E3D2088ADB2F2
:10C5C000401C20802088BD42EFD801F027FE124990
:10C5D0000028694402D0684646700EE0BD4204D18E
:10C5E0002088401C208009B0F0BD1C206A46507095
:10C5F00003E0AA1A401C95B2A070A078425CAA423F
:10C60000F7D96D1CE570EEE71F1C1F1E1F1E1F1FB4
:10C610001E1F1E1F80510100FFFFFFFF1CB50548B4
:10C620006946088001208870C8700021009801F0D8
:10C6300031FB1CBDB20700008108002001E000BFF3
:10C64000401C8842FBD3704700B50001FFF7F4FFA0
:10C6500000BD70B500242046B030C0B2FFF7F6F937
:10C660000020FFF7F3F91020FFF7F0F90025002074
:10C67000FFF7F8F96D1CADB2802DF8D3641CA4B29D
:10C68000042CE8D370BD70B500242046B030C0B291
:10C69000FFF7DCF90020FFF7D9F91020FFF7D6F9F2
:10C6A00000255520FFF7DEF96D1CADB2802DF8D3C3
:10C6B000641CA4B2042CE8D370BD8108002001E002
:10C6C00000BF401C8842FBD3704700B50001FFF754
:10C6D000F4FF00BD13B500980A2807D10D20009083
:10C6E0000121684601F0C6FA0A200090012168463F
:10C6F00001F0C0FA00981CBD10B503460022104698
:10C7000003E054001C5B2018521C8A42F9DBFEF740
:10C710007DFC80B210BD0000F0B5002089B006900D
:10C720008F4C0390079000900190E061206320629D
:10C73000A061E06303216063A1708A4B8A4A606153
:10C740004100555A401C5D524028F9DB40257D27A9
:10C750003F0185486E00805BFFF72CFC81496D1C12
:10C76000A0318853BD42F4DB40267E487100A030E2
:10C77000455A284600F084FF022811D0012848D0ED
:10C78000039800F07DFF012865D0022802D00398AD
:10C79000A84260D3606D401C6065002020657EE08B
:10C7A0000020E063A16BFF22491C9132A1639142FA
:10C7B00002DD062009B0F0BD216B002924D00699C6
:10C7C000491C06910A291FDDA069206267A0009913
:10C7D000FFF796F90098002810DD216A081A014633
:10C7E00001906948FEF728FC024668A00199FFF70E
:10C7F00087F901986D49653888427DD3206A009099
:10C80000002060632063E063012007900220A07095
:10C810001FE0E06B0021A163401CFF219131E06328
:10C82000884201DD0720C5E7079901290FD11E289D
:10C830000DDD01202063616B002908D16063E1698F
:10C8400000201E39A161069059A0FFF759F9032075
:10C85000A07005907AE0206D401C20650020606586
:10C86000206D0F281BDD0020A070E08005980028B7
:10C8700015D000200590A1692162019800902289BD
:10C8800052A0E369FFF73CF92189206A01F00AF818
:10C890006069072801DD01F025F8206A0090606DCD
:10C8A0000F2809DD0120A0700790800220810598E3
:10C8B000012801D001200590206B002833D0069874
:10C8C000401C06900A2841DDE06BC10F0818A169E1
:10C8D0004010401820620099002918DD401A0146D6
:10C8E00001902948FEF7A8FB024646A00199FFF7F0
:10C8F00007F92E49019800E002E06538884206D227
:10C9000021480199FEF798FBA080012052E7226A96
:10C9100043A00099FFF7F4F8206A009000206063BC
:10C920002063E06312E0A078012802D0002807D03D
:10C930000CE02089854209D22581E069A06105E0EB
:10C94000E088854202D9E580E069E0640395E0690A
:10C95000761C401CE061BE4200DA06E7052029E7AC
:10C96000803F0020E045002084E20200544F502028
:10C97000206C617374506F736974696F6E3A20250F
:10C9800064200D0A0000000030750000544F502054
:10C990002064697374616E63653A2025642068655C
:10C9A0006172743A202564200D0A0000890200009B
:10C9B0000D0A20737461727420726563206465745B
:10C9C0006563743A202564200D0A00002020626F00
:10C9D00074746F6D3A20256420206D696E56616C09
:10C9E00075653A2025642063757272656E74203A0D
:10C9F0002025642064697374616E63653A25642040
:10CA00000D0A000064697374616E63653A202564E1
:10CA10002068656172743A202564200D0A000000C8
:10CA20006C617374506F736974696F6E3A2025641A
:10CA3000206375723A202564200D0A00F7B516466A
:10CA40001FA207CA84B06B4607C3684600241B4D6B
:10CA5000078A0AE001F0E2FB002802D0FF346F34BD
:10CA600001E0FF3464346D1CADB2AF422846F1D80A
:10CA700001F0D4FB002802D01D20694648706A46A8
:10CA8000917C0020491E03E0135C1C19401C80B2FD
:10CA90008142F9DCD07C641E0119127DE120000185
:10CAA00042436846807D12186846C07D3080074842
:10CAB00041438818706007B0F0BD0000B207000065
:10CAC0001F1C1F1E1F1E1F1F1E1F1E1F8051010027
:10CAD0007FB5054602A800F013F808490398496895
:10CAE0000822441A054968461039FEF7B9FA234668
:10CAF0002846019A0099FFF7F7FC7FBD103F002000
:10CB00001CB50446694601A8E1F7F6FD68460079C0
:10CB100000994004CA0B1043606048047D21400C1A
:10CB2000C900FEF773FA20801CBD00000149C861EE
:10CB30007047000000100040F0B50D4B00229D141E
:10CB40000446D440E60706D000290BD09600F6181C
:10CB5000F76B2F43F763002C03D0521CD2B21F2A6D
:10CB6000EED3F0BD9600F618F76BAF43F2E7000086
:10CB70000010004000220346D340DB070AD00848DB
:10CB800092001018C26B120A1202C263C26B0A43EF
:10CB9000C2637047521CD2B21F2AECD37047000008
:10CBA0000010004030B50022074C09020346D34074
:10CBB000DD0702D095002D19E963002B03D0521C2C
:10CBC000D2B21F2AF2D330BD0010004030B501238D
:10CBD00009021B0300228031074C19430346D3404E
:10CBE000DD0702D095002D19E963002B03D0521CFC
:10CBF000D2B21F2AF2D330BD00100040F0B501249C
:10CC00000902E4024031214300230C4C0127054670
:10CC1000DD40EE070AD09E003619F163002A3E4639
:10CC200002D09E40A66101E09E40E661002D03D047
:10CC30005B1CDBB21F2BEAD3F0BD000000100040EC
:10CC40000349896B014201D00120704700207047E1
:10CC5000001000400149886170470000001000404A
:10CC600070B5124C054660680E46A843606000210E
:10CC70002846FFF761FF002E02D0012E05D00BE001
:10CC8000206828432060022103E02068A843206038
:10CC900001212846FFF79AFF04484A214038C16322
:10CCA0006168294361600121816370BDC01000404B
:10CCB000F8B51E48FEF724FF1D4A00201446A03494
:10CCC0004100401C635A80B253524028F8D340259B
:10CCD0007D273F016E00A05BFFF76CF96D1CADB2C4
:10CCE000A053BD42F6D3FFF717FD124C01460128B1
:10CCF0000ED007290FD006290DD005290BD0082901
:10CD000009D0022907D0032905D0042903D007E060
:10CD1000A18809A000E00DA0FEF7F2FE00F03CF8AB
:10CD20000020E0600DA0FEF7EBFEF8BD24F202004B
:10CD3000E0450020803F0020686561727452617494
:10CD400065203D2025640D0A000000004852457210
:10CD5000726F723A2564200D0A0000000D0A2A2A1B
:10CD60002A2A2A2A2A2A2A2A2A2A2A2A2A2A2A2A23
:10CD70002A2A2A2A2A66696E6973682A2A2A2A2A8E
:10CD80002A2A2A2A2A2A2A2A2A2A2A2A2A2A2A2A03
:10CD90002A2A200D0A20000010B513A0FEF7B0FECD
:10CDA00014480021C16141700161416101620122A9
:10CDB000C18092020281816241620322C16282705B
:10CDC0008163C1630164016341648164C16401657D
:10CDD000416520210848FEF75CF907482021803092
:10CDE000FEF757F910BD000020696E6974200D0A26
:10CDF00000000000803F00202056002010B54B228C
:10CE000010210248FEF73EF910BD000060460020E8
:10CE100010B506487D21C0680901884202DAFFF793
:10CE20003DF910BDFFF744FF10BD0000803F00201A
:10CE3000072806D20549002804D00122401E82405E
:10CE40000A627047042008617047000000500140EA
:10CE5000F8B50126114CB603266003210E20FEF71B
:10CE60004DFC0F4D2E607600266003210F20FEF74B
:10CE700045FC2E607600266003211020FEF73EFC64
:10CE80002E6008480121009000230222084600F08D
:10CE90007BF805A0FEF734FEF8BD000080E200E05C
:10CEA00000E100E011CE020068775F74696D657281
:10CEB0005F636F6E66696720646F6E65210D0A009F
:10CEC00030B50A4A0A4C00280BD0536A80000F255F
:10CED000001F8540AB4381400B435362506A606240
:10CEE00030BDD160D068E06030BD0000005001402E
:10CEF000A8570020074A084B002806D08000821857
:10CF0000D162D16AC018C1627047516150695861DD
:10CF10007047000000500140A857002070B5064639
:10CF20000D467D201446491CC001FEF76FF84443AE
:10CF300029463046FFF7C4FF21463046FFF7DAFFA7
:10CF40003046FFF775FF70BD70B515460A460446BA
:10CF5000072814D203211046FEF758F80848890024
:10CF60000818826C66000323B3401A438264806C05
:10CF7000044A89188864A00011461C390D5070BD00
:10CF800000500140A8570020F8B51E460546069FF0
:10CF9000FFF7C4FF2846FFF74BFF0948012104783B
:10CFA000A9408C43047002D10120E6F7B9FF3A464C
:10CFB00031462846FFF7C8FF284600F003F8F8BDC1
:10CFC000F43F002005494A6843000320984002438B
:10CFD0004A604868024948607047000000500140BC
:10CFE000A8570020F0B583498868CA6810408203BA
:10CFF0008148920B4368940722D50226002B1ED04D
:10D000009C68002C1BD09D790488A54214D92C1B48
:10D01000E5B20424042D0CD22C46CD68B543CD6076
:10D0200007E005889F687F5D0F606D1C641E0580AA
:10D03000E4B2002CF5D102E0CC68B443CC600E61C0
:10D04000940620D58C6A2406240F002B17D09D68E7
:10D05000002D0ED113E09E790588AE4201D24D68B5
:10D0600005E04E689F687E5505886D1C0580641E2E
:10D07000E4B2002CEFD104E04B68641EE4B2002C53
:10D08000FAD120230B61130502D50123DB020B61CA
:10D09000130621D58B6A44681B061B0F002C17D082
:10D0A000A568002D0ED113E0A6790588AE4201D205
:10D0B0004D6805E04E68A7687E5505886D1C0580A3
:10D0C0005B1EDBB2002BEFD104E04C685B1EDBB2D1
:10D0D000002BFAD180230B61530723D54368042426
:10D0E000002B1ED09D68002D1BD09E790588AE4276
:10D0F00014D9751BEEB20425042E0CD23546CE6829
:10D10000A643CE6007E006889F68BF5D0F60761C6F
:10D110006D1E0680EDB2002DF5D102E0CB68A34371
:10D12000CB600C61D30502D5FF2301330B6153069D
:10D1300021D58B6A44681B061B0F002C17D0A568ED
:10D14000002D0ED113E0A6790588AE4201D24D68BC
:10D1500005E04E68A7687E5505886D1C05805B1E3E
:10D16000DBB2002BEFD104E04C685B1EDBB2002B7E
:10D17000FAD140230B61D30601D510230B611307AD
:10D1800001D508230B61D30721D08B6A44681B06A5
:10D190001B0F002C17D0A568002D0ED113E0A67927
:10D1A0000588AE4201D24D6805E04E68A7687E55FD
:10D1B00005886D1C05805B1EDBB2002BEFD104E0FF
:10D1C0004C685B1EDBB2002BFAD101230B61920588
:10D1D0000ED54268002A08D08B681B0413604C6B84
:10D1E0002343136000224260028001204002086154
:10D1F000F0BD000000100140E83F0020FEB52A4CC1
:10D20000606BA668E168294D0E40310512D5010614
:10D2100004D5286900280DD080470BE0400609D5C9
:10D220006969002906D0A06A00090007FBD0606880
:10D2300080B288477007800F19D0A06A08210007C4
:10D24000000F081AC7B228680290A88801900CE065
:10D25000288900900199FDF7D9FE0298405C206072
:10D260000098401C7F1E2881FFB2012FF0D83006A5
:10D27000400F11D0A06A0006070F0BE0A988E888CC
:10D28000FDF7C4FE2A6860685054E888401C7F1E81
:10D29000E880FFB2012FF1D8F00703D0606860602A
:10D2A0000120A0632661FEBD00100140245800202B
:10D2B000FFB583B00646002517462C46069800F0B9
:10D2C000CFF908280ED20C212C4A484381188B68CC
:10D2D0000293125C6846027048680190497868467B
:10D2E000417009E006980290002069460870FD2010
:10D2F000400101900120487021498869012292046F
:10D30000104388610198C86102980862012088630F
:10D310006846407802280CD00F600498401CC86210
:10D320000020C86017480861D82048610827164ABD
:10D330001BE0380A08600F600498801CEFE76D1C42
:10D34000886AADB20007000F049B381AC0B21B1BDD
:10D35000834208DAD8B206E0335D00250B60641C16
:10D36000401EE4B2C0B20028F6D18868800501D41E
:10D370009542E4D3204607B0F0BD00002C570020B2
:10D3800000100140FFFF0000204E0000F0B585496D
:10D390008868CA6810408203920B100501D5C81432
:10D3A00008618148130621D58B6A84681B061B0F10
:10D3B000002C17D0A568002D0ED113E0A679458862
:10D3C000AE4201D24D6805E04E68A7687E5545889B
:10D3D0006D1C45805B1EDBB2002BEFD104E04C6876
:10D3E0005B1EDBB2002BFAD180230B61930621D5A3
:10D3F0008B6A84681B061B0F002C17D0A568002DB4
:10D400000ED113E0A6794588AE4201D24D6805E001
:10D410004E68A7687E5545886D1C45805B1EDBB253
:10D42000002BEFD104E04C685B1EDBB2002BFAD17D
:10D4300020230B61930723D583680224002B1ED081
:10D440009D68002D1BD09E794588AE4214D9751B6E
:10D45000EEB20425042E0CD23546CE68A643CE602B
:10D4600007E046889F68BF5D0F60761C6D1E468092
:10D47000EDB2002DF5D102E0CB68A343CB600C6187
:10D48000530723D583680424002B1ED09D68002DEC
:10D490001BD09E794588AE4214D9751BEEB2042587
:10D4A000042E0CD23546CE68A643CE6007E04688EF
:10D4B0009F68BF5D0F60761C6D1E4680EDB2002D2B
:10D4C000F5D102E0CB68A343CB600C61D30502D554
:10D4D000FF2301330B61530626D58B6A84681B0634
:10D4E0001B0F002C1CD0A468002C13D118E08468FA
:10D4F0004688A579B54205D24E68A4686419203CD7
:10D50000E67705E04D68A468A5554488641C44800E
:10D510005B1EDBB2002BEAD104E04C685B1EDBB281
:10D52000002BFAD140230B61D30601D510230B61E8
:10D53000130701D508230B61D30721D08B6A8468B8
:10D540001B061B0F002C17D0A568002D0ED113E071
:10D55000A6794588AE4201D24D6805E04E68A768BD
:10D560007E5545886D1C45805B1EDBB2002BEFD1DC
:10D5700004E04C685B1EDBB2002BFAD101230B6187
:10D5800092050ED58268002A08D08B681B041360B0
:10D590004C6B2343136000228260428001204002D2
:10D5A0000861F0BD00200140E83F0020FEB52A4C94
:10D5B000606BA668E168294D0E40310512D5010661
:10D5C00004D5286900280DD080470BE0400609D516
:10D5D0006969002906D0A06A00090007FBD06068CD
:10D5E00080B288477007800F19D0A06A0821000711
:10D5F000000F081AC7B228680290A88801900CE0B2
:10D60000288900900199FDF701FD0298405C206097
:10D610000098401C7F1E2881FFB2002FF0D13006F9
:10D62000400F11D0A06A0006070F0BE0A988E88818
:10D63000FDF7ECFC2A6860685054E888401C7F1EA7
:10D64000E880FFB2012FF1D8F00703D06068606076
:10D650000120A0632661FEBD002001403C5800204F
:10D660000146064A00200C2343439B189B688B42CB
:10D6700003D0401CC0B20828F5D370472C570020B7
:10D68000282801D201207047CD218900884201D984
:10D69000022070470020704704484188008881427A
:10D6A00001D0002070470120704700001A3F002081
:10D6B00010B54068002103780948002B07D00122EB
:10D6C000012B09D0022B05D10378002B04D0017067
:10D6D000FEF7BFFF002010BD0270FEF7D4FFF9E790
:10D6E000403F002010B5022101220804FFF786FA0E
:10D6F000022101228804FFF781FA02210122480455
:10D70000FFF77CFA10BD10B544182046FDF7CCFC9D
:10D710000002E178000A0906084310BD10B5002098
:10D72000E7F798F90020E7F783F90120E7F728F9F0
:10D73000E3F73CFF002010BD10B500F067FA00F0E1
:10D7400067FB10BD10B51020FFF7F0F90148E7F7AF
:10D7500079FA10BD804400208EB0FF206A46022175
:10D76000813000F0E1FA06A0FEF7CAF90BA000999B
:10D77000FEF7C6F90EA00199FEF7C2F9FEE7000018
:10D780006F735F737461636B5F6F766572666C6FE6
:10D7900077206F63637572730A0000006164723AE8
:10D7A0002020202020203078253038780A00000002
:10D7B0006572725F636F64653A203078253038781F
:10D7C0000A00000010B50449002008600349086001
:10D7D000E0F70CFB10BD0000203E0020243E00209E
:10D7E00010B500F0C5FA00F079FAE7F77FF90120EB
:10D7F00005210006FFF7BEF9164800F02BFA16A027
:10D80000FEF77EF900F0AEF9002000F0A5F9FFF771
:10D8100069FFFEF703FF012011210005FFF7AAF9B8
:10D82000012012214005FFF7A5F901220021D004B3
:10D83000FFF7E4F9002211461020FFF7DFF9FDF7AA
:10D84000ABFE00210820FFF7ADF90720FEF7C6FB6D
:10D8500010BD0000100002000A4D4F564E4F5720D9
:10D86000777269737462616E64207374617274207C
:10D87000746F20776F726B3E3E0A000010B5084847
:10D88000E6F7BCFF0020E6F791FF0520E7F7DCF89C
:10D890000121880200F09CF90020E7F7BDF810BDD7
:10D8A000FFFF7F0010B509494A69202A04DA084CB5
:10D8B0009300E0508034E050521C4A61202A01DA83
:10D8C000104610BD1F20486110BD0000803F0020A1
:10D8D0002056002010B5012005210006FFF74AF967
:10D8E000002010BDF0B50025A3B02C461E4F29E046
:10D8F0001E48AE003118019149688059081A024645
:10D90000009029461AA0FEF7FBF80098C82812DA02
:10D9100016488030311849688059081A002802DDFD
:10D920000198416801E011488159A20002A8641CD5
:10D930008150AD1C06E00D48A200815902A8641C6C
:10D9400081506D1C78698542D2DB002502AE06E06D
:10D95000A800325829460CA0FEF7D2F86D1CA5424B
:10D96000F6DB786923B0F0BD803F00202056002010
:10D9700064697374616E746365205B25645D203D2A
:10D980002025640D0A000000706C75736550656198
:10D990006B54656D705B25645D203D2025640D0A28
:10D9A0000000000010B501208002FFF749F90028AF
:10D9B00001D0012010BD0124E40200212046FFF720
:10D9C000D9F801212046FFF701F9002010BD000021
:10D9D0003EB5456814A0006800900020032211465F
:10D9E000029000F069F8022168460170FF2444703B
:10D9F00002AA6946022000F079F829784020014304
:10DA000068460170447002AA6946084800F06EF842
:10DA100007216846017101214171417A817101A894
:10DA200000F04CFB00203EBD00550000020200004B
:10DA300070B50E460546002405E0FF2000F016F8FC
:10DA40003055641CA4B2AC42F7D3012070BDF0B5D0
:10DA500016460F460546002405E0385D00F006F83E
:10DA60003055641CA4B2AC42F7D3F0BD10B5002110
:10DA70007D23DB000F4A04E00C46491C89B29C421E
:10DA80000ED8D4692407240F042CF5D81060002088
:10DA90007D21090106E00346401C80B28B4201D97A
:10DAA000FF2010BDD3691B091B07F4D05068C0B21A
:10DAB00010BD000000900140084B0004C318080787
:10DAC00003430748034307484361826101214162E0
:10DAD000054901610021C1607047000044FF00005A
:10DAE0000000F0CF00A00140FF010000F0B5164695
:10DAF0000F460546002405E0385D00F007F8305574
:10DB0000641CA4B2AC42F7D3F0BD000010B50021F4
:10DB10007D23DB000F4A04E00C46491C89B29C427D
:10DB20000ED8D4692407240F042CF5D810600020E7
:10DB30007D21090106E00346401C80B28B4201D9D9
:10DB4000FF2010BDD3691B091B07F4D05068C0B279
:10DB500010BD000000A0014001490870704700009E
:10DB6000183F0020024800210180418070470000DA
:10DB70001A3F002070B50C46054601460AA0FDF785
:10DB8000BFFF21460DA0FDF7BBFF29460F4D2846DC
:10DB9000DFF784FDA1B22846DFF780FD210C28467F
:10DBA000DFF77CFD70BD00006164723A2020202008
:10DBB00020203078253038780A000000696E666FC2
:10DBC0003A203078253038780A000000FFDF000066
:10DBD00010B5FFF745F86420FEF777FD10BD000093
:10DBE00010B5084A1278012A0AD109040A18054911
:10DBF000054C891C08888300401CE250C0B2088094
:10DC000010BD0000183F00200040002070B50F48F4
:10DC10000D4B0F4D048813E0DA691207120F042A26
:10DC20000ED88A00AA581604360E1E60D6B21E60A0
:10DC3000160E1E601202120E1A60491CC9B24180F3
:10DC40004188A142E8D170BD004001401A3F002048
:10DC5000004000200549044BCB224B6188610448F9
:10DC60000861CA607047000066FF4C000040014038
:10DC7000FFFF000010B50023054A06E0D469240721
:10DC800003D104781460401C5B1C8B42F6D310BD9A
:10DC90000040014013B569460F4809880180694674
:10DCA000897881706946C978C170694609790171BE
:10DCB0006946497941716946897981716946C979AD
:10DCC000C1711030FEF71CFF034A01990832009819
:10DCD000FEF7B4FE1CBD0000003F002009490848C3
:10DCE00008600A48084A0260094A42600A48094A2C
:10DCF00042600A4A82600A4AC2600A484860704725
:10DD000075DB0200303E002039D70200283E00209B
:10DD100059D70200A5D90200383E0020D5D802000C
:10DD200099D60200E1DB0200F0B50F4B0D4C9C616F
:10DD300000250E4E10E00124240404435C600124FD
:10DD40001C600024DF68FF0602D4641CB442F9D3CF
:10DD50001C69401C10C26D1C8D42ECD300209861E0
:10DD6000F0BD00000704062000400040400D030005
:10DD700014491348C8601548134981601449C160AB
:10DD80001449016114494161144981611449C16117
:10DD90001449016214494162144981621449C16203
:10DDA000144981631449C1631449016414494164ED
:10DDB000144981641449C164144901657047000025
:10DDC000B9B30200B000002005B00200300000200E
:10DDD0001DBA020091B7020009B8020099B2020010
:10DDE00019B3020005B0020029B5020061B50200B6
:10DDF0007DBA020079B8020005B9020091B90200AB
:10DE00001DB3020051B3020085B3020005B0020049
:10DE100001490220C86070470080014010B5406889
:10DE20000078002801D0012801D1FDF735FE00203F
:10DE300010BD08B50120694608704870232088701D
:10DE4000684600F03BF9002008BD000003498988BE
:10DE5000814201D102207047002070472E3F0020F0
:10DE60007CB50022174B18491046D4F775FA0028E4
:10DE700025D000241449FF23009405332246891C31
:10DE800020460194D4F734FA002818D00D4D0E49DD
:10DE9000AD1F2880FF23002200941133491C104637
:10DEA0000194D4F725FA002809D06880D4F735FA10
:10DEB000002804D0A880D4F735FA00207CBD0120CA
:10DEC0007CBD0000343F0020D0FF000070B54068EA
:10DED000002401783F4E86B0002907D00225012991
:10DEE00015D0022926D0032972D13CE0684604707F
:10DEF00003214170847071880A0AC270017100F0B8
:10DF0000DDF87088401C7080022006B070BD684645
:10DF100004704570012181703178C17000F0CEF835
:10DF20003078401E0006000E307001D16420307041
:10DF30000120EAE703A8FEF7CBFD6846047008213C
:10DF40004170857081890A0AC2700171817B4171BB
:10DF5000C17B8171017CC171417C0172817C417204
:10DF600000F0ACF834E041787D230279DB005943BE
:10DF70005318817864225143C2780A246243891875
:10DF80005A1869460A804179827961438A1869463C
:10DF90008A70C179027A61438A186946CA70417AE7
:10DFA0000A225143827A8A1869460A71C17A0A2282
:10DFB0005143027B8A1869464A71417B0A22807B61
:10DFC000514308186946887101990098FFF762FE6D
:10DFD00000209AE7443F002038B544681348407950
:10DFE000002802D01148E6F75CFD2078002804D014
:10DFF000012809D0022817D106E01020FEF796FD6F
:10E000000A48E6F74EFD0FE01020FEF723FE084A0F
:10E0100000210648E6F726FD00207D2203460090F9
:10E02000D2000248E6F7B8FD002038BD8044002049
:10E0300045D7020010B504464078012811D00428C5
:10E040000FD1A17815A0FDF75BFDA0780300D4F7F0
:10E05000B1FA0805090D1115191D21082046FFF711
:10E0600035FF10BD2046FFF723FB10BD2046FDF70E
:10E07000F1FA10BD204600F051F810BD2046FFF720
:10E08000D8FE10BD2046FFF7A7FF10BD2046FFF7C2
:10E09000C5FE10BD2046FFF79BFC10BD57524953EB
:10E0A0005442414E442072656365697665206D7304
:10E0B0006720747970653A25640A000070B50446DB
:10E0C0000B4885880B48854201D1002070BD6278DD
:10E0D00021460948921CFCF7C3FF627800230649D9
:10E0E0002846921CD4F762F96078801CC0B270BDDB
:10E0F0002E3F0020FFFF00000044002006498988D1
:10E10000814207D1002A05D00348801E0078107094
:10E1100002207047002070472E3F002000B585B0D8
:10E120004068032269460A7008224A7001784278E2
:10E1300009028A1869468A8182788A73C278CA730A
:10E1400002790A7442794A74807988745A20C874B2
:10E1500000A8082203A90230FCF782FF0499039863
:10E16000FFF798FD6846FFF7A9FF6946487805B0B4
:10E17000801C00BDF8B51449069E8A881C46824260
:10E1800003D11878891E087017E00988814214D1DC
:10E19000142E01D90DA013E015480068E3F774FBB5
:10E1A00005000CD0B21EA11CFCF75AFF0095637845
:10E1B000227804210620FEF759F90020F8BD0DA0B1
:10E1C000FDF79EFCF9E700002E3F0020777269738F
:10E1D0007462616E64206D7367206D6F7265207468
:10E1E00068616E2032302062797465730A00000025
:10E1F000503F0020777269737462616E64206D61B4
:10E200006C6C6F632064617461206D656D657279FB
:10E21000206661696C65640A0000000010B5044660
:10E2200080070CD164212046FCF7F0FE002908D1BC
:10E23000FF2191312046FCF7E9FE002901D00020A2
:10E2400010BD012010BD00000DC202000000000042
:10E2500001000000000600000A00000008000000A5
:10E26000984400200A00000014000000F44400203C
:10E27000777269737462616E642064657669636540
:10E280000000000061026F02720273027C028602CB
:10E2900092029702820279027602760273026F027C
:10E2A0006D02710276027902780279027E028C0296
:10E2B0008E028E028F0293029702980291029002C0
:10E2C00092029902990296029302960299029A0288
:10E2D00091028D028D028C027B0263023B022E02B0
:10E2E00024020D020002F701F201EE01E901E20150
:10E2F000D401D001CC01BC01B001A5019E01940163
:10E300008A017E01680161015B0148013B01300126
:10E310002901200119010F01FF00F800E700BB00EF
:10E32000A70096008B0083007E0077006F007000CE
:10E33000730076007700780085008E0093009700C8
:10E34000A000A900B300C100C400C900DD00E800BE
:10E35000F000F60000010901140123012601260145
:10E36000120109010001F700EC00ED00F200F800D5
:10E37000F800F90007011001150116011B01230126
:10E380002D013C0140014401560160016601690113
:10E390006C01710176017B017B017D018901910195
:10E3A00092017001600156014F01420139013401AF
:10E3B000350139013B013C013F0144014C0156014B
:10E3C0005601570164016D0174017D0183018D01C6
:10E3D0009801A801AC01B001BF01C801CE01D00174
:10E3E000CB01BE01B2019D01920189018601870125
:10E3F00086017F017D017F018601870185018401FE
:10E400008D01940198019B019E01A401B501BA01FF
:10E41000BD01C001CE01D601DC01E001E301E9014B
:10E42000F901F901EB01DC01CF01CE01CB01C20101
:10E43000BF01C201CB01CB01C701C301C501C901A5
:10E44000CB01C901C801CB01D301D501D401D6014B
:10E45000DB01E101E501E401E501EA01F801FC016C
:10E46000FC01E601DA01D301CC01BA01B501B50125
:10E47000BB01BB01B901B801BD01C301C701C9019D
:10E48000CC01D201E401E901EC01F501FE01090230
:10E49000120219021E02240235023A023C02430211
:10E4A0004B0254024E023F0234022F0230022F026E
:10E4B0002D022D0233023A02430245024902500264
:10E4C00061026602660269026F02750279027702D2
:10E4D000750276027A027A02770271027102710283
:10E4E00069026102580252024C023F022502F50104
:10E4F000E701DD01CA01BF01B601B001B101AF0101
:10E50000AA01A601AB01B201BE01C101C501D7013B
:10E51000E001E501E701EC01F301FC01060207025D
:10E520000B021902200226022702290220021402ED
:10E53000FB01EE01E401DD01DE01DD01D901D601BF
:10E54000DB01E301EF01F201F50103020D0212020A
:10E550001202130217021D02220220021E022102D1
:10E5600025022602210221022402280211020002B1
:10E57000F401E701E601E501DF01DE01E001E5016B
:10E58000E801E501E201E601EB01ED01E901E70146
:10E59000E801EC01F001EE01ED01F401FA01FD01E9
:10E5A000FA01FA01FD01020206020302FF01E6017F
:10E5B000D701C701A50199019101890183017C015E
:10E5C000760175017701780171016F0170017501A4
:10E5D000740170016B0169016C016E0169016801D0
:10E5E0006A017201730170016E0171017601780197
:10E5F00073016C015D01440138012B0121011D01F2
:10E600001F0120011A0119011D012C0132013501E0
:10E610003D01460151015901600164016B017B011B
:10E620007F017F017F01820187018A0187018501C6
:10E630008701900191018F018401750166015801E4
:10E64000370128011F01170112010A01FE00FD0018
:10E65000FD00FB00F000EC00EC00F400F500F2001F
:10E66000F000F300FA00FF000201030106011201AD
:10E67000140112010E010F01120111010D0102011D
:10E68000F100D900CE00C200B100B000B200B1006C
:10E69000AE00AD00AF00BB00BE00BF00C300CA00AB
:10E6A000D300DF00E100E300E800FC000301070104
:10E6B0000E0116011F012E01320137013E014F01EB
:10E6C00048013901230120012001220122012401F6
:10E6D00031013B014201470153015E016A017D01A5
:10E6E00084018A01A101AD01B501BA01C301CB01C9
:10E6F000D401DF01E001E101EC01F401FA01FD01C7
:10E7000003020A0213020002EE01E001D301D2016A
:10E71000D001CA01C601C901D001D801D901DB016C
:10E72000EB01F501FB01FF010202080210021A02CF
:10E730001C021E0227022F02320231023102340271
:10E740003A023F023E023D023C02300222020A022D
:10E750000302010204020902080207021002160263
:10E760001B021C021C02200226022F022F022E0274
:10E7700034023A023F023F023E023F02420244029A
:10E7800041023E02400245024702340221021402C5
:10E790000302FB01F101E801E201E401E401DF0110
:10E7A000DD01DE01EA01EE01EF01F101FE010A02E5
:10E7B0001502200225022E02420248024B024D029F
:10E7C00056025D0261025F025D025D026202610249
:10E7D0005A024502200215020A02F401EC01E70187
:10E7E000EA01EA01E901E701EB01F301F801F901AE
:10E7F000F901FD010C0211021202140219021F029A
:10E800002502270228022D0238023A02380230027D
:10E810002D0221020D02E401D201C501B601AF01B2
:10E82000A6019A019A019E01A1019F019E01A101E9
:10E83000AF01B301B301B201B501B901BD01BB0123
:10E84000BC01BF01CC01D101D201D401D801DE014C
:10E85000E301E001DE01D801BD01B101A401910194
:10E860008F019001920190018F019001980199010F
:10E8700095018F01900194019901980197019A01E6
:10E88000A901B001B301B801BE01C601D301D40191
:10E89000D601D801E501E901E901CC01BD01B301CF
:10E8A000A00195018A018401840183017F017C011B
:10E8B0008101890198019C019E01AB01B501BC0158
:10E8C000C001C701CE01D901E801E901EB01F60160
:10E8D000FF01050208020D021202190223022102A1
:10E8E0001202F701F201EC01E401D601D601D801D0
:10E8F000D701D301CF01D001D201D301CA01C60192
:10E90000C501C701C701C401C001BE01BF01BE01ED
:10E91000B201AA01A601A4019D0194018B017E010F
:10E920007701630130011B010A01FE00E700DA00F4
:10E93000CD00C200C100C000B800B600B900C100DF
:10E94000D200D500D800E500EE00F500FB00FE0087
:10E95000040117011D011F0121012B0132013701A3
:10E960002B0119010C010201FE00F800F600FD0068
:10E9700005010E01160119012001330139013D0184
:10E9800040014E0158016001650166016A0177018D
:10E990007B017C017B017F018201850180017D017A
:10E9A0007B01750162014F013D012A01270124010C
:10E9B00018011201100115011701160115011901A5
:10E9C0001F01260129012A012E013F0146014C01A8
:10E9D000580162016F017A01850189019001A2014C
:10E9E000AA01AF01B101A7019E0198018601800132
:10E9F0007F0185018701870188018D0194019901BB
:10EA00009E01A001A401B301B801B901BC01C1017B
:10EA1000C901D201D201D201D401DF01E201E20138
:10EA2000E001E201E701DD01CA01BB01B101AD0175
:10EA3000AD01AA01A901AE01B501C101C401C7011F
:10EA4000CE01E201EA01EF01F501FC010502150228
:10EA5000170219021F02310239023D024102480227
:10EA600050025A025B025B024C0243023C02350236
:10EA7000280229022D023402330233023D024702EA
:10EA8000500255025D0262026A027402750275024A
:10EA90007B02810284028402800282028502890252
:10EAA00086028402860286027802660245023C02E1
:10EAB00037022F02280221021E021F021F021C021F
:10EAC0001302130217021D021D021A021F02240262
:10EAD00027022402220223022702290226022202FE
:10EAE00021022502280221021E021E021E0200022D
:10EAF000EC01DB01C401BF01BA01B001AB01AA0105
:10EB0000AD01B301B201B001B301B801BC01BA015A
:10EB1000B901BA01BE01C401C301C101C401C901E7
:10EB2000CC01C801C601C501CC01CD01C701B501A9
:10EB300094018B01840173016C0168016A016C010D
:10EB40006A01670168016D01710171017001720153
:10EB50007D017F017E017B017E01820185018301B0
:10EB6000820183018D018F018C018401770169018C
:10EB70005E01440139013301310131012F012C01C2
:10EB8000300135013B014001420148015B01620156
:10EB900066016A0172017D0187018E018F01920178
:10EBA0009F01A401A501A701AC01B201AD018D0136
:10EBB00080017701730172016E01660166016801CF
:10EBC0006A016701640164016E01710172017201E1
:10EBD00077017F0186018B018D019201A101A601C0
:10EBE000A701A701AC01B301BD01BC01AE019F01AA
:10EBF00091018C018501780177017A0182018201FE
:10EC000081018401930198019B019D01A201AA0148
:10EC1000B501B401B401B601C201C801CA01CC01F9
:10EC2000D101D801E101E101E101E201E701DA01ED
:10EC3000C801AA01A301A1019F019B0198019E01A6
:10EC4000A701AE01B201B801C001CA01DC01E001B7
:10EC5000E201ED01F601FE0102020B0214021E02A6
:10EC600031023502380246025002570257023C0276
:10EC7000340231022D02290226022C02330238020C
:10EC80003B023F0244024D025C025E025D026102F1
:10EC900066026A026902670267026B026E0269021B
:10ECA00065026202650266025C024F023A022902B4
:10ECB0000B02F801E601CB01C301BB01A4019901DC
:10ECC00091018D01890183017D017A017B017B0125
:10ECD0006F01670161015F015801510147013B016B
:10ECE00038013601280121011D011201ED00DA0071
:10ECF000C700AF00A900A4009800940093009C00F6
:10ED0000A100A200A200A600AC00B100B300B200B6
:10ED1000B500C100C500C500C500CB00D200D700BA
:10ED2000D800D700DB00EB00F200F600F90002018A
:10ED3000FD00F000D300C700C000C100C300C30045
:10ED4000C200C900D200DC00E900EF00F7001201A8
:10ED50001E0126013701430151015D0169016D0169
:10ED600074018B0196019D01A501AD01B801C2019D
:10ED7000CB01C801BC01AB01A5019E019301930128
:10ED800097019E01A601A901AF01C201CB01D201E9
:10ED9000DB01E201EC01F401FA01FA01FD010802D4
:10EDA0000D020D0208020B021102170216021402D4
:10EDB0001502210228022B021E0211020A0202027F
:10EDC000FD01F901F90104020B020F0214021B02FA
:10EDD00024023302350235023702440249024D0251
:10EDE0004F02520257026002610260026202710227
:10EDF000760277027402740277025E024B023902D5
:10EE000024021E0219021102FE01F901F801F601A5
:10EE1000F101EC01EA01EE01F201F201EE01F00173
:10EE2000F50100020102030212021B022302270263
:10EE30002A022F0235024102410240022A021F0229
:10EE400016020D02FC01F901FA010002FF01FE01A8
:10EE500003020B02120216021C0224022F024602B7
:10EE60004D02520262026D0276027D027E02800233
:10EE700086029202930292029A02A102A802AB02B7
:10EE8000A302940289027A026F0265025A025B02AF
:10EE90005C0257025402540257025E025C0258029E
:10EEA00056025702590251024B02470247024702DB
:10EEB00042023C02330232023102210217020F02E7
:10EEC000E901D401BE01A9018D018601810174010E
:10EED0006E016B01710174017301710173017B019A
:10EEE00082018A018B018F01A001A701AC01AE0153
:10EEF000B301B901C001C201C201C301CF01D201F6
:10EF0000D201CE01B201A40199018001730169010E
:10EF10006501640161015A015C01610168017101CF
:10EF200075017D019801A401AB01B201B801BF01D7
:10EF3000C601CA01C901CA01D401D801D901D7014A
:10EF4000D901DE01E301E401E101D401BC01B40116
:10EF5000AA01950190018E018F018A018601850128
:10EF60008A018E018D018A018E0194019A019E0110
:10EF70009D019E01A701AB01AB01A701A801AD0155
:10EF8000B401B101AD01AA01AB01AA01A7018B0136
:10EF900077016901540148013D0136013401340112
:10EFA00032012E012F0133013D013E013E013F019F
:10EFB0004C01530156015C0163016C017D0180012C
:10EFC0008101850194019B019E019E019F01A30186
:10EFD000AA01AA01A50187017D0175016C015601F5
:10EFE00051015001510150014E01500156015A0189
:10EFF0005B0159015A015F016701670166016A01FE
:10F00000710178017A017601760179017E017A0138
:10F0100074016A01680166015F0133011D010E017F
:10F02000F600E900DC00CB00C900C700BC00B60058
:10F03000B400B500B900B800B500B500B900BE0015
:10F04000BE00BD00BF00C400D200D400D400DA006E
:10F05000E200EA00F100F300F800FF000C010B01F0
:10F06000FC00E100DB00D800D000CB00CA00CE00DD
:10F07000DA00DE00E100ED00F700030114011A01DF
:10F0800022012C01420149014F015D016801730118
:10F09000800184018B019F01A701AB01AD01A80193
:10F0A0009E01960184017C0178017E01820182012A
:10F0B0008201890192019B01A501A801AD01C10155
:10F0C000CB01D101D501DF01E701F101F901FB011C
:10F0D000FF010E021302150212021102140218029D
:10F0E0000F02F901E801D701D201CD01C501C60126
:10F0F000CB01D101D801D901DD01F001FA010202F1
:10F1000012021C022902360247024B025002600220
:10F1100068026D02700274027B0283028A028A0214
:10F120008C027C0270026202480240023D023B02F5
:10F1300033022E022B02300233023502350237022F
:10F140003D0249024A024C024F025D02640268021B
:10F150006B026F02760281028202810281028902C1
:10F16000840273025302480242023B0234022D021F
:10F1700029022C022F0230022B022E0233023F0200
:10F1800041024202450255025F0266026C027102B0
:10F190007702810281027F027E028402860285025A
:10F1A000770272026D02490233021E020102FA0165
:10F1B000F501EE01DC01D701D601D701D201CC0166
:10F1C000C601C801CA01CA01C301C201C601D101F9
:10F1D000D201D101D401DB01E201E501E201E30149
:10F1E000E701F101F201EF01D101C401BA01B1015E
:10F1F0009B019501920191018E01890188018D0188
:10F2000092019501940195019901A501A701A7011A
:10F21000AC01B401BB01BF01BF01C001C501CE01FA
:10F22000CD01C9010D0A2A2A2A2A2A2A2A2A2A2A8B
:10F230002A2A2A2A2A2A2A2A2A2A2A2A2A6865617E
:10F2400072746465616C6C6F6F702A2A2A2A2A2A8C
:10F250002A2A2A2A2A2A2A2A2A2A2A2A2A2A2A2A0E
:10F260002A200D0A2000000088F20200003F002042
:10F270000001000020BB020088F3020000400020D3
:10F280005418000030BB0200000000000000000025
:10F29000000000000000000000000000000000006E
:10F2A000000000000000000000000000012000023B
:10F2B0002000040500000000000000004DDE0200F8
:10F2C000FDE0020075E102000000000064000000A3
:10F2D0000000000000000000000000000005000029
:10F2E0000000000012096D7864626C652D77726908
:10F2F000737462616E6400000201050319C00005A9
:10F3000002F0FF0D180000000000000000000000E7
:10F3100000000000000000000000000000000000ED
:10F3200000000000000000000000000000000000DD
:10F3300000000000000000000000000000000000CD
:10F3400000000000000000000000000000000000BD
:10F3500000000000000000000000000000000000AD
:10F36000FF0000000000000000000000000000009E
:10F37000000000000000000000000000000000008D
:08F38000000000000000000085
:040000050002B00144
:00000001FF
