:020000040002F8
:10AFF0004B2A000002000A000000000000000000D0
:10B0000001488047FEE770477DB2020030B50B462D
:10B01000014600202022012409E00D46D5409D4232
:10B0200005D31D469540491B2546954040191546B8
:10B03000521E002DF1DC30BD70B5002425460028DD
:10B0400001DA01244042002901DA01254942FFF7D3
:10B05000DDFFAC4200D04042002C00D0494270BD20
:10B0600003460B439B0703D009E008C9121F08C021
:10B07000042AFAD203E00B780370401C491C521ECC
:10B08000F9D27047D2B201E00270401C491EFBD2D7
:10B0900070470022F6E710B513460A4604461946E3
:10B0A000FFF7F0FF204610BD0321001D401E03786E
:10B0B00012021A43491EF9D51046704710B5202ACE
:10B0C00004DB0146203A9140002010BD914020232E
:10B0D0009C1A0346E3401943904010BD10B5202A46
:10B0E00004DB0846203AD040002110BD0B46D34077
:10B0F000D0402024A21A91400843194610BD0000F8
:10B1000010B50C4801F0E1FA02F05CFC02F00CFC16
:10B1100001F046F801F0B2F801F0CCF901F008F9BD
:10B1200001F0CEFE01F0CCF9E6F79CFCE6F7C4FC9A
:10B1300010BD000080841E00F0B51FB4064600203C
:10B1400082B005464024019100901BE001992246FF
:10B150000F463046FFF7C2FF049A059B801A9941BB
:10B1600010D3104619462246FFF7A8FF361A8F4122
:10B170000197224601200021009FFFF79FFF38180A
:10B180004D4100902046641E0028DFDC019B0098A2
:10B190002946324607B0F0BD064C0125064E05E0B3
:10B1A000E36807CC2B430C3C98471034B442F7D3E8
:10B1B00000F068F87CE302009CE3020001B00200AA
:10B1C000000000000000000000000000000000007F
:10B1D000000000000000000000000000000000006F
:10B1E000000000000000000000000000000000005F
:10B1F000000000000000000000000000000000004F
:10B200000000000005B002001DBA020091B7020064
:10B2100009B8020099B2020019B3020005B0020099
:10B2200029B5020061B502007DBA020000000000ED
:10B230000000000079B8020005B9020091B90200CF
:10B240001DB3020051B3020085B3020005B0020035
:10B2500000000000000000000000000000000000EE
:10B2600000000000000000000000000000000000DE
:10B2700000000000000000000000000003488546B8
:10B28000FFF78AFF0048004765D8020000800020D1
:10B2900040BA7047C0BA704770B51D4D2E686868D7
:10B2A0001C4C0640F00606D01F20A86061680029EB
:10B2B00001D030408847B005C10E07D01F21490199
:10B2C000A960A168002901D0C00E88477004C10E92
:10B2D00007D01F218902A960E168002901D0C00EB2
:10B2E00088473003C10E07D01F21C903A960216917
:10B2F000002901D0C00E8847F001C10E07D01F21E0
:10B300000905A9606169002901D0C00E884770BD98
:10B31000002000406C4F00207047000070B5094DC0
:10B320002C68E86A044068680440074801680029FE
:10B3300001D020468847AC600120044940040860E1
:10B3400070BD000000100040904E002080E200E040
:10B3500070B5094D2C68286B0440686804400748A4
:10B360004168002901D020468847AC60012004498B
:10B370008004086070BD000000100040904E002066
:10B3800080E200E070B5094D2C68686B0440686885
:10B39000044007488168002901D020468847AC60F6
:10B3A00001200449C004086070BD00000010004086
:10B3B000904E002080E200E08EB0FF206A460D2112
:10B3C000813002F00BFD1CA000F09AFB1FA0009939
:10B3D00000F096FB22A0019900F092FB25A00299B3
:10B3E00000F08EFB28A0039900F08AFB2BA00499A3
:10B3F00000F086FB2EA0059900F082FB31A0069993
:10B4000000F07EFB34A0079900F07AFB37A0089982
:10B4100000F076FB35A0099900F072FB24A00A9990
:10B4200000F06EFB36A00B9900F06AFB39A00C9976
:10B4300000F066FBFEE700006861726420666175DB
:10B440006C74206F63637572730A000052303A2087
:10B4500020202020203078253038780A0000000095
:10B4600052313A2020202020203078253038780AA8
:10B470000000000052323A20202020202030782581
:10B480003038780A0000000052333A202020202073
:10B49000203078253038780A000000005231323AE6
:10B4A00020202020203078253038780A0000000045
:10B4B0004C523A2020202020203078253038780A3D
:10B4C000000000004558435F5245543A203078252B
:10B4D0003038780A00000000785053523A2020207B
:10B4E000203078253038780A0000000053505F4F34
:10B4F0004C443A20203078253038780A000000008B
:10B500004552525F545950453A3078253038780AC0
:10B510000000000053503A202020202020307825C1
:10B520003038780A0000000010B50A48807B0028F7
:10B5300002D001F0DFFE08E001F0D0FD064881688E
:10B54000C26811400905090D01610120034940024B
:10B55000086010BD944F00200010014080E200E020
:10B5600010B50A48807B002802D002F09BF808E062
:10B5700001F088FF06488168C26811400905090D7D
:10B580000161012003498002086010BDAC4F00201A
:10B590000020014080E200E010B50124E4042046D0
:10B5A00001F006FB2548E8F7B7F9204601F094FBC7
:10B5B000AE2000F04BFAD52000F048FA802000F0D1
:10B5C00045FAA82000F042FA1F2000F03FFAD320ED
:10B5D00000F03CFA002000F039FA402000F036FA82
:10B5E0008D2000F033FA142000F030FAA12000F092
:10B5F0002DFAC82000F02AFADA2000F027FA0220FB
:10B6000000F024FA812000F021FA682000F01EFAF0
:10B61000D92000F01BFAF12000F018FADB2000F02E
:10B6200015FA402000F012FAA42000F00FFAA6202C
:10B6300000F00CFAAF2000F009FA10BDB80B0000C2
:10B6400010B500F0F5F8012010BD10B500F006F9B6
:10B65000012010BD08B50021009140680178012942
:10B6600002D002290DD010E000A940780231FFF786
:10B67000E7FF0221684601700121417002F078FD68
:10B6800003E0C1788078FFF7E0FF022008BD0000EA
:10B69000C106C90E012088400149086070470000BA
:10B6A00080E200E0C106C90E01208840014908601F
:10B6B0007047000000E100E08307FF22DB0E9A40A4
:10B6C0008907090E994000280BDA0007000F083897
:10B6D000830808489B001818C36993430B43C36150
:10B6E0007047830804489B001B1818689043084360
:10B6F0001860704700ED00E000E400E08307FF22DF
:10B70000DB0E9A408907090E994000280BDA0007E2
:10B71000000F0838830808489B001818C369934332
:10B720000B43C3617047830804489B001B181868CB
:10B73000904308431860704700ED00E000E400E02B
:10B74000F8B5114C074640072668800F0BD0002E35
:10B7500009D0E588A1882846FFF758FC0B48715CA2
:10B7600001606D1CE580292007420CD0002E0AD014
:10B77000A189E089FFF74AFC0448A2684068505458
:10B78000E089401CE081F8BD844F002000A001400A
:10B7900010B5074CE068A1680840FFF7D1FFE068EA
:10B7A000A1680840206103491020086010BD000016
:10B7B0000090014080E200E0F8B5114C07464007D8
:10B7C0002668800F0BD0002E09D0E588A188284676
:10B7D000FFF71CFC0B48715C01606D1CE5802920A3
:10B7E00007420CD0002E0AD0A189E089FFF70EFC99
:10B7F0000448A26840685054E089401CE081F8BDCC
:10B80000844F002000A0014010B5074CE068A168FB
:10B810000840FFF7D1FFE068A168084020610349B4
:10B820002020086010BD000000A0014080E200E080
:10B830001CB50C4600210091019180210843694606
:10B8400008705520487001AA034802F04CF9694677
:10B850004879207001201CBD0202000008B50022BA
:10B8600040060092400E6A461070517069460220F0
:10B8700002F02AF908BD000070B51F4E75681E4819
:10B8800040308068054030681C4C0540A80703D054
:10B890002068002800D080472807800F03D0606808
:10B8A000002800D08047A806800F03D0A068002899
:10B8B00000D080472806800F03D0E068002800D021
:10B8C0008047A805800F03D02069002800D080475A
:10B8D0002805800F03D06069002800D08047A804A5
:10B8E000800F03D0A069002800D08047B5600120F8
:10B8F00003498003086070BD00500140FC4E0020E9
:10B9000080E200E070B51F4E75681E484030C06888
:10B91000054030681C4C0540A80703D0206800286B
:10B9200000D080472807800F03D06068002800D02F
:10B930008047A806800F03D0A068002800D0804769
:10B940002806800F03D0E068002800D08047A805B3
:10B95000800F03D02069002800D080472805800F81
:10B9600003D06069002800D08047A804800F03D06E
:10B97000A069002800D08047B56001200349C003BA
:10B98000086070BD00500140FC4E002080E200E0E5
:10B9900070B51F4E75681E4840300069054030681C
:10B9A0001C4C0540A80703D02068002800D0804721
:10B9B0002807800F03D06068002800D08047A806C1
:10B9C000800F03D0A068002800D080472806800F91
:10B9D00003D0E068002800D08047A805800F03D07E
:10B9E0002069002800D080472805800F03D06069B7
:10B9F000002800D08047A804800F03D0A069002849
:10BA000000D08047B560012003490004086070BD84
:10BA100000500140FC4E002080E200E009488168AF
:10BA2000C2681140C905C90D4822114203D0402205
:10BA3000026108220261C80602D50349102008618C
:10BA400070470000004001400030014010B504493B
:10BA50003C23087000220121014801F0A5FC10BD23
:10BA6000413F002010B504493C23087040220121C9
:10BA7000014801F099FC10BD413F002004490348F2
:10BA80000861C8140349086070470000FFFFFF0009
:10BA90000010024080E200E070B5174C0546606877
:10BAA000002810D0A16800290DD0E16800290AD033
:10BAB0001B2101F0A1F81D21A06801F09DF81C21B7
:10BAC000E06801F099F80D490120002D0BD0012DFF
:10BAD00008D14A69920892004A614A6902231A43CE
:10BAE0004A61886170BD4A69920892004A61886122
:10BAF0004A690243F4E70000B83F0020001002400A
:10BB00000FB410B503A9044B044A029800F018F8CA
:10BB100010BC08BC04B01847D5C60200DC3F0020AA
:10BB200002E008C8121F08C1002AFAD17047704706
:10BB3000002001E001C1121F002AFBD17047000064
:10BB4000FFB591B00F460546002606E025280AD02D
:10BB5000149A139990476D1C761C28780028F5D10B
:10BB6000304615B0F0BD002400940121F34A029440
:10BB700000E004436D1C2B780846203B984010429F
:10BB8000F7D128782A280ED0022128780246303AA8
:10BB9000092A15D8009A0A235A43303A80180C43D0
:10BBA0006D1C0090F1E701CF0090002805DA01201C
:10BBB00040030443009840420090022004436D1C5F
:10BBC00028782E2815D10420044368786D1C2A2873
:10BBD0000AD101CF6D1C02900BE002990A22514359
:10BBE000303940186D1C02902878014630390929F7
:10BBF000F3D928786C2810D006DC4C281AD0682895
:10BC00000ED06A2817D104E0742813D07A2812D1F4
:10BC100010E00120400504430CE00121090501E08A
:10BC2000032109050C436978814203D101200005F5
:10BC300024186D1C6D1C287803906E281ED00CDC17
:10BC4000632831D004DC00288AD0582811D1B2E012
:10BC500064287BD069280CD178E073282DD004DCCF
:10BC60006F2870D0702804D1A7E075286CD0782890
:10BC70006BD0149A13999047761C62E06002400FD3
:10BC8000022807D003280AD0042838680AD00660A2
:10BC90003F1D56E03868F11706604160F8E73868E4
:10BCA0000680F5E70670F3E73878694608740020E7
:10BCB000487404A80390012003E038680390002032
:10BCC000C0433F1D61070FD5002101E00199491CC8
:10BCD000029A0191914213DA8142F7DB019A0399AA
:10BCE000895C0029F2D10BE0002101E00199491C97
:10BCF00001918142FADB019A0399895C0029F5D10F
:10BD000001990098139A401A00902146149B00F064
:10BD10003BF901998019461807E0039803990078C8
:10BD2000491C0391149A139990470198401E019061
:10BD3000401CF2D12146149B139A009800F014F98C
:10BD400086196D1C09E741E033E034E00A20002148
:10BD5000049005916002410F022905D001CFC2175E
:10BD60009446032905D007E0FF1DFF08FF0003CF1D
:10BD700006E000B2C2179446042902D140B2C117AE
:10BD80008C4600226146944506DA0A46002140426C
:10BD900091418C462D2102E0210504D52B216A46D4
:10BDA0001176012103E0E10701D02021F7E701919D
:10BDB00054E00A200BE0102009E01020049000213C
:10BDC0000420044308200591029003E0082000218C
:10BDD000059104906002410F022905D001CF002295
:10BDE0009446032906D006E0FF1DFF08FF0003CF9D
:10BDF0008C4603E080B2042900D1C0B20021019139
:10BE000021072BD50399702906D0049A1021059B90
:10BE10004A401A4305D00EE040216A4611760121BE
:10BE200008E06146014306D030216A461176039945
:10BE3000517602210191049A0821059B4A401A4338
:10BE40000CD16146014301D1610707D530216A4613
:10BE50001176012101910299491E029103995829F5
:10BE600004D037A103910FA90F910DE039A1F9E793
:10BE70006146059B049AFFF75FF9039B8C469B5C28
:10BE80000F9A521E0F92137061460143F0D10F9822
:10BE900007A9081A20300390600704D50120000488
:10BEA0008443029801E0012002900399884201DD59
:10BEB000401A00E0002041180290019809180098EB
:10BEC000401A0090E00306D42146149B139A009870
:10BED00000F05AF886190020049008E006A9085CD2
:10BEE000149A139990470498401C761C0490019969
:10BEF0008842F3DBE0030CD52146149B139A00988B
:10BF000000F042F8861904E0149A30201399904703
:10BF1000761C0299481E02900029F5DC08E00F9873
:10BF20000F990078491C0F91149A13999047761C29
:10BF30000399481E03900029F1DCFBE60928010063
:10BF4000303132333435363738396162636465668F
:10BF50000000000030313233343536373839414251
:10BF60004344454600000000F8B5044600251E463F
:10BF70001746880404D405E039462020B0476D1CDC
:10BF8000641EF9D52846F8BDFFB50446002581B0EA
:10BF90001E46C80301D5302700E02027880404D5B9
:10BFA00005E038460399B0476D1C641EF9D5284654
:10BFB00005B0F0BD10B5074A00214B009C186488FD
:10BFC000491CD4521F29F8DBD0872021014800F0FA
:10BFD00093FB10BDE045002010B518494A690723BE
:10BFE000DB039A431A434A618B690122120513430A
:10BFF0008B61CB699343CB61CB691343CB61104910
:10C000000024002818D04000401C8861FF200D4A01
:10C010000121043001F0E2FE0A480188C905C90D7A
:10C02000CA1FFF3A0180F93A04D0FF220132511AA7
:10C03000018010BD048010BD8C61E7E700B00140B5
:10C0400000700140D83F002000B5104900238969E5
:10C05000C90201D4002000BD89210D4A0843906027
:10C06000C82000F0F1FAD068D0687D200001D168C6
:10C07000002902DB5B1C8342F9D3D0680549000428
:10C080000988800D401880B200BD000000B001405A
:10C0900000700140D83F002010B501204003FFF799
:10C0A000D3FF0446014605A0FFF72AFD044A054BCD
:10C0B000D16848001C52491CD16010BD25642C0079
:10C0C000803F00204046002010B50446002906D0DD
:10C0D00008A0FFF715FD10490120087010BD0FA042
:10C0E000FFF70EFD2046D6F709FB0121204600F0A0
:10C0F00024F810BD0A3C3C616E6373207365727650
:10C1000069636520686173206265656420666F7588
:10C110006E643E3E0A000000543F00200A3C3C6E24
:10C120006F20616E63732073657276696365206644
:10C130006F756E643E3E0A00704710B5D6F732FB4D
:10C1400010BD10B5D6F7DAFA10BD10B5D6F752FC0F
:10C1500010BD10B5052101F07AFB00F017F810BDF5
:10C1600010B508480178002908D14178002905D088
:10C17000491E41708078D6F7F7FA10BD0248E8F7FB
:10C1800061FD10BD543F0020A845002010B50246B7
:10C190000E210248D6F750FC10BD00001E3F0020C3
:10C1A00010B50220FFF774FA03210220FFF784FA8A
:10C1B0000220FFF777FA0920FFF76AFA0321092026
:10C1C000FFF77AFA0920FFF76DFA0A20FFF760FA05
:10C1D00003210A20FFF770FA0A20FFF763FA06200E
:10C1E000FFF756FA00210620FFF766FA0620FFF750
:10C1F00059FA0720FFF74CFA00210720FFF75CFAF5
:10C200000720FFF74FFA10BD0026184D184CF643D3
:10C2100031462868E5F7D8FA0028F9D00828F7D081
:10C220001028F5D108780F4603280FD00628EFD143
:10C23000084601F059FF7968002902D0A068E5F7A7
:10C240006BFB39466068E5F767FBE1E7084600F0FD
:10C2500095F87968002903D006480068E5F75CFB8B
:10C26000002FD5D0044839460068ECE7840200204E
:10C27000483F0020900200208C02002010B50B489F
:10C28000E5F730FB0A4C606008480C30E5F72AFB04
:10C29000A060064800211038E5F7BEFB20600028AA
:10C2A00002D104A0FFF72CFC10BD00000CE302003B
:10C2B000483F00200A617070207461736B206372C4
:10C2C00065617465206661696C0A00001CB513A184
:10C2D00003C901910090134C6420208060800622E5
:10C2E0006946E01DFEF7BCFE00206071A071207160
:10C2F00007216173A0730D2121740B496161142121
:10C300002176094920221439E16108490A804A80CE
:10C3100001220A7148718871C8711CBDAACD4433CD
:10C3200022110000F03A0020703F0020E83A00207F
:10C3300000B585B014220D496846FEF791FE0C4801
:10C34000002101704170D8F7F7FBFFF7BFFF684687
:10C35000D8F7D8FA0120D8F781FAD8F73DFA054A7C
:10C3600001210548E8F77EFB05B000BD24E302008B
:10C37000573F002061C10200A8450020F8B50446DF
:10C38000407832284FD016DC002501222949172891
:10C390002CD011DC05280ED0CE1E14281CD0152858
:10C3A00009D10D704D703570D5F7A0FFD8F714FA8C
:10C3B00021A0FFF7A5FBF8BD182823D0302823D0F3
:10C3C0003128F8D161680029F5D0E078C91CC01E79
:10C3D000C0B2FFF7B1FEF8BD0A70A078FFF7B1FE5A
:10C3E000A078B070D8F740FB18A0E2E74A70A078B8
:10C3F0000121FFF7A2FE1A4A00231A480095E8F728
:10C40000CBFBF8BD4D70F8BD60680028FBD001780B
:10C410000029F8D00129F6D10020FFF755FE0120B0
:10C42000FFF793FEF8BD60680028FBD0FFF791FE90
:10C43000F8BD0000573F0020626C652069732064DE
:10C440006973636F6E65637465640A00626C65206E
:10C45000697320636F6E65637465640A0000000091
:10C46000B80B0000A8450020F8B507460F481C4649
:10C4700015460E460068E5F707FA011E0C480BD07A
:10C480000F704E708D70CC70069A4A60EFF3058283
:10C49000002A03D0002203E00220F8BD0022D2438C
:10C4A0000068E5F79FF90020F8BD00004C3F002030
:10C4B0008402002010B501F02DFD01F027FA10BD17
:10C4C00010B50021082000F0AFFB0720FFF784FD26
:10C4D00001220021500500F0D3FB012000F0BAFD3D
:10C4E00000F0C4FC10BD0000FFB5044646A207CA18
:10C4F00085B06D4607C547491846FEF787FD87B2E8
:10C5000008463C21FEF782FD05466846807F0818F4
:10C51000C0B23C21FEF77AFD064603913C21284635
:10C52000FEF774FD05466846407F711808180399A8
:10C53000A171C0B23C21FEF769FD064603913C2182
:10C540002846FEF763FD6846007F711808180399B6
:10C550006171C0B21821FEF759FD02466846C07EDF
:10C5600000251018E07021716846807EA070684632
:10C57000008B208001F0ACFE1D26002801D068460B
:10C580004670A0786946401EA84204D94A5DD21977
:10C5900097B26D1CF8E7E0787F1EC01985B20120C4
:10C5A000E070FF27A0706E370CE001F091FE0028CC
:10C5B00002D0FF3D6F3D01E0FF3D6E3D2088ADB2F2
:10C5C000401C20802088BD42EFD801F081FE124936
:10C5D0000028694402D0684646700EE0BD4204D18E
:10C5E0002088401C208009B0F0BD1C206A46507095
:10C5F00003E0AA1A401C95B2A070A078425CAA423F
:10C60000F7D96D1CE570EEE71F1C1F1E1F1E1F1FB4
:10C610001E1F1E1F80510100FFFFFFFF1CB50548B4
:10C620006946088001208870C8700021009801F0D8
:10C630008BFB1CBDB20700008108002001E000BF99
:10C64000401C8842FBD3704700B50001FFF7F4FFA0
:10C6500000BD70B500242046B030C0B2FFF7F6F937
:10C660000020FFF7F3F91020FFF7F0F90025002074
:10C67000FFF7F8F96D1CADB2802DF8D3641CA4B29D
:10C68000042CE8D370BD70B500242046B030C0B291
:10C69000FFF7DCF90020FFF7D9F91020FFF7D6F9F2
:10C6A00000255520FFF7DEF96D1CADB2802DF8D3C3
:10C6B000641CA4B2042CE8D370BD8108002001E002
:10C6C00000BF401C8842FBD3704700B50001FFF754
:10C6D000F4FF00BD13B500980A2807D10D20009083
:10C6E0000121684601F012FB0A20009001216846F2
:10C6F00001F00CFB00981CBD10B50C460021024651
:10C700000846002C05D1002010BD4B00D35A181844
:10C71000491CA142F9DB2146FEF778FCE20F121911
:10C72000521080B29142EFD9401C80B210BD00007F
:10C73000F0B5002489B02546184F18E01848A1002C
:10C740000A1852684058111A1648FEF775FC86B24E
:10C750003246214614A0FFF7D3F9304601F00CF819
:10C76000002803D16900684646526D1C641C786B32
:10C77000401E8442E2DB002D0EDD29466846FFF7AD
:10C78000BBFF044600F0F8FF002802D0022009B0E9
:10C79000F0BDFC800020FAE70120F8E7803F002090
:10C7A000104E002070170000206865617274205BD5
:10C7B00025645D3D2025640D0A00000070B5064625
:10C7C0000146002510A0FFF79BF9154C154A20786B
:10C7D000092805D241005652401CC1B2217008E020
:10C7E0006800811849886D1C1152072DF8DBD6812D
:10C7F00008210C48FFF780FFE08081B20AA0FFF714
:10C800007FF9E08870BD00006F726967696E616CC6
:10C81000206865617274203D2025640D0A000000C7
:10C82000803F00202046002020736D6F6F746820C9
:10C83000686561727420203D2025640D0A000000A7
:10C84000F0B5002285B0694C049203926262A26244
:10C85000E26203202263A0702020654F62631546C8
:10C86000206240003E5A304600F0AEFF022808D059
:10C87000012816D0B24226D26069A561401C6061D1
:10C8800025E02563E069401CE061642802DD0620A4
:10C8900005B0F0BD0220A0700190A5616561268100
:10C8A00088E0206BE561401C2063642801DD0720DF
:10C8B000EEE7206AE062012060620320A070019030
:10C8C0006561668176E0A0696561401CA061E561F3
:10C8D00060690A284FDDA5702581019800284AD09B
:10C8E00000200190606A01281ED042A0A16AFFF7D3
:10C8F00007F9E06AA062A16A0498081A0290009001
:10C90000628943A0236AE16AFFF7FAF8606B0028A6
:10C9100017D00298282817DD4BA0A16AFFF7F0F87E
:10C92000A06A01F063F81BE0206BC10F0A185010D9
:10C93000E16A5210431848A0A362FFF7E1F865626C
:10C94000D9E750A0A16AE9E761890398401A002855
:10C9500006DD51A0A16AFFF7D3F8A06A01F0E6F95D
:10C96000606B0A2801DD01F05FF84FA00499FFF722
:10C97000C7F860890390A0690A2809DD0120A0702A
:10C98000800260810198012808D00120019005E013
:10C99000A078012802D0002807D00AE060898642EA
:10C9A00007D26681206AE06203E02089864200D9CE
:10C9B00026813246206A7D21401CC90020628842BF
:10C9C00000DA4EE7606B02280EDDFFF7B1FE0028AB
:10C9D00001D002205CE7E08800F0CEFE002801D004
:10C9E000092055E7012053E7052051E7803F00204B
:10C9F00040460020205B6E6F726D616C5D20706F31
:10CA0000736974696F6E3A2564200D0A0000000096
:10CA10002020626F74746F6D3A20256420206D6948
:10CA20006E56616C75653A20256420637572726577
:10CA30006E74203A2025642064697374616E6365A6
:10CA40003A2564200D0A00002070757368202025A7
:10CA500064200D0A00000000205B726563745D2095
:10CA60002073746172743A256420206C656E3A25D7
:10CA70006420706F736974696F6E3A2564200D0AC3
:10CA8000000000002070757368206669727374205E
:10CA90002564200D0A000000207570646174652013
:10CAA000202564200D0A00004620206C617374501C
:10CAB0006F736974696F6E203A2564200D0A000057
:10CAC000F7B516461FA207CA84B06B4607C368466F
:10CAD00000241B4D078A0AE001F0FAFB002802D06F
:10CAE000FF346F3401E0FF3464346D1CADB2AF42EB
:10CAF0002846F1D801F0ECFB002802D01D20694641
:10CB000048706A46917C0020491E03E0135C1C19A2
:10CB1000401C80B28142F9DCD07C641E0119127D78
:10CB2000E120000142436846807D12186846C07DBE
:10CB30003080074841438818706007B0F0BD00009E
:10CB4000B20700001F1C1F1E1F1E1F1F1E1F1E1FBF
:10CB5000805101007FB5054602A800F013F808498E
:10CB6000039849680822441A054968461039FEF7B7
:10CB700077FA23462846019A0099FFF7B5FC7FBD56
:10CB8000103F00201CB50446694601A8E1F7B4FD3A
:10CB90006846007900994004CA0B1043606048045D
:10CBA0007D21400CC900FEF731FA20801CBD000039
:10CBB0000149C8617047000000100040F0B50D4BFE
:10CBC00000229D140446D440E60706D000290BD06D
:10CBD0009600F618F76B2F43F763002C03D0521C16
:10CBE000D2B21F2AEED3F0BD9600F618F76BAF4312
:10CBF000F2E700000010004000220346D340DB07AC
:10CC00000AD0084892001018C26B120A1202C263BE
:10CC1000C26B0A43C2637047521CD2B21F2AECD3C4
:10CC2000704700000010004030B50022074C090298
:10CC30000346D340DD0702D095002D19E963002B90
:10CC400003D0521CD2B21F2AF2D330BD00100040D4
:10CC500030B5012309021B0300228031074C194320
:10CC60000346D340DD0702D095002D19E963002B60
:10CC700003D0521CD2B21F2AF2D330BD00100040A4
:10CC8000F0B501240902E4024031214300230C4C99
:10CC900001270546DD40EE070AD09E003619F163F4
:10CCA000002A3E4602D09E40A66101E09E40E66119
:10CCB000002D03D05B1CDBB21F2BEAD3F0BD0000BC
:10CCC000001000400349896B014201D001207047E8
:10CCD0000020704700100040014988617047000043
:10CCE0000010004070B5124C054660680E46A8431F
:10CCF000606000212846FFF761FF002E02D0012E60
:10CD000005D00BE0206828432060022103E0206862
:10CD1000A843206001212846FFF79AFF04484A21D2
:10CD20004038C1636168294361600121816370BD3E
:10CD3000C0100040F8B52048FEF7E2FE1F4A002070
:10CD4000144660344100401C635A80B2535220287C
:10CD5000F8D320257D27FF006E00A05BFFF72AF99E
:10CD60006D1CADB2A053BD42F6D3FFF769FD144C64
:10CD7000014601280ED0072913D0062911D0052914
:10CD80000FD008290DD002290BD0032909D004297E
:10CD900007D00BE0E088FFF711FDE080014609A015
:10CDA00000E00DA0FEF7ACFE00F03CF80020E060D3
:10CDB0000DA0FEF7A5FEF8BD38E30200E045002017
:10CDC000803F0020686561727452617465203D2067
:10CDD00025640D0A0000000048524572726F723AD5
:10CDE0002564200D0A0000000D0A2A2A2A2A2A2A70
:10CDF0002A2A2A2A2A2A2A2A2A2A2A2A2A2A2A2A93
:10CE00002A66696E6973682A2A2A2A2A2A2A2A2AFD
:10CE10002A2A2A2A2A2A2A2A2A2A2A2A2A2A200D99
:10CE20000A20000010B50CA0FEF76AFE0D48002194
:10CE300001624163816201220181920242810322E7
:10CE40008270C161016341620161416181612021A0
:10CE50000548FEF71EF910BD20696E6974200D0AA1
:10CE600000000000803F0020104E002010B54B2233
:10CE700010210248FEF706F910BD000020460020F0
:10CE800010B506487D21C068C900884202DAFFF764
:10CE900003F910BDFFF74EFF10BD0000803F0020DA
:10CEA000072806D20549002804D00122401E8240EE
:10CEB0000A6270470420086170470000005001407A
:10CEC000F8B50126114CB603266003210E20FEF7AB
:10CED00015FC0F4D2E607600266003210F20FEF713
:10CEE0000DFC2E607600266003211020FEF706FC64
:10CEF0002E600848009000230A220F21012000F034
:10CF00007BF805A0FEF7FCFDF8BD000080E200E024
:10CF100000E100E081CE020068775F74696D6572A0
:10CF20005F636F6E66696720646F6E65210D0A002E
:10CF300030B50A4A0A4C00280BD0536A80000F25EE
:10CF4000001F8540AB4381400B435362506A6062CF
:10CF500030BDD160D068E06030BD000000500140BD
:10CF6000184F0020074A084B002806D0800082187E
:10CF7000D162D16AC018C16270475161506958616D
:10CF80007047000000500140184F002070B5064661
:10CF90000D467D201446491CC001FEF737F8444376
:10CFA00029463046FFF7C4FF21463046FFF7DAFF37
:10CFB0003046FFF775FF70BD70B515460A4604464A
:10CFC000072814D203211046FEF720F808488900EC
:10CFD0000818826C66000323B3401A438264806C95
:10CFE000044A89188864A00011461C390D5070BD90
:10CFF00000500140184F0020F8B51E460546069F18
:10D00000FFF7C4FF2846FFF74BFF094801210478CA
:10D01000A9408C43047002D10120E6F781FF3A4613
:10D0200031462846FFF7C8FF284600F003F8F8BD50
:10D03000D43F002005494A6843000320984002433A
:10D040004A6048680249486070470000005001404B
:10D05000184F002070B5072836D21D494B681D4A6D
:10D060005360CB68D3604B6953614B6A53620B6B5F
:10D0700013634B6B53638B6B9363CB6BD3630C6CFE
:10D08000144B40331C604C6C5C608C6C9C60CC6CB2
:10D09000DC600C6D1C610123002816D0D469451E8C
:10D0A0001E46AE403443D461546846000325B54063
:10D0B0002C43546052684A608340074801780B4310
:10D0C00003700120E7F796F970BD1361ECE70000EB
:10D0D000184F002000500140D43F0020F0B5834994
:10D0E0008868CA68104082038148920B436894079D
:10D0F00022D50226002B1ED09C68002C1BD09D79C7
:10D100000488A54214D92C1BE5B20424042D0CD2AA
:10D110002C46CD68B543CD6007E005889F687F5DEC
:10D120000F606D1C641E0580E4B2002CF5D102E096
:10D13000CC68B443CC600E61940620D58C6A24067A
:10D14000240F002B17D09D68002D0ED113E09E797F
:10D150000588AE4201D24D6805E04E689F687E5555
:10D1600005886D1C0580641EE4B2002CEFD104E03C
:10D170004B68641EE4B2002CFAD120230B61130526
:10D1800002D50123DB020B61130621D58B6A4468AB
:10D190001B061B0F002C17D0A568002D0ED113E025
:10D1A000A6790588AE4201D24D6805E04E68A768B1
:10D1B0007E5505886D1C05805B1EDBB2002BEFD110
:10D1C00004E04C685B1EDBB2002BFAD180230B61BC
:10D1D000530723D543680424002B1ED09D68002DDF
:10D1E0001BD09E790588AE4214D9751BEEB204257A
:10D1F000042E0CD23546CE68A643CE6007E00688E2
:10D200009F68BF5D0F60761C6D1E0680EDB2002D1D
:10D21000F5D102E0CB68A343CB600C61D30502D506
:10D22000FF2301330B61530621D58B6A44681B062B
:10D230001B0F002C17D0A568002D0ED113E0A67986
:10D240000588AE4201D24D6805E04E68A7687E555C
:10D2500005886D1C05805B1EDBB2002BEFD104E05E
:10D260004C685B1EDBB2002BFAD140230B61D30666
:10D2700001D510230B61130701D508230B61D307D8
:10D2800021D08B6A44681B061B0F002C17D0A568A1
:10D29000002D0ED113E0A6790588AE4201D24D686B
:10D2A00005E04E68A7687E5505886D1C05805B1EED
:10D2B000DBB2002BEFD104E04C685B1EDBB2002B2D
:10D2C000FAD101230B6192050ED54268002A08D0DD
:10D2D0008B681B0413604C6B234313600022426075
:10D2E0000280012040020861F0BD000000100140F2
:10D2F000C83F0020FEB52A4C606BA668E168294D46
:10D300000E40310512D5010604D5286900280DD03C
:10D3100080470BE0400609D56969002906D0A06A5C
:10D3200000090007FBD0606880B288477007800F53
:10D3300019D0A06A08210007000F081AC7B2286890
:10D340000290A88801900CE0288900900199FDF7CF
:10D350005DFE0298405C20600098401C7F1E288182
:10D36000FFB2012FF0D83006400F11D0A06A00069E
:10D37000070F0BE0A988E888FDF748FE2A68606877
:10D380005054E888401C7F1EE880FFB2012FF1D87E
:10D39000F00703D0606860600120A0632661FEBDD5
:10D3A00000100140944F0020FFB583B006460025D1
:10D3B00017462C46069800F0CFF908280ED20C210B
:10D3C0002C4A484381188B680293125C68460270AD
:10D3D0004868019049786846417009E006980290D3
:10D3E000002069460870FD2040010190012048702E
:10D3F0002149886901229204104388610198C8611B
:10D4000002980862012088636846407802280CD0A0
:10D410000F600498401CC8620020C860174808616B
:10D42000D82048610827164A1BE0380A08600F60B8
:10D430000498801CEFE76D1C886AADB20007000FEE
:10D44000049B381AC0B21B1B834208DAD8B206E02C
:10D45000335D00250B60641C401EE4B2C0B200289E
:10D46000F6D18868800501D49542E4D3204607B000
:10D47000F0BD00009C4E002000100140FFFF0000A6
:10D48000204E0000F0B585498868CA6810408203C4
:10D49000920B100501D5C81408618148130621D5E7
:10D4A0008B6A84681B061B0F002C17D0A568002D03
:10D4B0000ED113E0A6794588AE4201D24D6805E051
:10D4C0004E68A7687E5545886D1C45805B1EDBB2A3
:10D4D000002BEFD104E04C685B1EDBB2002BFAD1CD
:10D4E00080230B61930621D58B6A84681B061B0F72
:10D4F000002C17D0A568002D0ED113E0A679458821
:10D50000AE4201D24D6805E04E68A7687E55458859
:10D510006D1C45805B1EDBB2002BEFD104E04C6834
:10D520005B1EDBB2002BFAD120230B61930723D5BE
:10D5300083680224002B1ED09D68002D1BD09E798D
:10D540004588AE4214D9751BEEB20425042E0CD2C8
:10D550003546CE68A643CE6007E046889F68BF5D2B
:10D560000F60761C6D1E4680EDB2002DF5D102E0F5
:10D57000CB68A343CB600C61530723D58368042495
:10D58000002B1ED09D68002D1BD09E794588AE4291
:10D5900014D9751BEEB20425042E0CD23546CE6884
:10D5A000A643CE6007E046889F68BF5D0F60761C8B
:10D5B0006D1E4680EDB2002DF5D102E0CB68A3438D
:10D5C000CB600C61D30502D5FF2301330B615306F9
:10D5D00026D58B6A84681B061B0F002C1CD0A46800
:10D5E000002C13D118E084684688A579B54205D28D
:10D5F0004E68A4686419203CE67705E04D68A4688D
:10D60000A5554488641C44805B1EDBB2002BEAD124
:10D6100004E04C685B1EDBB2002BFAD140230B61A7
:10D62000D30601D510230B61130701D508230B6125
:10D63000D30721D08B6A84681B061B0F002C17D0E0
:10D64000A568002D0ED113E0A6794588AE4201D21F
:10D650004D6805E04E68A7687E5545886D1C45807D
:10D660005B1EDBB2002BEFD104E04C685B1EDBB22B
:10D67000002BFAD101230B6192050ED58268002A96
:10D6800008D08B681B0413604C6B2343136000228B
:10D6900082604280012040020861F0BD002001400C
:10D6A000C83F0020FEB52A4C606BA668E168294D92
:10D6B0000E40310512D5010604D5286900280DD089
:10D6C00080470BE0400609D56969002906D0A06AA9
:10D6D00000090007FBD0606880B288477007800FA0
:10D6E00019D0A06A08210007000F081AC7B22868DD
:10D6F0000290A88801900CE0288900900199FDF71C
:10D7000085FC0298405C20600098401C7F1E2881A8
:10D71000FFB2002FF0D13006400F11D0A06A0006F2
:10D72000070F0BE0A988E888FDF770FC2A6860689D
:10D730005054E888401C7F1EE880FFB2012FF1D8CA
:10D74000F00703D0606860600120A0632661FEBD21
:10D7500000200140AC4F00200146064A00200C2367
:10D7600043439B189B688B4203D0401CC0B20828DF
:10D77000F5D370479C4E002010B5A02805D901466E
:10D7800007A0FEF7BDF9012010BD282805D20146EB
:10D7900008A0FEF7B5F9022010BD002010BD000062
:10D7A0004865617274526174654D4158203D202571
:10D7B000640D0A004865617274526174654D494E8A
:10D7C000203D2025640D0A00282801D20120704741
:10D7D000CD218900884201D902207047002070477E
:10D7E000044841880088814201D000207047012010
:10D7F000704700001A3F002010B5406800210378F0
:10D800000948002B07D00122012B09D0022B05D19A
:10D810000378002B04D00170FEF71BFF002010BD21
:10D820000270FEF730FFF9E7403F002010B50221FB
:10D8300001220804FFF724FA022101228804FFF7DD
:10D840001FFA022101224804FFF71AFA10BD10B591
:10D8500044182046FDF728FC0002E178000A09067A
:10D86000084310BD10B50020E7F7F4F80020E7F7F3
:10D87000DFF80120E7F784F8E3F798FE002010BDF9
:10D8800010B500F00FFA00F01DFB10BD10B5102010
:10D89000FFF78EF90148E7F7D5F910BD6044002085
:10D8A0008EB0FF206A460221813000F097FA06A070
:10D8B000FEF726F90BA00099FEF722F90EA00199B8
:10D8C000FEF71EF9FEE700006F735F737461636B10
:10D8D0005F6F766572666C6F77206F6363757273C6
:10D8E0000A0000006164723A202020202020307855
:10D8F000253038780A0000006572725F636F6465D6
:10D900003A203078253038780A00000010B50449F4
:10D910000020086003490860E0F768FA10BD0000C5
:10D92000203E0020243E002010B500F07BFA00F0DD
:10D930002FFAE7F7DBF8012005210006FFF75CF975
:10D94000164800F0D3F916A0FEF7DAF800F056F901
:10D95000002000F04DF9FFF769FFFEF75FFE0120A0
:10D9600011210005FFF748F9012012214005FFF7BA
:10D9700043F901220021D004FFF782F90022114669
:10D980001020FFF77DF9FDF707FE00210820FFF7C3
:10D990004BF90720FEF720FB10BD0000100002002D
:10D9A0000A4D4F564E4F5720777269737462616EFD
:10D9B0006420737461727420746F20776F726B3E91
:10D9C0003E0A000010B50848E6F718FF0020E6F709
:10D9D000EDFE0520E7F738F80121880200F044F950
:10D9E0000020E7F719F810BDFFFF7F0010B50849C8
:10D9F0004A6B202A02DA074C9300E050521C4A631B
:10DA0000202A01DA104610BD1F20486310BD000017
:10DA1000803F0020104E002010B501200521000697
:10DA2000FFF7EAF8002010BD03480021406B00E03A
:10DA3000491C8142FCDB7047803F002010B501206B
:10DA40008002FFF73FF9002801D0012010BD01241A
:10DA5000E40200212046FFF7CFF801212046FFF71E
:10DA6000F7F8002010BD00003EB5456814A000681E
:10DA70000090002003221146029000F069F8022174
:10DA800068460170FF24447002AA6946022000F033
:10DA900079F829784020014368460170447002AA51
:10DAA0006946084800F06EF80721684601710121B7
:10DAB0004171417A817101A800F05AFB00203EBDFE
:10DAC000005500000202000070B50E460546002415
:10DAD00005E0FF2000F016F83055641CA4B2AC42FB
:10DAE000F7D3012070BDF0B516460F460546002459
:10DAF00005E0385D00F006F83055641CA4B2AC4275
:10DB0000F7D3F0BD10B500217D23DB000F4A04E000
:10DB10000C46491C89B29C420ED8D4692407240FB4
:10DB2000042CF5D8106000207D21090106E0034691
:10DB3000401C80B28B4201D9FF2010BDD3691B0964
:10DB40001B07F4D05068C0B210BD00000090014027
:10DB5000084B0004C318080703430748034307485A
:10DB60004361826101214162054901610021C16077
:10DB70007047000044FF00000000F0CF00A001400B
:10DB8000FF010000F0B516460F460546002405E0EB
:10DB9000385D00F007F83055641CA4B2AC42F7D3EE
:10DBA000F0BD000010B500217D23DB000F4A04E02A
:10DBB0000C46491C89B29C420ED8D4692407240F14
:10DBC000042CF5D8106000207D21090106E00346F1
:10DBD000401C80B28B4201D9FF2010BDD3691B09C4
:10DBE0001B07F4D05068C0B210BD000000A0014077
:10DBF0000149087070470000183F002002480021CA
:10DC000001804180704700001A3F002070B50C462B
:10DC1000054601460AA0FDF773FF21460DA0FDF75A
:10DC20006FFF29460F4D2846DFF738FDA1B2284681
:10DC3000DFF734FD210C2846DFF730FD70BD000012
:10DC40006164723A202020202020307825303878F6
:10DC50000A000000696E666F3A2030782530387807
:10DC60000A000000FFDF000010B5FFF73BF864205A
:10DC7000FEF72BFD10BD000010B5084A1278012AEE
:10DC80000AD109040A180549054C891C0888830033
:10DC9000401CE250C0B2088010BD0000183F0020B8
:10DCA000E03F002070B50F480D4B0F4D048813E086
:10DCB000DA691207120F042A0ED88A00AA5816042D
:10DCC000360E1E60D6B21E60160E1E601202120EB6
:10DCD0001A60491CC9B241804188A142E8D170BD97
:10DCE000004001401A3F0020E03F00200549044B5E
:10DCF000CB224B61886104480861CA60704700000C
:10DD000066FF4C0000400140FFFF000010B50023FB
:10DD1000054A06E0D469240703D104781460401C46
:10DD20005B1C8B42F6D310BD004001400146044805
:10DD3000044B406B8200D218803AD16770470000D4
:10DD4000803F0020104E002013B569460F48098817
:10DD500001806946897881706946C978C1706946D1
:10DD600009790171694649794171694689798171F9
:10DD70006946C979C1711030FEF704FF034A019961
:10DD800008320098FEF79CFE1CBD0000003F0020FA
:10DD90000949084808600A48084A0260094A42607E
:10DDA0000A48094A42600A4A82600A4AC2600A482E
:10DDB000486070470DDC0200303E002081D8020030
:10DDC000283E0020A1D802003DDA0200383E0020A3
:10DDD00019DA0200E1D7020079DC0200F0B50F4B3E
:10DDE0000D4C9C6100250E4E10E0012424040443D8
:10DDF0005C6001241C600024DF68FF0602D4641C00
:10DE0000B442F9D31C69401C10C26D1C8D42ECD386
:10DE100000209861F0BD000007040620004000408B
:10DE2000400D030014491348C86015481349816028
:10DE30001449C16014490161144941611449816167
:10DE40001449C16114490162144941621449816253
:10DE50001449C162144981631449C16314490164BE
:10DE600014494164144981641449C1641449016529
:10DE700070470000B9B30200B000002005B00200F6
:10DE8000300000201DBA020091B7020009B802005C
:10DE900099B2020019B3020005B0020029B50200D0
:10DEA00061B502007DBA020079B8020005B902002E
:10DEB00091B902001DB3020051B3020085B3020004
:10DEC00005B0020001490220C8607047008001408F
:10DED00010B540680078002801D0012801D1FDF775
:10DEE000DBFD002010BD08B50120694608704870B0
:10DEF00023208870684600F03BF9002008BD000030
:10DF000003498988814201D102207047002070476F
:10DF10002E3F00207CB50022174B18491046D4F73D
:10DF20001BFA002825D000241449FF230094053350
:10DF30002246891C20460194D4F7DAF9002818D02B
:10DF40000D4D0E49AD1F2880FF2300220094113390
:10DF5000491C10460194D4F7CBF9002809D06880F9
:10DF6000D4F7DBF9002804D0A880D4F7DBF900202F
:10DF70007CBD01207CBD0000343F0020D0FF0000AC
:10DF800070B54068002401783F4E86B0002907D064
:10DF90000225012915D0022926D0032972D13CE09F
:10DFA0006846047003214170847071880A0AC27047
:10DFB000017100F0DDF87088401C7080022006B00E
:10DFC00070BD684604704570012181703178C17060
:10DFD00000F0CEF83078401E0006000E307001D1FF
:10DFE000642030700120EAE703A8FEF7B3FD68461D
:10DFF000047008214170857081890A0AC27001711C
:10E00000817B4171C17B8171017CC171417C017255
:10E01000817C417200F0ACF834E041787D230279D4
:10E02000DB0059435318817864225143C2780A2493
:10E03000624389185A1869460A8041798279614396
:10E040008A1869468A70C179027A61438A186946DA
:10E05000CA70417A0A225143827A8A1869460A7143
:10E06000C17A0A225143027B8A1869464A71417B70
:10E070000A22807B514308186946887101990098EB
:10E08000FFF762FE00209AE7443F002038B544685D
:10E0900013484079002802D01148E6F702FD2078A5
:10E0A000002804D0012809D0022817D106E010204A
:10E0B000FEF77EFD0A48E6F7F4FC0FE01020FEF7BD
:10E0C0000BFE084A00210648E6F7CCFC00207D2222
:10E0D00003460090D2000248E6F75EFD002038BDFE
:10E0E000604400208DD8020010B504464078012815
:10E0F00011D004280FD1A17815A0FDF701FDA0785B
:10E100000300D4F757FA0805090D1115191D210848
:10E110002046FFF735FF10BD2046FFF76DFB10BD11
:10E120002046FDF797FA10BD204600F051F810BDCB
:10E130002046FFF7D8FE10BD2046FFF7A7FF10BD11
:10E140002046FFF7C5FE10BD2046FFF78DFC10BD31
:10E15000575249535442414E442072656365697673
:10E1600065206D736720747970653A25640A000034
:10E1700070B504460B4885880B48854201D10020C4
:10E1800070BD627821460948921CFCF769FF6278ED
:10E19000002306492846921CD4F708F96078801CB1
:10E1A000C0B270BD2E3F0020FFFF0000E043002002
:10E1B00006498988814207D1002A05D00348801E7C
:10E1C0000078107002207047002070472E3F00201A
:10E1D00000B585B04068032269460A7008224A707B
:10E1E0000178427809028A1869468A8182788A739E
:10E1F000C278CA7302790A7442794A748079887441
:10E200005A20C87400A8082203A90230FCF728FF8E
:10E2100004990398FFF798FD6846FFF7A9FF694640
:10E22000487805B0801C00BDF8B51449069E8A8860
:10E230001C46824203D11878891E087017E00988AD
:10E24000814214D1142E01D90DA013E015480068A5
:10E25000E3F71AFB05000CD0B21EA11CFCF700FF6F
:10E2600000956378227804210620FEF7FDF800204F
:10E27000F8BD0DA0FDF744FCF9E700002E3F00209B
:10E28000777269737462616E64206D7367206D6F5D
:10E290007265207468616E20323020627974657313
:10E2A0000A000000503F0020777269737462616E4B
:10E2B00064206D616C6C6F632064617461206D65B6
:10E2C0006D657279206661696C65640A0000000002
:10E2D00010B5044680070CD164212046FCF796FE59
:10E2E000002908D1FF2191312046FCF78FFE00293B
:10E2F00001D0002010BD012010BD000009C20200A5
:10E300000000000001000000000600000A000000FC
:10E3100008000000784400200A00000014000000FB
:10E32000D4440020777269737462616E64206465FE
:10E3300076696365000000000D0A2A2A2A2A2A2A23
:10E340002A2A2A2A2A2A2A2A2A2A2A2A2A2A2A2A2D
:10E350002A68656172746465616C6C6F6F702A2ADB
:10E360002A2A2A2A2A2A2A2A2A2A2A2A2A2A2A2A0D
:10E370002A2A2A2A2A200D0A200000009CE30200F3
:10E38000003F0020E000000020BB02007CE402000F
:10E39000E03F0020E40F000030BB0200000000005E
:10E3A000000000000000000000000000000000006D
:10E3B000000000000000000000000000000000005D
:10E3C0000120000220000405000000000000000001
:10E3D00001DF0200B1E1020029E2020000000000BA
:10E3E00064000000000000000000000000000000C9
:10E3F000000500000000000012096D7864626C6581
:10E400002D777269737462616E6400000201050306
:10E4100019C0000502F0FF0D180000000000000008
:10E420004B000000000000000000000000000000A1
:10E4300000000000000000000000000000000000DC
:10E4400000000000000000000000000000000000CC
:10E4500000000000FF0000000000000000000000BD
:10E4600000000000000000000000000000000000AC
:0CE47000000000000000000000000000A0
:040000050002B00144
:00000001FF
