:020000040002F8
:10AFF0004B2A000002000A000000000000000000D0
:10B0000001488047FEE77047F9B1020030B50B46B2
:10B01000014600202022012409E00D46D5409D4232
:10B0200005D31D469540491B2546954040191546B8
:10B03000521E002DF1DC30BD03460B439B0703D0AD
:10B0400009E008C9121F08C0042AFAD203E00B78ED
:10B050000370401C491C521EF9D270470321001D89
:10B06000401E037812021A43491EF9D51046704754
:10B07000064C0125064E05E0E36807CC2B430C3C4B
:10B0800098471034B442F7D300F0BAF830D4020035
:10B0900050D402000000000000000000000000008A
:10B0A00000000000000000000000000000000000A0
:10B0B0000000000000000000000000000000000090
:10B0C0000000000000000000000000000000000080
:10B0D0000000000000000000000000000000000070
:10B0E0000000000000000000000000000000000060
:10B0F0000000000000000000000000000000000050
:10B1000010B50C4800F02FFF01F07AFD01F040FD72
:10B1100000F0C0FC00F02CFD00F01CFE00F070FD03
:10B1200001F074F800F01CFEE6F79CFCE6F7C4FCA6
:10B1300010BD000080841E0001B00200000000006D
:10B1400000000000000000000000000000000000FF
:10B1500000000000000000000000000000000000EF
:10B1600000000000000000000000000000000000DF
:10B1700000000000000000000000000000000000CF
:10B1800005B0020039B80200ADB5020025B60200D4
:10B1900015B2020095B2020005B0020045B30200EC
:10B1A0007DB3020099B8020000000000000000001A
:10B1B00095B6020021B70200ADB7020099B20200B5
:10B1C000CDB2020001B3020005B002000000000091
:10B1D000000000000000000000000000000000006F
:10B1E000000000000000000000000000000000005F
:10B1F000000000000000000003488546FFF738FF0C
:10B200000048004729CB02000080002040BA704768
:10B21000C0BA704770B51D4D2E6868681C4C06405A
:10B22000F00606D01F20A8606168002901D03040D8
:10B230008847B005C10E07D01F214901A960A16848
:10B24000002901D0C00E88477004C10E07D01F210D
:10B250008902A960E168002901D0C00E8847300347
:10B26000C10E07D01F21C903A9602169002901D09F
:10B27000C00E8847F001C10E07D01F210905A96043
:10B280006169002901D0C00E884770BD00200040D0
:10B29000604600207047000070B5094D2C68E86AD0
:10B2A00004406868044007480168002901D020462E
:10B2B0008847AC60012004494004086070BD00006C
:10B2C000001000408445002080E200E070B5094D88
:10B2D0002C68286B044068680440074841680029CE
:10B2E00001D020468847AC600120044980040860F2
:10B2F00070BD0000001000408445002080E200E0A6
:10B3000070B5094D2C68686B0440686804400748B4
:10B310008168002901D020468847AC60012004499B
:10B32000C004086070BD000000100040844500208B
:10B3300080E200E08EB0FF206A460D21813001F0EE
:10B3400011FEFEE710B50A48807B002802D001F00C
:10B3500067F908E001F058F806488168C2681140B2
:10B360000905090D0161012003494002086010BD73
:10B37000884600200010014080E200E010B50A4835
:10B38000807B002802D001F023FB08E001F010FAD6
:10B3900006488168C26811400905090D0161012054
:10B3A00003498002086010BDA04600200020014033
:10B3B00080E200E010B50124E404204600F050FED5
:10B3C0002548E8F7A9FA204600F0DEFEAE2000F09E
:10B3D0004BFAD52000F048FA802000F045FAA8206A
:10B3E00000F042FA1F2000F03FFAD32000F03CFAB0
:10B3F000002000F039FA402000F036FA8D2000F0ED
:10B4000033FA142000F030FAA12000F02DFAC82001
:10B4100000F02AFADA2000F027FA022000F024FADD
:10B42000812000F021FA682000F01EFAD92000F0F7
:10B430001BFAF12000F018FADB2000F015FA40208A
:10B4400000F012FAA42000F00FFAA62000F00CFA87
:10B45000AF2000F009FA10BDB80B000010B500F0E5
:10B46000F5F8012010BD10B500F006F9012010BD5F
:10B4700008B50021009140680178012902D0022915
:10B480000DD010E000A940780231FFF7E7FF02215C
:10B49000684601700121417001F012FF03E0C1789C
:10B4A0008078FFF7E0FF022008BD0000C106C90E4A
:10B4B00001208840014908607047000080E200E0F8
:10B4C000C106C90E0120884001490860704700008C
:10B4D00000E100E08307FF22DB0E9A408907090E96
:10B4E000994000280BDA0007000F08388308084845
:10B4F0009B001818C36993430B43C36170478308CB
:10B5000004489B001B181868904308431860704754
:10B5100000ED00E000E400E08307FF22DB0E9A402C
:10B520008907090E994000280BDA0007000F083838
:10B53000830808489B001818C36993430B43C361F1
:10B540007047830804489B001B1818689043084301
:10B550001860704700ED00E000E400E0F8B5114C21
:10B56000074640072668800F0BD0002E09D0E588DB
:10B57000A1882846FFF74AFD0B48715C01606D1CED
:10B58000E580292007420CD0002E0AD0A189E0894D
:10B59000FFF73CFD0448A26840685054E089401C15
:10B5A000E081F8BD7846002000A0014010B5074CAE
:10B5B000E068A1680840FFF7D1FFE068A168084093
:10B5C000206103491020086010BD00000090014078
:10B5D00080E200E0F8B5114C074640072668800F6E
:10B5E0000BD0002E09D0E588A1882846FFF70EFD74
:10B5F0000B48715C01606D1CE580292007420CD06E
:10B60000002E0AD0A189E089FFF700FD0448A26856
:10B6100040685054E089401CE081F8BD7846002025
:10B6200000A0014010B5074CE068A1680840FFF792
:10B63000D1FFE068A168084020610349202008602C
:10B6400010BD000000A0014080E200E01CB50C46E7
:10B65000002100910191802108436946087055201E
:10B66000487001AA034801F03CFB69464879207004
:10B6700001201CBD0202000008B500224006009215
:10B68000400E6A46107051706946022001F01AFBA4
:10B6900008BD000070B51F4E75681E4840308068B8
:10B6A000054030681C4C0540A80703D020680028DE
:10B6B00000D080472807800F03D06068002800D0A2
:10B6C0008047A806800F03D0A068002800D08047DC
:10B6D0002806800F03D0E068002800D08047A80526
:10B6E000800F03D02069002800D080472805800FF4
:10B6F00003D06069002800D08047A804800F03D0E1
:10B70000A069002800D08047B5600120034980036C
:10B71000086070BD00500140F045002080E200E06C
:10B7200070B51F4E75681E484030C06805403068CF
:10B730001C4C0540A80703D02068002800D0804793
:10B740002807800F03D06068002800D08047A80633
:10B75000800F03D0A068002800D080472806800F03
:10B7600003D0E068002800D08047A805800F03D0F0
:10B770002069002800D080472805800F03D0606929
:10B78000002800D08047A804800F03D0A0690028BB
:10B7900000D08047B56001200349C003086070BD38
:10B7A00000500140F045002080E200E070B51F4EDF
:10B7B00075681E4840300069054030681C4C0540E3
:10B7C000A80703D02068002800D080472807800FF2
:10B7D00003D06068002800D08047A806800F03D0FF
:10B7E000A068002800D080472806800F03D0E068BA
:10B7F000002800D08047A805800F03D020690028CA
:10B8000000D080472805800F03D06069002800D051
:10B810008047A804800F03D0A069002800D080478B
:10B82000B560012003490004086070BD005001406C
:10B83000F045002080E200E009488168C2681140BC
:10B84000C905C90D4822114203D0402202610822D5
:10B850000261C80602D50349102008617047000044
:10B86000004001400030014010B504493C230870FD
:10B8700000220121014800F02DFF10BD413F0020B2
:10B8800010B504493C23087040220121014800F012
:10B8900021FF10BD413F0020044903480861C8143E
:10B8A0000349086070470000FFFFFF0000100240DE
:10B8B00080E200E070B5174C05466068002810D0A3
:10B8C000A16800290DD0E16800290AD01B2100F0F1
:10B8D000EBFB1D21A06800F0E7FB1C21E06800F0F5
:10B8E000E3FB0D490120002D0BD0012D08D14A6941
:10B8F000920892004A614A6902231A434A618861A8
:10B9000070BD4A69920892004A6188614A6902439F
:10B91000F4E70000803F00200010024002E008C869
:10B92000121F08C1002AFAD170477047002001E0B9
:10B9300001C1121F002AFBD17047000010B5184941
:10B940004A690723DB039A431A434A618B69012240
:10B95000120513438B61CB699343CB61CB691343CE
:10B96000CB6110490024002818D04000401C886199
:10B97000FF200D4A0121043001F0F4FA0A48018841
:10B98000C905C90DCA1FFF3A0180F93A04D0FF2248
:10B990000132511A018010BD048010BD8C61E7E7AF
:10B9A00000B0014000700140A03F002000B51049E8
:10B9B00000238969C90201D4002000BD89210D4AF4
:10B9C00008439060C82000F08DFAD068D0687D20D0
:10B9D0000001D168002902DB5B1C8342F9D3D068E7
:10B9E000054900040988800D401880B200BD0000A0
:10B9F00000B0014000700140A03F002010B50120C0
:10BA00004003FFF7D3FF10BD10B50446002903D053
:10BA100005490120087010BDD6F770FE01212046AF
:10BA200000F005F810BD0000543F0020704710B52D
:10BA3000D6F7B8FE10BD10B5D6F760FE10BD10B534
:10BA4000D6F7D8FF10BD10B5052101F062F800F05F
:10BA500017F810BD10B508480178002908D14178C1
:10BA6000002905D0491E41708078D6F77DFE10BDB3
:10BA70000248E9F7E7F810BD543F00206C4500206C
:10BA800010B502460E210248D6F7D6FF10BD0000C1
:10BA90001E3F002010B50220FFF708FD0321022001
:10BAA000FFF718FD0220FFF70BFD0920FFF7FEFC52
:10BAB00003210920FFF70EFD0920FFF701FD0A20F1
:10BAC000FFF7F4FC03210A20FFF704FD0A20FFF72B
:10BAD000F7FC0620FFF7EAFC00210620FFF7FAFC3E
:10BAE0000620FFF7EDFC0720FFF7E0FC0021072010
:10BAF000FFF7F0FC0720FFF7E3FC10BD0026184D10
:10BB0000184CF64331462868E5F75EFE0028F9D068
:10BB10000828F7D01028F5D108780F4603280FD051
:10BB20000628EFD1084601F0A3FB7968002902D06E
:10BB3000A068E5F7F1FE39466068E5F7EDFEE1E75C
:10BB4000084600F083F87968002903D006480068A9
:10BB5000E5F7E2FE002FD5D0044839460068ECE74F
:10BB600084020020483F0020900200208C02002028
:10BB700010B50848E5F7B6FE074C606005480C3084
:10BB8000E5F7B0FEA060034800211038E5F744FF58
:10BB9000206010BD04D40200483F00201CB513A152
:10BBA00003C901910090134C64202080608006221C
:10BBB0006946E01DFFF740FA00206071A071207116
:10BBC00007216173A0730D2121740B496161142158
:10BBD0002176094920221439E16108490A804A8006
:10BBE00001220A7148718871C8711CBDAACD443305
:10BBF00022110000F03A0020703F0020E83A0020B7
:10BC000000B585B014220D496846FFF715FA0C48B7
:10BC1000002101704170D8F78FFFFFF7BFFF684622
:10BC2000D8F770FE0120D8F719FED8F7D5FD054AE0
:10BC300001210548E8F716FF05B000BD1CD402003D
:10BC4000573F002055BA02006C450020F8B5044665
:10BC5000407832284BD013DC0025012227491728D1
:10BC600028D00EDC05280BD0CE1E142819D015289C
:10BC700006D10D704D703570D6F738FBD8F7ACFD96
:10BC8000F8BD182822D0302822D03128F8D1616898
:10BC90000029F5D0E078C91CC01EC0B2FFF7C6FE6F
:10BCA000F8BD0A70A078FFF7C6FEA078B070D8F78C
:10BCB000DBFEF8BD4A70A0780121FFF7B8FE104AFC
:10BCC000002310480095E8F767FFF8BD4D70F8BDF8
:10BCD00060680028FBD001780029F8D00129F6D14E
:10BCE0000020FFF791FE0120FFF7A9FEF8BD606874
:10BCF0000028FBD0FFF7A7FEF8BD0000573F00204B
:10BD0000B80B00006C450020F8B507460F481C46EC
:10BD100015460E460068E5F7B7FD011E0C480BD02E
:10BD20000F704E708D70CC70069A4A60EFF30582EA
:10BD3000002A03D0002203E00220F8BD0022D243F3
:10BD40000068E5F74FFD0020F8BD00004C3F0020E3
:10BD50008402002010B501F0A1F900F00BFF10BD26
:10BD600010B50021082000F0B7F90720FFF7E6FD25
:10BD700001220021500500F0DBF9012000F000FB5A
:10BD800010BD0000FFB5044646A207CA85B06D4647
:10BD900007C547491846FFF739F987B208463C21DD
:10BDA000FFF734F905466846807F0818C0B23C2189
:10BDB000FFF72CF9064603913C212846FFF726F9A8
:10BDC00005466846407F711808180399A171C0B2F2
:10BDD0003C21FFF71BF9064603913C212846FFF75B
:10BDE00015F96846007F7118081803996171C0B28F
:10BDF0001821FFF70BF902466846C07E002510188F
:10BE0000E07021716846807EA0706846008B2080BB
:10BE100001F0DAFA1D26002801D068464670A078A5
:10BE20006946401EA84204D94A5DD21997B26D1CDA
:10BE3000F8E7E0787F1EC01985B20120E070FF2787
:10BE4000A0706E370CE001F0BFFA002802D0FF3D71
:10BE50006F3D01E0FF3D6E3D2088ADB2401C20806B
:10BE60002088BD42EFD801F0AFFA1249002869449A
:10BE700002D0684646700EE0BD4204D12088401CC6
:10BE8000208009B0F0BD1C206A46507003E0AA1A59
:10BE9000401C95B2A070A078425CAA42F7D96D1CF4
:10BEA000E570EEE71F1C1F1E1F1E1F1F1E1F1E1FFB
:10BEB00080510100FFFFFFFF1CB50548694608805F
:10BEC00001208870C8700021009801F001F81CBDA5
:10BED000B20700008108002001E000BF401C88423A
:10BEE000FBD3704700B50001FFF7F4FF00BD70B54C
:10BEF00000242046B030C0B2FFF7B6FC0020FFF7A8
:10BF0000B3FC1020FFF7B0FC00250020FFF7B8FCC1
:10BF10006D1CADB2802DF8D3641CA4B2042CE8D300
:10BF200070BD70B500242046B030C0B2FFF79CFC55
:10BF30000020FFF799FC1020FFF796FC0025552004
:10BF4000FFF79EFC6D1CADB2802DF8D3641CA4B22B
:10BF5000042CE8D370BD8108002001E000BF401C24
:10BF60008842FBD3704700B50001FFF7F4FF00BD26
:10BF7000F7B516461FA207CA84B06B4607C36846CA
:10BF800000241B4D078A0AE001F01EFA002802D0A7
:10BF9000FF346F3401E0FF3464346D1CADB2AF4246
:10BFA0002846F1D801F010FA002802D01D20694679
:10BFB00048706A46917C0020491E03E0135C1C19FE
:10BFC000401C80B28142F9DCD07C641E0119127DD4
:10BFD000E120000142436846807D12186846C07D1A
:10BFE0003080074841438818706007B0F0BD0000FA
:10BFF000B20700001F1C1F1E1F1E1F1F1E1F1E1F1B
:10C00000805101007FB5054602A800F013F80849E9
:10C01000039849680822441A054968461039FFF711
:10C020000BF823462846019A0099FFF7ABFE7FBD27
:10C03000103F00201CB50446694601A8E2F75CFBEE
:10C040006846007900994004CA0B104360604804B8
:10C050007D21400CC900FEF7D9FF20801CBD0000E7
:10C060000149C8617047000000100040F0B50D4B59
:10C0700000229D140446D440E60706D000290BD0C8
:10C080009600F618F76B2F43F763002C03D0521C71
:10C09000D2B21F2AEED3F0BD9600F618F76BAF436D
:10C0A000F2E700000010004000220346D340DB0707
:10C0B0000AD0084892001018C26B120A1202C2631A
:10C0C000C26B0A43C2637047521CD2B21F2AECD320
:10C0D000704700000010004030B50022074C0902F4
:10C0E0000346D340DD0702D095002D19E963002BEC
:10C0F00003D0521CD2B21F2AF2D330BD0010004030
:10C1000030B5012309021B0300228031074C19437B
:10C110000346D340DD0702D095002D19E963002BBB
:10C1200003D0521CD2B21F2AF2D330BD00100040FF
:10C13000F0B501240902E4024031214300230C4CF4
:10C1400001270546DD40EE070AD09E003619F1634F
:10C15000002A3E4602D09E40A66101E09E40E66174
:10C16000002D03D05B1CDBB21F2BEAD3F0BD000017
:10C17000001000400349896B014201D00120704743
:10C18000002070470010004001498861704700009E
:10C190000010004070B5124C054660680E46A8437A
:10C1A000606000212846FFF761FF002E02D0012EBB
:10C1B00005D00BE0206828432060022103E02068BE
:10C1C000A843206001212846FFF79AFF04484A212E
:10C1D0004038C1636168294361600121816370BD9A
:10C1E000C010004010B5FFF709FC10BD072806D2AB
:10C1F0000549002804D00122401E82400A6270478F
:10C20000042008617047000000500140F8B5012685
:10C210000F4CB603266003210E20FFF77DF90D4D6C
:10C220002E607600266003210F20FFF775F92E603F
:10C230007600266003211020FFF76EF92E60064875
:10C240000121009000230A22084600F06BF8F8BD97
:10C2500080E200E000E100E0E5C1020030B50A4AFA
:10C260000A4C00280BD0536A80000F25001F854020
:10C27000AB4381400B435362506A606230BDD16072
:10C28000D068E06030BD0000005001400C46002046
:10C29000074A084B002806D080008218D162D16A74
:10C2A000C018C16270475161506958617047000001
:10C2B000005001400C46002070B506460D467D201A
:10C2C0001446491CC001FEF7A1FE444329463046EE
:10C2D000FFF7C4FF21463046FFF7DAFF3046FFF78D
:10C2E00085FF70BD70B515460A460446072814D26E
:10C2F00003211046FEF78AFE084889000818826C60
:10C3000066000323B3401A438264806C044A891890
:10C310008864A00011461C390D5070BD00500140CA
:10C320000C460020F8B51E460546069FFFF7C4FFE1
:10C330002846FFF75BFF094801210478A9408C4398
:10C34000047002D10120E7F7EBFD3A46314628465A
:10C35000FFF7C8FF284600F003F8F8BD9C3F002017
:10C3600005494A6843000320984002434A604868F0
:10C370000249486070470000005001400C46002010
:10C3800070B5072836D21D494B681D4A5360CB68EB
:10C39000D3604B6953614B6A53620B6B13634B6BF6
:10C3A00053638B6B9363CB6BD3630C6C144B403335
:10C3B0001C604C6C5C608C6C9C60CC6CDC600C6DAC
:10C3C0001C610123002816D0D469451E1E46AE40CC
:10C3D0003443D461546846000325B5402C4354606F
:10C3E00052684A608340074801780B43037001207C
:10C3F000E8F700F870BD1361ECE700000C46002080
:10C40000005001409C3F0020F0B583498868CA680D
:10C41000104082038148920B4368940722D502267C
:10C42000002B1ED09C68002C1BD09D790488A5424F
:10C4300014D92C1BE5B20424042D0CD22C46CD6853
:10C44000B543CD6007E005889F687F5D0F606D1C78
:10C45000641E0580E4B2002CF5D102E0CC68B44340
:10C46000CC600E61940620D58C6A2406240F002B24
:10C4700017D09D68002D0ED113E09E790588AE423D
:10C4800001D24D6805E04E689F687E5505886D1C99
:10C490000580641EE4B2002CEFD104E04B68641EFA
:10C4A000E4B2002CFAD120230B61130502D501233D
:10C4B000DB020B61130621D58B6A44681B061B0F38
:10C4C000002C17D0A568002D0ED113E0A6790588A1
:10C4D000AE4201D24D6805E04E68A7687E550588DA
:10C4E0006D1C05805B1EDBB2002BEFD104E04C68B5
:10C4F0005B1EDBB2002BFAD180230B61530723D5DF
:10C5000043680424002B1ED09D68002D1BD09E790B
:10C510000588AE4214D9751BEEB20425042E0CD248
:10C520003546CE68A643CE6007E006889F68BF5DAB
:10C530000F60761C6D1E0680EDB2002DF5D102E075
:10C54000CB68A343CB600C61D30502D5FF23013335
:10C550000B61530621D58B6A44681B061B0F002C08
:10C5600017D0A568002D0ED113E0A6790588AE423C
:10C5700001D24D6805E04E68A7687E5505886D1CA0
:10C5800005805B1EDBB2002BEFD104E04C685B1E24
:10C59000DBB2002BFAD140230B61D30601D5102367
:10C5A0000B61130701D508230B61D30721D08B6AD8
:10C5B00044681B061B0F002C17D0A568002D0ED158
:10C5C00013E0A6790588AE4201D24D6805E04E68B9
:10C5D000A7687E5505886D1C05805B1EDBB2002BAD
:10C5E000EFD104E04C685B1EDBB2002BFAD10123D3
:10C5F0000B6192050ED54268002A08D08B681B0497
:10C6000013604C6B234313600022426002800120C0
:10C6100040020861F0BD000000100140903F002082
:10C62000FEB52A4C606BA668E168294D0E403105C5
:10C6300012D5010604D5286900280DD080470BE0EB
:10C64000400609D56969002906D0A06A00090007DB
:10C65000FBD0606880B288477007800F19D0A06A4D
:10C6600008210007000F081AC7B228680290A8889E
:10C6700001900CE0288900900199FEF7C7FC029810
:10C68000405C20600098401C7F1E2881FFB2012F73
:10C69000F0D83006400F11D0A06A0006070F0BE05B
:10C6A000A988E888FEF7B2FC2A6860685054E888D8
:10C6B000401C7F1EE880FFB2012FF1D8F00703D0A5
:10C6C000606860600120A0632661FEBD001001402B
:10C6D00088460020FFB583B00646002517462C4645
:10C6E000069800F0CFF908280ED20C212C4A4843B6
:10C6F00081188B680293125C68460270486801904A
:10C7000049786846417009E0069802900020694621
:10C710000870FD204001019001204870214988697E
:10C7200001229204104388610198C861029808624E
:10C73000012088636846407802280CD00F60049876
:10C74000401CC8620020C86017480861D8204861B2
:10C750000827164A1BE0380A08600F600498801CFE
:10C76000EFE76D1C886AADB20007000F049B381A12
:10C77000C0B21B1B834208DAD8B206E0335D002545
:10C780000B60641C401EE4B2C0B20028F6D1886879
:10C79000800501D49542E4D3204607B0F0BD0000E7
:10C7A0009045002000100140FFFF0000204E0000D7
:10C7B000F0B585498868CA6810408203920B10055D
:10C7C00001D5C81408618148130621D58B6A846895
:10C7D0001B061B0F002C17D0A568002D0ED113E0EF
:10C7E000A6794588AE4201D24D6805E04E68A7683B
:10C7F0007E5545886D1C45805B1EDBB2002BEFD15A
:10C8000004E04C685B1EDBB2002BFAD180230B6185
:10C81000930621D58B6A84681B061B0F002C17D04A
:10C82000A568002D0ED113E0A6794588AE4201D24D
:10C830004D6805E04E68A7687E5545886D1C4580AB
:10C840005B1EDBB2002BEFD104E04C685B1EDBB259
:10C85000002BFAD120230B61930723D58368022490
:10C86000002B1ED09D68002D1BD09E794588AE42BE
:10C8700014D9751BEEB20425042E0CD23546CE68B1
:10C88000A643CE6007E046889F68BF5D0F60761CB8
:10C890006D1E4680EDB2002DF5D102E0CB68A343BA
:10C8A000CB600C61530723D583680424002B1ED072
:10C8B0009D68002D1BD09E794588AE4214D9751B0A
:10C8C000EEB20425042E0CD23546CE68A643CE60C7
:10C8D00007E046889F68BF5D0F60761C6D1E46802E
:10C8E000EDB2002DF5D102E0CB68A343CB600C6123
:10C8F000D30502D5FF2301330B61530626D58B6A7E
:10C9000084681B061B0F002C1CD0A468002C13D1BC
:10C9100018E084684688A579B54205D24E68A468B7
:10C920006419203CE67705E04D68A468A555448865
:10C93000641C44805B1EDBB2002BEAD104E04C682F
:10C940005B1EDBB2002BFAD140230B61D30601D56D
:10C9500010230B61130701D508230B61D30721D0E6
:10C960008B6A84681B061B0F002C17D0A568002D4E
:10C970000ED113E0A6794588AE4201D24D6805E09C
:10C980004E68A7687E5545886D1C45805B1EDBB2EE
:10C99000002BEFD104E04C685B1EDBB2002BFAD118
:10C9A00001230B6192050ED58268002A08D08B689E
:10C9B0001B0413604C6B234313600022826042808F
:10C9C000012040020861F0BD00200140903F00209E
:10C9D000FEB52A4C606BA668E168294D0E40310512
:10C9E00012D5010604D5286900280DD080470BE038
:10C9F000400609D56969002906D0A06A0009000728
:10CA0000FBD0606880B288477007800F19D0A06A99
:10CA100008210007000F081AC7B228680290A888EA
:10CA200001900CE0288900900199FEF7EFFA029836
:10CA3000405C20600098401C7F1E2881FFB2002FC0
:10CA4000F0D13006400F11D0A06A0006070F0BE0AE
:10CA5000A988E888FEF7DAFA2A6860685054E888FE
:10CA6000401C7F1EE880FFB2012FF1D8F00703D0F1
:10CA7000606860600120A0632661FEBD0020014067
:10CA8000A04600200146064A00200C2343439B1881
:10CA90009B688B4203D0401CC0B20828F5D3704776
:10CAA00090450020044841880088814201D0002040
:10CAB00070470120704700001A3F002010B5406801
:10CAC000002103780948002B07D00122012B09D04F
:10CAD000022B05D10378002B04D00170FFF707FA71
:10CAE000002010BD0270FFF71CFAF9E7403F00205C
:10CAF00010B5022101220804FFF71AFB02210122CE
:10CB00008804FFF715FB022101224804FFF710FB00
:10CB100010BD10B544182046FEF7A0FA0002E178D7
:10CB2000000A0906084310BD10B50020E7F792FF80
:10CB30000020E7F77DFF0120E7F722FFE4F736FD4D
:10CB4000002010BD10B500F08FF900F07FFA10BD85
:10CB500010B51020FFF784FA0148E8F773F810BD0C
:10CB6000244400208EB0FF206A460221813000F06C
:10CB7000F9F9FEE710B50449002008600349086090
:10CB8000E1F734F910BD0000203E0020243E0020D3
:10CB900010B500F00BFA00F0BFF9E7F7A7FF01208E
:10CBA00005210006FFF780FA144800F081F900F033
:10CBB00023F9002000F01AF9FFF79AFFFFF77CF93C
:10CBC000012011210005FFF76FFA01201221400515
:10CBD000FFF76AFA01220021D004FFF7A9FA002228
:10CBE00011461020FFF7A4FAFEF7E4FB002108200D
:10CBF000FFF772FA0720FEF7A1FE10BD1000020039
:10CC000010B50848E7F7FAFD0020E7F7CFFD05204B
:10CC1000E7F71AFF0121880200F008F90020E7F782
:10CC2000FBFE10BDFFFF7F0010B5012005210006AF
:10CC3000FFF73AFA002010BD10B501208002FFF77F
:10CC400099FA002801D0012010BD0124E40200213E
:10CC50002046FFF729FA01212046FFF751FA00206C
:10CC600010BD00003EB5456814A00068009000208B
:10CC700003221146029000F069F802216846017013
:10CC8000FF24447002AA6946022000F079F829784E
:10CC90004020014368460170447002AA6946084872
:10CCA00000F06EF807216846017101214171417A57
:10CCB000817101A800F004FB00203EBD005500007A
:10CCC0000202000070B50E460546002405E0FF2074
:10CCD00000F016F83055641CA4B2AC42F7D3012022
:10CCE00070BDF0B516460F460546002405E0385DD8
:10CCF00000F006F83055641CA4B2AC42F7D3F0BD86
:10CD000010B500217D23DB000F4A04E00C46491CCE
:10CD100089B29C420ED8D4692407240F042CF5D87C
:10CD2000106000207D21090106E00346401C80B20E
:10CD30008B4201D9FF2010BDD3691B091B07F4D01A
:10CD40005068C0B210BD000000900140084B0004C4
:10CD5000C318080703430748034307484361826138
:10CD600001214162054901610021C1607047000055
:10CD700044FF00000000F0CF00A00140FF010000D0
:10CD8000F0B516460F460546002405E0385D00F074
:10CD900007F83055641CA4B2AC42F7D3F0BD0000D4
:10CDA00010B500217D23DB000F4A04E00C46491C2E
:10CDB00089B29C420ED8D4692407240F042CF5D8DC
:10CDC000106000207D21090106E00346401C80B26E
:10CDD0008B4201D9FF2010BDD3691B091B07F4D07A
:10CDE0005068C0B210BD000000A0014001490870A9
:10CDF00070470000183F0020024800210180418058
:10CE0000704700001A3F002070B50C46064D0146E1
:10CE10002846E0F743FCA1B22846E0F73FFC210C8E
:10CE20002846E0F73BFC70BDFFDF000010B5FFF7C0
:10CE3000B1F96420FFF797F810BD000010B5084A5B
:10CE40001278012A0AD109040A180549054C891CDF
:10CE500008888300401CE250C0B2088010BD00006A
:10CE6000183F0020A43F002070B50F480D4B0F4D18
:10CE7000048813E0DA691207120F042A0ED88A0018
:10CE8000AA581604360E1E60D6B21E60160E1E601C
:10CE90001202120E1A60491CC9B241804188A14297
:10CEA000E8D170BD004001401A3F0020A43F00209F
:10CEB0000549044BCB224B61886104480861CA6074
:10CEC0007047000066FF4C0000400140FFFF00007B
:10CED00013B569460F4809880180694689788170D1
:10CEE0006946C978C170694609790171694649790D
:10CEF00041716946897981716946C979C17110307A
:10CF0000FFF798F8034A019908320098FFF730F8C4
:10CF10001CBD0000003F00200949084808600A487D
:10CF2000084A0260094A42600A48094A42600A4ABD
:10CF300082600A4AC2600A484860704709CE02000F
:10CF4000303E002045CB0200283E002065CB020089
:10CF500039CC0200383E002029CC0200A5CA0200CC
:10CF60003DCE0200F0B50F4B0D4C9C6100250E4EDE
:10CF700010E00124240404435C6001241C600024AC
:10CF8000DF68FF0602D4641CB442F9D31C69401C5C
:10CF900010C26D1C8D42ECD300209861F0BD0000E2
:10CFA0000704062000400040400D030014491348C8
:10CFB000C8601548134981601449C1601449016172
:10CFC00014494161144981611449C16114490162E4
:10CFD00014494162144981621449C1621449816350
:10CFE0001449C163144901641449416414498164BA
:10CFF0001449C164144901657047000035B302004B
:10D00000B000002005B002003000002039B8020056
:10D01000ADB5020025B6020015B2020095B20200BD
:10D0200005B0020045B302007DB3020099B80200CA
:10D0300095B6020021B70200ADB7020099B2020016
:10D04000CDB2020001B3020005B002000149022086
:10D05000C86070470080014010B540680078002823
:10D0600001D0012801D1FEF725FC002010BD08B534
:10D07000012069460870487023208870684600F0D7
:10D080001FF9002008BD000003498988814201D1B1
:10D0900002207047002070472E3F00207CB5002200
:10D0A000174B18491046D5F757F9002825D000240A
:10D0B0001449FF23009405332246891C204601941D
:10D0C000D5F716F9002818D00D4D0E49AD1F288050
:10D0D000FF23002200941133491C10460194D5F718
:10D0E00007F9002809D06880D5F717F9002804D07F
:10D0F000A880D5F717F900207CBD01207CBD000079
:10D10000343F0020D0FF000070B540680024017853
:10D110003F4E86B0002907D00225012915D00229EB
:10D1200026D0032972D13CE0684604700321417087
:10D13000847071880A0AC270017100F0C1F87088A9
:10D14000401C7080022006B070BD684604704570B7
:10D15000012181703178C17000F0B2F83078401E42
:10D160000006000E307001D1642030700120EAE723
:10D1700003A8FEF747FF68460470082141708570D8
:10D1800081890A0AC2700171817B4171C17B817101
:10D19000017CC171417C0172817C417200F090F888
:10D1A00034E041787D230279DB00594353188178BC
:10D1B00064225143C2780A24624389185A18694686
:10D1C0000A804179827961438A1869468A70C179F7
:10D1D000027A61438A186946CA70417A0A22514329
:10D1E000827A8A1869460A71C17A0A225143027BFF
:10D1F0008A1869464A71417B0A22807B514308188C
:10D200006946887101990098FFF762FE00209AE74D
:10D21000443F002038B5446813484079002802D0C4
:10D220001148E7F73EFC2078002804D0012809D0F7
:10D23000022817D106E01020FEF712FF0A48E7F790
:10D2400030FC0FE01020FEF79FFF084A002106483F
:10D25000E7F708FC00207D2203460090D200024838
:10D26000E7F79AFC002038BD2444002051CB02008F
:10D2700010B5417801290CD004290AD181780B001E
:10D28000D5F798F90805080B0E1114171A07FFF7C0
:10D290003BFF10BDFFF712FC10BDFEF7E9F810BD13
:10D2A00000F03EF810BDFFF7E2FE10BDFFF7B2FF41
:10D2B00010BDFFF7D1FE10BDFFF7D4FC10BD00007C
:10D2C00070B504460B4885880B48854201D1002083
:10D2D00070BD627821460948921CFDF7ADFE627868
:10D2E000002306492846921CD5F760F86078801C18
:10D2F000C0B270BD2E3F0020FFFF0000A4430020FD
:10D3000006498988814207D1002A05D00348801E3A
:10D310000078107002207047002070472E3F0020D8
:10D3200000B585B04068032269460A7008224A7039
:10D330000178427809028A1869468A8182788A735C
:10D34000C278CA7302790A7442794A7480798874FF
:10D350005A20C87400A8082203A90230FDF76CFE09
:10D3600004990398FFF7B4FD6846FFF7A9FF6946E3
:10D37000487805B0801C00BDF8B51149069E8A8822
:10D380001C46824203D11878891E087015E009886E
:10D39000814212D1142E10D80A480068E4F774FABA
:10D3A00005000AD0B21EA11CFDF746FE0095637869
:10D3B000227804210620FEF7A7FC0020F8BD00001B
:10D3C0002E3F0020503F002010B5044680070CD1AE
:10D3D00064212046FDF71AFE002908D1FF21913172
:10D3E0002046FDF713FE002901D0002010BD0120CA
:10D3F00010BD0000FDBA02000000000001000000A6
:10D40000000600000A000000080000003C44002064
:10D410000A0000001400000098440020777269732D
:10D420007462616E64206465766963650000000063
:10D4300050D40200003F0020A40000001CB90200EC
:10D44000F4D40200A43F0020140700002CB902000D
:10D4500000000000000000000000000000000000CC
:10D4600000000000000000000000000000000000BC
:10D470000000000001200002200004050000000060
:10D480000000000089D0020001D3020079D302001D
:10D490000000000064000000000000000000000028
:10D4A00000000000000500000000000012096D7877
:10D4B00064626C652D777269737462616E640000DA
:10D4C0000201050319C0000502F0FF0D180000005D
:10D4D000FF0000000000000000000000000000004D
:10D4E000000000000000000000000000000000003C
:04D4F0000000000038
:040000050002B00144
:00000001FF
