:020000040800F2
:100000003004002001010008B9170008BB170008E0
:10001000BD170008BF170008C11700080000000046
:10002000000000000000000000000000C3170008EE
:10003000C517000800000000C7170008C91700080E
:100040001B0100081B0100081B010008CD17000858
:100050001B0100081B0100081B01000823180008F1
:100060001B0100081B0100081B0100081B01000800
:100070001B0100081B0100081B0100081B010008F0
:100080001B0100081B0100081B0100081B010008E0
:100090001B0100081B0100081B0100081B010008D0
:1000A0001B0100081B0100081B0100081B010008C0
:1000B0001B010008FD1700081B0100081B010008B8
:1000C0001B0100081B0100081B0100081B010008A0
:1000D0001B010008C51B0008A11B00081B0100082C
:1000E0001B0100081B0100081B010008DFF80CD0F1
:1000F00001F0E2FF004800477517000830040020B7
:100100000648804706480047FEE7FEE7FEE7FEE7B1
:10011000FEE7FEE7FEE7FEE7FEE7FEE7C5010008B3
:10012000ED0000080CB500214B48019100910268D8
:1001300042F4803202604FF4A063026802F400329D
:100140000092019A521C0192009A12B9019A9A42A5
:10015000F3D10268920333D5012100913F490A6827
:1001600042F010020A600A6822F003020A600A687C
:1001700042F002020A6041684160416841604168A2
:1001800041F480614160416821F47C114160416823
:1001900041F4E8114160016841F08071016001683B
:1001A0008901FCD5416821F003014160416841F0BB
:1001B000020141604168C1F381010229FAD10CBDFD
:1001C00000910CBD244810B5016841F001010160A7
:1001D0004168234A114041600168224A1140016090
:1001E000016821F480210160416821F4FE01416031
:1001F0004FF41F018160FFF795FF1B494FF000602E
:10020000086010BD144910B54868184A10F00C0376
:10021000174803D0042B01D0082B0AD0026049688C
:10022000134AC1F30311121D515C0268CA400260F7
:1002300010BD4A684B6802F470124FF0020413F4C8
:10024000803F04EB924202D04B689B0301D5094BDF
:1002500000E0064B5A43E1E7001002400020024054
:100260000000FFF8FFFFF6FE08ED00E000127A0044
:100270000000002000093D00284908432849086083
:10028000704770B50F23C47801780122F4B1244C73
:100290002468457804F4E064C4F5E064240AC4F1F9
:1002A0000406E3408478B5401C402C4301F1E02172
:1002B000230181F80034007800F01F018A404009D2
:1002C000800000F1E020C0F8002170BD01F01F00A7
:1002D00082404809800000F1E020C0F8802170BD14
:1002E000104A114001430E48001F016070470C4A3C
:1002F000121D0029116801D0014300E08143116003
:1003000070474FF0E0210428086903D020F0040072
:100310000861704740F00400FAE700000000FA05A9
:100320000CED00E080FFFF1F914910B5884206D117
:100330000121042000F04BFA002104203BE08D490C
:10034000884206D10121082000F041FA002108204E
:1003500031E08949884206D10121102000F037FAA6
:100360000021102027E08549884206D10121202064
:1003700000F02DFA002120201DE08149884206D19D
:100380000121402000F023FA0021402013E07D49A4
:10039000884206D10121802000F019FA0021802036
:1003A00009E0794988420AD184150121204600F0EC
:1003B0000EFA00212046BDE8104000F008BA10BD3A
:1003C00010B50121084600F002FA0021BDE81040F6
:1003D000012000F0FCB9F0B5CA78002502F00F0347
:1003E000D20601D58A7813430A784FF00F0E12F027
:1003F000FF0F4FF001021DD0D0F800400F8802FA25
:1004000005F63740B74211D14FEA850C0EFA0CF7CA
:1004100024EA070703FA0CF43C43CF78282F02D0D4
:10042000482F02D002E0466100E006616D1C082DF5
:10043000E4D304600C88FF2C1ED944685FF00006EA
:1004400006F1080702FA07F50F882F40AF420FD1D7
:100450004FEA860C0EFA0CF7BC4303FA0CF73C4348
:10046000CF78282F00D14561CF78482F00D1056182
:10047000761C082EE4D34460F0BD4FF6FF71018076
:10048000022181700421C1707047024600209268E9
:100490000A4200D001207047806880B2704702464F
:1004A0000020D2680A4200D001207047C06880B2A4
:1004B000704701617047416170470AB1016170473F
:1004C00041617047C160704741F48032826181614F
:1004D00082618169806970472C4B10B51A684FF6AC
:1004E0008074224042EA00100843186010BD284979
:1004F000C8617047F0B5254C002801DAE36900E0D7
:100500006368420D120185B2C0F301579540C0F3F4
:100510000346032F05D0C2020AD50322B2409343FB
:1005200007E023F07062636823F07063636002E0A9
:10053000AB4343F0706201B12A43002801DAE26163
:10054000F0BD6260F0BD10B58A0721F003040F49C9
:10055000130F21440F228C689A4094438C608A6860
:10056000984002438A6010BD0949C1F8DC00704719
:1005700000080140000C014000100140001401403F
:1005800000180140001C0140002001400000014013
:1005900000002042A448016841F001010160416867
:1005A000A24A114041600168A14A114001600168FE
:1005B00021F480210160416821F4FE0141604FF483
:1005C0001F018160704798490A6822F480320A60EE
:1005D0000A6822F480220A60B0F5803F07D0B0F5A7
:1005E000802F03D1086840F4A02008607047086895
:1005F00040F48030F9E70246002053098A49012B74
:100600000AD0022B0AD0496A02F01F02012393404C
:100610000B4200D0012070470968F5E7096AF3E74B
:1006200018B500204FF4A06400903120FFF7E3FFDD
:100630000099491C0091A14201D00028F5D0312039
:10064000FFF7D9FF002800D0012018BD76490A68BD
:1006500022F0F80242EAC00008607047754908605D
:100660007047714A5368084323F47C131843506061
:1006700070477049086670476B4A516821F0030162
:100680000143516070476848406800F00C007047B3
:10069000654A516821F0F001014351607047624A98
:1006A000516821F4E0610143516070475E494A6836
:1006B00022F4605242EAC000486070475A4A00295A
:1006C000517A01D0014300E081435172704759498A
:1006D000C1F8D8007047544A516821F440410143A1
:1006E000516070475049002281F8202081F8202075
:1006F000012802D0042802D1052081F8200070478B
:100700004D490860704748490A6A02430A627047C7
:10071000494944390860704730B543494A6812F086
:100720000C03464A03D0042B01D0082B21D00260D1
:100730004A680F23424C03EA1212A35C0268DA40B3
:1007400042604B68072505EA1323E35C22FA03F3B2
:1007500083604B6805EAD323E35CDA40C2604968F2
:10076000032303EA9131231F595CB2FBF1F10161CC
:1007700030BD4A684B6802F470124FF0020413F463
:10078000803F04EB924202D04B689B0301D52D4B76
:1007900000E02A4B5A43CAE7234A0029516901D095
:1007A000014300E08143516170471F4A002991696C
:1007B00001D0014300E08143916170471A4A00294A
:1007C000D16901D0014300E08143D1617047164AED
:1007D0000029D16801D0014300E08143D160704716
:1007E000114A0029116901D0014300E081431161E0
:1007F000704711494039086070470E49C864704716
:100800000949C87170470848416A41F080714162E6
:100810007047054A0146002092680A4200D0012034
:100820007047014988727047001002400000FFF8CD
:10083000FFFFF6FE000042428004424200127A00AE
:100840001800002000093D00424A0029118801D00B
:10085000014300E08143118070473E48001D01883C
:1008600041F01001018070473A48001D018821F0D5
:1008700010010180704737481C3000883549183115
:10088000098840EA0140704700B50246FFF7E5FFDE
:100890003049100C18310880081D02805DF804EB07
:1008A000E2E700B50246FFF7D8FF2A49C2F303404A
:1008B00008310880081D02805DF804EBD4E700B51C
:1008C0000246FFF7CAFF2349100C20310880081D9B
:1008D00002805DF804EBC7E71E481030008800076F
:1008E000010B1C4814300088084370471948001D4C
:1008F00001888906FCD570471648001D018821F043
:100900000801018001880907FCD570470146114A9A
:100910000020121D12880A4200D0012070470D49A4
:10092000091D0A8882430A8070470A49091D0988FF
:10093000C2B21140074A1288024202D009B1012016
:100940007047002070470349091D0A8882430A80C6
:100950007047000000280040F94910B5884202D1D4
:100960000121C41486E0B0F1804F09D0F5498842D6
:100970000DD101210220FFF733FF0021022064E0A6
:1009800001210846FFF72CFF002101205DE0EE4920
:10099000884206D101210420FFF722FF0021042014
:1009A00053E0EA49884206D101210820FFF718FFE9
:1009B0000021082049E0E649884206D101211020A3
:1009C000FFF70EFF002110203FE0E249884206D1E8
:1009D00001212020FFF704FF0021202035E0DE491F
:1009E000884202D10121441444E0DC49884202D10A
:1009F0000121CC043EE0DA49884202D101210C05F4
:100A000038E0D849884202D101214C0532E0D6496C
:100A1000884206D101214020FFF7E2FE002140205C
:100A200013E0D249884206D101218020FFF7D8FE89
:100A30000021802009E0CE4988420AD18415012195
:100A40002046FFF7CDFE00212046BDE81040FFF70D
:100A5000C7BEC849884202D101210C040AE0C64938
:100A6000884202D101214C0404E0C44988420AD1E1
:100A700001218C042046FFF7AAFE2046BDE8104065
:100A80000021FFF7A4BE10BD30B50288AC4BB24CBC
:100A900098420DD0A0420BD0B0F1804F08D0A94DA4
:100AA000A84205D0A84DA84202D0A84DA84203D123
:100AB00022F070054A882A43A54DA84206D0A54DCC
:100AC000A84203D022F44075CA882A4302808A884B
:100AD00082850A88028598420AD0A04208D0A54A99
:100AE000904205D0A44A904202D0A44A904201D13B
:100AF000097A01860121818230BD30B5028C22F055
:100B000001020284028C8388048B22F0020224F00A
:100B100073050C882C430D8915434A882A43884D58
:100B2000A8420BD08C4DA84208D0924DA84205D0C7
:100B3000914DA84202D0914DA8420DD122F0080556
:100B40004A8923F440732A4322F004058A882A4301
:100B50008D891D43CB892B4383800483C98881867B
:100B6000028430BD70B5028C22F010020284028C27
:100B70008488038B0D8823F4E6464FF6FF7303EA5F
:100B8000052535430E8922F0200203EA0616164396
:100B90004A8803EA02123243694EB04202D06E4ED6
:100BA000B04215D122F080064A8924F4406403EA59
:100BB0000212324322F040068A8803EA02123243CC
:100BC0008E8903EA86062643CC8903EA84043443EB
:100BD00084800583C9880187028470BD70B5028C4A
:100BE00022F480720284028C8488838B0D8823F027
:100BF00073031D4322F400730E894FF6FF7202EA5D
:100C000006261E434B8802EA032333434C4EB04270
:100C100002D0514EB04215D123F400664B8924F422
:100C2000405402EA0323334323F480668B8802EAAC
:100C3000032333438E8902EA06162643CC8902EA4F
:100C40000414344384808583C9888187038470BDFC
:100C500070B5028C22F480520284048C8288838BCB
:100C60000D8823F4E6464FF6FF7303EA0525354366
:100C700024F400560C8903EA043434434E8803EA12
:100C8000063626432E4CA04202D0334CA04205D15A
:100C900022F480448A8903EA821222438280858377
:100CA000C988A0F84010068470BD828B22F440628F
:100CB0008283828B4FF6FF7303EA01210A4382830A
:100CC0007047828B22F00C028283828B0A438283DC
:100CD0007047028B22F440620283028B4FF6FF734F
:100CE00003EA01210A4302837047F0B5048C24F023
:100CF00010040484078B048C4FF6FF7527F47347A8
:100D000005EA03333B4305EA02221A430C4B05EA8A
:100D1000011698420ED0104B98420BD0B0F1804F84
:100D200008D0084B984205D0074B984202D0074B99
:100D3000984225D124F02001314341F0100124E0F4
:100D4000002C01400004004000080040000C00405E
:100D5000001000400014004000340140004C0140ED
:100D6000005001400054014000180040001C0040A9
:100D70000020004000400140004401400048014084
:100D800024F0A0030B4343F0100102830184F0BD63
:100D9000028B22F00C020283028B0A43028370470B
:100DA00070B5048C24F001040484058B048C4FF688
:100DB000FF7606EA0313134325F0F305F94A2B43A4
:100DC00090420ED0F84A90420BD0B0F1804F08D03C
:100DD000F64A904205D0F64A904202D0F54A904237
:100DE00002D124F0020201E024F00A020A4342F098
:100DF00001010383018470BD2DE9F05F0D460446B7
:100E00000888E84FDFF8A0C3DFF8A0834988AA88E4
:100E10002B894FF0804960B3042832D04FF6FF7E13
:100E2000082836D0208C9B4620F480502084A38B49
:100E3000268C704600EA022223F473431A4300EA28
:100E40000B3010430EEA013EBC420BD0644509D082
:100E50004C4507D0444505D0D54A944202D0D54BE5
:100E60009C4245D126F4005141EA0E0141F48051E3
:100E700043E02046FFF794FFE9882046BDE8F05F95
:100E800086E72046FFF731FFE9882046BDE8F05F9E
:100E90001FE7208C20F480702084B4F81CA0208CE4
:100EA0000EEA031313432AF0F30A0EEA012B43EA76
:100EB0000A03BC420BD0644509D04C4507D04445D9
:100EC00005D0BB4A944202D0BA4A944204D120F4DD
:100ED000007040EA0B0002E020F42060084340F478
:100EE0008070A3832084E9882046BDE8F05FE8E6AF
:100EF00026F402420A4342F48051A0832046218412
:100F0000E988BDE8F05FD0E62DE9F0410C46002607
:100F100049880746012501B90226A288012A00D185
:100F20000225208823890028384610D0FFF7DDFEEF
:100F3000E1883846FFF7CDFE23892A4631463846F8
:100F4000FFF72EFFE1883846BDE8F04120E7FFF7C4
:100F500027FFE1883846FFF71BFF23892A463146E1
:100F60003846FFF7C2FEE1883846BDE8F041B0E6FA
:100F700010B50A884B88CC881A438B8823431A43C0
:100F80000B891A434B8989891A430A43A0F84420E4
:100F900010BD4FF6FF71818000210180C18041802A
:100FA000017270470021018041808180C1800181F0
:100FB00041818181C18170470021018041800122EE
:100FC0008280C18001817047002101804180818041
:100FD000C18001814181818170470029018802D04F
:100FE00041F0010101E021F0010101807047002979
:100FF00030F8441F02D041F4004101E0C1F30E017A
:1010000001807047002A828901D00A4300E08A43A8
:1010100082817047818270471143A0F84810704761
:10102000002A828901D00A4300E08A438281704706
:10103000018921F0070101817047028922F07002C5
:101040000A430281704700B50346FFF7F6FF18898F
:1010500040F00700188100BD70B516460D466029A6
:1010600004464FF0010231460AD0FFF799FE2946A7
:101070002046FFF7E2FF208940F00700208170BD85
:10108000FFF733FEF3E730B504894FF6FF7505EA45
:1010900003231343E4B20B432343038130BD10B554
:1010A0000446FFF7F0FF208940F07700208110BD53
:1010B00010B50446FFF7E7FF208940F48040208107
:1010C00010BD018582827047028822F070020A43B7
:1010D0000280704770B50589048B068C25F00705E2
:1010E0000D434FF6FC410C4040F201110C434FF60A
:1010F000FF7101EA031126F02206114331430581F5
:101100000483018470BD028B22F070020A430283C3
:101110007047028B4FF6FF7322F4E04203EA01218D
:10112000114301837047828B22F070020A4382834D
:101130007047828B4FF6FF7322F4E04203EA0121ED
:101140001143818370470029018802D041F080015A
:1011500001E021F08001018070470029818802D0E0
:1011600041F0040101E021F0040181807047002971
:10117000818802D041F0080101E021F0080181805E
:1011800070470029818802D041F0010101E021F07F
:10119000010181807047028B22F008020A4302831A
:1011A00070470000002C0140003401400004004062
:1011B00000080040000C0040028B4FF6FF7322F441
:1011C000006203EA012111430183E9E7828B22F0E7
:1011D00008020A438283E3E7828B4FF6FF7322F40F
:1011E000006203EA012111438183D9E7028B22F0D7
:1011F00004020A430283D3E7028B4FF6FF7322F403
:10120000806203EA012111430183C9E7828B22F046
:1012100004020A438283C3E7828B4FF6FF7322F4F2
:10122000806203EA012111438183B9E7028B22F036
:1012300080020A430283B3E7028B4FF6FF73C2F3C7
:101240000E0203EA012111430183A9E7828B22F0F8
:1012500080020A438283A3E7828B4FF6FF73C2F3B7
:101260000E0203EA01211143818399E7028C22F0E7
:1012700002020A43028493E7028C22F008020A4326
:1012800002848DE7028C4FF6FF7322F0200203EAFE
:1012900001111143018483E7028C4FF6FF7322F0A2
:1012A000800203EA01111143018479E7028C4FF6B1
:1012B000FF7322F4007203EA0121114301846FE7F6
:1012C000028C4FF6FF7322F4006203EA01211143FE
:1012D000018465E7028C4FF6FF7322F4005203EAA3
:1012E0000131114301845BE710B50123048C8B406D
:1012F0009C430484038C8A401343038410BD10B5BF
:101300000423048C8B409C430484038C8A40134345
:10131000038410BD30B50124058C00F118038C4006
:10132000A543058489B108290FD0091FC1F34E00D8
:101330001844016821F4E041016001684FF6FF7331
:1013400003EA02221143016030BD03EB5100016842
:1013500021F0700101600168F4E70029018802D0E2
:1013600041F0020101E021F00201018018E70029AB
:10137000018802D041F0040101E021F00401018064
:101380000EE70029818802D041F0800101E021F0C0
:101390008001818004E7028822F00802028002882E
:1013A0000A430280FCE6828822F0700282808288F2
:1013B0000A438280F4E6028922F007020281028950
:1013C0000A430281ECE6028922F08002028102894E
:1013D0000A430281E4E68184E2E68185E0E68186D3
:1013E000DEE60187DCE68187DAE6A0F84010D7E682
:1013F000028822F44072028002880A430280CFE60B
:10140000808ECDE6008FCBE6808FC9E6B0F8400035
:10141000C6E6808CC4E6008DC2E602460020128A31
:101420000A4200D00120BBE6C9430182B8E6024669
:101430000020138A92890B4202EA010202D0002A9C
:1014400000D00120ACE6C9430182A9E6C44910B529
:1014500088420AD101218C032046FFF7B8F92046C3
:10146000BDE810400021FFF7B2B9BE49884202D161
:1014700001214C0410E0BC49884202D101218C04B6
:101480000AE0BA49884202D10121CC0404E0B849FB
:1014900088420AD101210C052046FFF7A1F9204618
:1014A000BDE810400021FFF79BB910BD30B50446E0
:1014B000008A85B00D464CF6FF710840E98801436B
:1014C0002182A1894EF6F3100140A8882A89104391
:1014D0006A890A431043A081A08A4FF6FF41084061
:1014E000A9890143A1826846FFF716F99C48844206
:1014F00001D1039800E00298A189090400EBC00122
:1015000001EB0010296801D5490000E08900B0FB1B
:10151000F1F06422B0FBF2F109010B096FF018053C
:101520006B4300EB8300A3891D044FF0320306D503
:1015300003EBC000B0FBF2F000F0070005E003EBA6
:101540000010B0FBF2F000F00F000843208105B05E
:1015500030BD4FF41651016000218180C1800181AE
:101560000C2242818181704710B5038A4FF2FF023D
:1015700013400A884C8822438C88C9880C43224334
:101580001A43028210BD0021018041808180C18008
:1015900070470029818902D041F4005101E021F413
:1015A00000518181704710B5C1F3421301F01F044F
:1015B0000121A140012B07D0022B07D01430002AB3
:1015C000026805D00A4304E00C30F8E71030F6E773
:1015D0008A43026010BD002A828A01D00A4300E0DB
:1015E0008A4382827047028A22F00F020282028AB4
:1015F0000A4302827047828922F4006282818289D2
:101600000A43828170470029818902D041F002019A
:1016100001E021F0020181817047028A22F020025C
:101620000282028A0A43028270470029018A02D09C
:1016300041F4804101E021F4804101827047C1F30F
:101640000801818070478088C0F308007047818955
:1016500041F0010181817047028BD2B20283028B7B
:1016600042EA012101837047028B02F47F42028328
:10167000028B0A43028370470029818A02D041F01D
:10168000200101E021F02001818270470029818A38
:1016900002D041F0100101E021F010018182704779
:1016A0000029818A02D041F0080101E021F00801FF
:1016B000818270470029818902D041F4004101E014
:1016C000C1F30E01818170470029818A02D041F463
:1016D000006101E021F4006181827047828A22F07A
:1016E00004028282828A0A43828270470029818AA8
:1016F00002D041F0020101E021F002018182704735
:101700000246002012880A4200D001207047C943D7
:101710000180704730B501F01F0201240025C1F39C
:10172000421304FA02F2012B0FD0022B0FD0838A4E
:101730004FEA11210088134204FA01F400EA040080
:1017400001D000B10125284630BD8389F0E7038A26
:10175000EEE70A0A01219140C94301807047000069
:10176000003801400044004000480040004C004068
:101770000050004000F05AF84FF47A7000F073F80F
:101780004FF4E134204600F0E0F8204600F018F96C
:10179000642000F068F802A000F0D2FCFEE7000030
:1017A0000D0A2042617474657279205265706F72FF
:1017B00074657220200D0A007047FEE7FEE7FEE721
:1017C000FEE770477047704700F066B810B501201B
:1017D000FFF7ABF858B1134C01212046FEF75FFE2E
:1017E000C0F10100C2B201212046FEF766FE0120D1
:1017F000FFF7A9F8BDE81040FFF778B810B50A4C1C
:1018000001212046FFF713FE002809D001212046C0
:10181000FFF719FE2046BDE810400021FFF7DDBBB1
:1018200010BD7047000C0140000400401E484FF4FA
:101830007A710068B0FBF1F0B0F1807F12D220F035
:101840007F414FF0E020491E4161184AF02182F8A3
:10185000141D0021816107210161016921F001014D
:1018600001617047FEE701B51148009901604FF032
:10187000E0210A6942F001020A6101680029FCD1F5
:1018800008BD01B503E00920401E80B2FCD20098DB
:10189000411E0091F7D208BD05480168002902D019
:1018A0000168491E01607047000000200FE000E061
:1018B000280000207047CC490A885206FCD5CA4A45
:1018C000C1B2121D1180704738B501210420FEF706
:1018D0006CFFC64C80212046FEF7EBFD8020ADF862
:1018E000000010208DF8030003208DF802006946E7
:1018F0002046FEF770FD38BD70B5BC4E0546802110
:101900003046FEF7D8FD6820FFF7BBFF5FF000040C
:1019100025FA04F010F0010F4FF08001304611D08D
:10192000FEF7C7FD6820FFF7ACFF641CE4B2082C8B
:10193000EED380213046FEF7BCFDBDE87040682044
:10194000FFF79FBFFEF7B7FDECE770B5044686B022
:10195000012144F20400FEF728FFA34D2846FFF7BB
:1019600075FD6815ADF8100003208DF812001820E1
:101970009E4E8DF8130004A93046FEF72CFD281565
:10198000ADF8100048208DF8130004A93046FEF78A
:1019900022FD0020ADF80400ADF80600ADF8080007
:1019A000ADF80C000C20ADF80A00009469462846FA
:1019B000FFF77CFD01212846FFF7EBFD06B070BD67
:1019C000F0B5054687B001210420FEF7EEFE0121A7
:1019D0004804FEF7F3FE864E3046FFF737FD042439
:1019E000ADF8104003208DF8120018207F4F8DF8BD
:1019F000130004A93846FEF7EEFC0820ADF81000ED
:101A00008DF8134004A93846FEF7E5FC26208DF832
:101A1000140000248DF8154001208DF816008DF873
:101A2000170005A8FEF72DFCADF808400C20ADF816
:101A30000440ADF80A000095ADF80640ADF80C4042
:101A400069463046FFF732FD012240F2255130460B
:101A5000FFF7A9FD012240F224413046FFF7A3FD24
:101A600001213046FFF795FD07B0F0BD014661A0AA
:101A700000F066BB0FB4F0B5C1B047AC00265C4DBA
:101A80000FE05C2915D000F10100252946901ED0F9
:101A90002846FFF7D4FD80212846FFF731FE0028B5
:101AA000F9D0469801780029EBD141B0F0BC5DF83F
:101AB00014FB401C469001786E2903D072291BD17B
:101AC0000D2100E00A212846FFF7B9FD13E0017857
:101AD000642914D073290FD180CC09E02846FFF780
:101AE000AEFD80212846FFF70BFE0028F9D07F1CB1
:101AF00039780029F2D14698401C4690CBE702CCB9
:101B000000276846002920D007DA4FF02D028DF813
:101B10000020C1F1000100F1010042F210734FF00A
:101B20000A0C00BF91FBF3F252EA070E06D002F155
:101B3000300700F8017B02FB1311012793FBFCF334
:101B4000002BEFDC06706F460FE030208DF80000B0
:101B50008DF80160F7E72846FFF771FD80212846E0
:101B6000FFF7CEFD0028F9D07F1C39780029F2D18B
:101B7000C1E770B51E4E0D460446B1F5807F0EDC00
:101B80000BE000BF14F8011B3046FFF758FD802121
:101B90003046FFF7B5FD0028F9D06D1EF2D270BDBA
:101BA00010B5134C40F225512046FFF7B3FD10B19C
:101BB0002046FFF748FD2046BDE8104040F2244192
:101BC000FFF7A8BD10B5084C40F225512046FFF79D
:101BD000A1FD10B12046FFF736FD2046BDE81040BC
:101BE00040F22441FFF796BD003801400008014053
:101BF0000044004064656275675B25735D0D0A00F3
:101C00002DE9F04D81EA030404F0004B21F000457A
:101C100014464FF0000A23F0004150EA050220D09C
:101C200054EA01021DD0C5F30A570246C5F3130357
:101C3000C1F31300C1F30A5640F4801543F4801336
:101C4000A7EB0608101BD64608F2FD3873EB05001B
:101C500002D308F1010801E092185B41B8F1000FCE
:101C600003DA00200146BDE8F08D00204FF480111A
:101C7000064684460EE0171B73EB050705D3121BBF
:101C800063EB050306434CEA010C49084FEA3000B8
:101C900092185B4150EA0107EDD152EA030012D0DD
:101CA00082EA040083EA0501084305D0101BAB411A
:101CB00006D20122002306E000224FF0004302E09A
:101CC0006FF0010253101AEB06004CEB085110EBB9
:101CD0000A0041EB0B01BDE8F04D00F047B830B50C
:101CE0000B46014600202022012409E021FA02F5DA
:101CF0009D4205D303FA02F5491B04FA02F5284474
:101D0000151EA2F10102F1DC30BD2DE9F05F0546A0
:101D1000002092469B4688460646814640241BE0AA
:101D2000284641464746224600F0E7F953465A46C0
:101D3000C01A914110D311461846224600F0CEF940
:101D40002D1A67EB01084F4622460120002100F0C2
:101D5000C5F917EB00094E41201EA4F10104DFDC98
:101D6000484631462A464346BDE8F09F10B5141E4A
:101D700073F1000408DA401C41F1000192185B4144
:101D80001A4301D120F0010010BD2DE9F04D92461B
:101D90009B4611B1B1FA81F202E0B0FA80F2203232
:101DA000904600F09BF904460F4640EA0A0041EADB
:101DB0000B0153465A46084313D0114653EA01001B
:101DC00019D0C8F14002504600F097F905460E467A
:101DD00050465946424600F081F9084305D001209B
:101DE00004E020463946BDE8F08D0020054346EA70
:101DF000E0762C4337430A986305E40AA0EB080019
:101E00000022FD0A44EA47540A3002D50020014668
:101E1000E9E7010510196941DDE908450019694143
:101E2000BDE8F04DA2E72DE9FE4F804681EA0300B0
:101E3000C00F0C46009021F0004123F00045B8EBA4
:101E40000200A94105D24046214690461C460B4659
:101E5000024623F00040104347D0270DC7F30A0085
:101E6000C3F30A510290401A019040286BDAC3F381
:101E7000130040F4801B0098924620B10023D2EB5F
:101E8000030A63EB0B0B01985946C0F14002504620
:101E900000F024F906460D4650465946019A00F0D6
:101EA0003CF910EB08006141002487EA115284EAF2
:101EB000E7731A4340D0009A62B3019A012A4FEAAD
:101EC000075215DC001B61EB02014FF0004202EAF1
:101ED0000752CDE90042001C41F5801132462B46E5
:101EE000FFF753FF03B0BDE8F08F40462146F9E706
:101EF000001B61EB0201001C41F5801300185B41DF
:101F00002018A2F5001747EB030140EAD570B61977
:101F10006D4111E06D084FEA360645EAC0754FEA9B
:101F20000752001B61EB0201001C41F580114908BA
:101F30004FEA30000019514132462B4603B0BDE84C
:101F4000F04FFFF713BF0098012240000023D0EBB1
:101F5000020263EBE073009821464FEAE074B8EBAD
:101F6000000061EB0401E9E783F000435BE781F0E7
:101F7000004158E72DE9FE4F81EA030404F00044D4
:101F800021F0004100944FF0000B23F0004350EA91
:101F900001045ED052EA03045BD0C3F30A54C1F3D8
:101FA0000A552C44A4F2F3340194A0FB0254C1F36B
:101FB000130141F48011C3F3130343F4801301FBB5
:101FC000024400FB034E840A970A44EA815447EA1C
:101FD0008357A4FB076802958D0A05FB07854FEA26
:101FE000932C04FB0C542705029D4FEA065847EA40
:101FF0001637B5EB08056EEB070C870E920E47EA15
:10200000811742EA8312A7FB0201B6EB0B0164EBD6
:1020100000042B0D43EA0C335E1844EB1C50DA46E7
:102020005146E7FB0201C5F313044FEA0B3343EAC1
:1020300014534FEA0432019C43EA0603A4F10C0452
:102040000294009CCDE900B4FFF79FFE03B0BDE809
:10205000F08F00200146F9E7C1F30A52C1F31301E2
:1020600040F2FF3341F480119A4202DA0020014627
:10207000704740F233439A42A2F2334202DC5242AA
:1020800000F03BB800F02AB830B5041E71F100042E
:1020900004DB4FF00044404264EB0101141E73F175
:1020A000000405DB1C464FF00043524263EB04037F
:1020B000994208BF904230BD064C074D06E0E068EB
:1020C00040F0010394E8070098471034AC42F6D37F
:1020D000FEF710F8142A0008342A0008202A04DB2E
:1020E000203A00FA02F1002070479140C2F120032B
:1020F00020FA03F3194390407047202A04DB203A6A
:1021000021FA02F00021704721FA02F3D040C2F117
:1021100020029140084319467047202A06DBCB175E
:10212000203A41FA02F043EAE07306E041FA02F392
:10213000D040C2F120029140084319467047000088
:102140000FB4054B10B503A9044A029800F0CAF871
:1021500010BC5DF814FB0000B71800082C0000202C
:1021600002E008C8121F08C1002AFAD17047704760
:10217000002001E001C1121F002AFBD170470000BE
:102180002DE9FF5FDDE90220010DDDF838B00243E3
:1021900018D044F61050A1F2FF3141430D140F98AE
:1021A000012820D0A5EB0B00401C5FEA000A4FF08D
:1021B0000004474EDFF81C91A046504616D5CAF1E0
:1021C000000728E00F98012443A2012808D000212D
:1021D00000980F9BC0E90021C0E90243BDE8FF9FC2
:1021E0006FEA0B01F4E7CBF10000DEE7074612E0EF
:1021F000F80707D02246334640464946FFF7BAFE65
:10220000804689462246334610461946FFF7B2FEFD
:1022100004460E467F10002FEAD1DDE90201BAF133
:10222000000F42464B4602DAFFF7A4FE01E0FFF73B
:10223000E7FC04460E460022284BFFF725FF03D893
:102240004FF0FF30014607E00022254B2046314683
:10225000FFF7E9FDFFF700FF102409E0002C0ADB7F
:102260000A220023FFF751FD019B30321A55641EEC
:1022700050EA0102F2D1641C019AC4F11103144422
:102280000F9A012A03D0012208430DD10AE0084326
:1022900004D000204FF0110B0F9080E7A3EB0B054B
:1022A0006D1E0DE05B4504DD4FF0000205F10105F8
:1022B00004E003DA4FF00002A5F10105002AECD09A
:1022C00000980F99C0E90231C0E9004586E7000097
:1022D000000024400000F03F300000000000F04308
:1022E0000000E03F2DE9FF4F95B09B46894606462A
:1022F00000250FE2252877D100242746F84A01213E
:10230000059400E0044316F8013F203B01FA03F076
:102310001042F7D130782A2811D06FF02F0330788F
:10232000A0F13002092A16D8059A44F0020402EB03
:10233000820203EB42021044761C0590EFE759F845
:10234000042B0592002A03DA504244F4005405900D
:1023500044F00204761C30782E2816D116F8010FAE
:1023600044F004042A280DD06FF02F023078A0F139
:102370003003092B09D807EB870302EB4303C71887
:10238000761CF3E759F8047B761C30786C280FD064
:1023900006DC4C2817D068280DD06A2814D104E038
:1023A000742810D07A280FD10DE044F400140AE00C
:1023B00044F4801401E044F440147278824202D163
:1023C00004F58014761C761C307866280BD013DC5C
:1023D000582877D009DC002875D04528F6D0462843
:1023E000F4D047281AD19DE118E0632835D064283D
:1023F00079D0652812D195E1702873D008DC672860
:10240000F1D069286FD06E280DD06F2806D1B5E0C5
:1024100073282CD0752875D0782874D05A4617990F
:1024200090476D1C75E1C4F30250022809D00328BF
:102430000DD0D9F8001004280DD00D6009F1040961
:1024400067E1D9F80010EA17C1E90052F6E7D9F8B8
:1024500000100D80F2E70D70F0E719F8041B8DF8FD
:10246000001000208DF80100EA46012003E059F831
:1024700004AB4FF0FF3061074FF0000102D40DE0D4
:1024800008F101018846B9420FDA8045F8DB1AF8F5
:1024900008100029F4D108E008F1010188468142C2
:1024A000FADB1AF808100029F6D105985B46A0EB74
:1024B000080721463846179A00F094FA284400EBA2
:1024C000080507E04DE029E10DE01AF8010B5A4636
:1024D00017999047B8F10108F7D25B462146384674
:1024E000179A13E142E00A220092C4F302524FF01D
:1024F000000A022A08D059F804CB032A4FEAEC71EB
:102500000AD00DE029E02AE009F1070121F00702D5
:10251000F2E802C1914609E00FFA8CFC4FEAEC7137
:10252000042A03D14FFA8CFC4FEAEC71002907DA38
:102530000A460021DCF1000C61EB02012D2202E0D1
:10254000220504D52B228DF80420012203E0E207A6
:1025500001D02022F7E7904659E00A2102E010223C
:102560000DE010214FF0000A00910BE010224FF017
:10257000000A44F004040827009203E008224FF008
:10258000000A0092C4F30252022A05D059F804CB83
:102590000021032A08D009E009F1070121F0070210
:1025A000F2E802C1914605E01FFA8CFC042A01D131
:1025B0000CF0FF0C4FF00008220728D5702806D039
:1025C000009B83F0100353EA0A0305D00EE040227B
:1025D0008DF80420012208E05CEA010206D03022D6
:1025E0008DF804208DF8050002229046009B83F0B0
:1025F000080353EA0A030AD15CEA010201D1620727
:1026000005D530228DF804204FF001087F1E582890
:1026100004D034A003900EA802900DE036A0F9E794
:1026200053466046009AFFF770FB84460398825C2D
:102630000298401E029002705CEA0100F0D10298FC
:1026400006A9081A00F1200A600702D524F4803494
:1026500000E00127574502DDA7EB0A0000E000205B
:1026600000EB0A01009005984144401A0590E003F0
:1026700006D45B462146179A059800F0B3F9054445
:10268000002706E001A85A46C05D179990476D1CC7
:102690007F1C4745F6DBE0030CD55B462146179AC5
:1026A000059800F09FF9054404E030205A46179938
:1026B00090476D1C0099481E00900029F5DC08E049
:1026C000029802995A460078491C0291179990473E
:1026D0006D1CBAF10001AAF1010AF1DC65E100000C
:1026E00009280100303132333435363738396162E8
:1026F00063646566000000003031323334353637AC
:1027000038394142434445460000000000F058F982
:102710000544761C307800287FF4ECAD19B02846CB
:10272000BDE8F08F620700D4062709F1070222F006
:10273000070CFCE80223E14603F000485FEA080CBE
:1027400002D00FF2702C0DE05FEA045C02D50FF2AC
:10275000682C07E05FEAC47C02D00FF2602C01E035
:10276000AFF2700C4FF0FF3823F00043CDF850C0AB
:1027700065280CD006DC452809D046281DD04728FE
:102780003DD13DE0662818D067287ED138E0002191
:10279000112F01DB112000E0781CCDE9000106A912
:1027A0000EA8FFF7EDFCDDE90F010E9A0391002161
:1027B000009207F1010A04914DE04FF000400097AC
:1027C000CDE9011006A90EA8FFF7DAFCDDE90F023A
:1027D00003920E9B11990022DDF80CA00093049245
:1027E00011B9791C00EB010AB7EB0A0004D4C0F15F
:1027F000FF3007F1010A0490AAEB0700019044E0C2
:10280000012F00DA01270021112F01DD112000E046
:102810003846CDE9000106A90EA8FFF7B1FCDDE9B5
:102820000F010E9A0391002104910092BA462107EC
:102830000CD40399514500DA8A46BAF1010F05DD3F
:10284000009AAAF10101515C302908D0B84202DA9D
:1028500010F1040F06DA0121CDE9011015E0AAF10B
:102860000101E9E7002805DC049901440491AAEB81
:10287000000102E0411C514500DD8A460499401ADE
:10288000401C01904FF000400290200704D40198B2
:10289000504501DBCDF8048000208DF84F000298F0
:1028A0000DF14F07B0F1004F25D02B200E9002986C
:1028B0004FF0020800280CDA404202902D200E90C2
:1028C00007E00A210298FFF70AFA3031029007F870
:1028D000011DB8F10001A8F10108F2DC02980028FE
:1028E000EFD1791E0E980870307800F0200040F08B
:1028F000450007F8020D12A8C01B00F10708149844
:10290000007800B1012000EB0A01019801EBE071B1
:1029100005984144401A401E0590E00306D45B46EA
:102920002146179A059800F05DF805441498007840
:1029300018B15A46179990476D1CE00324D55B46A1
:102940002146179A059800F04DF805441CE00498BC
:10295000002807DBDDE90301884203DD0098405CC5
:10296000179901E0179930205A469047049805F1CD
:102970000105401C04900198401E019004D12E20B6
:102980005A46179990476D1CBAF10001AAF1010A45
:10299000DDDC05E017F8010B5A46179990476D1CCE
:1029A000B8F10001A8F10108F4DC5B462146179A52
:1029B0000598ABE62D0000002B0000002000000071
:1029C0002DE9F041044600251E461746880404D42C
:1029D00005E039462020B0476D1C641EF9D5284615
:1029E000BDE8F0812DE9F041044600251E469046E1
:1029F000C80301D5302700E02027880404D505E06E
:102A000041463846B0476D1C641EF9D52846BDE8DE
:102A1000F0810000342A000800000020300000008F
:102A200060210008642A0008300000200004000033
:102A30007021000800A24A0400000000000000000D
:102A4000010203040607080902040608000000004A
:102A50000102030401020304060708090000000044
:042A60000000000072
:04000005080000ED02
:00000001FF
