:020000040000FA
:10000000382200208D0400009504000097040000B1
:10001000990400009B0400009D0400000000000003
:100020000000000000000000000000009F0400002D
:100030000000000000000000A1040000A304000074
:10004000A5040000A504000031090000A50400007B
:10005000A5040000A5040000A5040000250500007B
:10006000E9080000A5040000A5040000A5040000A4
:10007000A5040000A5040000A5040000A5040000DC
:10008000A5040000A5040000A5040000A5040000CC
:10009000A5040000A5040000A5040000A5040000BC
:1000A000A5040000A5040000A5040000A5040000AC
:1000B000A5040000A50400000000000000000000EE
:1000C000A5040000A5040000A5040000A50400008C
:1000D000A5040000A50400000000000000000000CE
:1000E0000000000000000000000000000000000010
:1000F0000000000000000000000000000000000000
:1001000000000000000000000000000000000000EF
:1001100000000000000000000000000000000000DF
:10040000DFF80CD000F07CF800480047AD0D00008C
:1004100038220020401E00BF00BF00BF00BF00BF49
:1004200000BF00BF00BF00BF00BF00BF00BF00BFD4
:1004300000BF00BF00BF00BF00BF00BF00BF00BFC4
:1004400000BF00BF00BF00BF00BF00BF00BF00BFB4
:1004500000BF00BF00BF00BF00BF00BF00BF00BFA4
:1004600000BF00BF00BF00BF00BF00BF00BF00BF94
:1004700000BF00BF00BF00BF00BF00BF00BF00BF84
:1004800000BF00BF00BFC5D17047000006488047CD
:1004900006480047FEE7FEE7FEE7FEE7FEE7FEE769
:1004A000FEE7FEE7FEE700008D0600000104000005
:1004B00040EA01039B0703D009E008C9121F08C0E6
:1004C000042AFAD203E011F8013B00F8013B521E66
:1004D000F9D2704730B50B46014600202022012496
:1004E00009E021FA02F59D4205D303FA02F5491B02
:1004F00004FA02F52844151EA2F10102F1DC30BD18
:10050000064C074D06E0E06840F0010394E8070060
:1005100098471034AC42F6D3FFF776FFEC65000045
:100520000C6600002DE9FE434FF4827000F012FFCC
:100530000025DFF84C91534C012700286ED052481B
:100540004E46056094F82A00012818D06089401CA6
:10055000608160892189814223D18DF800506068D3
:1005600001902089ADF8080084F82750E06810B1A8
:10057000A18A00F08FFC2168684688474EE08DF81C
:100580000050606801902089ADF80800E06828B14B
:100590006060A08A2081E5603760ECE784F827502E
:1005A000E9E7002294F82900114600F0C9FE6189AC
:1005B000606800EB4100012100F0BAFE94F82900C8
:1005C00011E000BF04EB4001897D61B1C1B204EBD1
:1005D0004101CA7D897D00F0B3FE37602848001DC7
:1005E0000760BDE8FE83401C84F82900C0B20828DB
:1005F000E8D3002004EB4001897D11B184F8290083
:1006000003E0401CC0B20828F4D394F8290004EB9E
:100610004001CA7D897D00F093FE37604FF48A70F7
:1006200000F098FE28B118481030056084F8275073
:10063000D7E7A04626691FE0B6FA86F04FF00041E2
:10064000C1408E434FF48C7101EB8004204600F0D2
:1006500081FE88B144F80950A4F58C74E0088DF847
:10066000040044F38000401C8DF800708DF80500F4
:10067000D8F8001068468847002EDDD1B1E70000A9
:1006800000700040E001002004710040F0B58C488B
:100690000022041D0378211D081D0126062B17D1F9
:1006A00025782D0714D10D78C5F30315032D03D13B
:1006B000077817F0F00F0ED0042D03D1077817F04C
:1006C000F00F08D0052D03D1057815F0F00F02D0FA
:1006D000062B09D014E04FF08055D5F84452794FDD
:1006E000C5F342353D6002E025782D0708D10D782D
:1006F000C5F30315032D03D1057815F0F00F02D0D3
:10070000062B06D01DE0704D2F6827F080772F60F4
:100710001AE025782D0714D10D78C5F30315032DA4
:1007200003D1077817F0F00F0ED0042D03D107780E
:1007300017F0F00F08D0052D03D1057815F0F00F54
:1007400002D0062B0AD015E04FF08045C5F80C21E9
:10075000C5F810215B4D2D1F2A6002E025782D077A
:1007600008D10D78C5F30315032D03D1057815F0D5
:10077000F00F02D0062B05D066E0524C0323643400
:10078000236002E023781B075ED10978C1F30311CF
:10079000052959D1007810F0F00F55D14B48006869
:1007A0004B4908604948001D0068091D086047481A
:1007B00008300068091D086044480C300068091DB5
:1007C0000860424810300068091D08603F48143036
:1007D0000068091D08603D48183000683C49203118
:1007E00008603A481C300068091D0860374820300E
:1007F0000068091D0860354824300068091D08603C
:10080000324828300068091D086030482C300068E4
:10081000091D08602D48303000682D4940310860BE
:100820002A4834300068091D0860284838300068BC
:10083000091D086025483C300068091D08602348F0
:1008400040300068091D08601F487438016841F491
:1008500070010160BFF34F8FBFF36F8F4FF0102116
:10086000D1F80002002803DBD1F80002002822DAC8
:10087000184B1E6018480468002CFCD01524C1F8E1
:1008800000420568002DFCD0C1F80442016800292F
:10089000FCD01A6001680029FCD0BFF34F8F0A48D2
:1008A000F03801680D4A01F4E06111430160BFF3C3
:1008B0004F8F00BFFDE70B4909480860F0BD0000FD
:1008C000E00F00F03C050040FCED00E004040010E7
:1008D00020C5004004E5014000E401400400FA05A1
:1008E0000090D003300000202DE9F04700250E4C89
:1008F00004274FF4A078BE034FEA050908EB8500F2
:1009000006FA05F122584AB1D4F804230A4205D068
:1009100044F80090054A5168126890476D1CEDB28A
:10092000BD42EBD3BDE8F087008000400C02002000
:100930000348007F08B100F0A3BE00F01DBE000018
:10094000180200200FB4054B10B503A9044A029801
:1009500000F018F810BC5DF814FB0000CF0C00008C
:100960003C00002002E008C8121F08C1002AFAD18A
:1009700070477047002001E001C1121F002AFBD11F
:10098000704700002DE9FF4F89B09B4604460025C3
:1009900006E025280BD05A460B999047641C6D1C25
:1009A00020780028F5D10DB02846BDE8F08F00274B
:1009B000B8460122474900E0074314F8013F203BB5
:1009C00002FA03F00842F7D120782E2819D114F842
:1009D000010F47F004072A280ED06FF02F0220786D
:1009E000A0F1300109290CD808EB880102EB410184
:1009F00000EB0108641CF2E70A98641C50F8048BB1
:100A00000A9020780028CED0642808D0692806D023
:100A100075281ED05A460B9990476D1C58E00A99CC
:100A20004FF00A0901C90A91002802DA40422D213B
:100A300002E0390504D52B218DF82010012103E0B7
:100A4000F90704D02021F7E78A4608AE0DE000211F
:100A5000FAE70A994FF00A0901C90A91F7E74946EE
:100A6000FFF738FD303106F8011D0028F7D1ADEB56
:100A7000060000F12009780701D44FF00108C845AD
:100A800002DDA8EB090000E000208046002706E018
:100A900008A85A46C05D0B9990476D1C7F1C5745AE
:100AA000F6DB04E030205A460B9990476D1CB8F1F4
:100AB0000001A8F10108F5DC05E016F8010B5A4623
:100AC0000B9990476D1CB9F10001A9F10109F4DC03
:100AD000641C65E709280100BFF34F8F05480168D2
:100AE000054A01F4E06111430160BFF34F8F00BF7D
:100AF000FDE700000CED00E00400FA050EB5002152
:100B00000091CDE901106A4644F20100FFF7E4FFCD
:100B100010B58268C368934203D000F0C5F8002086
:100B200010BD052010BD29B112B1531E134203D0D0
:100B3000092070470E20704701608380002181608A
:100B4000C1600846704710B58268C3689A1A8388E6
:100B50009A4203D800F0B2F8002010BD042010BD66
:100B600070B50446234888B01E460D00426035D05B
:100B7000A888296882B22048FFF7D5FF00282ED127
:100B8000A889A96882B21C481030FFF7CCFF002862
:100B900025D1202219496846FFF78AFCA0680690F3
:100BA000207900B101208DF814008DF81C60607967
:100BB00000B10E208DF81500E0780290A078039027
:100BC00020780190607800900D49684600F0D2F9D5
:100BD000002804D19DF81D0018B104E0072008B0DA
:100BE00070BD00F057FA03480121801C00F00CFA98
:100BF000F5E7000034000020C0010020AC650000D3
:100C0000CD14000010B50446074801214470401C73
:100C100000F0E6FA112805D12146BDE8104003484E
:100C2000FFF791BF10BD000034000020D00100206C
:100C30002DE9F0410446006800F070FB2078174F62
:100C4000012606FA00F038600021606800F05DFBC4
:100C50001348144D007FA069C5F82405607D217DEF
:100C60000843C5F86C05D4E90001C5F80C05C5F8C2
:100C70001415207D01280FD10021A06800F045FB4C
:100C8000E06800F04BFB207B86403E60D4E9020127
:100C9000C5F80815C5F81005BDE8F0810805005035
:100CA0001802002000200040826883881A400368F0
:100CB0009A5C0A708168491C81607047C2688388A9
:100CC0001A4003689954C168491CC160704710B547
:100CD0000446C0B2FFF796FF204610BD10B50022B3
:100CE000134603E030F81240521C23448A42F9DBD9
:100CF00093FBF1F080B210BD2DE9F041164D07468F
:100D000000242878154E092805D226F81070401CBA
:100D1000C1B2297014E036F8141011A0FFF712FECA
:100D200006EB4400418826F8141011A0FFF70AFED4
:100D3000642000F085F8641C072CECDBF7810821A7
:100D40000648FFF7CBFFA88081B20DA0FFF7FAFDA0
:100D5000A888BDE8F08100000400002040010020C8
:100D600062206865617274203D2025640D0A0000D0
:100D700061206865617274203D2025640D0A0000C1
:100D800020736D6F6F746820686561727420203DF8
:100D90002025640D0A000000034800210162417013
:100DA0008160C160816270470400002000F06AFB2E
:100DB00005A0FFF7C7FD13A0FFF7C4FD02A0FFF7D2
:100DC000C1FD00F013FBFEE72A2A2A2A2A2A2A2A32
:100DD0002A2A2A2A2A2A2A2A2A2A2A2A2A2A2A2A73
:100DE0002A2A2A2A2A2A2A2A2A2A2A2A2A2A2A2A63
:100DF0002A2A2A2A2A2A2A2A2A2A2A2A2A2A2A2A53
:100E00000D0A00002020202020202020202020204B
:100E10002020206C7473313330336D20486561724B
:100E200074205261746520206578616D706C652E48
:100E30002020202020202020202020200D0A00001B
:100E400031B540F2E73404E0401E00902046FFF741
:100E5000E1FA00980028F7D138BD4907090E0028AB
:100E600006DA00F00F0202F1E02282F8141D03E01E
:100E700000F1E02282F8001400F01F0201219140ED
:100E80004009800000F1E020C0F88012C0F8001195
:100E9000704700002DE9F05F334D074602200E46F3
:100EA000C5F80803314CDFF8C8B04FF4807894F8E7
:100EB00027004FF0000A012811D00220C5F80403D2
:100EC0004FF0010984F82790082084F829000020B9
:100ED00004EB4001897DF9B184F8290020E0E06845
:100EE00028B10220C5F804031120BDE8F09FE76097
:100EF000A68294F82A0001280AD1404600F02AFA76
:100F00000028FAD0CBF800A03146384600F010FA9D
:100F10000220C5F8040322E0401CC0B20828D7D341
:100F200094F82900082801D30820DEE767602681AD
:100F3000D046A4F80AA004EB4001C4F80CA0CA7D76
:100F4000897D00F0FDF994F82A00012809D00121DB
:100F5000384600F0EDF9CBF80080C5F8009000208D
:100F6000C3E73146F4E7000000700040E0010020D4
:100F7000007100402DE9F0411E4C07460D46E07E11
:100F800010B10820BDE8F08107B91B4F787F2077AA
:100F90003846FFF74DFE6560386920602800174E1F
:100FA0004FF0000516D0397F207F48B1C6F81051A8
:100FB000C6F82051C6F82451C6F84451104804E040
:100FC000C6F81C51C6F844510E48C6F80403022066
:100FD000FFF743FF207F08B1082000E00420C6F897
:100FE0000005E5752576A5750120E076A57600203B
:100FF000C8E7000018020020CC6500000020004077
:1010000010030200800002002DE9F0411F4B1C7FFD
:101010003CB14FF40052B2EB104F02D01020BDE8AB
:10102000F081D3F804C00022194D4FF404764FF438
:101030000177BCF1000F05D014B1C5F8086301E0D9
:10104000C5F8087393F817E0BEF1000F10D01A7EB0
:1010500052B1BCF1000F05D014B1C5F8046301E032
:10106000C5F804731120DAE718610122197604E04B
:10107000D9750025D8605D761D761CB1BDE8F041BC
:1010800000F066B8BDE8F04100F014B81802002086
:101090000020004010B5064C207F002806D1A07E1D
:1010A000002803D100F096F90120A07610BD0000C1
:1010B000180200202DE9F05F234DA87E104301D1D6
:1010C00000F088F9214C686830B14FF40170C4F821
:1010D00004030020BDE8F09F4FF000094FF4A27A0E
:1010E000C4F844914FF4927BA8465946204600F03C
:1010F00039F905464FF48471204600F033F907466C
:101100005146204600F02EF9064647EA06012943DB
:10111000EBD055EA060007D100F034F998F8171023
:1011200098F819008142E0D888F817900DB1032093
:10113000D0E70EB10F20CDE798F81A10012009B1C1
:101140002060C6E76060C4E718020020002000406D
:101150002DE9F05F204C00264FF48873C4F810612D
:101160004FF4A275C4F84461C4F83405C4F83815C6
:101170008AB1D4F8000240F02000C4F80002DFF881
:101180005C80D8F8040048B14FF40470C4F804033C
:101190000020BDE8F09F01202060F0E79A46A946B4
:1011A0004FF4927B5146204600F0E7F80546494649
:1011B000204600F0E2F807465946204600F0DDF8E8
:1011C0003D430543EED088F8176008B10320E0E7FF
:1011D000002FDDD00F20DCE70020004018020020A7
:1011E0002DE9F0471E4D2A7F3AB14FF40053B3EB7F
:1011F000104F02D01020BDE8F087AB7D0BB111205D
:10120000F9E7A9750023A860AB822AB3154C002624
:101210004FF490729846C4F820314FF4AC73C4F880
:101220005881C4F84405C4F848150120A0606868D6
:1012300080B9924699465146204600F09EF80746EE
:101240004946204600F099F80743F4D000B10F2634
:1012500085F816803046CEE7BDE8F04700F004B8C8
:1012600018020020002000402DE9F05F1C4F0025EF
:101270004FF48E7A2E46C7F81C514FF00108C7F87C
:10128000088000F0DBF8174CB815616879B123E0ED
:101290005F465146484600F065F810B9A08AB8424A
:1012A000F7D1A08AB84204D000F0C8F801E0834624
:1012B000B946A08AA17D8842EAD3A08A584501D1C7
:1012C0000F2508E04F465146384600F04BF80028FD
:1012D000F9D0C7F80C80A6752846BDE8F09F00003D
:1012E000002000401802002030B541EA4201DDE94B
:1012F000034541EA8301800041EA042100F1A04056
:1013000041EA0541C0F8001730BD1CB500220B466C
:10131000009211460192FFF7E7FF1CBD1CB50021AA
:1013200000910B46012201911146FFF7DDFF1CBD24
:10133000024A1060101D0160704700002C760040CA
:10134000030103481844C0F81425C0F8101570476D
:101350000070004002494058002800D0012070472A
:10136000007000404058002800D001207047D0F89D
:101370000403084000D0012070474058002800D0E6
:101380000120704709480A490022C37DC1F808219D
:1013900043B1D1F81815437EC268D154417E491C2F
:1013A00041767047D1F818057047000018020020F8
:1013B000002000401FB501228DF8080004488DF878
:1013C00000200191D0E90012684690471FBD00003F
:1013D0001802002004480021C0F82411C0F80811A8
:1013E0000121016070470000002000402DE9F0411C
:1013F000FFF7D2FC14260B4D0B4F0024214635F885
:1014000014200AA0FFF79EFA35F81400FFF774FCC9
:1014100038806420FFF714FD641CA4B2B442EDDBF5
:10142000BDE8F0817865000008000020685B256455
:101430005D203D202564200D0A200000064A002082
:10144000C2F81C010548838A8168C95C838A5B1CD9
:101450008382C2F81C15704700200040180200204B
:101460001FB500218DF8080005488DF8001082682E
:1014700001928175D0E90012684690471FBD0000B7
:101480001802002000B50D4A87B004AB07CA83E8F4
:1014900007000B480090012001900A4802904FF489
:1014A000807003900323084A694604A8FFF758FB9D
:1014B000002801D0FFF722FB07B000BDA0650000A7
:1014C0000000002040000020751500007CB5017868
:1014D000264D012909D002292CD0002929D12946DD
:1014E0002348FFF715FB80B334E0406801782048BB
:1014F0001038FFF728FB1E4C103C20B101218DF85D
:101500000010019007E0A068E168081A012805D1E1
:1015100000208DF80000696868468847A068E16887
:10152000081AA188884204D810480121801CFFF7BE
:101530006BFD7CBD02218DF80010C06801900B4846
:101540000121801CFFF760FD0CE0FFE70121074847
:10155000FFF746FE06488168C0688842E9D103204B
:101560008DF800006968684688477CBD340000201B
:10157000D0010020704700002DE9FF413E4D4FF49F
:1015800000712846FFF7F3FE01273C4C4FF4017829
:10159000002600B34FF492712846FFF7E3FED0B166
:1015A000C5F82461C5F80883A07E00B96F600220E9
:1015B0008DF80000D5F88004C5F880040390E07D24
:1015C0008DF80800E0680190E6752676D4E90012EF
:1015D0006846904724E004212846FFF7C8FEF8B18A
:1015E0004FF484712846FFF7BDFEC8B1FFF7CAFE6D
:1015F000E07D617E884213D1227E3AB1607EE1684F
:10160000E2752269E2602676667607E0A07E00B980
:101610006F60C5F80883E675607EE168FFF7CAFE73
:101620004FF48E712846FFF79DFE58B1A18AA07D28
:10163000814202D2FFF702FF04E0C5F81C6108B145
:10164000FFF70EFF4FF4A2712846FFF78BFE00282C
:101650000FD0C5F84461A07E00B12F60E07D002866
:1016600007D0E675607EE16804B0BDE8F041FFF7A1
:10167000A1BEBDE8FF81000000200040180200204C
:101680007FB5334C4FF492712046FFF776FE314D13
:101690000026B0B1C4F8246102208DF80000D4F80F
:1016A0008004C4F880040390D4F83C058DF8080049
:1016B000E8680190EE752E76D5E9001268469047ED
:1016C0001FE04FF488712046FFF757FEC8B1C4F8F9
:1016D0001061D4F83C05E97DC0B2814211D12A7E67
:1016E0005AB1E968D4F8003223F02003C4F800327C
:1016F000EA752A69EA602E7601E0EE75E968FFF77F
:1017000059FE4FF4A2712046FFF737FE50B1C4F8DE
:101710004461E87D30B1EE75D4F83C05E968C0B2AB
:10172000FFF748FE4FF490712046FFF726FE002891
:101730000CD0C4F82061A87D002807D0D4F84C054F
:1017400004B0C0B2BDE87040FFF78ABE7FBD0000A4
:101750000020004018020020BF03BD03BE03C103E8
:10176000BC03C003BD03BC03BE03BF03C003BE0371
:10177000BB03BE03BC03BF03BC03BF03BF03BF0364
:10178000BC03BE03BC03BD03BD03BE03BE03BE0357
:10179000BE03BF03BF03B903BE03C303C003BC033F
:1017A000BD03BD03BB03C003BF03BE03BF03BC0334
:1017B000BF03BF03BD03C103BE03C203C403C80309
:1017C000C303C503C303C503CB03C803BF03E003BF
:1017D000B303C803AB03C303F003C703C803D203B7
:1017E000C7039E03CA03E703C403BF03AC03BB03E1
:1017F0009803D203C703D503D403D803D403D1037A
:10180000CE03D203C503D303C203CA03C903C10372
:10181000C403CF03C103CC03C703C603C203C80379
:10182000C503C603C603C103C403C403C403C00382
:10183000C203BE03BE03BF03BF03BF03BF03BD0399
:10184000BC03BE03C003C103BC03BE03BB03BE0392
:10185000BE03BA03BB03BA03BB03BB03B903BB0399
:10186000B903BA03B903BA03B703B603B803B8039D
:10187000B803B803B903B803B903B803B803B9038D
:10188000B703B903B703B903B803B603B803B70383
:10189000B703B703B603B803B803B703B803B70376
:1018A000B903B603B903B703B803B803B703B80362
:1018B000B603B703B803B803B803B703B703B70356
:1018C000B803B803B703B803B603B803B703B80344
:1018D000B803B603B803B603B803B703B703B70337
:1018E000B603B803B703B703B703B603B803B70328
:1018F000B903B603B603B803B703B803B703B70316
:10190000B803B603B703B603B803B703B603B80307
:10191000B603B703B703B803B703B703B803B703F6
:10192000B803B703B803B803B603B803B703B803E3
:10193000B703B703B803B703B803B803B703B803D3
:10194000B603B803B703B603B603B703B603B603CB
:10195000B603B503B503B603B603B803B803B703BC
:10196000B703B703B803B703B803B703B703B803A4
:10197000B603B703B603B803B703B703B603B5039B
:10198000B803B703B803B703B603B803B603B70386
:10199000B703B703B703B603B803B703B703B80376
:1019A000B603B903B703B803B803B703B703B60365
:1019B000B803B703B803B903B603B803B703B80352
:1019C000B803B803B903B603B803B803B903B70340
:1019D000B603B803B603B903B803B503B703B60338
:1019E000B703B603B603B503B603B903B603B8032A
:1019F000B703B803B803B703B903B803B803B9030F
:101A0000B703B803B903B903B903BA03B903BB03F6
:101A1000BE03BD03BC03BB03BF03C203C503C903AD
:101A2000CB03C903C903C903CA03CA03CB03C70352
:101A30005803A1028C010A000A000A000A000A00E9
:101A40000A000A000A000A000A000A000A000A0046
:101A50000A000A000A000A000A000A000A000A0036
:101A60000A000A000A000A000A000A000A000A0026
:101A70000A000A000A000A000A000A000A000A0016
:101A80000A000A000A000A00FF00B702CA03CA03DC
:101A9000C803CA03C903CB03CA03CA03C903C603E5
:101AA000A70386034503CC02E201A3000A000A0053
:101AB0000A000A000A000A000A000A000A000A00D6
:101AC0000A000A000A000A000A000A000A000A00C6
:101AD0000A000A000A000A000A000A000A000A00B6
:101AE0000A000A000A000A000A000A000A00C300ED
:101AF000EB02C803C703C803C803C903CA03C90369
:101B0000CB03C603C903C903C903C903C903CA0375
:101B1000C903CA03C903C903C903C903CA03C90363
:101B2000C903C903C703C603C603C703C703CE035C
:101B3000C703D603C303DA03C103DA03C203D50321
:101B4000C303C603C403C503CD03C503DC03C40339
:101B5000C603CA03C403C703C703C603CB03C60334
:101B6000CE03C603C603C503C603C603C603C70325
:101B7000C703C703C703C703C603C503BC03BD032D
:101B8000BB03BB03B803BB03BA03BB03B903B9036D
:101B9000BA03BA03BB03BB03BA03BB03BA03BC0358
:101BA000BA03BC03BA03BC03BC03BB03BD03BB0342
:101BB000BD03BC03BA03BC03B903BB03BC03BA0334
:101BC000BB03BA03BC03BB03BB03BB03B803BC0327
:101BD000B803BC03BB03BB03BC03B903BC03BA0318
:101BE000BB03BA03B803BB03BA03BA03BA03B9030E
:101BF000BA03B803BC03BA03BA03BA03BA03BB03FC
:101C0000BA03BC03BB03BB03B903B903BB03BB03E8
:101C1000BB03BA03B903B903BA03BB03BB03BA03DB
:101C2000BA03B903BC03BA03B903BA03B903BB03CC
:101C3000B903BA03BA03B903BB03B903BB03BA03BD
:101C4000BA03BA03B803BA03B803BB03BA03BB03AE
:101C5000BA03BA03BB03B903BA03BA03B903BB039C
:101C6000B903BB03B903BA03BB03BA03BB03B9038C
:101C7000BA03BB03BA03BB03B903BB03BA03BA037A
:101C8000BB03B903BA03BA03BA03B903B903BB036D
:101C9000BA03BC03BA03B903BB03B903BB03BA035A
:101CA000BB03B903BA03BB03B903BB03B803B8034F
:101CB000B803B803B703B703B803B703B703B9034F
:101CC000B703BA03B903B903B903B703B803B80339
:101CD000B903B803B703BA03B803BA03B803B90327
:101CE000BA03B803BA03B803B903B903B803B70317
:101CF000B703B903B903BA03B803B803BA03B70308
:101D0000BB03B803B903B903B803B903B903B803F4
:101D1000B903B903BA03B803BA03B903B803BA03E2
:101D2000B803BA03B903BA03B803B803B903B903D4
:101D3000BA03BA03BA03BB03B803BA03BA03BB03BB
:101D4000B903B903BB03BA03B903B903BC03BD03A9
:101D5000BF03C003C103C203C203C403C603C50358
:101D6000C503C203C403C303C203C503C503C5033C
:101D7000C603C403C403C503C703C703C903CA0317
:101D8000C603C903C803C903C903C803C903C703FA
:101D9000B503A1038E035F03FD02470250010A0051
:101DA0000A000A000A000A000A000A000A000A00E3
:101DB0000A000A000A000A000A000A000A000A00D3
:101DC0000A000A000A000A000A000A000A000A00C3
:101DD0000A000A000A000A000A000A000A000A00B3
:101DE0000A000A000A000A000A000A000A000A00A3
:101DF0000A000A000A000A000A000A000A000A0093
:101E00000A000A000A000A000A000A000A000A0082
:101E10000A000A000A000A000A000A000A000A0072
:101E20000A000A000A000A000A000A000A000A0062
:101E30000A000A000A000A000A000A000A000A0052
:101E40000A000A000A000A000A000A000A000A0042
:101E50000A000A000A000A000A000A000A000A0032
:101E60000A000A000A000A000A000A000A000A0022
:101E70000A000A000A000A000A000A000A000A0012
:101E80000A000A000A000A000A000A000A000A0002
:101E90000A000A000A000A000A000A000A000A00F2
:101EA0000A000A000A000A000A000A000A000A00E2
:101EB0000A000A000A000A000A000A000A000A00D2
:101EC0000A000A000A000A000A000A000A000A00C2
:101ED0000A000A000A000A003F01C503C103BE034D
:101EE000C003BF03C003C103C103C103C203C203D4
:101EF000C403C603C603C803CB03C603C903C9038F
:101F0000C903C903C703C7034603B1010A000A0096
:101F10000A000A000A000A000A000A000A000A0071
:101F20000A000A000A000A000A000A000A000A0061
:101F30000A000A000A000A000A000A000A000A0051
:101F40000A000A000A000A000A000A000A000A0041
:101F50000A000A000A000A000A000A000A000A0031
:101F60000A000A000A000A000A000A000A000A0021
:101F70000A000A000A000A000A000A000A000A0011
:101F80000A000A000A000A000A000A000A000A0001
:101F90000A000A000A000A000A000A000A000A00F1
:101FA0000A000A000A000A000A000A000A000A00E1
:101FB0000A000A000A000A000A000A000A000A00D1
:101FC0000A000A000A000A000A000A000A000A00C1
:101FD0000A000A000A000A000A000A000A000A00B1
:101FE0000A000A000A000A000A000A000A000A00A1
:101FF0000A000A000A000A000A000A000A000A0091
:102000000A000A000A000A001A00F900B602C70313
:10201000C803C903C803C903C903C803C703C70367
:10202000C603C703C603C703C703C703C603C80362
:10203000C703C703C703C603C803C503C803C60352
:10204000C703C603C803C603CC03C403D903C30331
:10205000C503C603C403D003C303C503C403C2033B
:10206000C203D503C303C503C203C403C903C20328
:10207000D003C603CD03C503C703C603BF03C6030E
:10208000BA03D803BD03B403D803BB03A603AD034F
:10209000C503C603A503940392039903A303A903ED
:1020A000AB03A003880368033D030703CB027F0251
:1020B0003002CD016E0108018D0011000A000A00F6
:1020C0000A000A000A000A000A000A000A000A00C0
:1020D0000A000A000A000A000A000A000A000A00B0
:1020E0000A000A000A000A000A000A000A000A00A0
:1020F0000A000A000A000A000A000A000A000A0090
:102100000A000A000A000A000A000A000A000A007F
:102110000A000A000A000A000A000A000A000A006F
:102120000A000A000A000A000A000A000A000A005F
:102130000A000A000A000A000A000A000A000A004F
:102140000A000A000A000A000A000A000A000A003F
:102150000A000A000A000A000A000A000A000A002F
:102160000A00120091005C018B02CC03C603C80375
:10217000C703C603C703C503C603C503C603C50318
:10218000C303C703C403C603C503C603C603C5030D
:10219000C603C503C603C603C503C603C403C603FB
:1021A000C403C503C503C503C503C603C903C603EA
:1021B000C903C503C703C603C903C503CA03C403D0
:1021C000CB03C503CB03C603CA03C703C703C603B8
:1021D000C803C703C803C403C803C503C803C603B1
:1021E000C603C603C303C803C203C603C203C503B1
:1021F000C003D703C403D603C503D203C503CD036D
:10220000C603C703C603C103C703BE03DC03C6037B
:10221000D103C703C403C703BF03C703BE03C80377
:10222000C803BD03C903C103C903C703BC03D90362
:10223000C003BD03C603BB03BF03C603BD03C60380
:10224000C803BA03C603C803B603BE03C703B70374
:10225000B203C803C803B503BB03DB03BC03A40379
:10226000A203B403D303C103AA03A903C003C80391
:10227000B3039D03920395039E03B003C403C703F6
:10228000B10398038C038F039803A303AF03BA032E
:10229000C603DB03B3038C03730359034103270312
:1022A0000803EA02C602B00297027C0263024702F8
:1022B0002D020D02EC01C9019F01790153012D018D
:1022C0000B01EA00CE00AF00920073004A001C0030
:1022D0000A000A000A000A000A000A000A000A00AE
:1022E0000A000A000A000A000A000A000A000A009E
:1022F0000A000A000A000A000A000A000A000A008E
:102300000A000A000A000A000A000A000A000A007D
:102310000A000A000A000A000A000A000A000A006D
:102320000A000A000A000A000A000A000A000A005D
:102330000A000A000A000A000A000A000A000A004D
:102340000A000A000A000A000A000A000A000A003D
:102350000A000A000A002500B0008701C802C6036F
:10236000C903C903C603C603C603C603C703C9031B
:10237000C803C503CE03C603CE03CA03C603C60300
:10238000C603C403C803C303C603C503C903D303F9
:10239000C703D503C503D203C503CC03C503C603D6
:1023A000C803C703C503C603C403C803C803C803DF
:1023B000CA03C903C303C703D103C203D803C603B7
:1023C000D303C703CF03CA03C603C503C503C503AD
:1023D000C803C403C703C303C803C603C703C703B3
:1023E000C503C703C803C703C203BD03C703CC03A8
:1023F000C503C803C803C903C503CF03C803C20389
:10240000C603CB03C803D903C703DB03C703DA033F
:10241000C703D703C703D603C703D203C603CC033E
:10242000C303CA03C403C803C603C803C303C80362
:10243000C403C503C503C303CA03C503C503C5035A
:10244000C503C403C503C403D303C403C803C6033D
:10245000C703C403C303C603D703C903D503C90312
:10246000D403C203CF03C803CD03C603CA03C70303
:10247000C203C703BF03C503C303CA03C603D9030B
:10248000CB03CE03C903C503C303C203CC03C203FA
:10249000D803C503D303C803C703C603C003C403DB
:1024A000BF03CE03C603C303C803BF03BF03C803F0
:1024B000C603C803BE03D603C403C203C603BE03D8
:1024C000DD03C603C103C903BE03BF03C803BA03C8
:1024D000C403C603BD03D703C103BB03D703C103B2
:1024E000B303C503C903B703BD03CA03BA03B703E4
:1024F000D503C603B103AF03CA03CB03B003AB03D9
:10250000BE03C803BA03A703AA03BC03D103C003D5
:102510009D03900392039E03B503D903C403A00354
:102520008A0377036A035F035D035B035C03640351
:102530006D0379037F0384037F03760366035403EB
:1025400041032F031A03FD02EE02D702B8029602DE
:1025500068023A020B02DD01B60189016D013D01FD
:102560001801EF00B90083003F000A000A000A00CA
:102570000A000A000A000A000A000A000A000A000B
:102580000A000A000A000A000A000A000A000A00FB
:102590000A000A000A000A000A000A000A000A00EB
:1025A0000A000A000A000A000A000A000A000F00D6
:1025B0000A000A000A000A000A000A000A000A00CB
:1025C0000A000A000A000A000A000A000A000A00BB
:1025D0000A000A000A000A000A000A000A000A00AB
:1025E0000A000A000A000A000A000A000A000A009B
:1025F0000A000A004300F000FD013803C903CF03BD
:10260000C903C903D303CE03C603C403C903C60366
:10261000C703D303C503DB03C803D203CE03C70339
:10262000C203C203C003CB03D603C703D203C5034F
:10263000C603CD03C603CC03C703C703C903C00346
:10264000C803BF03C803CA03CD03CC03CE03B6033C
:10265000C903D303C703D203CC03D103C303CE03FF
:10266000C703CA03C403C603C003C203C603C3032C
:10267000C803C503C603C703C503C503CD03C4030D
:10268000C903C403C803C403C903C703CA03C603F9
:10269000C203C703C103C503CA03C603CF03C803EC
:1026A000C803C703C903C903E503C903DB03C503A3
:1026B000D903C503DA03C703D603C503D303C50390
:1026C000C903C803C403C803C303C503C103C903C3
:1026D000C203CE03C503CF03C303C503C503BE03B3
:1026E000DB03C303CE03C603C403C903BD03D30383
:1026F000C703C003C603BD03C503C403BF03C903A7
:10270000BD03C403C603B803C003CA03B803C003B0
:10271000C703B903BB03CE03BE03AD03B703D203A4
:10272000C903AC03AA03BF03C903B403AA03AE03DE
:10273000C303DA03B403960383037E03850397037D
:10274000AF03CC03C803A403820366034903320327
:102750001E0310030503FE02F302E402CF02B202DD
:102760008B025F022802F401C50192016801380161
:102770000C01D600A000650019000A000A000A003A
:102780000A000A000A000A000A000A000A000A00F9
:102790000A000A000A000A000A000A000A000A00E9
:1027A0000A000A000A000A000A000A000A000A00D9
:1027B0000A000A000A000A000A000A000A000A00C9
:1027C0000A000A000A000A000A000A000A000A00B9
:1027D0000A000A000A000A000A000A000A000A00A9
:1027E0000A000A000A000A000A000A000A000A0099
:1027F0000A000A000A000A000A000A000A000A0089
:102800000A000A000A000A000A000A000A000A0078
:1028100010007A003C015A029503CE03CB03D0038B
:10282000D003CC03CA03D103C903CA03C703D1032E
:10283000C703D203C503CC03C603C703CA03C60339
:10284000C503C603C303C603BC03C903CC03C80343
:10285000C903C803CC03C503CA03CA03C203C9031F
:10286000C403C603C303C303C703C603CB03C70321
:10287000CA03C803C403C703CA03C603C403C5030A
:10288000C803C503C403C603C403CA03CD03C603F8
:10289000D703C503C803C703D703C603EC03C703A5
:1028A000D003C803D303C703CD03CB03C703C703B8
:1028B000C303C803C103C803BF03D603C603CE03C3
:1028C000C603C303C803BE03D103C503D003C603B5
:1028D000C203C803BD03D403C903BD03CF03BF03B1
:1028E000C603C803BD03D403C503B803CD03CA039D
:1028F000B403C303C703B703BB03D803BD03B003CB
:10290000BF03CC03B803A303A203B403D603C203DB
:10291000AA03A603B103C103DE03B903920377033D
:10292000620355034F034D035003570363036203D0
:1029300053033E0322030103DD02B7029202640245
:1029400036020102C401890140010101C0006D008D
:1029500027000A000A000A000A000A000A000A000A
:102960000A000A000A000A000A000A000A000A0017
:102970000A000A000A000A000A000A000A000A0007
:102980000A000A000A000A000A000A000A000A00F7
:102990000A000A000A000A000A000A000A000A00E7
:1029A0000A000A000A000A000A000A000A000A00D7
:1029B0000A000A000A000A000A000A000A000A00C7
:1029C0000A000A000A000A000A000A000A000A00B7
:1029D0000A000A000A000A000A000A000A000A00A7
:1029E0000A000A000A000A000A000A000A000A0097
:1029F0000A000A000A000A000A000A000A000C0085
:102A00006C0032014B029103CA03D603D903C10300
:102A1000E103C803DB03C603CF03C803D403CB031E
:102A2000D003C903BF03C703D303C803C503C60349
:102A3000C903C703C703CA03CC03C503C503C70340
:102A4000C303C803CB03C503CA03CB03CB03C4032F
:102A5000D003C503CB03C603C403C603C203C40328
:102A6000C803C503C503C603CD03C903DE03C603FC
:102A7000E003CB03D603CC03D303C903CC03C603C3
:102A8000C703C903C303C803C003C803C203D503F4
:102A9000C803C503C603BF03C603C003D403CA03E8
:102AA000C503CA03BE03EB03C503BB03C703BD03D2
:102AB000C403C703BC03CE03C703B903C903C903D7
:102AC000B303B603D603C203B403C103C803B503FB
:102AD000AB03B703CA03C903AB0398039603A00370
:102AE000B703D303C0039B037D0366034D03390380
:102AF000250315030A03FF02F602EB02D902C60200
:102B0000A902840258022302F401C00192016C015F
:102B100037010E01D2009C005A000C000A000A0086
:102B20000A000A000A000A000A000A000A000A0055
:102B30000A000A000A000A000A000A000A000A0045
:102B40000A000A000A000A000A000A000A000A0035
:102B50000A000A000A000A000A000A000A000A0025
:102B60000A000A000A000A000A000A000A000A0015
:102B70000A000A000A000A000A000A000A000A0005
:102B80000A000A000A000A000A000A000A000A00F5
:102B90000A000A000A000A000A000A000A000A00E5
:102BA0000A000A000A000A000A000A000A000A00D5
:102BB0000A000A000A000A000A000A000A000A00C5
:102BC0000A000A000A000A000A000A000A0060005F
:102BD000310133029C03CE03CA03F703E103D70399
:102BE000C503C703C603C303C703C903CA03D1038D
:102BF000C603C703CA03C403C503D403C903C3037D
:102C0000C703C503C603C703C403CA03C603CA0375
:102C1000C503C803C503CC03C503C403C403C5036C
:102C2000C303C703C403C903C303C603C403CD035B
:102C3000C403C803C303C203C103CB03C703ED032B
:102C4000C803D603C803D103C603CE03C703C50315
:102C5000C703C303CB03C203C703C003D603C80320
:102C6000C903C503C003C803BD03CD03C703C30322
:102C7000C703BE03CF03C603BC03D303C503B90315
:102C8000CE03C203BC03CA03BD03B503CA03C70313
:102C9000B103AC03C103CA03B403B003BD03CA0349
:102CA000B6039D03960396039F03AD03C303D903A5
:102CB000B7039703820373036603550343032E038D
:102CC00019030403EE02DC02C302AC0291026C029F
:102CD0003F020502D30199015A012601E900B6001D
:102CE000760039000A000A000A000A000A000A00F9
:102CF0000A000A000A000A000A000A000A000A0084
:102D00000A000A000A000A000A000A000A000A0073
:102D10000A000A000A000A000A000A000A000A0063
:102D20000A000A000A000A000A000A000A000A0053
:102D30000A000A000A000A000A000A000A000A0043
:102D40000A000A000A000A000A000A000A000A0033
:102D50000A000A000A000A000A000A000A000A0023
:102D60000A000A000A000A000A000A000A000A0013
:102D70000A000A000A000A000A000A000A000A0003
:102D80000A000A000A000A000A000A000A000A00F3
:102D90000A000B0067003A0135026C03CE03CC0336
:102DA000CC03F303DD03C703D003C603D203C6037A
:102DB000C503C603CD03C303CD03CA03C103C903BF
:102DC000C003C703CB03C503C703C703C903C703B6
:102DD000C303C603C703C503C903C503C903C403AB
:102DE000C403C403CD03C503D203C403C703C40390
:102DF000C403C403C503C303C403C403C803C50396
:102E0000C903C503DC03C903D103C803D103C70346
:102E1000CE03C803CB03C603C503C903BE03CB035C
:102E2000C003D403C803C803C803BF03C803BE0359
:102E3000C803C703B903D203C703BF03C603BD0357
:102E4000C103C403B903C103C703B703B303CE036C
:102E5000C803B703C403C903B503B003C403C7035E
:102E6000B2039D039803A403B803D103B9039B03E2
:102E70008D03840382037D037B0377037303730352
:102E8000700371036E03640357033B031803EC02E2
:102E9000B802830247020F02DF01A201750134016B
:102EA000FE00C20075002A000A000A000A000A009B
:102EB0000A000A000A000A000A000A000A000A00C2
:102EC0000A000A000A000A000A000A000A000A00B2
:102ED0000A000A000A000A000A000A000A000A00A2
:102EE0000A000A000A000A000A000A000A000A0092
:102EF0000A000A000A000A000A000A000A000A0082
:102F00000A000A000A000A000A000A000A000A0071
:102F10000A000A000A000A000A000A000A000A0061
:102F20000A000A000A000A000A000A000A000A0051
:102F30000A000A000A000A000A000A000A000A0041
:102F40000A000A000A000A000A000A000A000A0031
:102F50000A000A000A000A000A000A000A000A0021
:102F60000A000A000A002B00CF00B701F402CC03CC
:102F7000DA03D803BD03CD03C503C803CD03D903CA
:102F8000C903CF03CA03CC03C303C903C603E003C9
:102F9000D003E003C503DC03CA03CD03D103BB03A5
:102FA000C803C703CF03C603C703C103C403CA03CF
:102FB000C603CD03C603C803C603C603C403C803C0
:102FC000C403C803C603DB03C503D703C603D40386
:102FD000C603D703C703D303C503CB03CB03C40383
:102FE000C803C403C603C103C703C003D203C70396
:102FF000C703C603C003C703BF03D303C903C10389
:10300000C503BC03C803CA03B803D103C803BA038A
:10301000D903C003B803D503C303AD03AE03CE0386
:10302000C803B103B503D203C503AB03A603AD03C5
:10303000BE03DB03C3039E038A0386038D03980349
:10304000A903B503BD03BD03B503AA039803860313
:1030500071035B0345032B030803E002AD02750215
:103060003202F301B4016F013501EF00B3006F00CC
:103070001F000A000A000A000A000A000A000A00EB
:103080000A000A000A000A000A000A000A000A00F0
:103090000A000A000A000A000A000A000A000A00E0
:1030A0000A000A000A000A000A000A000A000A00D0
:1030B0000A000A000A000A000A000A000A000A00C0
:1030C0000A000A000A000A000A000A000A000A00B0
:1030D0000A000A000A000A000A000A000A000A00A0
:1030E0000A000A000A000A000A000A000A000A0090
:1030F0000A000A000A000A000A000A000A000A0080
:103100000A000A000A000A000A000A000A000A006F
:103110000A000A000A000A000A000A000A000A005F
:103120000A000A000A000A000A000A000A000A004F
:103130000A000A000A003300DD00CA01E502C903E3
:10314000C603C603F003FA03D103C703BE03DC03BF
:10315000D403D303C103D403D403CA03CB03DB03D7
:10316000D003DD03CB03C803C503D703C903DA03C8
:10317000CA03CC03CB03C603C803C703C503CA03F2
:10318000C403C603C503CC03C403C903C503C703F3
:10319000C503C403C403DB03C503CC03C603D003C8
:1031A000C603DD03CE03D603CC03CD03C903CB0393
:1031B000C803C803C503C403C403C003D303BF03C8
:1031C000D003C903C503C703BE03C903C303CA03AE
:1031D000C503BB03D403C403BB03D403C203C103AD
:1031E000C903BB03C403C703B503BC03CA03BD03C0
:1031F000AE03BA03C903B903B303C803C603AE03DE
:10320000A003A003A803BC03D403BC039E03920342
:103210009003930399039E039C0398038F038503F4
:103220007E03750368035A0344032703FC02CD029F
:10323000940252020F02CB01900158011701DF00E6
:10324000940050000A000A000A000A000A000A005E
:103250000A000A000A000A000A000A000A000A001E
:103260000A000A000A000A000A000A000A000A000E
:103270000A000A000A000A000A000A000A000A00FE
:103280000A000A000A000A000A000A000A000A00EE
:103290000A000A000A000A000A000A000A000A00DE
:1032A0000A000A000A000A000A000A000A000A00CE
:1032B0000A000A000A000A000A000A000A000A00BE
:1032C0000A000A000A000A000A000A000A000A00AE
:1032D0000A000A000A000A000A000A000A000A009E
:1032E0000A000A000A000A000A000A000A000A008E
:1032F0000A000A000A000A000A000A000A000A007E
:103300000A000A005900110104025B03C703D50338
:10331000C703C103D103C603CC03CA03D103CB0344
:10332000CF03C703CA03C603CB03C603C403C40346
:10333000BD03C603C403C503C903C603C703C5034E
:10334000D503C503C503C403C503C403CC03C40329
:10335000C403C503CA03C403C403C303CE03C30326
:10336000C503C203C503C403C603C503C003C40326
:10337000D303C303C903C703D303C903CD03C703DF
:10338000C503C603C303C903C203C803BF03D203F3
:10339000CB03C603C703C103C903BF03D203C803DA
:1033A000C203C903BA03C603CA03BB03D603C803D7
:1033B000BB03D103BF03B803D003C503AF03B603F8
:1033C000C603C003B003C203C503B603A803B20318
:1033D000C703CA03AE0399039603A103B803D4033A
:1033E000C0039A0381036B03570342032E031703A1
:1033F0000303F202E002CE02B4029A02770246020E
:103400000F02D801A50177013D010C01D700AC00E6
:10341000720039000A000A000A000A000A000A00C5
:103420000A000A000A000A000A000A000A000A004C
:103430000A000A000A000A000A000A000A000A003C
:103440000A000A000A000A000A000A000A000A002C
:103450000A000A000A000A000A000A000A000A001C
:103460000A000A000A000A000A000A000A000A000C
:103470000A000A000A000A000A000A000A000A00FC
:103480000A000A000A000A000A000A000A000A00EC
:103490000A000A000A000A000A000A000A000A00DC
:1034A0000A000A000A000A000A000A000A000A00CC
:1034B0000A000A000A000A000A000A000A000A00BC
:1034C0000A000A000A000A000A000A000A000A00AC
:1034D0000A002400B700BB01E002C803CA03DD03F1
:1034E000C603C803CD03D703C403CD03C503E1035B
:1034F000C603DC03D103D603D003D603CB03D40326
:10350000C503D203C803D903C403DC03CF03D1032B
:10351000CC03D703C603D403C503D403CA03CC0327
:10352000C903CD03C903C303C803C703C603C70345
:10353000C403C503C403D003C803BF03C903BD0349
:10354000CA03EB03C703D503C803D003C903CC03E5
:10355000C903CA03C603C403C403C003C803C10329
:10356000CF03C903C303CA03C003C803C203D40300
:10357000CB03BE03CC03BB03C403CA03B903D1030B
:10358000C903BD03D903BE03B603C903CC03B40307
:10359000BB03DA03BD03B203C103CA03B403A70329
:1035A000AE03BD03D903BB039F039903A103BA0371
:1035B000D503BE039A03790364034D03380326033E
:1035C00019030F030603FE02F102E102CA02A5027B
:1035D0007F0251021A02EF01B60188015D011D014F
:1035E000EB00A10060000B000A000A000A000A00BC
:1035F0000A000A000A000A000A000A000A000A007B
:103600000A000A000A000A000A000A000A000A006A
:103610000A000A000A000A000A000A000A000A005A
:103620000A000A000A000A000A000A000A000A004A
:103630000A000A000A000A000A000A000A000A003A
:103640000A000A000A000A000A000A000A000A002A
:103650000A000A000A000A000A000A000A000A001A
:103660000A000A000A000A000A000A000A000A000A
:103670000A000A000A000A000A000A000A000A00FA
:103680000A000A000A000A000A000A000A000A00EA
:103690000A000A000A000A000A000A000A000A00DA
:1036A0000A002E00CB00CE01F302C603D103C303F0
:1036B000CA03CA03C203C903C403BC03C803CB03C0
:1036C000CD03D603C903C303C003CA03CF03C30397
:1036D000C903C503C903CA03C703D103C503C30391
:1036E000C703D403C503C603C503CF03C303CA037B
:1036F000C603C503C503C603C503C903C303C60385
:10370000C303C703C403C803C403C303C503D2036D
:10371000C403C803C403C603C803D503C803D00346
:10372000C803CA03C803C403CA03C303C703BF0350
:10373000D503C803C603C603C003C803C003D4032C
:10374000C903C103C703BA03C503C603BA03D00341
:10375000C603C003C603BB03BE03CE03B903AF0356
:10376000C203CB03B803BE03C903B603B003BA0355
:10377000DB03BC039E0397039D03B303D603C4037B
:10378000A30391038903860384037F037A037703EA
:103790007203760379037C0378036F035F034803A6
:1037A0002303FC02CD029E026C0236020202C80113
:1037B0008E014C010801C000670013000A000A00D6
:1037C0000A000A000A000A000A000A000A000A00A9
:1037D0000A000A000A000A000A000A000A000A0099
:1037E0000A000A000A000A000A000A000A000A0089
:1037F0000A000A000A000A000A000A000A000A0079
:103800000A000A000A000A000A000A000A000A0068
:103810000A000A000A000A000A000A000A000A0058
:103820000A000A000A000A000A000A000A000A0048
:103830000A000A000A000A000A000A000A000A0038
:103840000A000A000A000A000A000A000A000A0028
:103850000A000A000A000A000A000A000A000A0018
:103860000A000A000A000A000A000A000A000A0008
:103870000A000A000A000A001100830066016C02B7
:10388000C803CF03D903D303BD03DB03C703BE03C0
:10389000C603D103C603C903C603D003C703D303BA
:1038A000CD03C803C903C503C703C203C603D303BB
:1038B000C403D203CA03C603C703C903C803C303AF
:1038C000C703CA03C603C803C503CB03C403C703A6
:1038D000C503CA03C503D203C603CE03C603C80388
:1038E000C403C503C503CC03C503DE03C903D20368
:1038F000C903D003C803CD03C703C803C903C40366
:10390000C803BF03D603C203CF03C603C703C7035D
:10391000C103C903BD03C903C903BD03E003C00359
:10392000C503C903BE03D903C403BB03C903C10351
:10393000B403D003C803B703CC03C703B603BD0366
:10394000C703B903A403AA03C203C903B503AE03A3
:10395000BD03D603BA039903830378037303780383
:103960007E038D039C03AD03BE03C903D503D403BB
:10397000B703800349031503E502B402870252022C
:103980001902EC01A00164011B01E100A500600027
:1039900020000A000A000A000A000A000A000A00C1
:1039A0000A000A000A000A000A000A000A000A00C7
:1039B0000A000A000A000A000A000A000A000A00B7
:1039C0000A000A000A000A000A000A000A000A00A7
:1039D0000A000A000A000A000A000A000A000A0097
:1039E0000A000A000A000A000A000A000A000A0087
:1039F0000A000A000A000A000A000A000A000A0077
:103A00000A000A000A000A000A000A000A000A0066
:103A10000A000A000A000A000A000A000A000A0056
:103A20000A000A000A000A000A000A000A000A0046
:103A30000A000A000A000A000A000A000A000A0036
:103A40000A000A000A000A000A000A000A000A0026
:103A50000A002B00C600C701F302C903CA03D90339
:103A6000FE03FD03D103D903C003C303C903D2037B
:103A7000CE03D403C503D503C903D703CC03E503A1
:103A8000C303D703D003DA03C903CF03C503D303AA
:103A9000CE03E303CA03D603CC03DA03CC03CE037D
:103AA000CD03D903C703C603C603CB03C503C603AF
:103AB000C803C803C603C703C503D803C503DB0394
:103AC000C903D003C703CD03CC03D303CB03D40373
:103AD000C603C803CB03C403C503C403C503C003A3
:103AE000CA03C203CF03CC03C303C703BF03D2037C
:103AF000C303C903C803BF03CE03BE03C003C80387
:103B0000BB03CA03C803BB03D403C803B803D3036E
:103B1000C903B203BC03C603BA03AC03BF03C803A3
:103B2000B703AD03BB03C303BF03A0039203950315
:103B3000A303BD03C703B5039603840376036E0393
:103B4000620357034A033D03330327031F03140390
:103B50000603F202D402B302870254021B02E601FA
:103B6000B1017C0151011C01DB009A004B000A00ED
:103B70000A000A000A000A000A000A000A000A00F5
:103B80000A000A000A000A000A000A000A000A00E5
:103B90000A000A000A000A000A000A000A000A00D5
:103BA0000A000A000A000A000A000A000A000A00C5
:103BB0000A000A000A000A000A000A000A000A00B5
:103BC0000A000A000A000A000A000A000A000A00A5
:103BD0000A000A000A000A000A000A000A000A0095
:103BE0000A000A000A000A000A000A000A000A0085
:103BF0000A000A000A000A000A000A000A000A0075
:103C00000A000A000A000A000A000A000A000A0064
:103C10000A000A000A000A000A000A000A000A0054
:103C20000A000A000F00810075018C02C903DE033F
:103C3000DA030304BE03A803CE030204CA03C403C9
:103C4000C603F003C503C903C5038B03C403910373
:103C5000C503FB03CB03DE03C603EE03C503D0039A
:103C6000C303EA03C403A303C503CD03C403C00312
:103C7000C503DD03C303B203C403CD03C303D403ED
:103C8000C403BE03C303CC03C203C603C203C403FD
:103C9000C103C303C403C803C503CF03C403C703DD
:103CA000C503D103C503CC03C803C903C403C603BA
:103CB000CA03C203C403BC03D803C403D003C503AF
:103CC000C703CA03BF03CB03BD03CF03C803B903B4
:103CD000C703C003C403C903BC03D203CB03B903A6
:103CE000D903C103B203C303CB03B603C103C703A4
:103CF000B703B603D003C503A903A503B103D103DA
:103D0000CA03AC03A903BA03D803BA039903860311
:103D10007A0375037103720376037D0386038D03B3
:103D20008F038D03810369034C0326030003D30231
:103D3000A9027E024B021102D9019C01600110010F
:103D4000C3006D0020000A000A000A000A000A00F1
:103D50000A000A000A000A000A000A000A000A0013
:103D60000A000A000A000A000A000A000A000A0003
:103D70000A000A000A000A000A000A000A000A00F3
:103D80000A000A000A000A000A000A000A000A00E3
:103D90000A000A000A000A000A000A000A000A00D3
:103DA0000A000A000A000A000A000A000A000A00C3
:103DB0000A000A000A000A000A000A000A000A00B3
:103DC0000A000A000A000A000A000A000A000A00A3
:103DD0000A000A000A000A000A000A000A000A0093
:103DE0000A000A000A000A000A000A000A000A0083
:103DF0000A000A000A000A000A000A000A000A0073
:103E00000D00840054017D02CF03CD03E3030604BB
:103E10008803B803C6030404C503A703C603070445
:103E2000C603A903C603F703C5030504C403FA03C5
:103E3000C4038D03C503DA03C403AC03C603D6036E
:103E4000C503C903C203CE03C403D903C303C80314
:103E5000C503D303C503C903C303CA03C103D10305
:103E6000C103D403C403CB03C403CC03C403C903F9
:103E7000C203CD03C203E103C803E003C503D303B8
:103E8000CB03CE03CA03C803C603C103C903BF03E0
:103E9000CE03C203D803C503C903CA03BF03CB03C0
:103EA000BF03CA03C703C003CA03BD03CD03CC03CA
:103EB000BC03D903C203B503D303C903B803D503B5
:103EC000C603B503CA03C703B203AF03C903C703DD
:103ED000B203AE03C603C703B103A403AA03BB0323
:103EE000CE03C903A303960397039D03AD03BF034A
:103EF000E003C2039503670342031903FA02DE02DB
:103F0000C102A7028B026E024C021E02F501B00133
:103F10007B013901FD00C900890051000B000A0036
:103F20000A000A000A000A000A000A000A000A0041
:103F30000A000A000A000A000A000A000A000A0031
:103F40000A000A000A000A000A000A000A000A0021
:103F50000A000A000A000A000A000A000A000A0011
:103F60000A000A000A000A000A000A000A000A0001
:103F70000A000A000A000A000A000A000A000A00F1
:103F80000A000A000A000A000A000A000A000A00E1
:103F90000A000A000A000A000A000A000A000A00D1
:103FA0000A000A000A000A000A000A000A000A00C1
:103FB0000A000A000A000A000A000A000A000A00B1
:103FC0000A000A000A000A000A000A000A000A00A1
:103FD0000A000A000F007F0068017402C703CF03C4
:103FE000D003C903CB03F403C703C203C803D70339
:103FF000C903CE03D003DA03C703CA03C703D5033B
:10400000C603D503C703C903C703CE03C703C3034E
:10401000C503D003C603CC03C503C603C503C5034C
:10402000C503D703C503C303C403C603C203C9033F
:10403000C403CC03C503C603C403CF03C303C8032F
:10404000C103CD03C203CB03C403CB03C503C70322
:10405000C603D903C403D703C503D203C903CB03E3
:10406000C903C803C803C003C803BE03D203C60301
:10407000C703C703BF03C903C003D803CD03C203EB
:10408000CB03BC03D103C803BB03CE03C303BE03EE
:10409000C803BA03BF03C703B903B103C803CA0304
:1040A000B103B503D603C503AF03B403CE03C803FE
:1040B000A70399039703A203B903CB03C0039A0391
:1040C00088037D0377036F0368035D03520348038E
:1040D0003E0334032A031C030903EE02CD02A302AC
:1040E0006E023902FA01C501830157012101E30083
:1040F000A8005B000F000A000A000A000A000A007C
:104100000A000A000A000A000A000A000A000A005F
:104110000A000A000A000A000A000A000A000A004F
:104120000A000A000A000A000A000A000A000A003F
:104130000A000A000A000A000A000A000A000A002F
:104140000A000A000A000A000A000A000A000A001F
:104150000A000A000A000A000A000A000A000A000F
:104160000A000A000A000A000A000A000A000A00FF
:104170000A000A000A000A000A000A000A000A00EF
:104180000A000A000A000A000A000A000A000A00DF
:104190000A000A000A000A000A000A000A000A00CF
:1041A0000A000A000A000A000A000A000A000A00BF
:1041B0000A000A000C00840058015502C703D70307
:1041C000D503E203FB03F403C603BD03C603EB03FD
:1041D000C603CB03C803D903C503D303CB03C10371
:1041E000C603C303C603CB03C503C603C603CB0381
:1041F000C503CC03C403D003C603D603C403C7035B
:10420000C403CA03C503C603C503C703C303C80366
:10421000C203C803C303C703C403C803C503C6035B
:10422000C303C803C203CD03C503D603C603DD031E
:10423000CA03D103C503CC03C403C703C403C20329
:10424000C503C103D703C303CF03C803C803C50312
:10425000C003C703BD03C703C803BC03D803C3031C
:10426000C103CA03BB03C403C903B803C203C80321
:10427000B903BE03C803BA03B603D303C503AC0333
:10428000AE03BE03CA03B503A203A603B903C80362
:10429000B8039A038E038803880389038C03910370
:1042A0009503A003AA03B403B603B303A8038F03C3
:1042B00070034E032103F902D102A40278024402E2
:1042C0000C02DA018F0150010001C10070002900C9
:1042D0000A000A000A000A000A000A000A000A008E
:1042E0000A000A000A000A000A000A000A000A007E
:1042F0000A000A000A000A000A000A000A000A006E
:104300000A000A000A000A000A000A000A000A005D
:104310000A000A000A000A000A000A000A000A004D
:104320000A000A000A000A000A000A000A000A003D
:104330000A000A000A000A000A000A000A000A002D
:104340000A000A000A000A000A000A000A000A001D
:104350000A000A000A000A000A000A000A000A000D
:104360000A000A000A000A000A000A000A000A00FD
:104370000A000A000A000A000A000A000A000A00ED
:104380000A000A000A000A000A000A000A000A00DD
:104390000A000A000A003800E000F2012603CA03FE
:1043A000D803F703F0030704C803C103CA03E103FA
:1043B000D103D703CB03CD03C903D003C803CD0377
:1043C000CA03CB03CB03B303C703C803C603CA03A3
:1043D000C503CE03C603DC03C503CD03C503CD036C
:1043E000C403C903C403C503C603C803C403C90384
:1043F000C303CC03C303CB03C403C703C303C90371
:10440000C503C803C503C703C203C803C403D1035C
:10441000C403D803C703CC03C803CB03C903C80331
:10442000CC03C303C803C103D503C203CF03C7032F
:10443000C803CB03C103C903BD03CA03C603BE033C
:10444000D503C103C403C603BC03D203C603B90327
:10445000CF03C403B103C803C803B803C503C5032E
:10446000B503B603D303C603A6039E03A603BE0388
:10447000C803B503A503A503B503C503C803B0036B
:10448000890371035F035303500350035303500325
:104490004B033D0325030803E202BB0292026202C2
:1044A00035020302D801A3016A013001E2009D0038
:1044B00048000A000A000A000A000A000A000A006E
:1044C0000A000A000A000A000A000A000A000A009C
:1044D0000A000A000A000A000A000A000A000A008C
:1044E0000A000A000A000A000A000A000A000A007C
:1044F0000A000A000A000A000A000A000A000A006C
:104500000A000A000A000A000A000A000A000A005B
:104510000A000A000A000A000A000A000A000A004B
:104520000A000A000A000A000A000A000A000A003B
:104530000A000A000A000A000A000A000A000A002B
:104540000A000A000A000A000A000A000A000A001B
:104550000A000A000A000A000A000A000A000A000B
:104560000A000A000A000A000A000A000A000A00FB
:104570000A000A000A0071003F016402C503CE036D
:10458000E503D303D9030404C703C503C603CC035F
:10459000CA03CC03CD03C003C803CD03C703C203C2
:1045A000C603D103C403D403C903D503C703C2039D
:1045B000C603D103C603C503C503D103C503CE0398
:1045C000C503C503C503C703C403CC03C503C9039F
:1045D000C303C703C403CA03C503CA03C403C9038F
:1045E000C303CB03C503D703C603E203C903E00338
:1045F000C903D403CB03CB03C903C303CB03C20357
:10460000CA03C003C503C403D103CB03C403CA0355
:10461000C103D603C203CC03C803C003C603BD0352
:10462000BF03C803BA03C403C903B803C903C9035A
:10463000BA03CA03C703B503B503D303C603AC0368
:10464000B303CD03C603AC03AD03BE03CD03B60372
:104650009603880385038C039D03B103D003C8032D
:10466000A00381035D03420326030A03F102DB0278
:10467000CA02B602A0028502620237020202D60115
:104680009E0163012E01EF00C0008A0044000A0071
:104690000A000A000A000A000A000A000A000A00CA
:1046A0000A000A000A000A000A000A000A000A00BA
:1046B0000A000A000A000A000A000A000A000A00AA
:1046C0000A000A000A000A000A000A000A000A009A
:1046D0000A000A000A000A000A000A000A000A008A
:1046E0000A000A000A000A000A000A000A000A007A
:1046F0000A000A000A000A000A000A000A000A006A
:104700000A000A000A000A000A000A000A000A0059
:104710000A000A000A000A000A000A000A000A0049
:104720000A000A000A000A000A000A000A000A0039
:104730000A000A000A000A000A000A000A000A0029
:104740000A000A000A000A000A000A000A000A0019
:104750000A000F0093006D017E02C703D003E1033E
:10476000E803C103ED03C503FF03C703FE03C6034C
:10477000C803C703D003C703C803C603D503C403D4
:10478000CB03C603D803C603C703C603D703C803B6
:10479000CB03C503D203C603CB03C403D303C603B1
:1047A000C503C703C803C503CD03C403C803C303BC
:1047B000C903C403C403C303CA03C503CF03C603A9
:1047C000C403C303C403C203C903C503CA03C403A8
:1047D000D003C703D603C903CF03C703CA03C90362
:1047E000C603C703C103CB03BF03CC03C403D00379
:1047F000C603C203C703BE03D903C903C703CA0361
:10480000BD03DE03C203BE03C903B903BA03CD036C
:10481000BD03BB03C903BD03B703D603C403AC0385
:10482000B003CC03CA03B103B103C903C903B00386
:10483000A503AB03B903D303CB03A2038D03850305
:104840008B039503A503B603C103CD03C303C803BC
:1048500097036903460321030303E402C4029E0293
:104860006E023702FF01BC0181013C010B01D20045
:10487000900051000A000A000A000A000A000A001B
:104880000A000A000A000A000A000A000A000A00D8
:104890000A000A000A000A000A000A000A000A00C8
:1048A0000A000A000A000A000A000A000A000A00B8
:1048B0000A000A000A000A000A000A000A000A00A8
:1048C0000A000A000A000A000A000A000A000A0098
:1048D0000A000A000A000A000A000A000A000A0088
:1048E0000A000A000A000A000A000A000A000A0078
:1048F0000A000A000A000A000A000A000A000A0068
:104900000A000A000A000A000A000A000A000A0057
:104910000A000A000A000A000A000A000A000A0047
:104920000A000A000A000A000A000A000A000A0037
:104930000A000A000A000A00700038013E02A203C1
:10494000D303D903F7030404B403C603CE03C60399
:10495000D603C703CB03C703E203C703D403C603CD
:10496000DB03C903DB03C703C803C603CE03C603C7
:10497000D203C703CA03C503CE03C603D803C503C6
:10498000CA03C603CC03C703CF03C603CB03C503C7
:10499000D003C403D003C403CB03C403CD03C503B6
:1049A000CB03C603C703C403C303C203C503C303C6
:1049B000D703C903DA03C803D603C903D503C90360
:1049C000CF03CC03C803C803C403C803C003C50393
:1049D000C103D503CC03C603C703BC03DD03C50372
:1049E000C803C603BC03C603BF03C603C803B7039B
:1049F000C403C803B903C703C803BA03CC03CB037A
:104A0000B403BF03D303B803A903AD03D103C803A1
:104A1000B003B403CA03C803AC0396038B03890332
:104A20008D039503A703BB03D203CB039D037B0335
:104A3000590330030C03E102BF029B0279025502C5
:104A40002F020902DE01AF017D013F010901C00013
:104A500086003D000A000A000A000A000A000A0057
:104A60000A000A000A000A000A000A000A000A00F6
:104A70000A000A000A000A000A000A000A000A00E6
:104A80000A000A000A000A000A000A000A000A00D6
:104A90000A000A000A000A000A000A000A000A00C6
:104AA0000A000A000A000A000A000A000A000A00B6
:104AB0000A000A000A000A000A000A000A000A00A6
:104AC0000A000A000A000A000A000A000A000A0096
:104AD0000A000A000A000A000A000A000A000A0086
:104AE0000A000A000A000A000A000A000A000A0076
:104AF0000A000A000A000A000A000A000A000A0066
:104B00000A000A000A000A000A000A000A000A0055
:104B10000A000A000A000A000A000B007C005D017E
:104B20006102C603D603DF03050483039703C703AB
:104B3000D103C703E503C703D003C703D203C603EA
:104B4000CE03C603D603C303D803CD03E303C603D2
:104B5000D003C703CB03C603BA03C503CA03C50307
:104B6000D303C403CD03C403C303C503CE03C403EB
:104B7000C703C503C803C303BE03C403CE03C203F4
:104B8000C503C403CB03C603C703C203CB03C203DD
:104B9000D303C303CB03C503D303CB03D203C9039E
:104BA000D303CD03CE03C403C703C803C203CA03A0
:104BB000BE03D903C603D303CA03C503C603BE039A
:104BC000CC03C403C203C803BD03DB03C903C4038E
:104BD000C903B803C403CB03B903BF03C903BC03B0
:104BE000C003C903B703BC03D303B903A903AC03D0
:104BF000CD03C603B003B003CD03CB03AC039E03C8
:104C00009D03A203B403CB03C803A7039103880346
:104C100089038E038D038B038203740362034E03A7
:104C2000380322030B03F202D302B4028A025302B6
:104C30001802D20192015B010D01D70090005000D3
:104C40000A000A000A000A000A000A000A000A0014
:104C50000A000A000A000A000A000A000A000A0004
:104C60000A000A000A000A000A000A000A000A00F4
:104C70000A000A000A000A000A000A000A000A00E4
:104C80000A000A000A000A000A000A000A000A00D4
:104C90000A000A000A000A000A000A000A000A00C4
:104CA0000A000A000A000A000A000A000A000A00B4
:104CB0000A000A000A000A000A000A000A000A00A4
:104CC0000A000A000A000A000A000A000A000A0094
:104CD0000A000A000A000A000A000A000A000A0084
:104CE0000A000A000A000A000A000A000A000A0074
:104CF0000A000A000A000A000A000A000A000A0064
:104D00000A000A000A004D00040112024D03CD03FF
:104D1000D903C303BA038E03D803D003CA03C9035C
:104D2000D503C403D103C203AA03CE03CE03D80321
:104D3000C703DA03D403E103C903DA03D803CF03BB
:104D4000CE03DD03C103C803CC03CE03C603CB03EC
:104D5000C503CD03C703CA03C603C303C503C50305
:104D6000C403C803C303C703C303C703C503CD03F9
:104D7000C603CB03C503C903C103C603C303CE03E4
:104D8000C703CC03C903D503CC03D303C703D303A1
:104D9000C903CD03C803C803CC03C403C603C003BF
:104DA000CB03C203D103C903C203CA03BD03DE039D
:104DB000C603CA03C603BE03DB03C303BD03DA0392
:104DC000BF03BA03C703BE03BD03CB03BC03BA03CF
:104DD000DB03C003AD03B503DD03C003AF03C303AF
:104DE000CA03B403AB03B403CB03C703A8039703FD
:104DF0009603A303BD03DE03B903910377035C03AA
:104E000047033303210313030B030603FE02FA02D5
:104E1000F002DE02C3029F0272023E020A02DD01BC
:104E2000A0017A013C011201DC00900048000A0058
:104E30000A000A000A000A000A000A000A000A0022
:104E40000A000A000A000A000A000A000A000A0012
:104E50000A000A000A000A000A000A000A000A0002
:104E60000A000A000A000A000A000A000A000A00F2
:104E70000A000A000A000A000A000A000A000A00E2
:104E80000A000A000A000A000A000A000A000A00D2
:104E90000A000A000A000A000A000A000A000A00C2
:104EA0000A000A000A000A000A000A000A000A00B2
:104EB0000A000A000A000A000A000A000A000A00A2
:104EC0000A000A000A000A000A000A000A000A0092
:104ED0000A000A000A000A000A000A000A000A0082
:104EE0000A000A000A000A000A000A000A00750007
:104EF00047015F02B003D503DD03C0038F03B40392
:104F0000CB03EF03D003C603C603EF03CC03DD03DB
:104F1000C703DF03C603B903CD03C603CA03CA032D
:104F2000CA03DC03C803C903CA03CD03C603BD0318
:104F3000C503D103C403CC03C403CF03C603CD030D
:104F4000C603C603C403C903C303CD03C403C90313
:104F5000C303C803C303CB03C403C503C203C6030F
:104F6000C203C803C403CD03C703CD03CA03E503CB
:104F7000C703D503C703CD03C903C703C703C303CF
:104F8000CB03BF03C503C203D303C903C503CB03CC
:104F9000BD03DE03C403CD03C703C103CC03BD03BC
:104FA000CA03C703BE03D203C603BC03DA03BF03AD
:104FB000BD03C903BB03B203CC03CA03B103B603E9
:104FC000C103C403AF03BA03D803BB03A503A00303
:104FD000A903BB03D803BC039F039B039F03B00338
:104FE000C303C903C0038D036403410324030E03F9
:104FF000F702EB02DB02C702AF028E026A023B023B
:105000000C02E001A4017B014A0123010101B90066
:105010007D002C000A000A000A000A000A000A00AB
:105020000A000A000A000A000A000A000A000A0030
:105030000A000A000A000A000A000A000A000A0020
:105040000A000A000A000A000A000A000A000A0010
:105050000A000A000A000A000A000A000A000A0000
:105060000A000A000A000A000A000A000A000A00F0
:105070000A000A000A000A000A000A000A000A00E0
:105080000A000A000A000A000A000A000A000A00D0
:105090000A000A000A000A000A000A000A000A00C0
:1050A0000A000A000A000A000A000A000A000A00B0
:1050B0000A000A000A000A000A000A000A000A00A0
:1050C0000A000A000A000A000A000A000A000A0090
:1050D0000A000A000A0041000001F4014A03D0035B
:1050E000D803AF0306048F03C003D303BD03B1038A
:1050F000C103EC03C903E303CF03FB03C303BD03F5
:10510000CF03BE03C703E803C703CF03C703DE0310
:10511000C603CC03C503CE03C503D103C603D10325
:10512000C503CD03C603C403C403D803C303D60316
:10513000C303C903C503CF03C503C903C603CA0319
:10514000C403CA03C203D103C403CD03C403CA0307
:10515000C703C903C503D803C503D603C903D203D4
:10516000C503CA03CA03C403C803C203C503C103FA
:10517000D803C703C303C703BF03CA03C003DE03C7
:10518000C703C203C803BC03CF03CA03BA03C903DE
:10519000C303BF03C803BA03BE03C703B903B00305
:1051A000C303C803B503B003C603C903B203AF0307
:1051B000C203C903B20398038C038F039803AF03A0
:1051C000C903CB03A7038E0384037A037203690325
:1051D0005F0355034B0346033E0338032B031603BB
:1051E000FA02D602A90278023F020902DD019F01FC
:1051F00076013501FC00B30070001E000A000A00B1
:105200000A000A000A000A000A000A000A000A004E
:105210000A000A000A000A000A000A000A000A003E
:105220000A000A000A000A000A000A000A000A002E
:105230000A000A000A000A000A000A000A000A001E
:105240000A000A000A000A000A000A000A000A000E
:105250000A000A000A000A000A000A000A000A00FE
:105260000A000A000A000A000A000A000A000A00EE
:105270000A000A000A000A000A000A000A000A00DE
:105280000A000A000A000A000A000A000A000A00CE
:105290000A000A000A000A000A000A000A000A00BE
:1052A0000A000A000A000A000A000A000A000A00AE
:1052B0000A000A000A000A000A00660048014802C3
:1052C000B503D703E703E70306048E03D0038C037B
:1052D000CD03CE03C903B503C703C303C703D40378
:1052E000CE03D103CB03D503C603BB03C503C2035F
:1052F000C603D703C503B903C503C903C603CD035A
:10530000C603DE03C503BF03C503CE03C503D9032C
:10531000C303C803C303C703C403C903C603CC0341
:10532000C503C303C403C803C203D003C303C50337
:10533000C403C803C803D503C603D003CB03D503F6
:10534000C603CD03C903C803C603C203C503BF0315
:10535000C903C203D703CA03C403CD03BF03CA03EF
:10536000C103D803CA03C403C603BD03DC03C603D9
:10537000B803D503C203BB03CD03BE03C203C703F7
:10538000B903BE03CA03B803AD03C203CB03B5031D
:10539000B803D903C003A903AB03BC03DD03BB03FC
:1053A0009E0393039803AA03C503C803AC039103A8
:1053B0007C036A0357034903370328031C031003C4
:1053C0000203F002DB02BD02940264022702F6012E
:1053D000BB0177014D010A01DC00940056000C006E
:1053E0000A000A000A000A000A000A000A000A006D
:1053F0000A000A000A000A000A000A000A000A005D
:105400000A000A000A000A000A000A000A000A004C
:105410000A000A000A000A000A000A000A000A003C
:105420000A000A000A000A000A000A000A000A002C
:105430000A000A000A000A000A000A000A000A001C
:105440000A000A000A000A000A000A000A000A000C
:105450000A000A000A000A000A000A000A000A00FC
:105460000A000A000A000A000A000A000A000A00EC
:105470000A000A000A000A000A000A000A000A00DC
:105480000A000A000A000A000A000A000A000A00CC
:105490000A000A000A000A000A000A000A000A00BC
:1054A0000A00560022010D027603CD03D303D40374
:1054B0009003F403CB03CA03D103C503C803D40389
:1054C000CA03CB03CD03CE03CA03D403CF03BE0369
:1054D000C603C403C803D903C603CE03C803CA0363
:1054E000C903CD03C703CA03C603CE03C503C7035D
:1054F000C503CD03C503C503C503C503C503CD035C
:10550000C503CE03C603C803C503C503C503C5034E
:10551000C603DD03C603E703C703D803C903DB03E0
:10552000C703D503C803D003CA03CA03C803C5030E
:10553000C903C103C603C103CA03C303CB03C90321
:10554000C103C503BC03DB03C803C403C703BF0314
:10555000D003C203BD03CB03BB03C003C903B9031C
:10556000C503C603BB03C603C903B503B303CE0318
:10557000C703B103B503D803C803AE03AE03BD032D
:10558000DD03BA039903880383038E03A103BD03DC
:10559000CA03B40393037D03650352033C0328034A
:1055A00015030803FE02EE02E202CD02B3029102ED
:1055B00062023102FD01CA019E016E014A0117011A
:1055C000EB00BF007E0038000A000A000A000A0053
:1055D0000A000A000A000A000A000A000A000A007B
:1055E0000A000A000A000A000A000A000A000A006B
:1055F0000A000A000A000A000A000A000A000A005B
:105600000A000A000A000A000A000A000A000A004A
:105610000A000A000A000A000A000A000A000A003A
:105620000A000A000A000A000A000A000A000A002A
:105630000A000A000A000A000A000A000A000A001A
:105640000A000A000A000A000A000A000A000A000A
:105650000A000A000A000A000A000A000A000A00FA
:105660000A000A000A000A000A000A000A000A00EA
:105670000A000A000A000A000A000A000A000A00DA
:105680000A000A000A000A000A000A000A000A00CA
:105690000A000A004500090107025303CD03D7039E
:1056A000D00308040304C903D203D203AB03CC0321
:1056B000EE03C403D103CD03CD03CE03D903C90345
:1056C000BE03C903D703C603D303C703D603C70367
:1056D000D603C603CF03C503D103C703C803C5035D
:1056E000C903C503CA03C403C803C503C503C5036F
:1056F000C503C503CF03C403C703C203C703C30362
:10570000D103C503CD03C503C203C403D403C5033A
:10571000F003C603D403C503D503C903D003C803EC
:10572000C803C703C403CB03BF03C903C203D40325
:10573000CE03CC03C503C303CA03BE03CF03C9030F
:10574000BD03C603BF03C903CB03BE03C703C00326
:10575000BC03C903BC03B603D703C503B703CA031D
:10576000CA03B403BD03DE03BC03A703A603BD0342
:10577000CA03B503A903B103CC03CA03A703930368
:105780008703820387039203A103B903D003CA03EB
:105790009F037B03540336031103EB02C802A602E6
:1057A0008802680249021C02F401C6018401570103
:1057B0001601D00098004E0010000A000A000A00EE
:1057C0000A000A000A000A000A000A000A000A0089
:1057D0000A000A000A000A000A000A000A000A0079
:1057E0000A000A000A000A000A000A000A000A0069
:1057F0000A000A000A000A000A000A000A000A0059
:105800000A000A000A000A000A000A000A000A0048
:105810000A000A000A000A000A000A000A000A0038
:105820000A000A000A000A000A000A000A000A0028
:105830000A000A000A000A000A000A000A000A0018
:105840000A000A000A000A000A000A000A000A0008
:105850000A000A000A000A000A000A000A000A00F8
:105860000A000A000A000A000A000A000A000A00E8
:105870000A000A000A000A000A000A001600A10035
:105880009F01B802CB03D903DE0307048703E403B7
:10589000CD03F703C303F103CD03D703D703D80325
:1058A000C403CC03D703D303D603D303DC03C2035F
:1058B000CF03CA03C403C803D403C803BF03C80388
:1058C000C803C603C903C703E303C503CA03C5036B
:1058D000C703C503C903C603CD03C403D003C40370
:1058E000C903C303C803C403CF03C603C803C50366
:1058F000C803C403D003C203D003C503D403CA033F
:10590000CF03CD03D203CA03CF03C603CE03C7031D
:10591000C903CA03C403C403C003C603C103D3033A
:10592000CA03C203C903BD03DB03CB03C703C70319
:10593000BE03D403C903BB03D703BF03B603D40319
:10594000CA03BC03D403C003B803D403C803AE0323
:10595000B303CF03C903AF03B803DF03C203AB0331
:10596000A803B403C703CB03AC0390038A038D03DE
:105970009B03B003CA03CB03A50380035B0335037A
:105980001803F602DB02C102AC029A02850266022B
:105990003D020C02E201A00179013001FE00C600C7
:1059A0009A0066001B000A000A000A000A000A00AA
:1059B0000A000A000A000A000A000A000A000A0097
:1059C0000A000A000A000A000A000A000A000A0087
:1059D0000A000A000A000A000A000A000A000A0077
:1059E0000A000A000A000A000A000A000A000A0067
:1059F0000A000A000A000A000A000A000A000A0057
:105A00000A000A000A000A000A000A000A000A0046
:105A10000A000A000A000A000A000A000A000A0036
:105A20000A000A000A000A000A000A000A000A0026
:105A30000A000A000A000A000A000A000A000A0016
:105A40000A000A000A000A000A000A000A000A0006
:105A50000A000A000A000A000A000A000A000A00F6
:105A60000A000A000A000A000A000A000D0071007C
:105A700048015902A603D903D30302048B03B503DB
:105A8000D203E803C6039903C703FF03CA03F10364
:105A9000CB03D703CB03E603C703EC03C503E8033B
:105AA000C603C303C903DB03C703C903C603D70384
:105AB000C603C703C503C803C403CE03C503D0038D
:105AC000C403C603C403C303C503C203C403C8039A
:105AD000C403CB03C603C803C503C403C203C60380
:105AE000C303CA03C403CF03C503BE03C503C8036E
:105AF000C903D403CC03CD03CA03C903C703C4033A
:105B0000C903C203C803C003DE03C503C703CD0333
:105B1000C103CB03BF03DA03C703C203C803BC033B
:105B2000CA03C903BB03D003C903BD03CA03BF0330
:105B3000BA03CC03BD03B503D103C503B503C40346
:105B4000CA03B603BE03CE03BB03A603A703BE036B
:105B5000D603B603A303A403BC03D903BB039B036F
:105B600085037603690360035C0357035A035F03ED
:105B7000640365035D0350033B031903F302C90289
:105B80009F026F023F020D02DC01A6016901300194
:105B9000EC008D003A000A000A000A000A000A0020
:105BA0000A000A000A000A000A000A000A000A00A5
:105BB0000A000A000A000A000A000A000A000A0095
:105BC0000A000A000A000A000A000A000A000A0085
:105BD0000A000A000A000A000A000A000A000A0075
:105BE0000A000A000A000A000A000A000A000A0065
:105BF0000A000A000A000A000A000A000A000A0055
:105C00000A000A000A000A000A000A000A000A0044
:105C10000A000A000A000A000A000A000A000A0034
:105C20000A000A000A000A000A000A000A000A0024
:105C30000A000A000A000A000A000A000A000A0014
:105C40000A000A000A000A000A000A000A000A0004
:105C50000A000A000A000A000A002D00C900C1015A
:105C60000903C903DB03DE03AB038603CA03D603C0
:105C7000EA03D403A003C803FC03C5030104C6035D
:105C8000EB03C603BD03C603C103C603C903C503B3
:105C9000DC03C603D103C603C803C503D003C7038F
:105CA000CE03C603C503C303C603C403C503C603AB
:105CB000C903C503CC03C503CB03C403C503C30396
:105CC000C903C403CD03C403CC03C403CA03C5037F
:105CD000CA03C403C903C403C303C603DE03CB035F
:105CE000D803C803D003C903CA03CB03C403C50345
:105CF000C103C903C103D903CC03CA03C603C40348
:105D0000C803BE03D203C903C003C703BD03C8034E
:105D1000C803C003CB03BF03C003C903B903B8035F
:105D2000D603C203B503CE03CB03B703C203C90333
:105D3000B303AA03B603D403C703AA03A903B90391
:105D4000D803BF039F038E038803860387038D0355
:105D50009603A303B403C303D303C70397036703E3
:105D600036030203DF02B60292026B0241021702FF
:105D7000E901BD018C0153011801D1009B004F00C6
:105D800011000A000A000A000A000A000A000A00BC
:105D90000A000A000A000A000A000A000A000A00B3
:105DA0000A000A000A000A000A000A000A000A00A3
:105DB0000A000A000A000A000A000A000A000A0093
