:020000040000FA
:10000000382200208D0400009504000097040000B1
:10001000990400009B0400009D0400000000000003
:100020000000000000000000000000009F0400002D
:100030000000000000000000A1040000A304000074
:10004000A5040000A504000031090000A50400007B
:10005000A5040000A5040000A5040000250500007B
:10006000E9080000A5040000A5040000A5040000A4
:10007000A5040000A5040000A5040000A5040000DC
:10008000A5040000A5040000A5040000A5040000CC
:10009000A5040000A5040000A5040000A5040000BC
:1000A000A5040000A5040000A5040000A5040000AC
:1000B000A5040000A50400000000000000000000EE
:1000C000A5040000A5040000A5040000A50400008C
:1000D000A5040000A50400000000000000000000CE
:1000E0000000000000000000000000000000000010
:1000F0000000000000000000000000000000000000
:1001000000000000000000000000000000000000EF
:1001100000000000000000000000000000000000DF
:10040000DFF80CD000F07CF8004800473510000001
:1004100038220020401E00BF00BF00BF00BF00BF49
:1004200000BF00BF00BF00BF00BF00BF00BF00BFD4
:1004300000BF00BF00BF00BF00BF00BF00BF00BFC4
:1004400000BF00BF00BF00BF00BF00BF00BF00BFB4
:1004500000BF00BF00BF00BF00BF00BF00BF00BFA4
:1004600000BF00BF00BF00BF00BF00BF00BF00BF94
:1004700000BF00BF00BF00BF00BF00BF00BF00BF84
:1004800000BF00BF00BFC5D17047000006488047CD
:1004900006480047FEE7FEE7FEE7FEE7FEE7FEE769
:1004A000FEE7FEE7FEE700008D0600000104000005
:1004B00040EA01039B0703D009E008C9121F08C0E6
:1004C000042AFAD203E011F8013B00F8013B521E66
:1004D000F9D2704730B50B46014600202022012496
:1004E00009E021FA02F59D4205D303FA02F5491B02
:1004F00004FA02F52844151EA2F10102F1DC30BD18
:10050000064C074D06E0E06840F0010394E8070060
:1005100098471034AC42F6D3FFF776FF44B600009C
:1005200064B600002DE9FE434FF4827001F056F8E6
:100530000025DFF84C91534C012700286ED052481B
:100540004E46056094F82A00012818D06089401CA6
:10055000608160892189814223D18DF800506068D3
:1005600001902089ADF8080084F82750E06810B1A8
:10057000A18A00F0D3FD2168684688474EE08DF8D7
:100580000050606801902089ADF80800E06828B14B
:100590006060A08A2081E5603760ECE784F827502E
:1005A000E9E7002294F82900114601F00DF861896D
:1005B000606800EB4100012100F0FEFF94F8290083
:1005C00011E000BF04EB4001897D61B1C1B204EBD1
:1005D0004101CA7D897D00F0F7FF37602848001D82
:1005E0000760BDE8FE83401C84F82900C0B20828DB
:1005F000E8D3002004EB4001897D11B184F8290083
:1006000003E0401CC0B20828F4D394F8290004EB9E
:100610004001CA7D897D00F0D7FF37604FF48A70B2
:1006200000F0DCFF28B118481030056084F827502E
:10063000D7E7A04626691FE0B6FA86F04FF00041E2
:10064000C1408E434FF48C7101EB8004204600F0D2
:10065000C5FF88B144F80950A4F58C74E0088DF802
:10066000040044F38000401C8DF800708DF80500F4
:10067000D8F8001068468847002EDDD1B1E70000A9
:1006800000700040E001002004710040F0B58C488B
:100690000022041D0378211D081D0126062B17D1F9
:1006A00025782D0714D10D78C5F30315032D03D13B
:1006B000077817F0F00F0ED0042D03D1077817F04C
:1006C000F00F08D0052D03D1057815F0F00F02D0FA
:1006D000062B09D014E04FF08055D5F84452794FDD
:1006E000C5F342353D6002E025782D0708D10D782D
:1006F000C5F30315032D03D1057815F0F00F02D0D3
:10070000062B06D01DE0704D2F6827F080772F60F4
:100710001AE025782D0714D10D78C5F30315032DA4
:1007200003D1077817F0F00F0ED0042D03D107780E
:1007300017F0F00F08D0052D03D1057815F0F00F54
:1007400002D0062B0AD015E04FF08045C5F80C21E9
:10075000C5F810215B4D2D1F2A6002E025782D077A
:1007600008D10D78C5F30315032D03D1057815F0D5
:10077000F00F02D0062B05D066E0524C0323643400
:10078000236002E023781B075ED10978C1F30311CF
:10079000052959D1007810F0F00F55D14B48006869
:1007A0004B4908604948001D0068091D086047481A
:1007B00008300068091D086044480C300068091DB5
:1007C0000860424810300068091D08603F48143036
:1007D0000068091D08603D48183000683C49203118
:1007E00008603A481C300068091D0860374820300E
:1007F0000068091D0860354824300068091D08603C
:10080000324828300068091D086030482C300068E4
:10081000091D08602D48303000682D4940310860BE
:100820002A4834300068091D0860284838300068BC
:10083000091D086025483C300068091D08602348F0
:1008400040300068091D08601F487438016841F491
:1008500070010160BFF34F8FBFF36F8F4FF0102116
:10086000D1F80002002803DBD1F80002002822DAC8
:10087000184B1E6018480468002CFCD01524C1F8E1
:1008800000420568002DFCD0C1F80442016800292F
:10089000FCD01A6001680029FCD0BFF34F8F0A48D2
:1008A000F03801680D4A01F4E06111430160BFF3C3
:1008B0004F8F00BFFDE70B4909480860F0BD0000FD
:1008C000E00F00F03C050040FCED00E004040010E7
:1008D00020C5004004E5014000E401400400FA05A1
:1008E0000090D003300000202DE9F04700250E4C89
:1008F00004274FF4A078BE034FEA050908EB8500F2
:1009000006FA05F122584AB1D4F804230A4205D068
:1009100044F80090054A5168126890476D1CEDB28A
:10092000BD42EBD3BDE8F087008000400C02002000
:100930000348007F08B100F0BFBF00F039BF0000DE
:10094000180200200FB4054B10B503A9044A029801
:1009500000F018F810BC5DF814FB0000CF0C00008C
:100960003C00002002E008C8121F08C1002AFAD18A
:1009700070477047002001E001C1121F002AFBD11F
:10098000704700002DE9FF4F89B09B4604460025C3
:1009900006E025280BD05A460B999047641C6D1C25
:1009A00020780028F5D10DB02846BDE8F08F00274B
:1009B000B8460122474900E0074314F8013F203BB5
:1009C00002FA03F00842F7D120782E2819D114F842
:1009D000010F47F004072A280ED06FF02F0220786D
:1009E000A0F1300109290CD808EB880102EB410184
:1009F00000EB0108641CF2E70A98641C50F8048BB1
:100A00000A9020780028CED0642808D0692806D023
:100A100075281ED05A460B9990476D1C58E00A99CC
:100A20004FF00A0901C90A91002802DA40422D213B
:100A300002E0390504D52B218DF82010012103E0B7
:100A4000F90704D02021F7E78A4608AE0DE000211F
:100A5000FAE70A994FF00A0901C90A91F7E74946EE
:100A6000FFF738FD303106F8011D0028F7D1ADEB56
:100A7000060000F12009780701D44FF00108C845AD
:100A800002DDA8EB090000E000208046002706E018
:100A900008A85A46C05D0B9990476D1C7F1C5745AE
:100AA000F6DB04E030205A460B9990476D1CB8F1F4
:100AB0000001A8F10108F5DC05E016F8010B5A4623
:100AC0000B9990476D1CB9F10001A9F10109F4DC03
:100AD000641C65E709280100BFF34F8F05480168D2
:100AE000054A01F4E06111430160BFF34F8F00BF7D
:100AF000FDE700000CED00E00400FA050EB5002152
:100B00000091CDE901106A4644F20100FFF7E4FFCD
:100B100010B58268C368934203D000F0C5F8002086
:100B200010BD052010BD29B112B1531E134203D0D0
:100B3000092070470E20704701608380002181608A
:100B4000C1600846704710B58268C3689A1A8388E6
:100B50009A4203D800F0B2F8002010BD042010BD66
:100B600070B50446234888B01E460D00426035D05B
:100B7000A888296882B22048FFF7D5FF00282ED127
:100B8000A889A96882B21C481030FFF7CCFF002862
:100B900025D1202219496846FFF78AFCA0680690F3
:100BA000207900B101208DF814008DF81C60607967
:100BB00000B10E208DF81500E0780290A078039027
:100BC00020780190607800900D49684600F016FB8F
:100BD000002804D19DF81D0018B104E0072008B0DA
:100BE00070BD00F09BFB03480121801C00F050FB0E
:100BF000F5E7000034000020C001002004B600002A
:100C00000517000010B50446074801214470401C38
:100C100000F02AFC112805D12146BDE81040034808
:100C2000FFF791BF10BD000034000020D00100206C
:100C30002DE9F0410446006800F0B4FC2078174F1D
:100C4000012606FA00F038600021606800F0A1FC7F
:100C50001348144D007FA069C5F82405607D217DEF
:100C60000843C5F86C05D4E90001C5F80C05C5F8C2
:100C70001415207D01280FD10021A06800F089FC07
:100C8000E06800F08FFC207B86403E60D4E90201E2
:100C9000C5F80815C5F81005BDE8F0810805005035
:100CA0001802002000200040826883881A400368F0
:100CB0009A5C0A708168491C81607047C2688388A9
:100CC0001A4003689954C168491CC160704710B547
:100CD0000446C0B2FFF796FF204610BD30B503466C
:100CE0000020024608E000BF33F8104033F81250ED
:100CF000AC4200D21046521C8A42F5DB30BD0000E7
:100D000030B503460020024608E000BF33F810402B
:100D100033F81250AC4200D91046521C8A42F5DB1F
:100D200030BD10B50022134603E030F81240521CCB
:100D300023448A42F9DB93FBF1F080B210BD2DE928
:100D4000F04100240D4680462646FFF7D9FF0746AE
:100D500029464046FFF7C2FF07E0844204D0BC4268
:100D600002D038F814100E44641CAC42F5DBAD1E02
:100D700096FBF5F080B2BDE8F08100002DE9F0416E
:100D8000184D0020184BEA68014643F69826A3F157
:100D90002007921E13E000BF03EB400433F810C09D
:100DA0006488A4EB0C0496FBF4F4A4B2A4F1280C20
:100DB000BCF1780F02D827F81140491C401C904222
:100DC000EADB29B108482038FFF7B9FF044600E004
:100DD0006C8806A02146FFF7B5FDAC8020466C80EC
:100DE000BDE8F08104000020800100202020626521
:100DF000666F7265206865617274203D2025640D00
:100E00000A00000010B5104C0021104B2278092A6E
:100E100005D223F81200521CD1B2217009E003EB75
:100E20004102528823F81120491C0729F7DBD88199
:100E300008210648FFF775FFA08081B204A0FFF7E4
:100E400081FDA08810BD00000400002040010020AA
:100E500020736D6F6F746820686561727420203D27
:100E60002025640D0A000000F8B50246002500F0B8
:100E700087F8274C0646206A401C206267780023CA
:100E8000CFB1022E19D0A668761CA6600A2E3DDDD1
:100E900063700A3860612669831BF018C4E9093061
:100EA0001C4EE76806EB470626F8020C00901AA0D5
:100EB000FFF748FD02E0022E08D0A360206A42F24C
:100EC0001071884200DB02252846F8BDA068401C4E
:100ED000A0600A28F2DD0120A3606070E3686BB1B6
:100EE0001BA0FFF72FFD206AE0610A382061E0684F
:100EF000401CE0601028E1DD0125DFE70A232362C2
:100F0000C4E9030318A0FFF71DFDD7E7A061D5E7EB
:100F100004000020800100207065616B73746F70A5
:100F20005B25645D203D202564207065616B417602
:100F300065203D2025642070756C73655065616B7C
:100F4000496E646578203D202564200D0A2000004C
:100F50007065616B7374617274325B25645D203DF2
:100F6000202564200D0A20007065616B7374617226
:100F7000745B25645D203D202564200D0A2000005F
:100F8000642801D201207047283880B2B0F5617F13
:100F900001D9022070470020704700002DE9F04180
:100FA00000F03EF8144F154E44F61F65002400BFB4
:100FB00037F814002146FFF757FF012802D0022816
:100FC0000BD00FE0FFF7DAFE3080FFF71BFF308019
:100FD00001460BA0FFF7B6FC02E00EA0FFF7B2FC43
:100FE00000F01EF8012000F06FF8641CA4B2AC42BF
:100FF000DEDBBDE8F0810000901900000800002051
:10100000686561727452617465203D2025640D0A23
:101010000000000048524572726F72200D0A0000F5
:1010200003480021016241708160C16081627047A4
:101030000400002000F042FB05A0FFF783FC13A092
:10104000FFF780FC02A0FFF77DFCFFF7A7FFFEE79C
:101050002A2A2A2A2A2A2A2A2A2A2A2A2A2A2A2AF0
:101060002A2A2A2A2A2A2A2A2A2A2A2A2A2A2A2AE0
:101070002A2A2A2A2A2A2A2A2A2A2A2A2A2A2A2AD0
:101080002A2A2A2A2A2A2A2A0D0A00002020202079
:1010900020202020202020202020206C7473313339
:1010A00030336D2048656172742052617465202070
:1010B0006578616D706C652E202020202020202016
:1010C000202020200D0A000031B540F2E73404E072
:1010D000401E00902046FFF79DF900980028F7D1A8
:1010E00038BD4907090E002806DA00F00F0202F1A8
:1010F000E02282F8141D03E000F1E02282F80014DF
:1011000000F01F02012191404009800000F1E02021
:10111000C0F88012C0F80011704700002DE9F05FA0
:10112000334D074602200E46C5F80803314CDFF860
:10113000C8B04FF4807894F827004FF0000A0128D7
:1011400011D00220C5F804034FF0010984F827905C
:10115000082084F82900002004EB4001897DF9B1C2
:1011600084F8290020E0E06828B10220C5F80403D3
:101170001120BDE8F09FE760A68294F82A000128BC
:101180000AD1404600F02AFA0028FAD0CBF800A095
:101190003146384600F010FA0220C5F8040322E078
:1011A000401CC0B20828D7D394F82900082801D3DE
:1011B0000820DEE767602681D046A4F80AA004EB89
:1011C0004001C4F80CA0CA7D897D00F0FDF994F8B7
:1011D0002A00012809D00121384600F0EDF9CBF8AA
:1011E0000080C5F800900020C3E73146F4E7000016
:1011F00000700040E0010020007100402DE9F04146
:101200001E4C07460D46E07E10B10820BDE8F08177
:1012100007B91B4F787F20773846FFF709FD6560D7
:10122000386920602800174E4FF0000516D0397F2E
:10123000207F48B1C6F81051C6F82051C6F8245195
:10124000C6F84451104804E0C6F81C51C6F8445191
:101250000E48C6F804030220FFF743FF207F08B1C1
:10126000082000E00420C6F80005E5752576A57580
:101270000120E076A5760020C8E7000018020020D3
:1012800024B600000020004010030200800002008D
:101290002DE9F0411F4B1C7F3CB14FF40052B2EBE3
:1012A000104F02D01020BDE8F081D3F804C0002216
:1012B000194D4FF404764FF40177BCF1000F05D0BF
:1012C00014B1C5F8086301E0C5F8087393F817E096
:1012D000BEF1000F10D01A7E52B1BCF1000F05D044
:1012E00014B1C5F8046301E0C5F804731120DAE70E
:1012F00018610122197604E0D9750025D8605D7661
:101300001D761CB1BDE8F04100F066B8BDE8F041C3
:1013100000F014B8180200200020004010B5064C60
:10132000207F002806D1A07E002803D100F096F986
:101330000120A07610BD0000180200202DE9F05F0A
:10134000234DA87E104301D100F088F9214C686834
:1013500030B14FF40170C4F804030020BDE8F09FE1
:101360004FF000094FF4A27AC4F844914FF4927BF5
:10137000A8465946204600F039F905464FF48471D5
:10138000204600F033F907465146204600F02EF97A
:10139000064647EA06012943EBD055EA060007D185
:1013A00000F034F998F8171098F819008142E0D845
:1013B00088F817900DB10320D0E70EB10F20CDE7CC
:1013C00098F81A10012009B12060C6E76060C4E7F0
:1013D00018020020002000402DE9F05F204C00267C
:1013E0004FF48873C4F810614FF4A275C4F84461D7
:1013F000C4F83405C4F838158AB1D4F8000240F0B6
:101400002000C4F80002DFF85C80D8F8040048B17E
:101410004FF40470C4F804030020BDE8F09F0120DD
:101420002060F0E79A46A9464FF4927B5146204649
:1014300000F0E7F805464946204600F0E2F8074686
:101440005946204600F0DDF83D430543EED088F8CC
:10145000176008B10320E0E7002FDDD00F20DCE7A4
:1014600000200040180200202DE9F0471E4D2A7F81
:101470003AB14FF40053B3EB104F02D01020BDE847
:10148000F087AB7D0BB11120F9E7A9750023A860A7
:10149000AB822AB3154C00264FF490729846C4F8DC
:1014A00020314FF4AC73C4F85881C4F84405C4F833
:1014B00048150120A060686880B992469946514657
:1014C000204600F09EF807464946204600F099F86D
:1014D0000743F4D000B10F2685F816803046CEE7DA
:1014E000BDE8F04700F004B81802002000200040DA
:1014F0002DE9F05F1C4F00254FF48E7A2E46C7F879
:101500001C514FF00108C7F8088000F0B3F8174CE1
:10151000B815616879B123E05F465146484600F04E
:1015200065F810B9A08AB842F7D1A08AB84204D0B1
:1015300000F0A0F801E08346B946A08AA17D884268
:10154000EAD3A08A584501D10F2508E04F465146FD
:10155000384600F04BF80028F9D0C7F80C80A67583
:101560002846BDE8F09F000000200040180200203F
:1015700030B541EA4201DDE9034541EA83018000DB
:1015800041EA042100F1A04041EA0541C0F80017FA
:1015900030BD1CB500220B46009211460192FFF7A8
:1015A000E7FF1CBD1CB5002100910B4601220191F3
:1015B0001146FFF7DDFF1CBD024A1060101D0160DF
:1015C000704700002C760040030103481844C0F81F
:1015D0001425C0F8101570470070004002494058AB
:1015E000002800D0012070470070004040580028BB
:1015F00000D001207047D0F80403084000D001203B
:1016000070474058002800D00120704709480A4917
:101610000022C37DC1F8082143B1D1F81815437EDB
:10162000C268D154417E491C41767047D1F81805F3
:101630007047000018020020002000401FB5012262
:101640008DF8080004488DF800200191D0E90012BF
:10165000684690471FBD0000180200200448002182
:10166000C0F82411C0F80811012101607047000082
:1016700000200040064A0020C2F81C010548838A69
:101680008168C95C838A5B1C8382C2F81C15704721
:1016900000200040180200201FB500218DF808002E
:1016A00005488DF80010826801928175D0E900121A
:1016B000684690471FBD00001802002000B50D4A83
:1016C00087B004AB07CA83E807000B4800900120ED
:1016D00001900A4802904FF4807003900323084A57
:1016E000694604A8FFF73CFA002801D0FFF706FA84
:1016F00007B000BDF8B50000000000204000002049
:10170000AD1700007CB50178264D012909D00229CA
:101710002CD0002929D129462348FFF7F9F980B3B5
:1017200034E04068017820481038FFF70CFA1E4C6E
:10173000103C20B101218DF80010019007E0A06855
:10174000E168081A012805D100208DF800006968B9
:1017500068468847A068E168081AA188884204D8CA
:1017600010480121801CFFF793FD7CBD02218DF8FC
:101770000010C06801900B480121801CFFF788FD14
:101780000CE0FFE701210748FFF76EFE064881687D
:10179000C0688842E9D103208DF800006968684676
:1017A00088477CBD34000020D00100207047000035
:1017B0002DE9FF413E4D4FF400712846FFF71BFF16
:1017C00001273C4C4FF40178002600B34FF492718E
:1017D0002846FFF70BFFD0B1C5F82461C5F8088390
:1017E000A07E00B96F6002208DF80000D5F880045B
:1017F000C5F880040390E07D8DF80800E068019052
:10180000E6752676D4E900126846904724E0042164
:101810002846FFF7F0FEF8B14FF484712846FFF731
:10182000E5FEC8B1FFF7F2FEE07D617E884213D18C
:10183000227E3AB1607EE168E2752269E260267636
:10184000667607E0A07E00B96F60C5F80883E6758C
:10185000607EE168FFF7F2FE4FF48E712846FFF7D5
:10186000C5FE58B1A18AA07D814202D2FFF702FFD6
:1018700004E0C5F81C6108B1FFF70EFF4FF4A27138
:101880002846FFF7B3FE00280FD0C5F84461A07EBC
:1018900000B12F60E07D002807D0E675607EE1682A
:1018A00004B0BDE8F041FFF7C9BEBDE8FF8100000C
:1018B00000200040180200207FB5334C4FF4927195
:1018C0002046FFF79EFE314D0026B0B1C4F82461DA
:1018D00002208DF80000D4F88004C4F8800403903E
:1018E000D4F83C058DF80800E8680190EE752E7676
:1018F000D5E90012684690471FE04FF488712046F2
:10190000FFF77FFEC8B1C4F81061D4F83C05E97D4B
:10191000C0B2814211D12A7E5AB1E968D4F80032AE
:1019200023F02003C4F80032EA752A69EA602E76B3
:1019300001E0EE75E968FFF781FE4FF4A2712046E1
:10194000FFF75FFE50B1C4F84461E87D30B1EE7539
:10195000D4F83C05E968C0B2FFF770FE4FF490710F
:101960002046FFF74EFE00280CD0C4F82061A87D69
:10197000002807D0D4F84C0504B0C0B2BDE87040D0
:10198000FFF78ABE7FBD0000002000401802002043
:10199000590163016C017F01880192019A01A30141
:1019A000B201B901C001C601CC01D201D901DD01EA
:1019B000E001E201E401E601EB01EE01F001F101D9
:1019C000F201F001EE01EC01E901E701E501E201BC
:1019D000E201E101E001DF01DC01D701D301CE0129
:1019E000C801C101B401AE01A6019D0194018B01A2
:1019F000740167015A014C013F01310116010701D1
:101A0000F800EA00DC00C000B300A50098008B00DD
:101A10007E0067005C00520047003D00340020005B
:101A200017000F000D000D000D000D000D000D0042
:101A30000D000D000D000D000D000D000D000D003E
:101A40000D000D000D000D0010001A001E002300F7
:101A500028002E00350045004D0054005C00640055
:101A6000730079007F0085008C009300A100A7001F
:101A7000AC00B100B500B800BE00C100C500C80090
:101A8000CE00D800DD00E300E800EF00F60003011F
:101A90000B01150120012B0137015101600170017B
:101AA00081019A01C201DC01F701150234025502DD
:101AB0009802BA02DC02FF02210343038703AA0350
:101AC000CC03EF03FF03FF03FF03FF03FF03FF0349
:101AD000FF03FF03FF03FF03FF03FF03FF03FF03F6
:101AE000FF03FF03FF03FF03FF03FF03FF03FF03E6
:101AF000FF03FF03FF03FF03FF03FF03FF03FF03D6
:101B0000FF03FF03FF03FF03FF03FF03FF03FF03C5
:101B1000FF03FF03FF03FF03FF03FF03FF03FF03B5
:101B2000FF03FF03FF03FF03FF03FE03F603EF03BF
:101B3000E503DB03D003C403A9039C038E037F03E7
:101B4000700350033F032F031E030D03FC02DB024F
:101B5000C902B802A50292027E025802460234026D
:101B600024021502F901EC01E201D801CF01C601FE
:101B7000BA01B601B201AF01AD01AA01A701A701E7
:101B8000A601A501A3019A0193018F018C018A018D
:101B90008B018F019101950198019C01A501AB0179
:101BA000B301BB01C401CE01E001E601ED01F30187
:101BB000F801FE010C0214021C0225022D023C0257
:101BC00043024B02510257025B0265026A02700235
:101BD000750279027E02850288028C028F029202CF
:101BE00097029A029E02A102A402A702AA02AA02D6
:101BF000A902A702A602A502A302A302A302A302AE
:101C0000A302A202A0029E029C02990297029402E1
:101C100091028E028A0286028202790275027002A5
:101C20006B0266025F025C025B025B025B025B02AC
:101C300059025702560254025202520251025102F4
:101C400050025002500251025202540255025702F1
:101C500058025F02630267026B026D02700271023A
:101C600071027202720273027702770276027602C2
:101C70007502740271026E026C026A0268026702E7
:101C800066026402620260025D025702550253025C
:101C900051024F024D024A024902480247024502E0
:101CA000410240023F023E023E023F023F023F022B
:101CB0003E023E023E023E023B023A023902390235
:101CC0003A024002430247024A024D024E025002CB
:101CD000500251025202530254025502540253025E
:101CE000520251024E024D024D024F025102550264
:101CF0005F02640268026D027102760278027B0262
:101D00007E028002820285028602850283028102AF
:101D10007E0279027602730270026D026902670226
:101D2000640262025F025E025902570256025702C3
:101D3000570258025A025A025A025A025B025B02C6
:101D40005D025F0261026302650267026802690266
:101D500069026A026B026C026D026E026E026E0212
:101D60006B026802650261025E025A0252024D0273
:101D7000470241023B023302210217020C02010218
:101D8000F701E301DA01D201C901C201BA01A601DA
:101D90009D01920188017E016B0163015B01560187
:101DA00051014C0143013E01380133012E0129014B
:101DB00023011D0112010701FE00EE00E700E00013
:101DC000D800D000C900BB00B500B000AC00A9002D
:101DD000A700A200A0009E009B0099009500930020
:101DE00092009200920090008A00860083007F009B
:101DF0007C007A0076007600740071006E00670047
:101E000063005F005B00570053004D004A0049002B
:101E100047004600450041004000400040004200AD
:101E200049004E00530058005E00650075007C00BC
:101E300085008E009700A100B400BC00C400C9005A
:101E4000CE00D600DA00DF00E300E700EA00F3008E
:101E5000F700FC0001010601110117011D0123011A
:101E60002A013001400147014E0155015B01620129
:101E70006F0176017D018301890196019C01A30117
:101E8000A901AF01B401BB01BD01C001C301C6017D
:101E9000CA01D001D301D601D901DC01E201E4017C
:101EA000E601E701E901EC01F401F901FE0102029A
:101EB000060209020E02100211021202120215029B
:101EC000160216021602140212020F020E020F026E
:101ED000100210021002110210020F020E020A027A
:101EE000050202020002FD01FA01F601EE01EB011A
:101EF000E901E601E301DE01DB01DA01DB01DC01DE
:101F0000DE01E401E601E901EA01EC01EE01F10183
:101F1000F101F101F101F201F801FD0102020702F4
:101F20000D0212021B02210226022A022F02340293
:101F30003B023E024002420246024D02500254025F
:101F400058025C0260026502680269026B026D025F
:101F50006E027302750278027A027D027F028002AD
:101F600081028302840285028B028E028F0291021B
:101F700091029302950296029602970297029702A7
:101F8000970298029802990299029902980298027F
:101F900097029502910290028E028D028B028902B5
:101FA0008402820280027F027E027C027C027E0228
:101FB0007F027F027F027E027E027F027F0280021A
:101FC0008202850287028A028B028C028C028C02BA
:101FD0008A028802860285028502860282027C02CB
:101FE0007702740270026E026E026E026E0270025E
:101FF0007302750278027A027E02830285028702EA
:1020000089028B028E02910293029402950295023C
:1020100093028F028B028702840282027F027E0279
:102020007D027C027B027A027902790279027902CE
:102030007802770278027B027E02820286028D029B
:1020400091029402960297029902A002A402A802A9
:10205000AC02AF02B202B202B202B202B302B402E6
:10206000B502B402B402B302B102AE02A702A402E6
:10207000A0029C029902930291028E028A028602B9
:1020800083027C027A027802760276027602790274
:102090007C027E027F027F027F027F028002810239
:1020A00082028402870289028D028F0290029102CD
:1020B00090029002900292029402970299029A0270
:1020C0009B029A0299029A029A029B029C029D022A
:1020D0009E02A102A202A302A302A302A102A002E5
:1020E0009F029F029E029E029D029B029A029702FD
:1020F00093028E028A02870283027F027B027502AC
:1021000071026D02670261025A024D0246024002EC
:102110003902330225021E021702110209020302CC
:10212000F801F301F001EB01E701E201D901D3016C
:10213000CD01C501BD01AF01A801A3019D01980119
:1021400093018A01850181017D0179017401680192
:1021500062015C0156015001450141013C01380119
:10216000340130012801250121011F011D011B013E
:10217000170113010F0109010401FA00F600F20032
:10218000EF00EC00E900E100DC00D800D200CD0057
:10219000C300C000BE00BD00BB00BA00B600B30063
:1021A000B000AE00AA00A700A300A200A0009E00FD
:1021B0009C009500920090008E008C008A008600A2
:1021C000860086008600880089008D008F009200BE
:1021D000940096009B009E00A100A500A900AD0000
:1021E000B100B200B300B400B500B600B900BB0046
:1021F000BE00C100C400CB00CE00CF00D100D20091
:10220000D400DB00E000E400EA00F000F200F0009F
:10221000F100F300F700FC0007010F0115011B019D
:1022200021012701330139014001480150015701C3
:1022300065016D01730179017E0188018E019401B0
:102240009A01A001A601B401BB01C301CA01D201D8
:10225000E101E801F001F701FE010402110215029B
:1022600019021D021F022002200220022102220266
:102270002202230224022402240224022302210235
:102280002002200220022102230228022B022E0219
:102290003002320234023502370238023B023D027C
:1022A00043024502460247024802480248024702EA
:1022B000470247024702480249024A024A024902CB
:1022C00046023F023A02360232022E022A0221025E
:1022D0001B02160210020902FD01F701F201EE01D4
:1022E000EA01E601DC01D701D101C901C001AD015C
:1022F000A5019D01970191018B01830180017D0161
:102300007901760173016E016E016F017101730134
:1023100079017D0180018201860189019201980184
:102320009F01A701AF01B801CB01D501DF01EA018F
:10233000F50110021E022E023F02520266028F02B7
:10234000A402B902CE02E302FA02280340035903B1
:1023500072038C03BD03D703F003FF03FF03FF03E6
:10236000FF03FF03FF03FF03FF03FF03FF03FF035D
:10237000FF03FF03FF03FF03FF03FF03FF03FF034D
:10238000FF03FF03FF03FF03FF03FF03FF03FF033D
:10239000FF03FF03FF03FF03FF03FF03FF03FF032D
:1023A000FF03FF03FF03FF03FF03FF03FF03FF031D
:1023B000FF03FF03FF03FF03FF03FF03FF03FF030D
:1023C000FF03FF03FF03FF03FF03FF03FE03FD0300
:1023D000F503F003E903E103D603CA03AE039F0349
:1023E0008E037D036D035C033D032D031E030E036B
:1023F000FE02DF02D002C102B202A5029A028602E8
:102400007E02760271026B02640259025502510289
:102410004F024F025302560259025D0261026602E8
:10242000710277027C02820288029002A402AF024B
:10243000BC02CA02D702F002FB0200030303080336
:10244000100321032D033A034703550370037E0352
:102450008B039903A703B603D403E203F003FD0340
:10246000FF03FF03FF03FF03FF03FF03FF03FF035C
:10247000FF03FF03FF03FF03FF03FF03FF03FF034C
:10248000FF03FF03FF03FF03FF03FF03FF03FF033C
:10249000FF03FF03FF03FF03FE03FB03F703F40344
:1024A000F003EC03E603DF03D003C903C103B70362
:1024B000AE039A038E0382037403660358033C033E
:1024C0002E031F0311030403F802E102D502CA021E
:1024D000BF02B3029D02920286027C0273026B026B
:1024E0005902510247023F023702280221021A0212
:1024F00014020E02080203020102FF01FF01FF01A4
:10250000FF01010202020302060209021102130284
:10251000160219021C021E022302250226022602AE
:1025200027022702250221021B0215020D02FE01CD
:10253000F701F101E901E201D901C801BF01B401CC
:10254000AA019E01930179016C01600155014801C6
:102550002C011D010D01FC00EB00DB00BD00AD00F6
:102560009E009000820076005B004E004000340028
:102570002900170011000D000D000D000D000D00C9
:102580000D000D000D000D000D000D000D000D00E3
:102590000D000D000D000D000D000D000D000D00D3
:1025A0000D000D000D000D000D000D000D000D00C3
:1025B0000D000D000D000D000D000D000D000D00B3
:1025C0000D000D000D000D000D000D000D000D00A3
:1025D0000D000F00140018002200260029002E0014
:1025E000310035003E00420046004B0050005900CB
:1025F0005D006100650069006D0075007A00800073
:1026000085008B0091009C00A100A500A900AD00F1
:10261000B200B400B700BA00BE00C100C600C700D7
:10262000C700C700C800C900CA00CA00CA00C90064
:10263000C900C600C500C300C100BF00BE00B9008C
:10264000B700B500B400B300B100B000AF00AF00F8
:10265000B000B100B700B900BD00C000C400C800A0
:10266000D100D600D900DE00E300E600E200DF0082
:10267000DD00DD00DE00DF00E100E300E500E80052
:10268000EB00F400FA00000106010E011A0120011E
:1026900026012C013301390147014F0156015E012A
:1026A00064016A0176017D018301890190019D0128
:1026B000A301A901AF01B601BC01CB01D301DA012D
:1026C000E101E801F00100020702110218021F02F5
:1026D0002A022F02330238023D0242024A024E020F
:1026E0005102540256025B025D025F026102650202
:1026F0006A0275027B028002850289028D029302C2
:10270000950297029B029F02A502A702A902AA02B4
:10271000AA02AB02AC02AD02AE02B102B402B80230
:10272000BE02C102C302C702CA02D102D502D90247
:10273000DD02E102E502E902EA02EB02EC02EC0250
:10274000EB02EC02EE02F102F402F802FF020003D7
:102750000003FF02FD02FA02F402F002ED02E902B8
:10276000E502E102D802D402D002CC02C802C002C3
:10277000BD02BB02B802B602B302AE02AB02A902AE
:10278000A602A4029E029B029802960293028F0266
:102790008702830280027D0279027702720271024F
:1027A00070026E026C0268026502620260025D02E3
:1027B0005802520250024F024F024E024E024E0287
:1027C0004E024E024E024D024F0251025402560278
:1027D00059025B02610263026402640265026502DF
:1027E0006602680269026A026B026C026C026D0288
:1027F0006E02700273027A027E02820286028902EF
:102800008C0291029402960298029A029E02A202FF
:10281000A502A802AC02B102B902BD02C102C40203
:10282000C802CC02D402D902DF02E302E702EC02C2
:10283000ED02ED02EC02EC02EB02E802E702E60236
:10284000E602E502E302E202E202E202E202E10261
:10285000E102E202E302E302E402E302E202E10255
:10286000DF02DC02D802D202CF02CD02CA02C602C7
:10287000C302BD02BA02B602B302B102AE02AA029C
:10288000A902A802A702A702A1029E029A0296022A
:1028900092028D0283027A026D02600254024902A2
:1028A00037022F02290224021F0219021702150201
:1028B000120210020D0205020202FF01FB01F701E4
:1028C000F401EC01E901E501E001DB01CF01C901FF
:1028D000C401C001BB01B601AD01A801A3019E0165
:1028E00098018A0184017D01770172016E01650101
:1028F00062015F015B01570153014B014701430135
:1029000040013D01380135013301320130012D0113
:1029100025012301220120011F011C0117011301C0
:102920000F010B0107010101FF00FB00F900F70097
:10293000F500F200F000ED00EA00E800E600E30038
:10294000E100E000E000E000E000E000E100E00085
:10295000DF00DE00DB00DA00DA00DA00DB00DE0098
:10296000E300E600E800E900EB00ED00ED00EE001A
:10297000EF00F000F100F300F400F400F400F300C5
:10298000F400F400F500F600F700F800F900F90093
:10299000F900F800F700F600F700F700F900FB0077
:1029A000FE0001010201040107010D0110011601E1
:1029B00019011E01220126012901330138013D01BF
:1029C0004201470153015B0163016A0172017A010F
:1029D0008C0194019B01A201AA01B201C101C701AE
:1029E000CE01D401DA01E701ED01F201F701FC01AA
:1029F000020213021B0223022A023102380245029C
:102A00004C025302590260026F0277027E02850275
:102A10008C0292029E02A202A602AA02AF02B30296
:102A2000BC02C002C302C602C902CC02CE02CE0260
:102A3000CF02CF02CF02CE02CE02CF02CE02CD0213
:102A4000CA02C702C502C202BF02BC02B802B60275
:102A5000B502B302B102AF02AD02AC02AA02AA02F1
:102A6000AA02AB02AB02AB02AB02AA02A802A1020D
:102A70009E029B0298029602930290028E028B02A3
:102A80008902860281027F027C027902760272024A
:102A90006E026C026902660263026002590256020B
:102AA0005402520252025102510252025302530284
:102AB0005402540254025402540254025502560263
:102AC0005002490243023E02370236023402320209
:102AD000310230022F022F022F0230023002310267
:102AE0003302350237023A023D02410242024202FB
:102AF00042024202420240024002400240023F02C1
:102B00003F023F023E023E023C02390233023202E1
:102B10003102300230023002300230023102320221
:102B200033023702380239023B023D023F024302C0
:102B30004402450245024502440240023F023E0271
:102B40003E023F02410242024502460248024A0258
:102B50004F0251025202550258025B0260026202A9
:102B6000650267026A026D026E026F0270027102F4
:102B700071027202720270026E026C0267026402DB
:102B8000610260025F025D025902570253024F0266
:102B90004B0245023C0238023502320231022F025A
:102BA0002E022E022E022E022E022D022E022F02A5
:102BB0003002320235023A023C023E024002410239
:102BC0004402460248024A024E0250025202540295
:102BD00055025602570257025A025B025D025F021B
:102BE0006002610260025F025E025C025B025A02E6
:102BF0005A0259025902590259025A025A025B02F8
:102C00005B025B025D025D025E025D025D025C02D0
:102C10005D025C025A0258025702560254025402E4
:102C2000520251024E0244023F02380232022A028C
:102C30002402170211020A0205020102FB01F70138
:102C4000F201ED01E701E201D901D501D101CE0187
:102C5000CB01C901C501C201C001BE01BD01BA015C
:102C6000B901B701B501B201B001AA01A701A301E1
:102C70009F019B0196018C01870183017E017901EF
:102C80006F016A01650161015D015A015701560139
:102C900055015301520150014D01490147014401C1
:102CA00042013B013701340131012D012A0122018A
:102CB0001E011A011701160114011301120112015C
:102CC000110111010F010E010C010901070106019B
:102CD0000501040103010101FF00FC00FB00FA00F3
:102CE000FA00FA00FB00FE00FF00FD00F400EA001D
:102CF000E100D200CC00C600C200C000BE00BF0090
:102D0000C000C000C000C000C000C100C400C700B7
:102D1000CB00D000D900DD00E300E800ED00F700B3
:102D2000FC00020107010E0113011F0125012C0106
:102D3000320137013C0147014D0153015A01610144
:102D4000700178017F0186018E019501A601AF0116
:102D5000B901C201CC01D501E501ED01F401FC018D
:102D6000030214021B0222022A0232023902480222
:102D70004F02540259025D026302660269026E024A
:102D8000720276027E028202860289028D0290021F
:102D9000960299029E02A202A702B102B502B902EE
:102DA000BD02C002C402CD02D102D602DA02DE02A6
:102DB000E202E702E902E902EA02EA02EB02EC02BD
:102DC000EE02EF02EF02F002EF02EF02EE02EC027F
:102DD000EA02E802E702E702E902EB02ED02EF0293
:102DE000EF02EF02EE02EE02EE02EC02EB02EA026A
:102DF000EA02EA02E902E602E302E202E102E10299
:102E0000E202E302E302E402E502E502E602E7028F
:102E1000E802E802E702E602E002DE02DB02D90293
:102E2000D802D502D402D202D002CD02CA02C70211
:102E3000C502C202C002BD02B802B502B202AE02B1
:102E4000AA02A702A302A202A202A202A202A20254
:102E5000A0029F029F02A002A002A402A702AA024F
:102E6000AD02B002B202B602B702B702B702B702B1
:102E7000B702B602B702B602B502B302AF02AB02A6
:102E8000A702A2029E0298028D02870280027802A7
:102E900071026A025B0253024C024602410238028E
:102EA000340231022F022C022802230222022202C3
:102EB00023022402250227022802270226022302D7
:102EC0001E021C021A021902170216021302120233
:102ED000130214021502160215021402140214023F
:102EE000150219021C021F022002220222022202E3
:102EF00022022202230224022302220221022002B1
:102F00001F021E021B02190219021A021B021D02D5
:102F100023022502270223021E02150212020F02BB
:102F20000E020E020F0212021402150217021802FC
:102F300018021B021C021E022002220228022A0280
:102F40002C022D022E022F022F022E022F023002FF
:102F5000310232023202320231022F022D022602E7
:102F600023022102200220021F021E021D021B0258
:102F70001A02190217021602160216021602180287
:102F80001C021D021E021F021E021D021C021C0248
:102F90001C021D021E021F022002200220021F022C
:102FA0001E021902170215021402130212020F0266
:102FB0000C02080205020202FE01FC01FB01FA01FB
:102FC000F801F701F601F401F201F001EE01ED0163
:102FD000EE01F001F101F301F501F701F901FA0148
:102FE000FA01FA01FA01F801F701F601F301F10122
:102FF000EF01EB01E801E501E201DF01D901D701B1
:10300000D501D401D301D201D001CD01C901C40140
:10301000C001BB01B201AE01A901A601A2019A0142
:10302000960192018F018B01870180017C0178015B
:103030007401700165015F01580151014A014201AB
:10304000360130012A0124011E0118010D0106017B
:10305000FF00F800F200E600E200DE00DA00D60031
:10306000D300CE00CC00CA00C900C700C500C00014
:10307000BE00BC00BA00B900B800B800B800B90082
:10308000BA00BD00C300C500C800CD00D200D60004
:10309000DC00DD00DE00E000E100E200E300E4002F
:1030A000E500E600E600E800E900ED00F100F500CB
:1030B000F900020107010B010F0113011A011F01A1
:1030C000230129012E0132013D01420148014E0137
:1030D00053015C0160016301660169016D017301C7
:1030E000760179017C017E018001820184018601E3
:1030F00088018C0196019B01A101A601AB01B001E1
:10310000B601B901BE01C201C801CE01D901DE017B
:10311000E101E401E701ED01F001F201F501F8013F
:10312000FA01FF0101020402070209020C020F0268
:1031300011021302160218021F02220224022702A1
:1031400029022A021D0215020F02080203020102CF
:10315000FF01FE01FF010102030207020B020F0241
:103160001102140217021E022202260229022B0259
:103170002E022E022F022F02300230022E022D02CA
:103180002A022702240221021D021C021A021A022C
:103190001A021B021C021D021D021D021D0220023A
:1031A00022022402270229022E02340236023702AA
:1031B000380239023A023D0240024202440245020C
:1031C00044024302430243024402450246024902CA
:1031D0004B024E02510257025B025E026102630221
:1031E00066026B026F027202740276027702770245
:1031F00077027602740271026E026C026A02680241
:103200006702650260025D025A02570255025202CD
:103210005002500252025402560259025A025A02F5
:103220005A025B025A025A0259025A025B025D02BA
:103230006002610261026102600260026102610279
:10324000610261026102620260025E025C02590276
:1032500056025302510250024F024D024C024A02E2
:103260004A02490247024602450244024502470219
:1032700048024A024B024A024A024A0248024602F5
:103280004402440243024302420241023E023C0223
:103290003902380237023602370238023A023C025B
:1032A0003E024202450248024C024F0253025A02B9
:1032B0005D0260026302650268026A026D026E02CC
:1032C000700274027C027F028202850287028802F9
:1032D0008A028C028E02910294029A029C029F0240
:1032E000A102A302A402A602A702A802A802A802A1
:1032F000A702A502A302A1029E029B0294029102D0
:103300008F028D028B028902870286028502830268
:1033100081027D027B0279027802790279027C02C5
:103320007D027D027B0278027702740272027102D2
:103330006F026E026F0270027202730274027502F3
:1033400076027602750275027602770278027702BB
:10335000760272026E02650262025F025C0259022C
:103360005702530250024B024602420236022B021F
:103370002102190213020F020702060206020602C8
:103380000502060208020B020E02120215021902C1
:103390001A021C021D021F021F0222022402250221
:1033A0002502260226022302220220021E021D02FC
:1033B00018021502140213021102110210020E0269
:1033C0000C020802060203020202020202020202C8
:1033D0000302040205020502030201020002FD01CC
:1033E000FC01FA01F801F601F401EF01EB01E7013C
:1033F000E301DE01D601D301D101CF01CC01C80127
:10340000C001BC01B701B201AE01A801A0019E013B
:103410009B01970195018E018A01860183017F013D
:103420007B0175017301710170016E016801650115
:1034300062015E0159015301480143013F013B0113
:10344000370133012901240120011C011901140154
:10345000110110010F0110010F010E010A010801F5
:103460000601050104010501050105010601070129
:103470000B010E010E010F011101120115011601C0
:103480001701170119011A011B011C011D011D0162
:103490001E01240128012D013101340136013901B9
:1034A0003B013E013F014001410142014201450112
:1034B000470149014D014E014F014F015101540196
:1034C0005B016001640168016C01730177017B019C
:1034D0007F018301880195019D01A401AB01B10128
:1034E000B601BB01BF01C201C501C901D001D301B1
:1034F000D701DB01E001E501F201F801FD01020263
:1035000008020F0218021B021E02200221022202E0
:10351000230223022302240226022A022D022F0262
:1035200032023402350236023702370238023902DB
:103530003B023D023E023F023F0240024102420284
:103540004302460248024A024F024F024F024E0215
:103550004D024C024C024C024C024D024E025102F2
:103560005102510250024F024E024E024D024D02D4
:103570004E02500253025502560257025802570299
:103580005702580259025C025F0266026A026E022A
:1035900070027102710271026A0261025B025502DD
:1035A0005002480246024402430242023E023C02EA
:1035B0003B023B023B023B023B023C023D023D021E
:1035C0003C023A023A023D023F02430246024C02EA
:1035D0004E024E024F025002510253025502570250
:1035E00058025A025C025D025D025C025B025802F4
:1035F00055025402530252025202520250024F022A
:103600004D024B024A024902480247024602440266
:103610004102390234022F022A02270224021F0229
:103620001D021C021A021902150211020D020702E4
:1036300003020102FF010002020204020502070266
:103640000A020C020B02090209020A020B020D0215
:103650000E021002130219021C021E022002230293
:103660002702320237023D024202490258025F023B
:1036700066026D0274027B028B0292029A02A00221
:10368000A602AA02B202B602B802BB02BE02C4027D
:10369000C802CB02CD02CF02D002D002CF02CD02AF
:1036A000CC02CC02CD02CE02CE02CD02CA02C702AB
:1036B000C002BD02B902B602B102AB02A302A0026F
:1036C0009D029B02980291028C02860280027A027D
:1036D00075026D026A0267026502630261025E02A0
:1036E0005C025C025B025C025D025D025D025C02E8
:1036F0005C025A02540250024D024A024902480238
:10370000450242023F023C023A02350231022F02D8
:103710002D022B0229022502220220021D021B0279
:1037200018021302110210020F020E020D020B0208
:103730000802060204020102FB01F901F701F5018A
:10374000F301F101EF01EE01ED01EB01EA01E60108
:10375000E501E401E301E201E101DF01DE01DC0159
:10376000D901D601CF01CB01C801C501C201C001F9
:10377000BC01BA01B701B601B301B001AA01A801A9
:10378000A801A701A801AA01AA01A901A701A601F0
:10379000A401A1019F019E019E019E019D019C012A
:1037A0009C019B019A019901950194019301920159
:1037B0009201920195019501940191018D01880179
:1037C0007B017001610156014D0140013A01350153
:1037D00031012E012C012A012B012D013001320172
:1037E00035013B013E014001430146014B014D01C2
:1037F0004E014F0150015101530154015501560131
:103800005601560156015701580159015C016001EA
:10381000600160015E015C015B01560154015201CF
:1038200050014E01460142013E013A013701340187
:1038300030012F012E012E012E012D012B012B0114
:103840002C012C012D012F013101330135013701EC
:103850003A014001440147014B014F0153015A0114
:103860005E0161016301650168016A016D0170011A
:10387000740177018001840188018B018F0191011E
:10388000960199019B019F01A201AA01AF01B30119
:10389000B801BF01C501CF01D301D801DE01E301A9
:1038A000E801F201F701FA01FD01FE01FD01FD0150
:1038B000FE01FE01FE01FE010002010202020302FE
:1038C00003020302030202020202020203020602D0
:1038D000070208020A020E021102160218021B0257
:1038E0001E02210227022A022E0230023202350273
:1038F0003A023D024002430246024A025102550288
:1039000059025D0260026602680269026B026E0281
:10391000710272027202720272027202710270020B
:1039200070026F026C0269026502620260025E024E
:103930005B025702530250024D024B0249024902F8
:103940004B024C024D024C024B024702450245021B
:103950004502460247024A024B024D024F02500204
:10396000530255025602560256025702550253029E
:1039700051024F024C0248024502430243024402F4
:1039800046024602460244024202410240023E0210
:103990003E023D023D023E023F0243024502450215
:1039A000430242023E023C023A023A023902390222
:1039B000390238023702360235023402320232024C
:1039C000320231023202360238023A023D0240022D
:1039D0004202460248024D025102540257025E0260
:1039E00061026402670269026D0270027202710272
:1039F0006902620254024F0248024502420240023A
:103A00003E023E023E023E023F02410242024302A9
:103A10004402430242023F023F023F023F02400291
:103A2000410240023F023D023A02390239023902A4
:103A300039023A023B023C023E023F02400240028F
:103A4000400240024102420244024602460246024D
:103A50004502420240023E023C0238023602350272
:103A60003302320230022E022D022C022B022B02D4
:103A70002A022B022C022E023002320235023702B9
:103A80003B023F02420249024C024F0252025502DF
:103A9000570256025502530251025102510253027B
:103AA00055025702590259025A025A025A02590241
:103AB000580257025502550255025502550253024B
:103AC00053025202520251024F0250025302550257
:103AD00058025A025D0261026102610261026102E2
:103AE0006402670269026C026F0271027602790257
:103AF0007C028002840287028F0291029302960266
:103B000098029A029A029B029B029B029C029C02D0
:103B10009C029C029C029B029B02990298029502C5
:103B200092028F028802830280027B0275026F027A
:103B300061025A0253024C0245024002360232022E
:103B40002D02280224021B021702130210020D028A
:103B50000802050203020002FE01FB01F401F1016B
:103B6000EE01EB01E801E501DF01DD01DA01D7013A
:103B7000D401D101C901C501C101BD01B801AD0127
:103B8000A6019E0197018F018701780172016C01E6
:103B9000670163015F015801550151014E014A015E
:103BA000430141013F013D013C013B013A013A0122
:103BB0003B013B013B013C013E0141014301450109
:103BC0004801490148014601430141013E013A01D2
:103BD0003801380137013701370137013701370123
:103BE0003701360136013701380139013901390110
:103BF000390139013A013A013C013D0141014301DA
:103C00004501470149014E015001530157015A0135
:103C10005E0166016A016E016F016A016501620160
:103C20005F015D015B015A015B015B015B015C01AE
:103C30005D015F0160016001600161016201690174
:103C40006F01740179017E018401900196019C014C
:103C5000A101A601AB01B401B801BC01C001C401BE
:103C6000CB01CF01D301D601DA01DD01E301E70188
:103C7000EB01F001F401F601F901FA01FA01FC018E
:103C8000FE01030208020E02130218021D022602A0
:103C90002A022E023202340236023A023D023F026A
:103CA00040024102420241024002400240024102FF
:103CB00044024402430241023E02350231022D0217
:103CC00028022302200219021602140210020C021A
:103CD0000502FC01F701F201EE01EA01E201DF0158
:103CE000DD01DA01D801D601D301D101D101D00122
:103CF000CF01CE01D001D101D201D201D301D60131
:103D0000D801D901DA01DA01DC01E301E801ED01B2
:103D1000F101F501F801FF01020206020C02110295
:103D20001D0224022A023002340238023C023D0203
:103D30003E024102440248024D024F02500252022A
:103D400053025502570257025702570257025602B2
:103D50005502540252024F024802440241023E02FE
:103D60003D023B023702360235023502340233028D
:103D700030022F022E022D022D022D022C022B02C8
:103D8000290228022702220220021D021A0218021A
:103D900016021202110210020E02090205020302AB
:103DA0000102FF01FC01FA01F701F501F301F00145
:103DB000ED01EA01E501E301E201E001DF01E201D9
:103DC000E501E701E901ED01EF01F601FA01FF016B
:103DD00004020B0212021E022202250229022C02F8
:103DE000350238023C024002440247024F025102AF
:103DF00053025502560256025702580259025C02FB
:103E00005F02610260025D025A02570254024F02D1
:103E10004E024D024C024B02490248024502420248
:103E20003F023C02370236023402330232023202CF
:103E30003202310230022F022F022E022E022F02F6
:103E400031023202330232022A0223021B0214021E
:103E50000D020102FE01FC01FA01FA01F901F8016B
:103E6000F701F701F701F801FB01FE01020206026A
:103E70000C02110217021A021D021F022102240263
:103E800024022502250226022602260225022302FA
:103E90002302230225022A022D022F0231023202BE
:103EA00030022F022F022E022E022E02300230028A
:103EB0002F022E022C0229022802270228022802A1
:103EC00029022C022F023102330234023602370259
:103ED000380237023702370237023602360235021D
:103EE0003602360238023A023B023D023F024002ED
:103EF000440246024702480249024A024B024C026F
:103F00004C024D024E024F024E024D024C024A023A
:103F1000470241023E023C023B023C024002420296
:103F20004502470249024B02510253025502570211
:103F3000580259025A0259025802560254024E02BD
:103F40004902450241023E023A0234023202300284
:103F50002D02290221021D02180212020B02050283
:103F6000FD01FA01F701F301F001EC01E301E001C9
:103F7000DD01DA01D801D301D101CF01CD01CA01A0
:103F8000C701C001BB01B701B401B101AE01A80175
:103F9000A601A401A201A0019901950191018E0140
:103FA0008A01870181017E017B01770173016F0125
:103FB0006A01690169016A016A016B016C016C01A6
:103FC0006D016E016E016F0170017101720173016B
:103FD00073016F016D016901660163015E015B019F
:103FE000590157015501550155015501540155011C
:103FF00055015501570158015B015D0160016201E6
:104000006201620162016201620161016201620199
:10401000630165016A016E01710173017601780126
:104020007F01840188018E01920196019D019F010B
:10403000A001A0019F019F019F019F01A001A1017B
:10404000A201A501A601A601A501A501A501A50141
:10405000A501A501A601A701AB01AC01AD01AD0110
:10406000AB01A901A701A801A801A901AA01AB01FF
:10407000AE01AE01AE01AF01AF01A2019C019701FB
:1040800093018F018C0186018401830182018301E8
:1040900085018D0193019901A001A501AE01B20135
:1040A000B701BC01C201C801D301D801DC01E001A4
:1040B000E501EE01F201F601FB01FF0103020E0230
:1040C0001202160219021C021E02220223022302FD
:1040D00022022202220223022502260227022802AD
:1040E000280227022602260225022502270229028B
:1040F0002B022D023002360239023C023F024302FB
:1041000046024D024F025002520252025202510226
:104110004F024D024A0249024B024C024D024E022E
:104120004F024F024E024D024D024D024D024D0212
:1041300050025202540255025602560256025502CD
:1041400056025602560255025502560255025402B4
:1041500051024A024702430240023D02380237023E
:104160003602350234023302300230022F022F02AF
:104170002F022F022F022E022E022D022C022902C4
:1041800027022702270228022A022D022F023002CC
:10419000310231023202310230022F022C02280297
:1041A0002302210220021D021B0219021802190219
:1041B0001A021E02210229022F02340239023D0294
:1041C000400246024A024E02520256025A0261025E
:1041D000650268026A026B026E0271027402770263
:1041E0007B027F02870289028A028C028D028D0285
:1041F0008E028E028E028E028E028802850282025A
:104200007D02790275026D026802640260025A0240
:1042100051024C02460241023D0238022F022B029B
:104220002702240220021D02150210020B020502C1
:104230000002F901F701F601F601F601F701F701B5
:10424000F701F801F901FA01FB0101020502080278
:104250000D021002150217021702180218021902A5
:104260001A021A021A021A021A021A021702150276
:10427000120210020E020D020D020C020A020802C6
:1042800006020502060207020C02100214021F02B7
:1042900024022A02300235023D0240024202440258
:1042A000460247023E023802340230022C02220249
:1042B0001D021802140211020D0204020102FE0185
:1042C000FB01FA01F901F701F601F501F401F4012E
:1042D000F601F801F901FB01FB01FB01F901F6010F
:1042E000F301F101EF01EE01EA01EA01EA01EB015C
:1042F000EB01E901E801E701E601E501E401E40180
:10430000E601E701E901EA01EB01EF01F101F20148
:10431000F401F701FD010002020204020602070295
:10432000060206020502040203020302020202025E
:10433000020202020002FA01F601F201ED01E801B7
:10434000E401DE01DB01D901D801D601D301CD01A1
:10435000C901C701C301C101BE01BD01BC01BC014E
:10436000BD01BC01BA01B801B601B501B501B40186
:10437000B301B201AF01AB01A6019E019A01970101
:104380009401910190018F018D018B0189018601BA
:1043900080017C0179017601730171016F016E0169
:1043A0006E016E016F016F016F0171017401770180
:1043B0007C01830188018D018F01900190018F01A3
:1043C0008F018F018F018F018E018B018901860181
:1043D000830180017D017C017B017A017A017A01F0
:1043E0007B017B017B017B017B017A017D017F01E8
:1043F000820187018C019301960199019A019C0128
:104400009E01A301A601AA01AF01B401BF01C4012D
:10441000C801CC01D001D301DB01DF01E301E801D8
:10442000ED01F201F701F701F701F601F501F701DE
:10443000F801F901FC01FF01010202020102000280
:10444000FE01FE01FD01F901F701F701F601F60198
:10445000F601F601F601F701F701F801FD0101028D
:104460000402060209020C020E02100211021202DC
:10447000150219021B021E02210224022602280232
:1044800028022702270226022502220220021F02FA
:104490001E021D021A02180217021602140212024C
:1044A0000F020E020C020A0207020102FF01FC01C8
:1044B000FA01F901F701F301F201F101F101F10152
:1044C000F101F101F101F101F201F301F801FC0147
:1044D000FD01F801F601F401F301F201F301F60127
:1044E000FA01FF010B02110217021D022302300222
:1044F000350239023D0242024702530256025A0275
:104500005D026002630217026A026B026D026F02B3
:1045100072027302730272026F026C026502610220
:104520005D0259025702540250024F024C024A02E5
:104530004802440242023F023D023902370232027F
:1045400030022E022D022B022A022702250224020B
:10455000220221021B021902170215021302110284
:104560000D020A02080208020702070207020A02F5
:104570000D02100211021502170219021C021F027D
:10458000230229022C022F023202330232023102AC
:104590003102320233023502380239023B023C0258
:1045A0003D023D023D023C023B023A023902370223
:1045B000360234023202310230022D022A02270270
:1045C000240221021E021B021A02180217021602FE
:1045D0001502160216021702190219021A0219020E
:1045E00019021902180219021B021D021F022202DF
:1045F00025022C022F023102320234023502360229
:1046000037023802380238023702360235023302E6
:10461000320231022F022E022D022B022B022C021B
:104620002E022D022B022902260222022102200242
:104630002002210221022102210220021D02190270
:10464000160210020D02080206020302FE01FC011E
:10465000FA01F801F501F201ED01EB01EA01E901CE
:10466000E801E701E301E101DF01DE01DC01DB013B
:10467000DB01DB01DC01DE01E201EA01EE01F10117
:10468000F401F701FB0104020A02110216021C02E6
:1046900026022A022E023102340237023E02420270
:1046A000450248024A024D024D024E024F0251029B
:1046B0005202560258025A025B025C025D0261021B
:1046C0006302660269026D027302760279027B025E
:1046D0007C027C027802740270026A026602610245
:1046E0005902550250024A02430235022D022502A8
:1046F0001E02160210020302FE01F901F401EE018E
:10470000E201CA01BF01B401AA01A0018F01870122
:1047100081017B017501700167016501640163011D
:10472000620161016001610162016301640166016E
:10473000670168016A016C016F0177017B017F01EC
:1047400083018701890190019301960198019B01E2
:104750009E019E019D019A01970193018E018C019A
:104760008A018A01890188018801880188018701FD
:1047700086018401840184018401830182017D0119
:104780007A017701750171016A01670164016101B4
:104790005E015D015D015D015D015E015E015F0124
:1047A00063016601670169016B01700173017601A4
:1047B00079017B017D0180018101830186018901ED
:1047C0008C0191019301960198019A019E01A0012B
:1047D000A201A401A701A901AE01B101B501B8016F
:1047E000BC01BE01C201C401C601C701C901CA01A1
:1047F000C901C901C701C701C701C801C801C90171
:10480000CA01CC01CE01CF01CF01CD01CB01C9013D
:10481000C801C801C801C901C901CA01CC01CD0143
:10482000CE01CD01CB01C901CA01CC01CF01D1011B
:10483000D401D801DA01DC01DF01E101E301E60185
:10484000E701E901EA01EB01EF01F001F001F101FB
:10485000F301F401F801FB01FE01020206020C0261
:104860001402160216021602150212020F020B02A1
:1048700009020802080208020702070208020902E8
:104880000B021102140218021B021D021E021D025D
:104890001D021C021C021C021A021B021C021D0229
:1048A0001E022002210222022302240224022402E8
:1048B00024022502260227022802280226022402B8
:1048C00021021F021C021B021A02190219021902FC
:1048D0001802170216021602160216021A021D020A
:1048E0001F022002200221022202240226022802A4
:1048F0002A022D022E02300232023202320230022D
:104900002F022F023002320238023A023E024002E7
:104910004202430244024402430242024202430270
:1049200041023F023E023D023B023A023A02350298
:104930002D02250220021A02190219021802180279
:104940001702170217021702170218021E0222028C
:10495000260229022C022F02340236023A023F02BA
:1049600043024E025302560259025C025F02630286
:10497000640265026602670269026F0273027802CE
:104980007C02800284028602880289028B028E02E7
:10499000900290028F028D02890286027C027602CA
:1049A00070026A0265025C025802550251024E0210
:1049B00048023F023B023802350233023102310223
:1049C000310230022F022E02290227022502230281
:1049D000220221022102210221021F021D021902CC
:1049E0001302120211021002100212021302150227
:1049F0001602170219022002230228022E02330295
:104A00003C02400245024B02500255025B025E022C
:104A10006002620264026602680268026902690258
:104A20006902680268026802680269026B02710228
:104A300074027602770278027802790279027802AB
:104A400077027502720270026D02680264025F02F0
:104A500056025302520250024E024B0246024202DA
:104A60003D02380233022A02250221021D021902E8
:104A7000160210020D0209020602050204020102DA
:104A80000002FF01FF01FF01FF01FF01FE01FC0128
:104A9000FA01FA01FC01FD01FE01FF01FF01000224
:104AA000010202020302050206020A020D020E02C0
:104AB0000E020D020A02060204020202FF01FC01BC
:104AC000F701F501F301F101EF01EE01E901E70161
:104AD000E401E101DF01DE01DD01DE01DF01E001D2
:104AE000E001DD01DA01D701D301CF01CA01C40120
:104AF000C201C001BE01BB01B701AD01A701A20106
:104B00009D01990190018B01860181017C01770152
:104B10006E016A016701630160015E015B015B0177
:104B20005A015901580157015601550153015101CC
:104B30004F014B01490147014601440141013B013D
:104B4000380134012F012B01240121011F011E0115
:104B50001C011901140111010E010B010401F900DE
:104B6000F600F300F200F200F200F300F400F400AB
:104B7000F600F700F900030108010F0116011C01FE
:104B8000290131013801400147014F0160016801ED
:104B90006F0175017B0181018A01900196019C01E1
:104BA000A201AB01AF01B201B401B401B401B20181
:104BB000B201B201B301B401B601B901BA01BB013E
:104BC000BC01BC01BB01BC01BD01BF01C101C401ED
:104BD000CA01CC01CE01CF01D001D101D301D50151
:104BE000D601D901DD01E401E701EA01EC01ED01A3
:104BF000EE01F101F301F501F701FA0100020502EE
:104C00000B02110217021C0226022B02310237028C
:104C10003E0243024E02540258025D0262026802E2
:104C20006A026D026F0271027402770279027902E0
:104C300078027702770277027702780279027A02A5
:104C40007802760272026E026B02670261025F02F4
:104C50005E025B0259025802540251024D024802A0
:104C60004302390234022F022A02260223021D02C5
:104C700019021702140210020B020202FD01FA01CE
:104C8000F701F701F601F501F301F201F101F0017D
:104C9000F101F301F601F801FA01FE01FF01010241
:104CA00001020002000201020302050208020C02D6
:104CB0001002160218021A021C021F02230224020A
:104CC00025022402240222022202220221022002C0
:104CD00020021F02200221022202230224022502B6
:104CE000230221021E021B021802140212021102E8
:104CF00010020F020E020B02080205020202FF015F
:104D0000F701F501F101EE01EA01E601DE01DA0148
:104D1000D701D301D101CF01D001D101D301D601F7
:104D2000D701D901D801D801D701D701D701D901BD
:104D3000D901DA01DD01DF01E101E201E401E50170
:104D4000E701EA01F001F301F501F701F901FA01C8
:104D5000FC01FE01FF01010203020A020F0214021C
:104D600018021D0220022202230225022702290224
:104D70002B02300233023502370237023602340288
:104D8000320230022E022D02210217020F02060209
:104D90000002FB01F501F301F101F001EF01EF0168
:104DA000F001F201F401F601F701FA01FD01FF0142
:104DB000020205020902130217021B021E021F0251
:104DC00021022102210222022202240228022902B7
:104DD0002B022D022E022E022E022E022E022E0257
:104DE0002D022E022E022E022E022E022E022E0244
:104DF0002F023102330235023A023D023F024202E3
:104E0000450247024B024D0250025402570259021A
:104E10006002630265026602660266026702680259
:104E200069026A026C0270027202730273027302F8
:104E3000720273027502770279027D028302850293
:104E40008602860287028702860286028502840223
:104E5000820280027B027902760273026F0266028E
:104E600062025D02570252024F02490245024202AB
:104E70003E023B0238023302310230022E022C0283
:104E80002702250222021F021B021802140213022B
:104E900012021202120210020F020C020802030296
:104EA000FE01F301ED01E701E201DD01D901D301CA
:104EB000D101D001CE01CD01CA01C801C701C6018F
:104EC000C401C101BA01B501B001AB01A601A10144
:104ED000970193018E01890186017D017901750198
:104EE00071016E01690162015F015B0159015701A6
:104EF0005601530152014F014D014A014A014A0135
:104F00004B014B014B014A01490148014601450152
:104F1000430142014201440145014501450143016C
:104F20004201400140013F013F0140014101410177
:104F30004101410141013E013D013E01400141016C
:104F40004401460147014701470146014301410130
:104F500041014101430148014B014E0151015401FE
:104F600056015B015E01620166016C0172017D0107
:104F7000830188018E0193019B019E01A001A20182
:104F8000A601AA01B401B801BB01BE01C101C20161
:104F9000C401C501C401C401C401C201C401C501E9
:104FA000C601C601C601C301C201C201C301C501D8
:104FB000C701CE01D201D201CD01C901C401C30193
:104FC000C301C401C501C701CC01CF01D101D40186
:104FD000D701DB01E001E201E401E601E801EA01B9
:104FE000EA01EB01EC01ED01EE01F101F201F40146
:104FF000F601F901000203020602070209020C028F
:1050000010021202140218021C0220022A022E02AE
:10501000320236023A0245024A02510257025D024A
:10502000620268026A026B026B026902680266022F
:105030006502630262025F025802550251024D028C
:10504000490245023C023802340231022F022D028D
:10505000250220021C02180215020F020D020D0289
:105060000E0210021202150215021302130212029E
:1050700012021402150217021A021D021E02200259
:105080002102210222022202260228022B022D02E4
:105090002F022E022D022B022902270227022A02AA
:1050A0002D0230023302370239023C023E023F0237
:1050B000400241024402460249024B024E025002A3
:1050C00050024F024F024E024D024C024A024A0267
:1050D0004B024B024A024A024A024802450243027C
:1050E00041023B02390237023502330231022D02FE
:1050F0002C022A0229022702250225022502250266
:105100002502260225022502250225022602270263
:105110002B022E023102350238023F0242024402C3
:105120004602470249024E025002530255025702FC
:1051300059025A025C025D025F026102640265026A
:10514000660269026B026E027202730276027902D3
:105150007B027F028002810281028202820282023D
:105160008102810281028002800280028202830227
:1051700085028602880289028A028B028C028D02D5
:105180008D028D028B0289028702860283028202CF
:1051900081027F027E027B02790277027502710230
:1051A0006E0267026402620260025F025E025B02DC
:1051B0005A0258025602540250024F024F02500245
:1051C000510254025C025F026302650267026702D9
:1051D00067026502630261025F025D025B025902BF
:1051E000580251024702380232022D0229022602D9
:1051F000220220021F021E021D021C0219021902B5
:1052000019021B021D021F0220021F021D021902A9
:1052100017020F02090205020102FE01FA01F40160
:10522000F201F001EE01EA01E701E101DF01DF0136
:10523000E001E201E901EE01F101F401F701FB01F6
:1052400006020E0214021A02200226023002330263
:1052500037023B023E024002410241024102430248
:1052600045024802490248024702450242023F0203
:105270003D023B02390237023402320230022E0272
:105280002C022902220220021D021A021802110217
:105290000D0207020302FF01FB01F601F401F10117
:1052A000EF01ED01EB01E401DF01DA01D401CD01F1
:1052B000C201BE01BB01B801B401B101AB01A9013A
:1052C000A701A601A501A501A501A501A601A701A8
:1052D000A701AB01AD01AF01B101B201B301B5014D
:1052E000B601B701B801BA01BA01B701B401B10101
:1052F000AC01A7019F01990194018E0188018201EF
:1053000075016E01670161015B0155014A014601AA
:1053100042013F013C0137013501320131013001C9
:1053200030013201330134013601370138013801CF
:10533000380139013A013B013E013F01410142017F
:105340004501470149014B014D014F0151015601F2
:1053500059015C015E015F015F015D015C015B0160
:105360005901580157015601550156015601560180
:105370005701580158015801580159015C015F015A
:105380006301660169016A016D016E0171017201BB
:10539000730174017401750175017601760176015E
:1053A0007601770179017D0181018B018F019101E6
:1053B000930195019D01A001A401A701AC01B101D8
:1053C000B901BE01C201C501C901CE01D701DA018F
:1053D000DE01E101E301E801EA01EC01EE01EF0188
:1053E000F001F101F101F201F301F401F601F7011D
:1053F000F801F801F801F901F901F801F701F601E6
:10540000F401F201EF01ED01E901E401E001D6014F
:10541000D101C701BA01AF01A601980192018D0126
:10542000880183017F01770176017501750175019E
:10543000760178017A017E01810184018E01930158
:1054400098019D01A201A901B501B901BB01BD01EE
:10545000BF01C501C901CE01D301D601DA01E101C5
:10546000E501E801EC01F001F401FA01FE0102029C
:10547000090210021B02200226022B023002340213
:10548000380239023B023E02420247024802480209
:105490004602450243023F023C0239023602330211
:1054A00031022D022B0229022802260223022202A7
:1054B0002102200220021E021B02190216021502FE
:1054C0001302120211021002100211021102120242
:1054D000140215021602170218021A021D022102F6
:1054E000250229022D0236023B02400245024A02F1
:1054F00055025A02600265026B0271027C027F0251
:105500008202840286028702880289028A028B0252
:105510008D028D028B02880287028502840283023B
:1055200083028202820282028202820281027F025E
:105530007D027A02760275027402740273027202AC
:105540006D026902650261025C0253024F024B0266
:105550004802460244023E023902350231022E025E
:105560002D022F023102340237023A024102440274
:1055700048024C02500254025D026002640268025A
:105580006B026E027302760279027C02800288024C
:105590008C028F0291029202920293029202900276
:1055A0008E028D028D028D028E028F029102910277
:1055B0009402960299029B029D029E029F02A00203
:1055C000A002A002A102A102A0029F029E029E02CE
:1055D0009E029F02A002A0029F029D029B029902CE
:1055E00098029702960296029502930291028F0208
:1055F0008B02880282027F027D027C027C027E0294
:105600008202840285028602870285028402830266
:105610008202810280027F027E027D027B027A0288
:10562000770270026E026C026A0268026402610212
:105630005E025B02580255024D0248023F023702E9
:1056400030022B022502220220021D02190213023F
:1056500011020F020E020D020E020F0211021102C0
:1056600012021202120210020F020E020D020C02AE
:105670000E020E020E020E020E020D0209020802B6
:105680000802080209020B020C020A0208020602C2
:105690000302FC01FA01F701F501F201ED01E3015A
:1056A000DC01D601CF01C701B901B301AD01A801E9
:1056B000A3019F01960192018D01870182017D0165
:1056C00072016C01680163015F01570153014E01D2
:1056D000470141013D0136013401330132013101FD
:1056E00030012C012A012801260124012401240172
:1056F0002401230123012401240124012401240184
:10570000240124012601270129012B012D012E014D
:105710002E012E012D012B012A012801280127012C
:105720002701280128012701260124012301230143
:105730002401240124012401240123012101200149
:105740001E011D011C011C011F0122012401260153
:10575000260127012701280129012A012C012F01F7
:105760003101320134013501370137013701380188
:1057700039013A013E0140014301450148014A0116
:10578000530158015E0165016B0177017E018501BE
:105790008C0191019701A001A401A901AE01B10101
:1057A000B501BD01C201C601CA01CD01CF01CF01C2
:1057B000CE01CB01C901C801C601C401C201BF01AC
:1057C000BC01B901B101AB01A601A301A1019E0178
:1057D0009E019D019D019C019C019E01A001A201D1
:1057E000A401A701AA01AC01AE01AF01B101B20150
:1057F000B501B501B501B501B601B601BB01BF01E7
:10580000C301C701CB01D101D301D601D801DB010E
:10581000E001EA01F101F701FD01030208021402AF
:105820001A0222022B02340244024C0254025B028E
:10583000610266026F02730276027A027D028002C2
:105840008202810280027E027B0278027602750269
:1058500074027302730272027202720271027002A7
:1058600070026E026D026C026C026A0259025002F2
:105870004702400239023202270222021D021802A8
:10588000130206020102FB01F501EF01EA01E10149
:10589000DE01DB01DA01D901D801D701D701D90135
:1058A000DB01E001EB01F201FB0103020D02160234
:1058B00026022E0235023A023F0242024A024F02FB
:1058C0005302570259025D025E025F0260026202E9
:1058D00064026B026F02720275027702780279022B
:1058E00078027802770278027B027D027F028102D1
:1058F000820282027F027D027C027C027C027C02A8
:105900007F0281028302860289028E028F028F0249
:105910008F028F028F028E028D028B028902860215
:1059200083027C027A027702750272026E026D02B5
:105930006B02690268026502610260025E025D023A
:105940005C025D025E02600262026402660267023D
:10595000670267026702670266026402630262020C
:105960006102610261026002610261026102600221
:105970005E025C025B0259025802560250024B0260
:105980004702440241023C023A023902380237021D
:105990003702350235023502360237023B02440235
:1059A00049024E0251025202510250024E024C0272
:1059B0004A024902460245024402440245024602A6
:1059C0004A024C024F02520256025E026102650216
:1059D00068026C027002760279027D028002840203
:1059E0008E029202950298029B029D02A202A502DB
:1059F000A802AB02AE02B002B702B902BD02BF02FA
:105A0000C002C102C202C202C202C202C102C1027B
:105A1000BF02BD02B802B302AD02A2029D0299020A
:105A20009602940290028F028C0289028602820200
:105A3000790274026F026A02660263025D025B020F
:105A40005802550252024B024802440242023F02EF
:105A50003C023602330230022B02260221021902D6
:105A600016021302110210020E020E020D020902AA
:105A7000080206020002FE01FA01F701F401EF013B
:105A8000EA01E601E101DD01D701CC01C601C10156
:105A9000BD01B801B301A901A4019F0196018801CC
:105AA000700165015C0153014B0145013A0135016B
:105AB0002F01290124011F011701140112011001F6
:105AC0000E010801050102010001FE00FD00FA00BF
:105AD000FA00FA00FA00FB00FC00FC00FC00FB00EE
:105AE000F900F800F800F900FA00FD00FF000101DC
:105AF00001010101000100010101020108010B0186
:105B00000E01110113011401120111010F010D0108
:105B10000A01060103010001FD00FA00F700F1008F
:105B2000EF00ED00EB00EB00EF00F100F400F800F7
:105B3000FB00FE000201050107010A010E0116012A
:105B40001B01210127012D01310139013D014001D6
:105B5000430146014A015101540156015A015D01B8
:105B60006201650168016C016F0173017B017F01B6
:105B700084018A0190019701A201A601A901AE0149
:105B8000B101BA01BF01C501CA01D001D501DD01D2
:105B9000E101E401E801ED01F201FD01010205026C
:105BA00007020A020F021002120215021602180260
:105BB0001E022102250228022B022E023302360287
:105BC00039023D024002460249024C024E02500296
:105BD0005102560259025C025F02610267026A02C8
:105BE0006D0271027302750279027B027E028002ED
:105BF0008202840289028C028E029002910291023A
:105C000091029102910291029102920293029302F7
:105C10009302920291029102910290028F028E02EF
:105C20008C028B0289028602830281027A02770249
:105C300075027302720272027302740275027602B6
:105C400076027602770277027802780279027D0284
:105C50007E027D027B02780275026E026A02670292
:105C6000650263026102610261026202630265020F
:105C7000680269026A026A026902650264026302DA
:105C8000620261025F025B02580256025302500236
:105C90004D0243023E023802330230022B02290237
:105CA000270226022502230221021E021B021702DE
:105CB00014021202100210020F0210021202150248
:105CC0001502140212020902FF01F101ED01EB01BC
:105CD000EA01EA01E901EA01EB01ED01EE01EE0161
:105CE000EF01EF01F101F201F401F701FD01FF0104
:105CF00000020102020204020D02120218021E0238
:105D000024022E02310233023402350235023702F8
:105D100038023A023D02400244024B024E02500257
:105D2000530255025C026002640268026C02700257
:105D300078027A027D0280028302860288028A0249
:105D40008B028B028B028A028902870286028502FD
:105D50008502820281028102800280027F027C022F
:105D60007A02770275027302720272027202730281
:105D7000740275027702780278027802770276025E
:105D80007602760277027602750271026F026E0267
:105D90006D026B026A02690269026A026A026A02A1
:105DA0006902690268026902690269026D02700291
:105DB000720275027602750271026F026E026C0247
