:020000040002F8
:10AFF0004B2A000002000A000000000000000000D0
:10B0000001488047FEE77047F1B1020030B50B46BA
:10B01000014600202022012409E00D46D5409D4232
:10B0200005D31D469540491B2546954040191546B8
:10B03000521E002DF1DC30BD03460B439B0703D0AD
:10B0400009E008C9121F08C0042AFAD203E00B78ED
:10B050000370401C491C521EF9D270470321001D89
:10B06000401E037812021A43491EF9D51046704754
:10B07000064C0125064E05E0E36807CC2B430C3C4B
:10B0800098471034B442F7D300F0B6F884CF0200EA
:10B09000A4CF02000000000000000000000000003B
:10B0A00000000000000000000000000000000000A0
:10B0B0000000000000000000000000000000000090
:10B0C0000000000000000000000000000000000080
:10B0D0000000000000000000000000000000000070
:10B0E0000000000000000000000000000000000060
:10B0F0000000000000000000000000000000000050
:10B1000010B50A4800F0EAFD01F024FB01F0EAFA6C
:10B1100000F09AFB00F006FC00F0F6FC00F04AFCA0
:10B12000E6F7A0FCE6F7C8FC10BD000080841E0016
:10B1300001B002000000000000000000000000005C
:10B1400000000000000000000000000000000000FF
:10B1500000000000000000000000000000000000EF
:10B1600000000000000000000000000000000000DF
:10B17000000000000000000005B0020049B6020017
:10B1800061B50200D9B502000DB202008DB2020015
:10B1900005B002003DB3020075B30200A9B602007B
:10B1A000000000000000000005B0020005B0020031
:10B1B00005B0020091B20200C5B20200F9B202006D
:10B1C00005B00200000000000000000000000000C8
:10B1D000000000000000000000000000000000006F
:10B1E000000000000000000000000000000000005F
:10B1F00003488546FFF73CFF004800477DC6020034
:10B200000080002040BA7047C0BA704770B51D4D2D
:10B210002E6868681C4C0640F00606D01F20A86007
:10B220006168002901D030408847B005C10E07D0C1
:10B230001F214901A960A168002901D0C00E8847DB
:10B240007004C10E07D01F218902A960E16800299E
:10B2500001D0C00E88473003C10E07D01F21C9039B
:10B26000A9602169002901D0C00E8847F001C10EF4
:10B2700007D01F210905A9606169002901D0C00E0E
:10B28000884770BD00200040EC450020704700005A
:10B2900070B5094D2C68E86A0440686804400748A6
:10B2A0000168002901D020468847AC60012004498C
:10B2B0004004086070BD0000001000408045002080
:10B2C00080E200E070B5094D2C68286B0440686886
:10B2D000044007484168002901D020468847AC60F7
:10B2E000012004498004086070BD00000010004087
:10B2F0008045002080E200E070B5094D2C68686B45
:10B3000004406868044007488168002901D020464D
:10B310008847AC6001200449C004086070BD00008B
:10B32000001000408045002080E200E08EB0FF2049
:10B330006A460D21813001F0BFFBFEE710B50A48D7
:10B34000807B002802D000F015FF08E000F006FE28
:10B3500006488168C26811400905090D0161012094
:10B3600003494002086010BD14460020001001404F
:10B3700080E200E010B50A48807B002802D001F08E
:10B38000D1F808E000F0BEFF06488168C2681140AD
:10B390000905090D0161012003498002086010BD03
:10B3A0002C4600200020014080E200E010B501247E
:10B3B000E404204600F010FD2548E8F7ADFA2046E9
:10B3C00000F09EFDAE2000F057F9D52000F054F9B2
:10B3D000802000F051F9A82000F04EF91F2000F065
:10B3E0004BF9D32000F048F9002000F045F9402047
:10B3F00000F042F98D2000F03FF9142000F03CF9F4
:10B40000A12000F039F9C82000F036F9DA2000F068
:10B4100033F9022000F030F9812000F02DF9682086
:10B4200000F02AF9D92000F027F9F12000F024F9E2
:10B43000DB2000F021F9402000F01EF9A42000F0EC
:10B440001BF9A62000F018F9AF2000F015F910BD87
:10B45000B80B000010B500F0D3F8012010BD10B5F6
:10B4600000F0E4F8012010BD08B50021009140680B
:10B470000178012902D002290DD010E000A94078FE
:10B480000231FFF7E7FF0221684601700121417098
:10B4900001F0C0FC03E0C1788078FFF7E0FF0220F4
:10B4A00008BD0000C106C90E01208840014908609E
:10B4B0007047000080E200E0C106C90E012088400C
:10B4C000014908607047000000E100E08307FF22A7
:10B4D000DB0E9A408907090E994000280BDA000715
:10B4E000000F0838830808489B001818C369934365
:10B4F0000B43C3617047830804489B001B181868FE
:10B50000904308431860704700ED00E000E400E05D
:10B51000F8B5114C074640072668800F0BD0002E67
:10B5200009D0E588A1882846FFF770FD0B48715CBB
:10B5300001606D1CE580292007420CD0002E0AD046
:10B54000A189E089FFF762FD0448A2684068505471
:10B55000E089401CE081F8BD0446002000A00140C5
:10B5600010B5074CE068A1680840FFF7D1FFE0681C
:10B57000A1680840206103491020086010BD000048
:10B580000090014080E200E0F8B5114C074640070A
:10B590002668800F0BD0002E09D0E588A1882846A8
:10B5A000FFF734FD0B48715C01606D1CE5802920BC
:10B5B00007420CD0002E0AD0A189E089FFF726FDB2
:10B5C0000448A26840685054E089401CE081F8BDFE
:10B5D0000446002000A0014010B5074CE068A168B7
:10B5E0000840FFF7D1FFE068A168084020610349E7
:10B5F0002020086010BD000000A0014080E200E0B3
:10B600001CB50C4600210091019180210843694638
:10B6100008705520487001AA034801F00CF96946EA
:10B620004879207001201CBD0202000008B50022EC
:10B6300040060092400E6A46107051706946022022
:10B6400001F0EAF808BD000009488168C2681140AD
:10B65000C905C90D4822114203D0402202610822C7
:10B660000261C80602D50349102008617047000036
:10B67000004001400030014010B504493C230870EF
:10B6800000220121014800F0CFFD10BD413F002004
:10B6900010B504493C23087040220121014800F004
:10B6A000C3FD10BD413F0020044903480861C81490
:10B6B0000349086070470000FFFFFF0000100240D0
:10B6C00080E200E070B5174C05466068002810D095
:10B6D000A16800290DD0E16800290AD01B2100F0E3
:10B6E0009FFB1D21A06800F09BFB1C21E06800F07F
:10B6F00097FB0D490120002D0BD0012D08D14A697F
:10B70000920892004A614A6902231A434A61886199
:10B7100070BD4A69920892004A6188614A69024391
:10B72000F4E70000803F00200010024002E008C85B
:10B73000121F08C1002AFAD170477047002001E0AB
:10B7400001C1121F002AFBD17047000010B5184933
:10B750004A690723DB039A431A434A618B69012232
:10B76000120513438B61CB699343CB61CB691343C0
:10B77000CB6110490024002818D04000401C88618B
:10B78000FF200D4A0121043001F096F90A48018892
:10B79000C905C90DCA1FFF3A0180F93A04D0FF223A
:10B7A0000132511A018010BD048010BD8C61E7E7A1
:10B7B00000B00140007001409C3F002010B50446DD
:10B7C000002903D005490120087010BDD6F796FF67
:10B7D0000121204600F005F810BD0000543F002074
:10B7E000704710B5D6F7DEFF10BD10B5D6F786FF4F
:10B7F00010BD10B5D7F7FEF810BD10B5052100F04B
:10B8000032FF00F017F810BD10B508480178002984
:10B8100008D14178002905D0491E41708078D6F7BB
:10B82000A3FF10BD0248E9F70DFA10BD543F0020F8
:10B830006845002010B502460E210248D7F7FCF8F3
:10B8400010BD00001E3F002010B50220FFF72AFEA9
:10B8500003210220FFF73AFE0220FFF72DFE092008
:10B86000FFF720FE03210920FFF730FE0920FFF734
:10B8700023FE0A20FFF716FE03210A20FFF726FE0B
:10B880000A20FFF719FE0620FFF70CFE0021062014
:10B89000FFF71CFE0620FFF70FFE0720FFF702FE52
:10B8A00000210720FFF712FE0720FFF705FE10BD5D
:10B8B0000026184D184CF64331462868E5F784FFFA
:10B8C0000028F9D00828F7D01028F5D108780F46BD
:10B8D00003280FD00628EFD1084601F073FA7968E3
:10B8E000002902D0A068E6F717F839466068E6F745
:10B8F00013F8E1E7084600F083F87968002903D0DF
:10B9000006480068E6F708F8002FD5D00448394605
:10B910000068ECE784020020483F002090020020ED
:10B920008C02002010B50848E5F7DCFF074C60608A
:10B9300005480C30E5F7D6FFA06003480021103819
:10B94000E6F76AF8206010BD58CF0200483F00209B
:10B950001CB513A103C901910090134C64202080F1
:10B96000608006226946E01DFFF766FB00206071DB
:10B97000A071207107216173A0730D2121740B49FF
:10B98000616114212176094920221439E1610849B5
:10B990000A804A8001220A7148718871C8711CBDF1
:10B9A000AACD443322110000F03A0020703F00205D
:10B9B000E83A002000B585B014220D496846FFF72B
:10B9C0003BFB0C48002101704170D9F7B5F8FFF737
:10B9D000BFFF6846D8F796FF0120D8F73FFFD8F79A
:10B9E000FBFE054A01210548E9F73CF805B000BD1A
:10B9F00070CF0200573F002009B8020068450020C0
:10BA0000F8B50446407832284BD013DC00250122DB
:10BA10002749172828D00EDC05280BD0CE1E142865
:10BA200019D0152806D10D704D703570D6F75EFC13
:10BA3000D8F7D2FEF8BD182822D0302822D03128DD
:10BA4000F8D161680029F5D0E078C91CC01EC0B2E9
:10BA5000FFF7C6FEF8BD0A70A078FFF7C6FEA07813
:10BA6000B070D9F701F8F8BD4A70A0780121FFF74E
:10BA7000B8FE104A002310480095E9F78DF8F8BD8C
:10BA80004D70F8BD60680028FBD001780029F8D01F
:10BA90000129F6D10020FFF791FE0120FFF7A9FE52
:10BAA000F8BD60680028FBD0FFF7A7FEF8BD0000D6
:10BAB000573F0020B80B000068450020F8B5074646
:10BAC0000F481C4615460E460068E5F7DDFE011ED0
:10BAD0000C480BD00F704E708D70CC70069A4A6077
:10BAE000EFF30582002A03D0002203E00220F8BD14
:10BAF0000022D2430068E5F775FE0020F8BD000083
:10BB00004C3F00208402002010B501F071F800F0D5
:10BB1000DBFD10BDFFB5044646A207CA85B06D46E1
:10BB200007C547491846FFF771FA87B208463C2116
:10BB3000FFF76CFA05466846807F0818C0B23C21C2
:10BB4000FFF764FA064603913C212846FFF75EFAA8
:10BB500005466846407F711808180399A171C0B264
:10BB60003C21FFF753FA064603913C212846FFF794
:10BB70004DFA6846007F7118081803996171C0B2C8
:10BB80001821FFF743FA02466846C07E00251018C8
:10BB9000E07021716846807EA0706846008B20802E
:10BBA00001F0BCF91D26002801D068464670A07837
:10BBB0006946401EA84204D94A5DD21997B26D1C4D
:10BBC000F8E7E0787F1EC01985B20120E070FF27FA
:10BBD000A0706E370CE001F0A1F9002802D0FF3D03
:10BBE0006F3D01E0FF3D6E3D2088ADB2401C2080DE
:10BBF0002088BD42EFD801F091F91249002869442C
:10BC000002D0684646700EE0BD4204D12088401C38
:10BC1000208009B0F0BD1C206A46507003E0AA1ACB
:10BC2000401C95B2A070A078425CAA42F7D96D1C66
:10BC3000E570EEE71F1C1F1E1F1E1F1F1E1F1E1F6D
:10BC400080510100FFFFFFFF1CB5054869460880D1
:10BC500001208870C8700021009800F0E3FE1CBD30
:10BC6000B207000070B500242046B030C0B2FFF724
:10BC700003FD0020FFF700FD1020FFF7FDFC00256D
:10BC80000020FFF705FD6D1CADB2802DF8D3641CBC
:10BC9000A4B2042CE8D370BD70B500242046B030A7
:10BCA000C0B2FFF7E9FC0020FFF7E6FC1020FFF729
:10BCB000E3FC00255520FFF7EBFC6D1CADB2802D99
:10BCC000F8D3641CA4B2042CE8D370BD8108002012
:10BCD00001E000BF401C8842FBD3704700B5000163
:10BCE000FFF7F4FF00BD0000F7B516461FA207CA14
:10BCF00084B06B4607C3684600241B4D078A0AE0E0
:10BD000001F00CF9002802D0FF346F3401E0FF3459
:10BD100064346D1CADB2AF422846F1D801F0FEF894
:10BD2000002802D01D20694648706A46917C002098
:10BD3000491E03E0135C1C19401C80B28142F9DCEF
:10BD4000D07C641E0119127DE12000014243684647
:10BD5000807D12186846C07D3080074841438818AE
:10BD6000706007B0F0BD0000B20700001F1C1F1E6E
:10BD70001F1E1F1F1E1F1E1F805101007FB505467D
:10BD800002A800F013F80849039849680822441AE9
:10BD9000054968461039FFF74FF923462846019AAE
:10BDA0000099FFF7B7FE7FBD103F00201CB5044689
:10BDB000694601A8E2F7A0FC6846007900994004B2
:10BDC000CA0B1043606048047D21400CC900FFF796
:10BDD0001DF920801CBD00000149C86170470000AA
:10BDE00000100040F0B50D4B00229D140446D440D5
:10BDF000E60706D000290BD09600F618F76B2F4304
:10BE0000F763002C03D0521CD2B21F2AEED3F0BD30
:10BE10009600F618F76BAF43F2E700000010004001
:10BE200000220346D340DB070AD0084892001018CE
:10BE3000C26B120A1202C263C26B0A43C26370472A
:10BE4000521CD2B21F2AECD37047000000100040F1
:10BE500030B50022074C09020346D340DD0702D06B
:10BE600095002D19E963002B03D0521CD2B21F2A72
:10BE7000F2D330BD0010004030B5012309021B038E
:10BE800000228031074C19430346D340DD0702D01E
:10BE900095002D19E963002B03D0521CD2B21F2A42
:10BEA000F2D330BD00100040F0B501240902E402D5
:10BEB0004031214300230C4C01270546DD40EE07AD
:10BEC0000AD09E003619F163002A3E4602D09E40F9
:10BED000A66101E09E40E661002D03D05B1CDBB251
:10BEE0001F2BEAD3F0BD0000001000400349896B0E
:10BEF000014201D00120704700207047001000402F
:10BF000001498861704700000010004070B5124C74
:10BF1000054660680E46A843606000212846FFF78A
:10BF200061FF002E02D0012E05D00BE020682843CF
:10BF30002060022103E02068A843206001212846F8
:10BF4000FFF79AFF04484A214038C16361682943DA
:10BF500061600121816370BDC0100040F0B583496C
:10BF60008868CA68104082038148920B436894072E
:10BF700022D50226002B1ED09C68002C1BD09D7958
:10BF80000488A54214D92C1BE5B20424042D0CD23C
:10BF90002C46CD68B543CD6007E005889F687F5D7E
:10BFA0000F606D1C641E0580E4B2002CF5D102E028
:10BFB000CC68B443CC600E61940620D58C6A24060C
:10BFC000240F002B17D09D68002D0ED113E09E7911
:10BFD0000588AE4201D24D6805E04E689F687E55E7
:10BFE00005886D1C0580641EE4B2002CEFD104E0CE
:10BFF0004B68641EE4B2002CFAD120230B611305B8
:10C0000002D50123DB020B61130621D58B6A44683C
:10C010001B061B0F002C17D0A568002D0ED113E0B6
:10C02000A6790588AE4201D24D6805E04E68A76842
:10C030007E5505886D1C05805B1EDBB2002BEFD1A1
:10C0400004E04C685B1EDBB2002BFAD180230B614D
:10C05000530723D543680424002B1ED09D68002D70
:10C060001BD09E790588AE4214D9751BEEB204250B
:10C07000042E0CD23546CE68A643CE6007E0068873
:10C080009F68BF5D0F60761C6D1E0680EDB2002DAF
:10C09000F5D102E0CB68A343CB600C61D30502D598
:10C0A000FF2301330B61530621D58B6A44681B06BD
:10C0B0001B0F002C17D0A568002D0ED113E0A67918
:10C0C0000588AE4201D24D6805E04E68A7687E55EE
:10C0D00005886D1C05805B1EDBB2002BEFD104E0F0
:10C0E0004C685B1EDBB2002BFAD140230B61D306F8
:10C0F00001D510230B61130701D508230B61D3076A
:10C1000021D08B6A44681B061B0F002C17D0A56832
:10C11000002D0ED113E0A6790588AE4201D24D68FC
:10C1200005E04E68A7687E5505886D1C05805B1E7E
:10C13000DBB2002BEFD104E04C685B1EDBB2002BBE
:10C14000FAD101230B6192050ED54268002A08D06E
:10C150008B681B0413604C6B234313600022426006
:10C160000280012040020861F0BD00000010014083
:10C17000903F0020FEB52A4C606BA668E168294D0F
:10C180000E40310512D5010604D5286900280DD0CE
:10C1900080470BE0400609D56969002906D0A06AEE
:10C1A00000090007FBD0606880B288477007800FE5
:10C1B00019D0A06A08210007000F081AC7B2286822
:10C1C0000290A88801900CE0288900900199FEF760
:10C1D0001DFF0298405C20600098401C7F1E288153
:10C1E000FFB2012FF0D83006400F11D0A06A000630
:10C1F000070F0BE0A988E888FEF708FF2A68606847
:10C200005054E888401C7F1EE880FFB2012FF1D80F
:10C21000F00703D0606860600120A0632661FEBD66
:10C220000010014014460020FFB583B006460025EB
:10C2300017462C46069800F0CFF908280ED20C219C
:10C240002C4A484381188B680293125C684602703E
:10C250004868019049786846417009E00698029064
:10C26000002069460870FD204001019001204870BF
:10C270002149886901229204104388610198C861AC
:10C2800002980862012088636846407802280CD032
:10C290000F600498401CC8620020C86017480861FD
:10C2A000D82048610827164A1BE0380A08600F604A
:10C2B0000498801CEFE76D1C886AADB20007000F80
:10C2C000049B381AC0B21B1B834208DAD8B206E0BE
:10C2D000335D00250B60641C401EE4B2C0B2002830
:10C2E000F6D18868800501D49542E4D3204607B092
:10C2F000F0BD00008C45002000100140FFFF000051
:10C30000204E0000F0B585498868CA681040820355
:10C31000920B100501D5C81408618148130621D578
:10C320008B6A84681B061B0F002C17D0A568002D94
:10C330000ED113E0A6794588AE4201D24D6805E0E2
:10C340004E68A7687E5545886D1C45805B1EDBB234
:10C35000002BEFD104E04C685B1EDBB2002BFAD15E
:10C3600080230B61930621D58B6A84681B061B0F03
:10C37000002C17D0A568002D0ED113E0A6794588B2
:10C38000AE4201D24D6805E04E68A7687E554588EB
:10C390006D1C45805B1EDBB2002BEFD104E04C68C6
:10C3A0005B1EDBB2002BFAD120230B61930723D550
:10C3B00083680224002B1ED09D68002D1BD09E791F
:10C3C0004588AE4214D9751BEEB20425042E0CD25A
:10C3D0003546CE68A643CE6007E046889F68BF5DBD
:10C3E0000F60761C6D1E4680EDB2002DF5D102E087
:10C3F000CB68A343CB600C61530723D58368042427
:10C40000002B1ED09D68002D1BD09E794588AE4222
:10C4100014D9751BEEB20425042E0CD23546CE6815
:10C42000A643CE6007E046889F68BF5D0F60761C1C
:10C430006D1E4680EDB2002DF5D102E0CB68A3431E
:10C44000CB600C61D30502D5FF2301330B6153068A
:10C4500026D58B6A84681B061B0F002C1CD0A46891
:10C46000002C13D118E084684688A579B54205D21E
:10C470004E68A4686419203CE67705E04D68A4681E
:10C48000A5554488641C44805B1EDBB2002BEAD1B6
:10C4900004E04C685B1EDBB2002BFAD140230B6139
:10C4A000D30601D510230B61130701D508230B61B7
:10C4B000D30721D08B6A84681B061B0F002C17D072
:10C4C000A568002D0ED113E0A6794588AE4201D2B1
:10C4D0004D6805E04E68A7687E5545886D1C45800F
:10C4E0005B1EDBB2002BEFD104E04C685B1EDBB2BD
:10C4F000002BFAD101230B6192050ED58268002A28
:10C5000008D08B681B0413604C6B2343136000221C
:10C5100082604280012040020861F0BD002001409D
:10C52000903F0020FEB52A4C606BA668E168294D5B
:10C530000E40310512D5010604D5286900280DD01A
:10C5400080470BE0400609D56969002906D0A06A3A
:10C5500000090007FBD0606880B288477007800F31
:10C5600019D0A06A08210007000F081AC7B228686E
:10C570000290A88801900CE0288900900199FEF7AC
:10C5800045FD0298405C20600098401C7F1E288179
:10C59000FFB2002FF0D13006400F11D0A06A000684
:10C5A000070F0BE0A988E888FEF730FD2A6860686D
:10C5B0005054E888401C7F1EE880FFB2012FF1D85C
:10C5C000F00703D0606860600120A0632661FEBDB3
:10C5D000002001402C4600200146064A00200C2382
:10C5E00043439B189B688B4203D0401CC0B2082871
:10C5F000F5D370478C45002004484188008881426B
:10C6000001D0002070470120704700001A3F002031
:10C6100010B54068002103780948002B07D001229B
:10C62000012B09D0022B05D10378002B04D0017017
:10C63000FFF718FB002010BD0270FFF72DFBF9E794
:10C64000403F002010B5022101220804FFF72CFC16
:10C65000022101228804FFF727FC0221012248045D
:10C66000FFF722FC10BD10B544182046FEF7F6FC7B
:10C670000002E178000A0906084310BD10B5002049
:10C68000E8F7E8F90020E8F7D3F90120E8F778F9AE
:10C69000E4F78CFF002010BD10B500F08FF900F01A
:10C6A0007FFA10BD10B51020FFF796FB0148E8F7A0
:10C6B000C9FA10BD204400208EB0FF206A46022136
:10C6C000813000F0F9F9FEE710B504490020086058
:10C6D00003490860E1F78AFB10BD0000203E0020FE
:10C6E000243E002010B500F00BFA00F0BFF9E8F787
:10C6F000FDF901200521C002FFF792FB144800F06C
:10C7000081F900F023F9012000F01AF9FFF79AFFF0
:10C71000FFF79AFA012011210005FFF781FB0120A4
:10C7200012214005FFF77CFB01220021D004FFF716
:10C73000BBFB002211461020FFF7B6FBFEF736FECA
:10C7400000210820FFF784FB0720FEF7FFFF10BD44
:10C750001000020010B50848E8F750F80020E8F78C
:10C7600025F80520E8F770F90121880200F008F9A2
:10C770000220E8F751F910BDFFFF7F0010B501203E
:10C780000521C002FFF74CFB002010BD10B50120B1
:10C790008002FFF7ABFB002801D0012010BD01246F
:10C7A000E40200212046FFF73BFB01212046FFF772
:10C7B00063FB002010BD00003EB5456814A0006872
:10C7C0000090002003221146029000F069F8022137
:10C7D00068460170FF24447002AA6946022000F0F6
:10C7E00079F829784020014368460170447002AA14
:10C7F0006946084800F06EF807216846017101217A
:10C800004171417A817101A800F004FB00203EBD16
:10C81000005500000202000070B50E4605460024D7
:10C8200005E0FF2000F016F83055641CA4B2AC42BD
:10C83000F7D3012070BDF0B516460F46054600241B
:10C8400005E0385D00F006F83055641CA4B2AC4237
:10C85000F7D3F0BD10B500217D23DB000F4A04E0C3
:10C860000C46491C89B29C420ED8D4692407240F77
:10C87000042CF5D8106000207D21090106E0034654
:10C88000401C80B28B4201D9FF2010BDD3691B0927
:10C890001B07F4D05068C0B210BD000000900140EA
:10C8A000084B0004C318080703430748034307481D
:10C8B0004361826101214162054901610021C1603A
:10C8C0007047000044FF00000000F0CF00A00140CE
:10C8D000FF010000F0B516460F460546002405E0AE
:10C8E000385D00F007F83055641CA4B2AC42F7D3B1
:10C8F000F0BD000010B500217D23DB000F4A04E0ED
:10C900000C46491C89B29C420ED8D4692407240FD6
:10C91000042CF5D8106000207D21090106E00346B3
:10C92000401C80B28B4201D9FF2010BDD3691B0986
:10C930001B07F4D05068C0B210BD000000A0014039
:10C940000149087070470000183F0020024800218C
:10C9500001804180704700001A3F002070B50C46EE
:10C96000064D01462846E0F799FEA1B22846E0F7B9
:10C9700095FE210C2846E0F791FE70BDFFDF000018
:10C9800010B5FFF7C3FA6420FFF7A8F910BD000047
:10C9900010B5084A1278012A0AD109040A18054973
:10C9A000054C891C08888300401CE250C0B20880F6
:10C9B00010BD0000183F0020A03F002070B50F48B8
:10C9C0000D4B0F4D048813E0DA691207120F042A89
:10C9D0000ED88A00AA581604360E1E60D6B21E6003
:10C9E000160E1E601202120E1A60491CC9B2418056
:10C9F0004188A142E8D170BD004001401A3F0020AB
:10CA0000A03F00200549044BCB224B6188610448BC
:10CA10000861CA607047000066FF4C00004001409A
:10CA2000FFFF000013B569460F4809880180694679
:10CA3000897881706946C978C17069460979017140
:10CA40006946497941716946897981716946C9792F
:10CA5000C1711030FFF7AAF9034A01990832009812
:10CA6000FFF742F91CBD0000003F002009490848BB
:10CA700008600A48084A0260094A42600A48094AAE
:10CA800042600A4A82600A4AC2600A4848607047A7
:10CA90005DC90200303E002099C60200283E0020F9
:10CAA000B9C602008DC70200383E00207DC70200D3
:10CAB000F9C5020091C90200F0B50F4B0D4C9C6105
:10CAC00000250E4E10E00124240404435C60012480
:10CAD0001C600024DF68FF0602D4641CB442F9D352
:10CAE0001C69401C10C26D1C8D42ECD30020986163
:10CAF000F0BD00000704062000400040400D030088
:10CB000014491348C8601548134981601449C1602D
:10CB10001449016114494161144981611449C16199
:10CB20001449016214494162144981621449C16285
:10CB3000144981631449C16314490164144941646F
:10CB4000144981641449C1641449016570470000A7
:10CB50002DB30200B000002005B00200300000201C
:10CB600049B6020061B50200D9B502000DB202005B
:10CB70008DB2020005B002003DB3020075B30200A1
:10CB8000A9B6020005B0020005B0020005B002001F
:10CB900091B20200C5B20200F9B2020005B0020073
:10CBA00001490220C86070470080014010B540680C
:10CBB0000078002801D0012801D1FEF783FD002074
:10CBC00010BD08B5012069460870487023208870A0
:10CBD000684600F01FF9002008BD0000034989885D
:10CBE000814201D102207047002070472E3F002073
:10CBF0007CB50022174B18491046D5F7ADFB00282D
:10CC000025D000241449FF23009405332246891CB3
:10CC100020460194D5F76CFB002818D00D4D0E4925
:10CC2000AD1F2880FF23002200941133491C1046B9
:10CC30000194D5F75DFB002809D06880D5F76DFB1E
:10CC4000002804D0A880D5F76DFB00207CBD012012
:10CC50007CBD0000343F0020D0FF000070B540686C
:10CC6000002401783F4E86B0002907D00225012913
:10CC700015D0022926D0032972D13CE06846047001
:10CC800003214170847071880A0AC270017100F03A
:10CC9000C1F87088401C7080022006B070BD6846E4
:10CCA00004704570012181703178C17000F0B2F8D4
:10CCB0003078401E0006000E307001D164203070C4
:10CCC0000120EAE703A8FFF759F868460470082135
:10CCD0004170857081890A0AC2700171817B41713E
:10CCE000C17B8171017CC171417C0172817C417287
:10CCF00000F090F834E041787D230279DB0059435D
:10CD00005318817864225143C2780A2462438918F7
:10CD10005A1869460A804179827961438A186946BE
:10CD20008A70C179027A61438A186946CA70417A69
:10CD30000A225143827A8A1869460A71C17A0A2204
:10CD40005143027B8A1869464A71417B0A22807BE3
:10CD5000514308186946887101990098FFF762FEEF
:10CD600000209AE7443F002038B5446813484079D2
:10CD7000002802D01148E7F794FE2078002804D05C
:10CD8000012809D0022817D106E01020FFF724F867
:10CD90000A48E7F786FE0FE01020FFF7B1F8084ACF
:10CDA00000210648E7F75EFE00207D220346009042
:10CDB000D2000248E7F7F0FE002038BD20440020F2
:10CDC000A5C6020010B5417801290CD004290AD16A
:10CDD00081780B00D5F7EEFB0805080B0E11141730
:10CDE0001A07FFF73BFF10BDFFF712FC10BDFEF75F
:10CDF0003BFB10BD00F03EF810BDFFF7E2FE10BD9A
:10CE0000FFF7B2FF10BDFFF7D1FE10BDFFF7D4FC56
:10CE100010BD000070B504460B4885880B4885425C
:10CE200001D1002070BD627821460948921CFEF7AE
:10CE300003F96278002306492846921CD5F7B6FA12
:10CE40006078801CC0B270BD2E3F0020FFFF000044
:10CE5000A043002006498988814207D1002A05D0D5
:10CE60000348801E00781070022070470020704731
:10CE70002E3F002000B585B04068032269460A7045
:10CE800008224A700178427809028A1869468A8124
:10CE900082788A73C278CA7302790A7442794A74B2
:10CEA000807988745A20C87400A8082203A9023027
:10CEB000FEF7C2F804990398FFF7B4FD6846FFF740
:10CEC000A9FF6946487805B0801C00BDF8B5114936
:10CED000069E8A881C46824203D11878891E0870F3
:10CEE00015E00988814212D1142E10D80A48006832
:10CEF000E4F7CAFC05000AD0B21EA11CFEF79CF89C
:10CF000000956378227804210620FEF7D7FD0020E3
:10CF1000F8BD00002E3F0020503F002010B5044611
:10CF200080070CD164212046FEF770F8002908D153
:10CF3000FF2191312046FEF769F8002901D0002039
:10CF400010BD012010BD0000B1B8020000000000BB
:10CF500001000000000600000A00000008000000B8
:10CF6000384400200A00000014000000944400200F
:10CF7000777269737462616E642064657669636553
:10CF800000000000A4CF0200003F0020A00000002D
:10CF90002CB7020044D00200A03F0020A4060000ED
:10CFA0003CB702000000000000000000000000008C
:10CFB0000000000000000000000000000000000071
:10CFC0000000000000000000012000022000040515
:10CFD0000000000000000000DDCB020055CE020082
:10CFE000CDCE020000000000640000000000000040
:10CFF000000000000000000000050000000000002C
:10D0000012096D7864626C652D7772697374626160
:10D010006E6400000201050319C0000502F0FF0D57
:10D0200018000000FF0000000000000000000000E9
:10D0300000000000000000000000000000000000F0
:04D0400000000000EC
:040000050002B00144
:00000001FF
