:020000040000FA
:1000000070200020150400001D0400001F040000E3
:10001000210400002304000025040000000000006B
:1000200000000000000000000000000027040000A5
:100030000000000000000000290400002B04000064
:100040002D0400002D0400002D0400002D040000EC
:100050002D0400002D0400005D0400002D040000AC
:10006000B50700002D0400002D0400002D04000041
:100070002D0400002D0400002D0400002D040000BC
:100080002D0400002D0400002D0400002D040000AC
:100090002D0400002D0400002D0400002D0400009C
:1000A0002D0400002D0400002D0400002D0400008C
:1000B0002D0400002D0400000000000000000000DE
:1000C0002D0400002D0400002D0400002D0400006C
:1000D0002D0400002D0400000000000000000000BE
:1000E0000000000000000000000000000000000010
:1000F0000000000000000000000000000000000000
:1001000000000000000000000000000000000000EF
:1001100000000000000000000000000000000000DF
:10040000DFF80CD000F018F800480047850900001C
:10041000702000200648804706480047FEE7FEE7B8
:10042000FEE7FEE7FEE7FEE7FEE7FEE7FEE7000089
:100430005905000001040000064C074D06E0E06885
:1004400040F0010394E8070098471034AC42F6D31B
:10045000FFF7DAFFA00D0000C00D00002DE9F04706
:100460000025DFF8E890A8464FF4807601242F4657
:10047000304600F085FC38B1D9F80403204203D09F
:10048000304600F073FC2543361D64007F1CB6B275
:10049000082FEDD34FF4BE74204600F071FC38B144
:1004A000204600F063FC2A4845F00045D0F8008063
:1004B000284E15F0FF0F14D0012700242F420CD036
:1004C00009EB8401D1F81005D1F81015C0F3042010
:1004D00056F82420C1F3014190477F00641C082C8A
:1004E000ECD3002D1DDA96F94400401C19D096F883
:1004F000447027F0C004204600F0DEF956F8205082
:10050000002D0ED0BE090121A140A00000F1A040A5
:10051000D0F8000711EA080FC0F3014003D0022809
:1005200003D0BDE8F0870328FBD1032E05D10228B4
:1005300009D00221204600F00AFC31462046AC4694
:10054000BDE8F04760470321F4E700000060004089
:100550001005005018000020F0B58C480022041D42
:100560000378211D081D0126062B17D125782D079C
:1005700014D10D78C5F30315032D03D1077817F0B7
:10058000F00F0ED0042D03D1077817F0F00F08D02C
:10059000052D03D1057815F0F00F02D0062B09D0F8
:1005A00014E04FF08055D5F84452794FC5F34235E9
:1005B0003D6002E025782D0708D10D78C5F30315BD
:1005C000032D03D1057815F0F00F02D0062B06D0CD
:1005D0001DE0704D2F6827F080772F601AE0257896
:1005E0002D0714D10D78C5F30315032D03D107781A
:1005F00017F0F00F0ED0042D03D1077817F0F00F8D
:1006000008D0052D03D1057815F0F00F02D0062B88
:100610000AD015E04FF08045C5F80C21C5F810212F
:100620005B4D2D1F2A6002E025782D0708D10D783B
:10063000C5F30315032D03D1057815F0F00F02D093
:10064000062B05D066E0524C03236434236002E09D
:1006500023781B075ED10978C1F30311052959D10D
:10066000007810F0F00F55D14B4800684B490860F6
:100670004948001D0068091D0860474808300068A7
:10068000091D086044480C300068091D0860424894
:1006900010300068091D08603F4814300068091DCB
:1006A00008603D48183000683C49203108603A48ED
:1006B0001C300068091D0860374820300068091D9B
:1006C0000860354824300068091D08603248283029
:1006D0000068091D086030482C300068091D08605A
:1006E0002D48303000682D49403108602A483430A8
:1006F0000068091D0860284838300068091D086036
:1007000025483C300068091D0860234840300068D7
:10071000091D08601F487438016841F470010160C8
:10072000BFF34F8FBFF36F8F4FF01021D1F800024E
:10073000002803DBD1F80002002822DA184B1E60E3
:1007400018480468002CFCD01524C1F80042056844
:10075000002DFCD0C1F8044201680029FCD01A60C9
:1007600001680029FCD0BFF34F8F0A48F0380168B8
:100770000D4A01F4E06111430160BFF34F8F00BFE8
:10078000FDE70B4909480860F0BD0000E00F00F0EC
:100790003C050040FCED00E00404001020C50040D2
:1007A00004E5014000E401400400FA050090D00394
:1007B000080000202DE9F04700250E4C04274FF4D7
:1007C000A078BE034FEA050908EB850006FA05F19B
:1007D00022584AB1D4F804230A4205D044F80090C4
:1007E000054A5168126890476D1CEDB2BD42EBD3CB
:1007F000BDE8F087008000406000002002E008C8EB
:10080000121F08C1002AFAD170477047002001E08A
:1008100001C1121F002AFBD170470000BFF34F8FA8
:1008200005480168054A01F4E06111430160BFF326
:100830004F8F00BFFDE700000CED00E00400FA055B
:100840000EB500210091CDE901106A4644F2010085
:10085000FFF7E4FF05494FF0FF32082841F8202058
:1008600002D3084480F83C207047000018000020A4
:10087000F0B54FF0FF3512B10023082601E0082340
:1008800009260C4C05E000BF54F823707F1C04D0EF
:100890005B1CB342F8D32846F0BD26185DB286F83B
:1008A000245044F82310002AF5D1E11881F83C00C7
:1008B000F1E70000180000200249084490F92400E4
:1008C000704700001800002072B602480168491CF9
:1008D000016070471400002003490868401E08604A
:1008E00000D162B670470000140000200121814051
:1008F00003484068014201D0012070470020704742
:100900000C00002001218140080300D00120704725
:100910003EB5194802A900680290112000F094F831
:1009200008B1FFF78DFF0020014600900123134A14
:10093000134800F095F901A800F006F908B1FFF797
:100940007FFF0F480468112004F5A07400F0D8F868
:10095000024621469DF8040000F024F908B1FFF793
:100960006FFF9DF8040000F03BF908B1FFF768FF46
:10097000112000F0CFF83EBD940D0000400D0300A3
:100980000000002000F040F908B1FFF759FF00F027
:1009900031F808B1FFF754FF064A0021064800F07D
:1009A00075F908B1FFF74CFFFFF7B2FF024800F0FE
:1009B00049F9FEE7910D0000000000204907090EEB
:1009C000002806DA00F00F0202F1E02282F8141D7E
:1009D00003E000F1E02282F8001400F01F02012180
:1009E00091404009800000F1E020C0F88012C0F87A
:1009F0000011704770B5124D95F8450008B10820F8
:100A000070BD0020411E2A18401CC0B282F824107C
:100A10002028F8D300242046FFF71CFF641CE4B212
:100A2000092CF8D303210620FFF7C8FF05494FF032
:100A30000040C1F80403012085F84500002070BD86
:100A400018000020006000402DE9FC4104462848C1
:100A50000D462044002690F92410491C01D0082698
:100A60003FE0A978002751B3012200212046FFF77B
:100A7000FFFE411C21D083001E482A781844697863
:100A8000D0F81035DFF870C003EA0C03C0F8103559
:100A9000D0F810354FF4F85C0CEA042C43EA0C0350
:100AA0004FF4403C0CEA02424FF4801C0CEA015126
:100AB0000A431343C0F8103504E0042611E0FE2178
:100AC00080F8241069780120A04001290CD00B493E
:100AD000086001222046009700231146019700F08C
:100AE00025F93046BDE8FC810449091FF0E7000004
:100AF0001800002000600040FFE0ECFF0C050050F3
:100B000010B5FFF7D9FE0249800601EB106010BD59
:100B1000006000400A49084490F924008100094817
:100B20000144D1F8100540F0030040F4F852C1F838
:100B3000102501F5A26100BF00BF00BF086070472B
:100B400018000020006000402DE9F047814604278E
:100B5000124E00244FF00108FFF7B6FE08FA04F524
:100B6000354203D02046FFF7C1FE50B1FFF7B4FE77
:100B700027B104F10104AE43E4B2EDD13846BDE83B
:100B8000F087074908FA04F000274A6810434860D4
:100B900089F80040FFF7A0FEF0E70000FFFF0F001C
:100BA0000C00002070B514460D00064610D07CB134
:100BB000FFF7A8FE70B13046FFF798FE60B1074816
:100BC00000EBC600C0F81055C0F81445002070BDF9
:100BD0000E2070BD072070BD082070BD00F00140E0
:100BE00070B504460125A540FFF78CFE18B12046DC
:100BF000FFF77CFE18B103480560002070BD082097
:100C000070BD000004F501400448017809B1852059
:100C10007047012101700020704700000C00002087
:100C200030B54FF4803405688C4013B1C5F80443E7
:100C300001E0C5F80843006800EB8100C0F84025DA
:100C400030BD0000016801220A600079034A00EB10
:100C5000400002EB8000022101727047600000201A
:100C6000F0B40468049E40F20115D4F800728D407F
:100C7000AF43C4F800720468D4F800521D43C4F8AE
:100C800000523346F0BCFFF7CBBF00002DE9F04126
:100C9000044600790D46234B00EB400103EB81062F
:100CA000317A11B10820BDE8F0810AB115B104E034
:100CB0000720F8E71C4901EBC005326068687060E6
:100CC000002003464FF4A07706E000BF226807EB40
:100CD00080015350401CC0B261798142F6D820682F
:100CE000E978000B40B2FFF769FE20686978D0F818
:100CF000042561F30102C0F804252068A978D0F822
:100D0000082561F30102C0F8082520682978D0F889
:100D1000102561F30302C0F8102501203072002075
:100D2000C1E7000060000020980D000030B541EAE6
:100D30004201DDE9034541EA8301800041EA0421E3
:100D400000F1A04041EA0541C0F8001730BD800025
:100D500000F5E06000F1A040026822F44032026039
:100D6000026842EA0141016070470000034908B58A
:100D70000844002101600068009008BD0060004048
:100D800002494058012800D0002070470060004010
:100D9000704700000300010004000303000000008E
:100DA000C00D00000000002018000000FC0700003B
:100DB000D80D000018000020582000000C0800008A
:100DC00000800040000400000090D00300000000FC
:080DD00000000000000000001B
:0400000500000401F2
:00000001FF
