:020000040002F8
:10AFF0004B2A000002000A000000000000000000D0
:10B0000001488047FEE77047F1B1020003460B4359
:10B010009B0703D009E008C9121F08C0042AFAD20E
:10B0200003E00B780370401C491C521EF9D2704794
:10B030000321001D401E037812021A43491EF9D550
:10B0400010467047064C0125064E05E0E36807CC24
:10B050002B430C3C98471034B442F7D300F0CCF8A3
:10B060008CBC0200ACBC020000000000000000002C
:10B0700000000000000000000000000000000000D0
:10B0800000000000000000000000000000000000C0
:10B0900000000000000000000000000000000000B0
:10B0A00000000000000000000000000000000000A0
:10B0B0000000000000000000000000000000000090
:10B0C0000000000000000000000000000000000080
:10B0D0000000000000000000000000000000000070
:10B0E0000000000000000000000000000000000060
:10B0F0000000000000000000000000000000000050
:10B1000010B50A4800F0D6FA00F002FC00F0E8FBA7
:10B1100000F076F900F0D0F900F0BEFA00F010FA75
:10B12000E6F7A0FCE6F7C8FC10BD000080841E0016
:10B1300001B002000000000000000000000000005C
:10B1400000000000000000000000000000000000FF
:10B1500000000000000000000000000000000000EF
:10B1600000000000000000000000000000000000DF
:10B17000000000000000000005B0020025B302003E
:10B1800005B0020005B0020005B0020005B00200E3
:10B1900005B0020005B0020005B0020005B00200D3
:10B1A000000000000000000005B0020005B0020031
:10B1B00005B002000DB2020041B2020075B20200F9
:10B1C00005B00200000000000000000000000000C8
:10B1D000000000000000000000000000000000006F
:10B1E000000000000000000000000000000000005F
:10B1F00003488546FFF726FF004800478BB802004A
:10B200000080002040BA7047C0BA704770B5094D41
:10B210002C68E86A0440686804400748016800290F
:10B2200001D020468847AC600120044940040860F2
:10B2300070BD000000100040A444002080E200E047
:10B2400070B5094D2C68286B0440686804400748B5
:10B250004168002901D020468847AC60012004499C
:10B260008004086070BD000000100040A44400206D
:10B2700080E200E070B5094D2C68686B0440686896
:10B28000044007488168002901D020468847AC6007
:10B2900001200449C004086070BD00000010004097
:10B2A000A444002080E200E08EB0FF206A460D2119
:10B2B000813000F059FCFEE7C106C90E012088402C
:10B2C000014908607047000080E200E0C106C90E35
:10B2D00001208840014908607047000000E100E05B
:10B2E0008307FF22DB0E9A408907090E9940002848
:10B2F0000BDA0007000F0838830808489B0018186D
:10B30000C36993430B43C3617047830804489B00A0
:10B310001B181868904308431860704700ED00E060
:10B3200000E400E009488168C2681140C905C90D00
:10B330004822114203D04022026108220261C8065D
:10B3400002D5034910200861704700000040014009
:10B350000030014002E008C8121F08C1002AFAD1DB
:10B3600070477047002001E001C1121F002AFBD185
:10B370007047000010B50446002903D0054901209C
:10B38000087010BDD7F7BAF90121204600F005F882
:10B3900010BD0000283F0020704710B5D7F702FA13
:10B3A00010BD10B5D7F7AAF910BD10B5D7F722FB1D
:10B3B00010BD10B5052100F05DFA00F017F810BDC2
:10B3C00010B508480178002908D14178002905D036
:10B3D000491E41708078D7F7C7F910BD0248E9F7D8
:10B3E00031FC10BD283F00203044002010B502463B
:10B3F0000E210248D7F720FB10BD0000143F0020AB
:10B4000010B50220FFF758FF03210220FFF768FF65
:10B410000220FFF75BFF0920FFF74EFF0321092001
:10B42000FFF75EFF0920FFF751FF0A20FFF744FFF7
:10B4300003210A20FFF754FF0A20FFF747FF0620E9
:10B44000FFF73AFF00210620FFF74AFF0620FFF72B
:10B450003DFF0720FFF730FF00210720FFF740FFE7
:10B460000720FFF733FF10BD104C114E114D002186
:10B47000C9432068E6F7A8F90028F8D00828F6D0D4
:10B480001028F4D108780328F1D10F46084600F0BF
:10B490007DF87968002902D03068E6F73DFA002F80
:10B4A000E5D039462868E6F737FAE0E7840200205D
:10B4B000900200208C02002010B50648E6F712FA30
:10B4C000054C0021606003481038E6F7A5FA2060BB
:10B4D00010BD000080BC0200583F00201CB513A125
:10B4E00003C901910090134C6420208060800622E3
:10B4F0006946E01DFFF78AFD00206071A071207190
:10B5000007216173A0730D2121740B49616114211E
:10B510002176094920221439E16108490A804A80CC
:10B5200001220A7148718871C8711CBDAACD4433CB
:10B5300022110000F03A0020483F0020E83A0020A5
:10B5400000B585B014220D496846FFF75FFD0C4831
:10B55000002101704170D9F7EFFAFFF7BFFF68468D
:10B56000D9F7D0F90120D9F779F9D9F735F9054A92
:10B5700001210548E9F776FA05B000BD5CBC020080
:10B580002B3F0020C1B3020030440020F8B5044630
:10B59000406861780646392919D024DC00253B4AE9
:10B5A00018294DD014DC0120D61E142939D00EDD07
:10B5B00015293FD017290AD15070A0780121FFF733
:10B5C000ECFE334A002333480095E9F7E5FAF8BD6D
:10B5D000302942D0312935D03229F8D10028F6D08F
:10B5E000FFF7E7FEF8BD4929FCDD4A2944D04D2983
:10B5F000F8D04E29F6D04F29F4D10821DCF7AAFD66
:10B600000146A478304600F013F9002839DB3421D4
:10B6100048432049D039411820461831D9F7C2F99A
:10B62000F8BD1070A078FFF7BCFEA078B070D9F715
:10B630001BFAF8BD157055703570D9F7CDF8F8BD07
:10B640005570F8BD0028FCD0E178F01CC91ECAB2C4
:10B6500001461046FFF7A0FEF8BD002EFCD0007892
:10B660000028F9D00128F7D1A0780121FFF782FE48
:10B670000120FFF79AFEF8BD002EFCD000F0ACF8D8
:10B68000F8BD2046D9F785F9F8BD00002B3F002012
:10B69000B80B00003044002010B500F09DF900F018
:10B6A00011F910BD8108002001E000BF401C884254
:10B6B000FBD3704700B50001FFF7F4FF00BD0000A9
:10B6C000F0B50D4B00229D140446D440E60706D089
:10B6D00000290BD09600F618F76B2F43F763002C68
:10B6E00003D0521CD2B21F2AEED3F0BD9600F6183A
:10B6F000F76BAF43F2E70000001000400022034662
:10B70000D340DB070AD0084892001018C26B120A17
:10B710001202C263C26B0A43C2637047521CD2B2A8
:10B720001F2AECD3704700000010004030B5012301
:10B7300009021B0300228031074C19430346D34002
:10B74000DD0702D095002D19E963002B03D0521CB0
:10B75000D2B21F2AF2D330BD001000400349896BDA
:10B76000014201D0012070470020704700100040C6
:10B7700070B5124C054660680E46A8436060002113
:10B780002846FFF79DFF002E02D0012E05D00BE0CA
:10B79000206828432060022103E02068A84320603D
:10B7A00001212846FFF7C2FF04484A214038C163FF
:10B7B0006168294361600121816370BDC010004050
:10B7C000044841880088814201D000207047012050
:10B7D00070470000243F002070B50546134CAD2093
:10B7E0002070687860700026A01C0622A91CFFF754
:10B7F0000DFC20462946083010220831FFF706FCD0
:10B8000020462946183010221831FFF7FFFB20464A
:10B810002946283008222831FFF7F8FB3021284636
:10B82000DCF798FC2086304670BD000060430020A5
:10B83000F3B50025ED430E4E81B00F46002420469F
:10B8400034214843315CAD290AD18119088EB842B0
:10B8500006D1082228310198E1F73AFF002804D0E8
:10B86000641C042CEBDB2846FEBD2546FBE70000EC
:10B870006043002010B544182046FFF7D9FB0002B2
:10B88000E178000A0906084310BD10B50020E9F769
:10B89000E1F80020E9F7CCF80120E9F771F8E5F7C5
:10B8A00085FE002010BD10B500F004F900F0D0F9BD
:10B8B00010BD8EB0FF206A460221813000F054F99D
:10B8C000FEE7000010B50449002008600349086045
:10B8D000E2F78CFA10BD0000203E0020243E00203C
:10B8E00010B500F065F900F019F9E9F7FFF801204B
:10B8F0000521C002FFF702FF044800F0FFF800F046
:10B900003FF8012000F036F810BD000010000200E2
:10B9100010B50848E8F772FF0020E8F747FF052058
:10B92000E9F792F80121880200F044F80220E9F7D3
:10B9300073F810BDFFFF7F0010B501200521C00284
:10B94000FFF7DCFE002010BD10B501208002FFF7DC
:10B9500005FF002801D0012010BD0124E4020021D0
:10B960002046FFF7CBFE01212046FFF7DFFE002037
:10B9700010BD00000149087070470000223F002000
:10B98000024800210180418070470000243F0020D0
:10B9900070B50C46064D01462846E1F77FFEA1B280
:10B9A0002846E1F77BFE210C2846E1F777FE70BDC3
:10B9B000FFDF000010B5FFF7DBFE6420FFF77AFE23
:10B9C00010BD000003498988814201D102207047DF
:10B9D00000207047023F00207CB50022174B184919
:10B9E0001046D6F7B9FC002825D000241449FF23BF
:10B9F000009405332246891C20460194D6F778FC32
:10BA0000002818D00D4D0E49AD1F2880FF230022BD
:10BA100000941133491C10460194D6F769FC0028A4
:10BA200009D06880D6F779FC002804D0A880D6F722
:10BA300079FC00207CBD01207CBD0000083F002077
:10BA4000F0FF000007498988814209D1002A05D00A
:10BA50000448801E0078107000205070022070474B
:10BA600000207047023F002006490A88824206D023
:10BA70008988814203D103491878891E0870002003
:10BA800070470000023F002010B5084A1278012AD2
:10BA90000AD109040A180549054C891C0888830045
:10BAA000401CE250C0B2088010BD0000223F0020C0
:10BAB000603F002070B50F480D4B0F4D048813E018
:10BAC000DA691207120F042A0ED88A00AA5816043F
:10BAD000360E1E60D6B21E60160E1E601202120EC8
:10BAE0001A60491CC9B241804188A142E8D170BDA9
:10BAF00000400140243F0020603F00200549044BE6
:10BB0000CB224B61886104480861CA60704700001D
:10BB100066FF4C0000400140FFFF00000949084853
:10BB200008600A48084A0260094A42600A48094A0D
:10BB300042600A4A82600A4AC2600A484860704706
:10BB400091B90200303E0020A7B80200283E002034
:10BB5000B3B8020049B90200383E002039B90200EA
:10BB6000C1B7020089BA0200F0B50F4B0D4C9C61C1
:10BB700000250E4E10E00124240404435C600124DF
:10BB80001C600024DF68FF0602D4641CB442F9D3B1
:10BB90001C69401C10C26D1C8D42ECD300209861C2
:10BBA000F0BD00000704062000400040400D0300E7
:10BBB00014491348C8601548134981601449C1608D
:10BBC0001449016114494161144981611449C161F9
:10BBD0001449016214494162144981621449C162E5
:10BBE000144981631449C1631449016414494164CF
:10BBF000144981641449C164144901657047000007
:10BC0000A9B20200B000002005B002003000002000
:10BC100025B3020005B0020005B0020005B0020025
:10BC200005B0020005B0020005B0020005B0020038
:10BC300005B0020005B0020005B0020005B0020028
:10BC40000DB2020041B2020075B2020005B002005E
:10BC500001490220C8607047008001406576616C30
:10BC6000756174696F6E20646576696365000000B4
:10BC700069B402000000000001000000000600009E
:10BC80000A0000000800000048440020ACBC02008C
:10BC9000003F00206000000054B302000CBD020011
:10BCA000603F00205005000064B302000000000067
:10BCB00000000000C5B9020045BA020069BA0200DE
:10BCC0000000000000000120000220000405000028
:10BCD000000000000005000000000000000000005F
:10BCE00013096D7864626C652D6576616C7561749D
:10BCF000696F6E000201050319C0000502F0FF0D17
:0CBD00001800000000000000000000001F
:040000050002B00144
:00000001FF
