:020000040000FA
:10000000A0200020050500000D0500000F050000E0
:100010001105000013050000150500000000000098
:1000200000000000000000000000000017050000B4
:100030000000000000000000190500001B05000082
:100040001D0500001D0500001D0500001D05000028
:100050001D0500001D0500004D0500001D050000E8
:100060001D050000190900001D0500001D05000008
:100070001D0500001D0500001D0500001D050000F8
:100080001D050000950600001D0500001D0500006F
:10009000B90600001D0500001D0500001D0500003B
:1000A0001D0500001D0500001D0500001D050000C8
:1000B0001D0500001D0500000000000000000000FC
:1000C0001D0500001D0500001D0500001D050000A8
:1000D0001D0500001D0500000000000000000000DC
:1000E0000000000000000000000000000000000010
:1000F0000000000000000000000000000000000000
:1001000000000000000000000000000000000000EF
:1001100000000000000000000000000000000000DF
:10040000DFF80CD000F090F800480047750D0000B0
:10041000A0200020401E00BF00BF00BF00BF00BFE3
:1004200000BF00BF00BF00BF00BF00BF00BF00BFD4
:1004300000BF00BF00BF00BF00BF00BF00BF00BFC4
:1004400000BF00BF00BF00BF00BF00BF00BF00BFB4
:1004500000BF00BF00BF00BF00BF00BF00BF00BFA4
:1004600000BF00BF00BF00BF00BF00BF00BF00BF94
:1004700000BF00BF00BF00BF00BF00BF00BF00BF84
:1004800000BF00BF00BFC5D170470000401E00BFC5
:1004900000BF00BF00BF00BF00BF00BF00BF00BF64
:1004A00000BF00BF00BF00BF00BF00BF00BF00BF54
:1004B00000BF00BF00BF00BF00BF00BF00BF00BF44
:1004C00000BF00BF00BF00BF00BF00BF00BF00BF34
:1004D00000BF00BF00BF00BF00BF00BF00BF00BF24
:1004E00000BF00BF00BF00BF00BF00BF00BF00BF14
:1004F00000BF00BF00BF00BF00BF00BF00BFC5D12D
:10050000704700000648804706480047FEE7FEE7C0
:10051000FEE7FEE7FEE7FEE7FEE7FEE7FEE7000098
:10052000BD06000001040000064C074D06E0E0682F
:1005300040F0010394E8070098471034AC42F6D32A
:10054000FFF762FFE8110000081200002DE9F047F4
:100550000025DFF8F090A8464FF4807601242F465E
:10056000304600F003FD38B1D9F80403204203D02F
:10057000304600F0F1FC2543361D64007F1CB6B206
:10058000082FEDD34FF4BE74204600F0EFFC38B1D5
:10059000204600F0E1FC2C4845F00045D0F80080F2
:1005A0002A4E15F0FF0F14D0012700242F420CD043
:1005B00009EB8401D1F81005D1F81015C0F304201F
:1005C00056F82420C1F3014190477F00641C082C99
:1005D000ECD3002D32DA0024B14609EB04004E467C
:1005E00090F95010491C26D090F8507027F0C005A3
:1005F000284600F057FA56F82060E6B1BF090120FE
:10060000A840A90001F1A041D1F8001710EA080F95
:10061000C1F3014102D0022902D00CE003290AD122
:10062000032F05D102290BD00221284600F086FCB9
:1006300039462846B047641C042CCED3BDE8F08769
:100640000321F2E700600040100500503C0000204C
:1006500000F01F02012191404009800000F1E020DC
:10066000C0F88012704700F01F020121914040093C
:10067000800000F1E020C0F80011704700F01F0278
:10068000012191404009800000F1E020C0F80012F3
:100690007047000007480021C0F84011C0F844111D
:1006A000C0F84811C0F84C11C0F80011C0F804118E
:1006B00000F050BD0010014000F0E8BCF0B58C48DF
:1006C0000022041D0378211D081D0126062B17D1C9
:1006D00025782D0714D10D78C5F30315032D03D10B
:1006E000077817F0F00F0ED0042D03D1077817F01C
:1006F000F00F08D0052D03D1057815F0F00F02D0CA
:10070000062B09D014E04FF08055D5F84452794FAC
:10071000C5F342353D6002E025782D0708D10D78FC
:10072000C5F30315032D03D1057815F0F00F02D0A2
:10073000062B06D01DE0704D2F6827F080772F60C4
:100740001AE025782D0714D10D78C5F30315032D74
:1007500003D1077817F0F00F0ED0042D03D10778DE
:1007600017F0F00F08D0052D03D1057815F0F00F24
:1007700002D0062B0AD015E04FF08045C5F80C21B9
:10078000C5F810215B4D2D1F2A6002E025782D074A
:1007900008D10D78C5F30315032D03D1057815F0A5
:1007A000F00F02D0062B05D066E0524C03236434D0
:1007B000236002E023781B075ED10978C1F303119F
:1007C000052959D1007810F0F00F55D14B48006839
:1007D0004B4908604948001D0068091D08604748EA
:1007E00008300068091D086044480C300068091D85
:1007F0000860424810300068091D08603F48143006
:100800000068091D08603D48183000683C492031E7
:1008100008603A481C300068091D086037482030DD
:100820000068091D0860354824300068091D08600B
:10083000324828300068091D086030482C300068B4
:10084000091D08602D48303000682D49403108608E
:100850002A4834300068091D08602848383000688C
:10086000091D086025483C300068091D08602348C0
:1008700040300068091D08601F487438016841F461
:1008800070010160BFF34F8FBFF36F8F4FF01021E6
:10089000D1F80002002803DBD1F80002002822DA98
:1008A000184B1E6018480468002CFCD01524C1F8B1
:1008B00000420568002DFCD0C1F8044201680029FF
:1008C000FCD01A6001680029FCD0BFF34F8F0A48A2
:1008D000F03801680D4A01F4E06111430160BFF393
:1008E0004F8F00BFFDE70B4909480860F0BD0000CD
:1008F000E00F00F03C050040FCED00E004040010B7
:1009000020C5004004E5014000E401400400FA0570
:100910000090D0030C0000202DE9F04700250E4C7C
:1009200004274FF4A078BE034FEA050908EB8500C1
:1009300006FA05F122584AB1D4F804230A4205D038
:1009400044F80090054A5168126890476D1CEDB25A
:10095000BD42EBD3BDE8F08700900040940000203A
:1009600002E008C8121F08C1002AFAD17047704778
:10097000002001E001C1121F002AFBD170470000D6
:10098000094C00202060251D2860271F4FF47A782D
:100990001326404600F018FA386826EA0001216064
:1009A00000F013002860F4E7080500500EB50021A0
:1009B0000091CDE901106A4644F20100FFF7E0FF23
:1009C000B0F5A07F07D10449487808B90220087023
:1009D00088684968084770471000002010B5054A2C
:1009E0000021054800F052FA002802D1034A0121F3
:1009F000117010BDC1090000E011000010000020BE
:100A00002DE9F843984691460F00054605D0012D83
:100A100005D035B10720BDE8F8830E20FBE701269D
:100A200001E04FF48076154C207810B1032802D0F5
:100A300006E00820EFE700F025F808B1FFF7B6FF61
:100A40002078022802D10E4800F0E7F96570C4E969
:100A500001780120009033464A460021084800F002
:100A6000FFF920780228064805D000F0EBF90320B2
:100A700020700020CFE700F05DFAF8E710000020BA
:100A8000E011000010B5054C2078032804D104487B
:100A900000F04CFA02202070002010BD1000002051
:100AA000E01100000249084490F93000704700004E
:100AB0003C0000202DE9F05F2648C168F1B3DFF863
:100AC00098B00E688146DBF800400769C078E11BEA
:100AD00021F07F45ED1CB0B9DFF880804FF4803005
:100AE000C8F84403C8F804031120FFF7B1FD112032
:100AF000FFF7B9FD4FF0010AC8F800A02F20FFF75B
:100B0000C5FC89F803A0B54200D23546124BE8195E
:100B10003C3320F07F401860DBF800105A46091B78
:100B200021F07F41001B20F07F40C91C81420FD97A
:100B3000106818602F20FFF7A9FC00E004E0BDE872
:100B4000F05F1120FFF79ABDBDE8F05F00F016BA24
:100B5000BDE8F09F1C00002004150140001001407A
:100B60000E4910B54A788C780023A24212D0521C4C
:100B7000D2B24A70022A00D14B70084A4B78183220
:100B800052F8232002600869104420F07F40086179
:100B9000012010BD0360002010BD00001C000020DB
:100BA00010B50C460E490A680D4B20EA02011B1DC8
:100BB00019601040191D08600A48282141600A2167
:100BC000816000234CF2503207492046FFF718FF9E
:100BD000002803D0BDE81040FFF7E8BE10BD0000BC
:100BE0000405005000000020E10F00002DE9F0474F
:100BF000DFF8ACA0DAF80C009AF8004080469AF8CA
:100C00000460DAF80890DAF810703AE009EBC405ED
:100C10002A7833E002EB42016B68521C03EBC101FE
:100C2000AB78D2B2934200D100220B78022B02D0D3
:100C3000032B23D11FE0D1F804C00346014603E093
:100C4000614503D00B46C969C1B1F9E7B1B18B4227
:100C500005D1C06918B9134F0126BE600027D1F82D
:100C600000C0C969D96149B10B6863440B6005E0F4
:100C70000174C06900E000210028F9D1697891422F
:100C8000C8D1641EE4B2C1D2CAE903078AF804607D
:100C9000404502D00120BDE8F0870020FBE70000BE
:100CA0001C000020001001402DE9F04705462F48A8
:100CB000002680460778D0F80C904BE0D8F8080062
:100CC00000EBC70440E002D02846ED691EE0207822
:100CD000616800EB4002401CC0B201EBC201207011
:100CE000A278904200D126700A784868012A2DD156
:100CF000027C5ABB8A684260CA6882600A69C26024
:100D00004969816198F8041001B146604268D8F8D9
:100D10001030DFF85CC0D11A21F07F41614502D26A
:100D20008268114406E0991A826821F07F418A4264
:100D300002D9511A016000E0066046600121866018
:100D40000174C66100F0E8F9002DBCD1207861780B
:100D50008842BCD17F1EFFB2B0D2D8F80C104945F2
:100D600002D00120BDE8F0870020FBE71C00002036
:100D7000FFFF7F00FFF732FE08B1FFF717FE0020EC
:100D80000122032102FA00F313F4C02F04D08300E0
:100D900003F1A043C3F80017401C2028F2D30949EF
:100DA0004FF4C02008600020091F08604FF47A70DB
:100DB00000F00AF8002000F0FFF820BF40BF20BF7D
:100DC000FBE700000C05005031B540F2E73404E0C9
:100DD000401E00902046FFF71DFB00980028F7D129
:100DE00038BD4907090E002806DA00F00F0202F1AB
:100DF000E02282F8141D03E000F1E02282F80014E2
:100E000000F01F02012191404009800000F1E02024
:100E1000C0F88012C0F80011704700680121C1605D
:100E2000704730B54FF4803405688C4013B1C5F875
:100E3000044301E0C5F80843006800EB8100C0F8F6
:100E4000402530BD016801220A600079034A00EBA9
:100E5000400002EB800002210172704794000020E4
:100E6000F0B40468049E40F20115D4F800728D407D
:100E7000AF43C4F800720468D4F800521D43C4F8AC
:100E800000523346F0BCFFF7CCBF00002DE9F04123
:100E9000044600790D46234B00EB400103EB81062D
:100EA000317A11B10820BDE8F0810AB115B104E032
:100EB0000720F8E71C4901EBC005326068687060E4
:100EC000002003464FF4A07706E000BF226807EB3E
:100ED00080015350401CC0B261798142F6D820682D
:100EE000E978000B40B2FFF77CFF20686978D0F802
:100EF000042561F30102C0F804252068A978D0F820
:100F0000082561F30102C0F8082520682978D0F887
:100F1000102561F30302C0F8102501203072002073
:100F2000C1E7000094000020D811000000680121F2
:100F3000416070470068012101607047800000F542
:100F4000E06000F1A040026822F4403202600268D2
:100F500042EA014101607047034908B50844002195
:100F600001600068009008BD0060004002494058E0
:100F7000012800D0002070470060004070B50126B5
:100F800070044FF0E0210025C1F88001084C4010AA
:100F9000C4F84803C4F8080366602F20FFF776FA08
:100FA000A660044C2F202561FFF770FAE57070BD34
:100FB000001001401C00002008490870087820B18A
:100FC000012806D00878FFF7F1BC00214FF400306B
:100FD00001E001218804FFF7E3BD000000000020CC
:100FE00070B528480578284C0A23221D111D1DB113
:100FF000012D22D000781AE045686D1E45601AD098
:1010000085686D1E856008D1836020684FF40033C9
:101010008343136000F40030086000234CF2503228
:10102000AFF243011846FFF7EBFC002816D0BDE8ED
:101030007040FFF7BBBC012020E045686D1E456095
:101040000DD085686D1E856008D1836020684FF4DF
:1010500080238343136000F48020086070BD4FF448
:10106000C020086000201060FFF70CFD08B1FFF7FA
:101070009DFC4FF47A70FFF7A7FE0020BDE870409A
:10108000FFF79ABF00000020040500502DE9F84F3B
:10109000204C00256846D4E903B6FFF761FD804681
:1010A000FFF7A4FD0746A946B8F1000F25D000239D
:1010B000009ACC46E06819E007680146974202D9D9
:1010C000BA1A026014E0C1F800C0D1F80C80D21B3B
:1010D000C8693B448A46B8F1000F07D0F71827F0DB
:1010E0007F47C1E90178CAF81C500D460028E3D1BA
:1010F000E0602846FFF7D8FD04E02846FFF7D4FD5E
:1011000000B917B15846FFF7D5FC84F80490BDE844
:10111000F88F00001C0000200D4B10B5D96831B1CC
:1011200002680C68A24204D8A21A0A60C161D860A1
:1011300010BD0B4603E00B46C969121B21B10C68B8
:101140009442F8D3A41A0C600260C161D86110BD4A
:101150001C0000202DE9F0411D4DEC68002C35D01D
:101160001C48002700682969B846401A20F07F46CD
:101170002068B04215D82246361A0744E469107C2C
:1011800068B182F810806B6933B1D2E905019847E4
:1011900028B1FFF70BFC02E0D2E905108847002CCC
:1011A000E6D16978A878814206D1401CC0B2A87007
:1011B000022801D185F802800548A978183040F846
:1011C0002170BDE8F0411420FFF758BABDE8F08166
:1011D0001C00002004150140040000030000000072
:1011E00000900040000400000812000000000020F1
:1011F0003C00000060090000441200003C00002098
:1012000064200000700900000000000000000000E1
:10121000000000000090D00300000000000000006B
:1012200000000000000000000000000000000000BE
:1012300000000000000000000000000000000000AE
:0412400000000000AA
:0400000500000401F2
:00000001FF
