:020000040000FA
:1000000000800020012000000920000013200000D3
:1000100000000000000000000000000000000000E0
:100020000000000000000000000000003B01000094
:1000300000000000000000002F010000230100006C
:10004000470100005501000063010000710100003C
:100050007F0100008D0100009B010000A90100004C
:10006000B7010000C5010000D3010000E10100005C
:10007000EF010000FD0100000B020000190200006A
:100080002702000035020000430200005102000078
:100090005F0200006D0200007B0200008902000088
:1000A00097020000A5020000B3020000C102000098
:1000B000CF020000DD020000EB020000F9020000A8
:1000C0000000000000000000000000000000000030
:1000D00000B58DB00B6800934B6801938B68029359
:1000E000CB6803930B6904934B6905938B69069363
:1000F000CB6907930B6A08934B6A0A9009930B929A
:100100000C91032000F03EF9FF206A460D2181305A
:1001100000F056F97C48C068002800D080470DB038
:1001200000BD79480068002800D000477047764835
:100130004068002800D00047704773488068002856
:1001400000D000477047704880380068002800D011
:10015000004770476C4880384068002800D000474E
:100160007047694880388068002800D00047704791
:1001700065488038C068002800D000477047624852
:1001800080380069002800D0004770475E488038FA
:100190004069002800D0004770475B48803880697C
:1001A000002800D00047704757488038C0690028B1
:1001B00000D00047704754488038006A002800D0BB
:1001C0000047704750488038406A002800D00047F8
:1001D00070474D488038806A002800D0004770473B
:1001E00049488038C06A002800D000477047464818
:1001F0008038006B002800D00047704742488038A4
:10020000406B002800D0004770473F488038806B23
:10021000002800D0004770473B488038C06B00285A
:1002200000D00047704738488038006C002800D064
:100230000047704734488038406C002800D00047A1
:10024000704731488038806C002800D000477047E4
:100250002D488038C06C002800D0004770472A48DD
:100260008038006D002800D000477047264880384D
:10027000406D002800D00047704723488038806DCB
:10028000002800D0004770471F488038C06D002804
:1002900000D0004770471C488038006E002800D00E
:1002A0000047704718488038406E002800D000474B
:1002B000704715488038806E002800D0004770478E
:1002C00011488038C06E002800D0004770470E48A3
:1002D0008038006F002800D0004770470A488038F7
:1002E000406F002800D00047704707488038806F73
:1002F000002800D00047704703488038C06F0028AE
:1003000000D0004770470000B000002040BA70479E
:1003100040BA704740BA704740BA704740BA704719
:1003200040BA7047C0BA7047C0BA7047C0BA704789
:10033000C0BA7047C0BA7047C0BA7047F0B50F4B2B
:100340000D4C9C6100250E4E10E001242404044352
:100350005C6001241C600024DF68FF0602D4641C7A
:10036000B442F9D31C69401C10C26D1C8D42ECD301
:1003700000209861F0BD0000070406200040004006
:1003800080841E000021C2010B480A4B83610923AF
:100390001B041A43426072B601220260074AC36816
:1003A000DB0602D4491C9142F9D362B60021816177
:1003B00070470000070406200040004080841E00B3
:1003C000F0B5104B0E4C9C6100250F4E13E003243A
:1003D000240404435C6014689C6072B601241C60B1
:1003E0000024DF68FF0602D4641CB442F9D362B66D
:1003F000401C121D6D1C8D42E9D300209861F0BD98
:100400000704062000400040400D0300F0B5002521
:10041000094B0A4E0DE0586001241C600024DF687F
:10042000FF0602D4641CB442F9D31C69401C10C2FC
:100430006D1C8D42EFD3F0BD00400040400D030025
:10044000F0B50025094B0A4E0DE0586001241C60F0
:100450000024DF68FF0602D4641CB442F9D31C698F
:10046000401C10C26D1C8D42EFD3F0BD0040004017
:10047000400D030010B5002304E0C418A400246854
:100480005B1C10C28B42F8D310BD0000C2010120DA
:100490000021C00402430748426072B60122026094
:1004A000054AC368DB0602D4491C9142F9D362B6FF
:1004B0007047000000400040400D0300F0B50025EB
:1004C0000C4B0D4E13E00124640404435C6014687B
:1004D0009C6072B601241C600024DF68FF0602D411
:1004E000641CB442F9D362B6401C121D6D1C8D42CF
:1004F000E9D3F0BD00400040400D030003465340E7
:1005000010B5180AFF220002120400041A401C064B
:10051000240C10431B0E20431843484010BD10B557
:100520000C468AB001462022684600F02DFC03CC20
:10053000089009910420FFF725FF01206A460A214F
:100540004002FFF73DFF0AB010BD00001FB53D207F
:100550006A4604210001FFF7F1FE00980199400866
:10056000890840180299C9084018039909094840A8
:10057000014908601FBD000000000020FFB581B0E8
:10058000029984088E08154631462046FFF796FFEB
:100590002A4631462046FFF739FF00240CE00B487D
:1005A000A7004268E9599208121993000268184698
:1005B000FFF7A4FFE851641CA642F0D82846049A2D
:1005C000029900F067F805B0F0BD000000000020BF
:1005D000F0B52F48FFB080698AB0450A2C48002644
:1005E00008380068F643800807902B208002C71166
:1005F000002402901FE03819FFF748FFE001079937
:100600000090401808AA8021FFF700FF0299009887
:1006100008AA401880210690FFF750FF08AA802101
:100620000698FFF727FF01213246490208A800F08B
:1006300031F80646641CAC42DDD31548008BC0057A
:10064000450E22D03819FFF721FF0798E401201842
:1006500008AA2946FFF7DAFE029808AA24182946B4
:100660002046FFF72BFF204608AA2946FFF702FF86
:10067000A900324608A800F00DF80549C969814271
:1006800003D00E207FB00AB0F0BD0020FAE70000D2
:100690001000002030B5034610460022064C07E04B
:1006A0009D5C45402D06AD0D6559000A6840521C01
:1006B0008A42F5D330BD0000D40800001FB51548AC
:1006C000154B009014499B69083901930968029100
:1006D0001149062408394D6ACA69886908312DC153
:1006E0000020086048608860C86018390860486069
:1006F0000948FFF714FF2046FFF744FE0221074890
:1007000001AAFFF75DFE6A460121E001FFF758FEEE
:1007100000F068F8694B2D1E100000200103000056
:10072000F0B52F48FFB080698AB0450A2C480026F2
:1007300008380068F643800807900120C00210279F
:10074000002402901FE03819FFF7A0FEE00107998E
:100750000090401808AA8021FFF758FE02990098DF
:1007600008AA401880210690FFF7A8FE08AA802159
:100770000698FFF77FFE01213246490208A8FFF7DD
:1007800089FF0646641CAC42DDD31548008BC005CA
:10079000450E22D03819FFF779FE0798E40120189A
:1007A00008AA2946FFF732FE029808AA241829460B
:1007B0002046FFF783FE204608AA2946FFF75AFE87
:1007C000A900324608A8FFF765FF0549C9698142BB
:1007D00003D00E207FB00AB0F0BD0020FAE7000081
:1007E0001000002072B60848084908620848022232
:1007F000C260012242610422C26000220261102212
:10080000C26004480862FEE7C5A3000000B00140D2
:1008100000800140A3C5000070B5412000240D4AAE
:100820000221C000FFF78AFD0A4D68795A280BD1D2
:100830002A46082108328801FFF780FD287901281F
:1008400004D0022802D00F24204670BD00F004F826
:100850000446F9E70800002070B5174CA07911286C
:1008600005D0222806D033281AD0022070BDFFF709
:10087000AFFE01E0FFF754FF0028F7D10E48014614
:1008800018312EC9064608362EC600218161C16185
:1008900001624162A2790160222A416002D003E034
:1008A000FFF70CFF2B20E071034908460830FFF7E3
:1008B00036FEFFF797FF00000800002010B504493E
:1008C00007200860FFF742FEFFF7A6FF10BD0000FB
:1008D0000070014000000000963007772C610EEE9A
:1008E000BA51099919C46D078FF46A7035A563E987
:1008F000A395649E3288DB0EA4B8DC791EE9D5E0AE
:1009000088D9D2972B4CB609BD7CB17E072DB8E7AC
:10091000911DBF906410B71DF220B06A4871B9F301
:10092000DE41BE847DD4DA1AEBE4DD6D51B5D4F43A
:10093000C785D38356986C13C0A86B647AF962FD9F
:10094000ECC9658A4F5C0114D96C0663633D0FFAEC
:10095000F50D088DC8206E3B5E10694CE44160D5F2
:10096000727167A2D1E4033C47D4044BFD850DD2DC
:100970006BB50AA5FAA8B5356C98B242D6C9BBDBEF
:1009800040F9BCACE36CD832755CDF45CF0DD6DCEA
:10099000593DD1ABAC30D9263A00DE518051D7C891
:1009A0001661D0BFB5F4B42123C4B3569995BACF1C
:1009B0000FA5BDB89EB802280888055FB2D90CC63D
:1009C00024E90BB1877C6F2F114C6858AB1D61C1B6
:1009D0003D2D66B69041DC760671DB01BC20D298D5
:1009E0002A10D5EF8985B1711FB5B606A5E4BF9F62
:1009F00033D4B8E8A2C9077834F9000F8EA8099655
:100A000018980EE1BB0D6A7F2D3D6D08976C6491BF
:100A1000015C63E6F4516B6B62616C1CD8306585D8
:100A20004E0062F2ED95066C7BA5011BC1F40882B5
:100A300057C40FF5C6D9B06550E9B712EAB8BE8BF6
:100A40007C88B9FCDF1DDD62492DDA15F37CD38C7F
:100A5000654CD4FB5861B24DCE51B53A7400BCA37D
:100A6000E230BBD441A5DF4AD795D83D6DC4D1A4AF
:100A7000FBF4D6D36AE96943FCD96E34468867AD86
:100A8000D0B860DA732D0444E51D03335F4C0AAA25
:100A9000C97C0DDD3C710550AA41022710100BBE28
:100AA00086200CC925B56857B3856F2009D466B96F
:100AB0009FE461CE0EF9DE5E98C9D9292298D0B0A4
:100AC000B4A8D7C7173DB359810DB42E3B5CBDB751
:100AD000AD6CBAC02083B8EDB6B3BF9A0CE2B603D2
:100AE0009AD2B1743947D5EAAF77D29D1526DB0487
:100AF0008316DC73120B63E3843B64943E6A6D0DD2
:100B0000A85A6A7A0BCF0EE49DFF099327AE000A1C
:100B1000B19E077D44930FF0D2A3088768F2011EAF
:100B2000FEC206695D5762F7CB67658071366C1946
:100B3000E7066B6E761BD4FEE02BD3895A7ADA1067
:100B4000CC4ADD676FDFB9F9F9EFBE8E43BEB71748
:100B5000D58EB060E8A3D6D67E93D1A1C4C2D838D2
:100B600052F2DF4FF167BBD16757BCA6DD06B53F38
:100B70004B36B248DA2B0DD84C1B0AAFF64A033677
:100B8000607A0441C3EF60DF55DF67A8EF8E6E31F6
:100B900079BE69468CB361CB1A8366BCA0D26F253F
:100BA00036E2685295770CCC03470BBBB91602228C
:100BB0002F260555BE3BBAC5280BBDB2925AB42BA1
:100BC000046AB35CA7FFD7C231CFD0B58B9ED92CB6
:100BD0001DAEDE5BB0C2649B26F263EC9CA36A751B
:100BE0000A936D02A906099C3F360EEB85670772D2
:100BF00013570005824ABF95147AB8E2AE2BB17B39
:100C0000381BB60C9B8ED2920DBED5E5B7EFDC7CBF
:100C100021DFDB0BD4D2D38642E2D4F1F8B3DD6816
:100C20006E83DA1FCD16BE815B26B9F6E177B06F11
:100C30007747B718E65A0888706A0FFFCA3B0666FE
:100C40005C0B0111FF9E658F69AE62F8D3FF6B618B
:100C500045CF6C1678E20AA0EED20DD75483044E2D
:100C6000C2B30339612667A7F71660D04D476949BB
:100C7000DB776E3E4A6AD1AEDC5AD6D9660BDF40CE
:100C8000F03BD83753AEBCA9C59EBBDE7FCFB24781
:100C9000E9FFB5301CF2BDBD8AC2BACA3093B35366
:100CA000A6A3B4240536D0BA9306D7CD2957DE546F
:100CB000BF67D9232E7A66B3B84A61C4021B685D48
:100CC000942B6F2A37BE0BB4A18E0CC31BDF055AC1
:100CD0008DEF022D30B50B46014600202022012465
:100CE00009E00D46D5409D4205D31D469540491B60
:100CF0002546954040191546521E002DF1DC30BDA9
:100D000070B500242546002801DA0124404200295C
:100D100001DA01254942FFF7DDFFAC4200D0404235
:100D2000002C00D0494270BDF0B51FB4064600202B
:100D300082B005464024019100901BE001992246B3
:100D40000F46304600F077F8049A059B801A9941C7
:100D500010D310461946224600F05DF8361A8F412E
:100D60000197224601200021009F00F054F8381816
:100D70004D4100902046641E0028DFDC019B009856
:100D80002946324607B0F0BD03460B439B0703D00C
:100D900009E008C9121F08C0042AFAD203E00B7840
:100DA0000370401C491C521EF9D27047D2B201E0B8
:100DB0000270401C491EFBD270470022F6E710B5B6
:100DC00013460A4604461946FFF7F0FF204610BDB9
:100DD000421C0178401C0029FBD1801A7047034651
:100DE0000A780270401C491C002AF9D11846704745
:100DF0000321001D401E037812021A43491EF9D533
:100E000010467047034603220870000A491C521E10
:100E1000FAD51846704710B5202A04DB0146203A5F
:100E20009140002010BD914020239C1A0346E340CE
:100E30001943904010BD10B5202A04DB0846203A23
:100E4000D040002110BD0B46D340D0402024A21A30
:100E500091400843194610BD70B58C180578401CA8
:100E60006B075B0F01D10378401C2A1106D1027871
:100E7000401C03E006780E70401C491C5B1EF9D133
:100E80002B0705D40023521E0DD40B70491CFAE722
:100E90000378401CCB1A921C03E01D780D70491C8E
:100EA0005B1C521EF9D5A142D8D3002070BD0000B2
:020000040000FA
:101FF0000000000A000000000000000000000000D7
:10200000084880470848804770466946074A084B99
:10201000184770466946074A054B1847FEE7FEE732
:10202000FEE7FEE7BD0800003920000001000000C7
:10203000D1000000020000000A48854600F032F896
:1020400010B54120064A0221C000FEF777F9044886
:10205000C0792B2802D028F0D3FF10BD0FF0A6FACC
:10206000080000200080002010B512F061FB12F083
:1020700031FB12F001F90A48006812F08DFA11F0F4
:10208000F7FB0EF037FF0EF059FF0EF027FF12F0AE
:1020900013FB002801D029F033F8002010BD000008
:1020A000643D0020064C0125064E05E0E36807CCA0
:1020B0002B430C3C98471034B442F7D3FFF7C0FFD2
:1020C000E82000001821000002E008C8121F08C123
:1020D000002AFAD170477047002001E001C1121FA9
:1020E000002AFBD170470000604D01000001002074
:1020F000FC010000580E0000B00E0000000000209F
:10210000C0000000D8200000D04D0100FC020020DB
:10211000503B0000D820000040BA704740BA7047DA
:1021200040BA704740BA704740BA704740BA7047EB
:1021300040BA704740BA704740BA704740BA7047DB
:1021400040BA704740BA704740BA704740BA7047CB
:1021500040BA704740BA704740BA704740BA7047BB
:1021600040BA704740BA704740BA704740BA7047AB
:1021700040BA704740BA704740BA704740BA70479B
:1021800040BA7047C0BA7047C0BA7047C0BA70470B
:10219000C0BA7047C0BA7047C0BA7047C0BA70477B
:1021A000C0BA7047C0BA7047C0BA7047C0BA70476B
:1021B000C0BA7047C0BA7047C0BA7047C0BA70475B
:1021C000C0BA7047C0BA7047C0BA7047C0BA70474B
:1021D000C0BA7047C0BA7047C0BA7047C0BA70473B
:1021E000C0BA7047C0BA7047C0BA7047C0BA70472B
:1021F00070B5334D6C6833480069334904400020A2
:10220000887232480078002801D0012100E00021C6
:102210000B202246400212F0E5FA200703D508F011
:102220008BFE0820A860A00504D50BF08BF80120D8
:102230004002A860600508D50BF088FC244908809E
:1022400009F08AFA01208002A860200504D509F06F
:1022500061FA0120C002A860E00404D509F0CCFABC
:1022600001200003A860E00701D00120A860A007BA
:1022700001D50220A860600701D50420A860E0060F
:1022800006D522460021134812F0ACFA1020A860AF
:10229000A00607D50F4822460021401C12F0A2FAE2
:1022A0002020A860600601D54020A860200601D546
:1022B0008020A860E00502D5FF200130A86070BD35
:1022C0000004014000000140683D0020F023002090
:1022D000D02500200116000070470000002801D022
:1022E0000149486070470000500200207047704765
:1022F00070B51C4615460E46059B049A00282146DB
:1023000003D0284600F0D4FC70BD304600F0FAFC43
:1023100070BD10B500F07CFC10BD10B500F0BAFC2B
:1023200010BD000070B50B4D0024E0004119498834
:10233000002902D1285A002802D1641C0C2CF4D3A5
:102340000C2C05D000F02CFDE1004919488070BD2F
:10235000002070BDF836002070B50F4D1E460024D9
:10236000E300EB5A002B02D0641C0C2CF8D30C2C8D
:1023700005D0002805D0104600F0ECFC04E0002059
:1023800070BD084600F0EFFC0028F9D0E10068526B
:1023900049194E6070BD0000F836002013460A4609
:1023A00010B50146002001F025FA10BD08B50093D4
:1023B00013460A460146002001F088FA08BD0000D5
:1023C000F8B529480078002800D0012001F092FFDC
:1023D00001F00AFD254E00246946304600940CF0B9
:1023E000A7F8009904252943009189B230460CF0E2
:1023F000C3F801F02DFC1E480BF060FC6946304626
:1024000000940CF095F80098A84381B200903046F3
:102410000CF0B2F801F01CFC154824380BF04EFC0F
:102420001449012001F060FE802113480CF0A4F84B
:1024300011480021C01E0CF09FF803210F480CF03A
:102440009BF80D4B69465B1C184600940CF070F825
:102450000098410949011F200143009189B21846A3
:102460000CF08AF8F8BD0000683D00200A02000068
:10247000C63D0020880900000E1E0000360800003E
:1024800070B51E4D2868696808408406A40E214670
:102490001B480BF003F9AC601A49681408601A4D28
:1024A000E00603D52869002800D08047174EA00613
:1024B00006D53078401C30706869002800D080470D
:1024C000E00708D07078FF2801D0401C70702868A1
:1024D000002800D08047A00703D56868002800D0F6
:1024E0008047600703D5A868002800D080472007F0
:1024F00003D5E868002800D0804770BD0060014027
:1025000020D4000080E200E0E4020020483E0020E9
:10251000F0B5274A904246D003041D0E0302C1B213
:102520001C0E0D40030E25401D408D423BD0002364
:102530001F469C469E461D461C4619460246CA40FA
:10254000D2071B4ED20FCE40F607F60F002915D04A
:10255000AA4207D1002A02D05B1CDBB20EE07F1C2E
:10256000FFB20BE065466D1C0023EDB21F46AC4682
:10257000192903D975466D1CEDB2AE46B24201D0A1
:10258000641CE4B21546052B0DD8052F0BD8624606
:10259000182A08D8491CC9B22029CFD3012C02D946
:1025A0007046022801D20020F0BD0120F0BD0000DD
:1025B000D6BE898E30B47446641E2578641CAB4246
:1025C00000D21D46635D5B00E31830BC1847000075
:1025D000F8B540211B48FEF7F0FB1A482421403093
:1025E000FEF7EBFB184C6068002801D0012100E0E9
:1025F000002113200022000212F0F4F81148216893
:1026000041606568C560A168416101893F2212028D
:10261000032391435B02C9180646002720360909A7
:10262000F77609010181018A09090901091D914310
:10263000C91801824030456031464431E068486045
:10264000F8BD0000F8200020CC2D00200248806852
:10265000002800D000477047383E0020F8B51C4CD9
:102660001A4A21895054491C89B2218160898142CA
:102670001DD3607801260227002500280CD00128F0
:1026800016D0022813D15554A07800F02DF8002060
:1026900000F03EF8258116E050182038C07FA07069
:1026A000042801D100F0E8F9258167816670F8BD42
:1026B0000648891E00F040F9A0812581608100282C
:1026C00001D06770F8BD66816570F8BDF81F002005
:1026D0002801002003480021417001810621418129
:1026E0007047000028010020062801DB0020704709
:1026F00001498000085870475801002000B5034A7E
:10270000908000F08DF90120107000BD280100209C
:1027100070B505461048C0792B281CD00F480068BA
:102720000FF0B2F804460720207065700020A070FA
:102730000B4D0321AA78204605F024FDAA890949FA
:10274000601DFEF721FB287B2979401DC2B223467C
:10275000312002F01FFA70BD080000209002002016
:1027600028010020F81F002010B50449097802292B
:1027700002D1034900F006F810BD00002801002036
:102780007811010070B50C4605460BF0CDF90449EF
:10279000062008702146284602F08EFE70BD00001B
:1027A0003002002010B5074A9388834209D10029DE
:1027B00007D01178012904D1022111700249FFF7D5
:1027C000E1FF10BD2801002078110100FEB5524C38
:1027D000524821780AF062FF2078514F02280ED02B
:1027E000042878D0052809D1042020704D491A20EA
:1027F00008702079E288216A03F094FDFEBD00256F
:102800000BE04948AE00805910224849801D0AF06B
:102810005FFF002817D06D1CEDB245480088854247
:10282000EFD32069002857D0606A0328E6DBF879E7
:102830002B28E3D03F4800680FF026F8034601201C
:102840001870032065E001202061A90036480025AA
:102850004158616139E028463022504300902230CF
:10286000019008183149102210310AF031FF002878
:102870002D48815914D00198102208182B49203175
:102880000AF026FF0028284881590ED0019810220E
:102890000818264930310AF01BFF00280AD012E040
:1028A000009818300818A0610AE00098183008183D
:1028B000E06105E01C488159009818300818206232
:1028C000606A401C60626D1CEDB217488159CA8A6B
:1028D000AA42C0D8A5E710E0F8792B288ED0154879
:1028E00000680EF0D1FF00210170034621702179AC
:1028F0000122302002F04EF9FEBDF8792B28FBD0E2
:102900000C4800680EF0C0FFA1790346891C0170D5
:1029100006202070EBE700002801002011D80000FD
:102920000800002030020020D43600207811010079
:1029300034020020900200204118487809780002F3
:102940000843704710B544182046FEF751FA0002BC
:10295000E178000A0906084310BD4254130A491CD5
:102960004354130C491C4354120E491C42547047E3
:10297000F8B50C4601212046FFF7DEFF194DD21EA7
:10298000296AE41C498896B2814210D10025164F6D
:1029900008E0615D38460AF081FE605DFFF75EFE8B
:1029A0006D1CEDB2B542F4D3FFF794FEF8BDA969F2
:1029B00049888142FAD10D48C0792B28F6D00C48BD
:1029C00000680EF061FF0646287930700822214623
:1029D000701CFEF7D9F9297933460922322002F01A
:1029E000D9F8F8BD2801002015D800000800002003
:1029F0009002002010B5084905220A701A22074BE0
:102A000000281A7000D00120C8800879CA88896916
:102A100003F088FC10BD00002801002030020020D7
:102A200000B5FFF757FE03480021016141620170C4
:102A3000C18000BD2801002070B50C461646054631
:102A40000121FFF78AFF324601210948FFF785FF80
:102A5000FFF740FE07491620087005482B46283826
:102A6000C16900794988224603F002FD70BD00006B
:102A7000500100203002002010B50A4CA08802F05E
:102A80001DFB214628310B38887107491620087034
:102A9000E0692346418820792833082203F0E8FCC6
:102AA00010BD00002801002030020020014988608C
:102AB000704700001402002008B5002003460246BB
:102AC000032100900AF034FF08BD000070B50446F1
:102AD000002003F071FE050004D11E2200211A48D7
:102AE00011F080FE194861020E18A220825B0321BA
:102AF000C943284605F046FB0522D11F284605F0AC
:102B000041FB01220021284605F03CFB0422022162
:102B1000284605F037FB1E202871002003F0A6FE92
:102B2000040005D108481E220021401C11F05AFE65
:102B300000206560A060306B03F08AFE002801D0A1
:102B4000046070BD346370BD121C00009021002031
:102B500070B51546C288D20504D500892A460AF008
:102B600099FE70BD028A521A94B29C4200D91C464A
:102B70004069224641182846FEF706F9204670BDF6
:102B8000FFB51D462C460746163481B00B46A0B251
:102B900000F0F8F8002835D00120A2B240021A4C0B
:102BA0001A4E03432188306805F0ECFA20881A4653
:102BB000801C81B22180306805F0E4FA2088801CF6
:102BC00081B22180A288306805F0DCFA20881022CA
:102BD000801C80B22080316808183946FEF7D4F88E
:102BE00020882A46103080B2208031680818039966
:102BF000FEF7CAF820884019208000F003F9A08869
:102C0000411CA18005B0F0BDDC2D00201002002089
:102C1000FFB51D460746083381B00E4698B200F056
:102C2000B1F8002830D09AB2184C194B2188186896
:102C300005F0A8FA20883246801C81B221801868ED
:102C400005F0A0FA2088801C81B22180A288186833
:102C500005F098FA20883A46801C81B221801868D5
:102C600005F090FA20882A46801C80B220801968DE
:102C700008180399FEF788F820884019208000F092
:102C8000C1F8A088411CA18005B0F0BDDC2D00205A
:102C90001002002008B5002069460880FF210B3192
:102CA00002236A460148FFF7B3FF08BD022900006E
:102CB000FFB585B006466846104D0170A8880C46E1
:102CC000401C82B21F460121684605F05BFA00A84D
:102CD000102231460330FEF757F813236A460221CB
:102CE0000748FFF795FFAD883B4621463046079AD7
:102CF000FFF746FF284609B0F0BD0000DC2D00209C
:102D000003280000FFB583B0064668460F4D0170EA
:102D1000A8880C46401C82B21F460121684605F077
:102D200031FA32460321684605F02CFA05236A463B
:102D300002210748FFF76CFFAD883B46214630462D
:102D4000059AFFF765FF284607B0F0BDDC2D00208F
:102D500003280000024610B5052010230221C002FE
:102D6000FFF756FF10BD08B502460021684605F082
:102D700009FA022305206A461946C002FFF748FFF8
:102D800008BD0000801C81B20448028840885118A8
:102D9000814201D80120704700207047DC2D0020BF
:102DA00003488088002801D0401E80B27047000090
:102DB000DC2D002002480088801C80B27047000093
:102DC000DC2D002070B50E460C4B0D499C1F0B608E
:102DD000012189021546618000280AD00146324649
:102DE0001846FDF7D1FF26806D1CA58000F00AF87B
:102DF00070BD002020800120A080F7E7E22D002098
:102E000010020020044900200A6804490B88D054AD
:102E1000098851184870704710020020DC2D0020EE
:102E200010B5FC2100F002F810BD0000F8B5044612
:102E30000E46002003F0C0FC05002CD002212971B1
:102E40006E71310AA9711A4861020E18A220032777
:102E5000825BF91F284605F095F90722791F28465D
:102E600005F090F93A460021284605F08BF9042236
:102E70000221284605F086F9002003F0F7FC040043
:102E80000BD000206560A060306B03F0E1FC0028EF
:102E90000AD0046009E00120F8BD3A460021054847
:102EA00011F0A0FC0220F8BD34630020F8BD000042
:102EB0009021002001190000F8B5074614460E467F
:102EC000002003F079FC050004D13A4600211B489C
:102ED00011F088FC1A4871020E18A220825B0321AF
:102EE000C943284605F04EF901210622C943284668
:102EF00005F048F902220021284605F043F9042292
:102F00000221284605F03EF92F716C71002003F074
:102F1000ADFC040005D109483A460021401C11F0DF
:102F200061FC00206560A060306B03F091FC00281C
:102F300001D00460F8BD3463F8BD00000E1C000031
:102F400090210020FFB5304851020E183546FF355C
:102F5000693581B0002B02D00224A81C01E01024A6
:102F6000281D0090002003F027FC070004D1002159
:102F70002648019A11F036FCA220825B0321C94346
:102F8000384605F0FFF8224601210B32C943384686
:102F900005F0F8F8E21D0021384605F0F3F80422A8
:102FA0000221384605F0EEF801983871AA8A052109
:102FB000384605F0E7F8EA8A0721384605F0E2F8D6
:102FC00009213846029A05F0DDF8384622460B30D2
:102FD0000099FDF7D9FE002003F048FC040005D15C
:102FE0000A480021401C019A11F0FCFB0020676098
:102FF000A060306B03F02CFC002802D0046005B008
:10300000F0BD3463FBE7000090210020021C0000AB
:1030100070B50D00044603D008480068206008E041
:10302000002070BD204600F07DF82089A84203D022
:1030300020680028F6D170BD012070BD100200206C
:10304000F8B50746244849020C182546FF3569356E
:10305000002003F0B1FB060004D13A4600211F48CE
:1030600011F0C0FBA220025B0321C943304605F0EA
:1030700089F801210922C943304605F083F8052269
:103080000021304605F07EF804220221304605F08A
:1030900079F83771AA8A0521304605F073F8EA8A73
:1030A0000721304605F06EF8002003F0DFFB050035
:1030B00005D10A483A460021401C11F093FB00203C
:1030C0006E60A860206B03F0C3FB002801D0056090
:1030D000F8BD2563F8BD000090210020041C00000D
:1030E000704700000749420208B55118FF22F1322B
:1030F0005050881800901838034A002311F04CFDF6
:1031000008BD0000902100203075000004494002F5
:10311000401810B5FF30D93011F094FD10BD0000FB
:103120009021002010B504460068002105F012F837
:10313000A080002815D00221206805F00BF8E0805F
:103140000421206805F006F820812068811DE160D7
:10315000E1888905A1880BD51639218201461631EF
:103160000AE00020E0802081E0602082606106E0CB
:1031700008392182014608316161A1884018206028
:1031800010BD0068002800D001207047014909687F
:10319000016070471002002070B5044600890D469A
:1031A000002813D0022A09D0E08880050FD510220C
:1031B000E0680AF08DFA002819D01AE000212846AC
:1031C00004F0C8FF0146204600F015F870BD08461F
:1031D00004F044FD0028F9D00C21284604F0BAFF81
:1031E00005460021E06804F0B5FF854201D10120C9
:1031F00070BD002070BD70B5044600890D460028E2
:103200000ED0E0888005E0680BD504F027FD00288B
:1032100006D00C21E06804F09DFFA84203D10120F4
:1032200070BD0021F7E7002070BD0000F8B504462E
:1032300043025D480F7818180646FF3669360F2F8F
:103240006FD010DC584D63025D19FF3541353B00EE
:10325000FFF7B0F90F23A52D313F8D438847804BF1
:10326000844F95532300182F5CD008DC103F3B009F
:10327000FFF7A0F90847684B8113134F89131E2FDE
:103280004BD006DC192F71D01B2F57D01D2F04D126
:103290005CE0522F4AD0D22F4CD001212C300BF0C1
:1032A000C5F8002E02D0204602F080FEF8BD204670
:1032B00003F01AFB02E0204602F0DCF93B48C0793B
:1032C0002B28EED02A7D00232146442001F062FC09
:1032D000E7E7204603F0B4FCE3E7204603F0D6FB23
:1032E000DFE7204603F0B0FFDBE7204604F044F9B7
:1032F000D7E7204603F000FED3E7204604F096F817
:10330000CFE7204603F09EFECBE7204604F07AFA92
:10331000C7E7204603F050FDC3E7204604F02AFA31
:10332000BFE738E0204603F03DFBBAE7204604F053
:1033300039FAB6E7204604F0D9F9B2E7204602F0A0
:1033400029FCAEE7204602F0B9FAAAE7204602F0CF
:1033500011FCA6E7204602F0F1FAA2E7204602F0AF
:10336000ABFB9EE7204602F0C1F99AE70FE020464A
:1033700002F006FA95E7204602F022FC91E720468B
:1033800002F07CFA8DE7204602F028FA89E7204611
:1033900002F08CF985E7204602F06EFB81E72046BB
:1033A00002F022F97DE700009021002008000020B3
:1033B00038B5049C1D25257000940AF0DBFF38BD4C
:1033C00038B5049C1B25257000940AF0D3FF38BD46
:1033D000F7B52B4849020C182546FF3517466935C5
:1033E000002003F0E9F9060004D100212548009AE5
:1033F00011F0F8F9A220025B0321C943304604F022
:10340000C1FE3846093082B20121C943304604F07A
:10341000B9FE781D82B20021304604F0B3FE0422CA
:103420000221304604F0AEFE009830712A8C05214E
:10343000304604F0A7FE6A8C0721304604F0A2FE55
:10344000698CA86A3A46411830460930FDF79CFC61
:10345000002003F00BFA050005D10A480021401CAA
:10346000009A11F0BFF900206E60A860206B03F095
:10347000EFF9002801D00560FEBD2563FEBD000008
:1034800090210020101C00000248002101704180A2
:10349000704700000C020020064A0D28137806D061
:1034A000072803D1002B01D11070518070470D2BDC
:1034B000FAD170470C020020F8B5074624484902AB
:1034C0000C182546FF356935002003F075F9060014
:1034D00004D13A4600211F4811F084F9A220025B72
:1034E0000321C943304604F04DFE01210922C9439E
:1034F000304604F047FE05220021304604F042FE2B
:1035000004220221304604F03DFE37712A8C052149
:10351000304604F037FE6A8C0721304604F032FE54
:10352000002003F0A3F9050005D10A483A4600211E
:10353000401C11F057F900206E60A860206B03F06A
:1035400087F9002801D00560F8BD2563F8BD0000AB
:1035500090210020081C0000F8B5074627484902C2
:103560000C182546FF356935002003F025F90600C3
:1035700005D107203A460021800211F033F9A2203C
:10358000025B0321C943304604F0FCFD01211922EE
:10359000C943304604F0F6FD15220021304604F000
:1035A000F1FD04220221304604F0ECFD3771AA8AB5
:1035B0000521304604F0E6FDEA8A0721304604F092
:1035C000E1FD30461022291D0930FDF7DDFB00200A
:1035D00003F04CF9050004D13A460021084811F0E7
:1035E00001F900206E60A860206B03F031F900281B
:1035F00001D00560F8BD2563F8BD000090210020D2
:10360000011C0000F7B50746264851020C18254654
:10361000FF356935002003F0CFF8060005D10720FB
:103620003A460021800211F0DDF8A220025B03215E
:10363000C943304604F0A6FD01210B22C9433046A0
:1036400004F0A0FD07220021304604F09BFD042277
:103650000221304604F096FD3771AA8A05213046D2
:1036600004F090FDEA8A0721304604F08BFD092121
:103670003046019A04F086FD002003F0F7F80500BB
:1036800004D13A460021084811F0ACF800206E60E1
:10369000A860206B03F0DCF8002801D00560FEBDB7
:1036A0002563FEBD90210020011C0000F8B54102F9
:1036B00029480C182546FF356935002003F07CF8B1
:1036C000060004D10E220021244811F08BF8A2201C
:1036D000025B0321C943304604F054FDA88D01214B
:1036E0004000401D82B2C943304604F04BFDA88D16
:1036F00000214000401C82B2304604F043FD042209
:103700000221304604F03EFD0E203071002708E013
:10371000286B7900425A3046491D04F033FD7F1C66
:10372000FFB2A88DB842F3D8002003F09FF805003F
:1037300005D10A480E220021401C11F053F8002048
:103740006E60A860206B03F083F8002801D005604C
:10375000F8BD2563F8BD0000902100200A1C000080
:10376000F8B5074614460E46002003F025F805007C
:1037700004D13A4600211D4811F034F81C4871026A
:103780000E18A220825B0321C943284604F0FAFCEC
:1037900001210722C943284604F0F4FC032200213A
:1037A000284604F0EFFC04220221284604F0EAFC3B
:1037B0002F7122460521284604F0E4FC002003F086
:1037C00055F8040005D109483A460021401C11F083
:1037D00009F800206560A060306B03F039F800281C
:1037E00001D00460F8BD3463F8BD0000061C000081
:1037F00090210020FFB581B00198410230480C189B
:10380000FF204330005D00280CD0002002F0D4FFE0
:10381000050009D02B4F2E1D7868002806D0902077
:1038200005B0F0BD0220FBE70120F9E70198FFF7A2
:1038300059FC24490298486001AF00960FCFFFF76A
:10384000B7FD0746A220025B0321C943284604F0C6
:1038500099FC381D82B20121C943284604F092FC2C
:103860003A460021284604F08DFC04220221284615
:1038700004F088FC002002F0F9FF060004D13A466B
:103880000021114810F0AEFF00207560B060206B81
:1038900002F0DEFF002801D0066000E02663094840
:1038A000C06800280AD0FF34C134608F012805D9D0
:1038B00000231A461120019901F010F90020AFE70A
:1038C000902100201402002001190000FFB581B0F2
:1038D00001981F4641023A480C182646FF364136E9
:1038E000B078002806D002F09DFF022804D2032001
:1038F00005B0F0BD0220FBE7002002F05DFF0546A9
:103900003048407801022F488038407E01432E48DD
:1039100009F0C4FE002D32D0281D01AE009007CE64
:103920003B46FFF74DFD0746294620390A98C876E1
:10393000A220025B0321C943284604F023FC381D62
:1039400082B20121C943284604F01CFC3A460021FA
:10395000284604F017FC04220221284604F012FC39
:10396000002002F083FF060011D000207560B060D7
:10397000206B02F06DFF00280FD006600EE01920CA
:10398000B28A0021000210F02DFF0120B0E73A4674
:1039900000210E4810F026FFA9E726630C48C068F6
:1039A00000280AD0FF34C134608F012805D90023D4
:1039B0001A461120019901F091F8002098E70000C3
:1039C00090210020C82D00206CD6000001190000B5
:1039D00014020020F8B52B4C2B4D217808304902F9
:1039E0004E19FF3669363178342911D0274E284FC9
:1039F00031683A888918082209F06AFE00282ED01A
:103A0000217848024019C26A137B022B0CD00FE0C8
:103A10000146304608224030FDF7B6F935203070B7
:103A2000207802F0C3FAF8BD53681B79D22B06D078
:103A300012040A430021174810F0D4FEF8BD0121FA
:103A40002C300AF0F3FC207840024019C06A0028AC
:103A5000F4D01148402100680DF0C2FFF8BD38884D
:103A60003168001F82B2207803F016FE3988306872
:103A7000091F04F07CFB01460848491C007804F04B
:103A800037FBE0E7E038002090210020F0380020EC
:103A9000E83800200219000004020020140200206F
:103AA00070B50E46410211480D182946FF316931A3
:103AB0008A8CF01D101808224031FDF765F90020AE
:103AC00002F0D4FE040004D1D2220021084810F0F4
:103AD00089FE00206660A060286B02F0B9FE002815
:103AE00001D0046070BD2C6370BD000090210020E7
:103AF000171C000010B50446C088C00503D52089F6
:103B000009F0A0FE208210BD00B587B001466846CE
:103B1000FFF77EFA002804D06846C088800502D5E9
:103B2000002007B000BD0021039804F013FBF8E764
:103B300010B5CA88110B00D0491C114C4002001965
:103B4000FF3053054130002B02DA437E002B0ED0AC
:103B5000120502D5827E002A0BD0002902DD027EEA
:103B6000002A08D0007E884207DA0C2010BD05200C
:103B700010BD082010BD0F2010BD002010BD00009A
:103B8000902100200149C860704700001402002005
:103B9000FFB5074681B01C460E46002002F00CFE21
:103BA000050004D13A460021204810F01BFE2048B1
:103BB00071020E18A220825B0321C943284604F03B
:103BC000E1FAE01D82B20121C943284604F0DAFA85
:103BD000E01C82B20021284604F0D4FA042202211B
:103BE000284604F0CFFA2F7105212846039A04F0E5
:103BF000C9FA2246E81D0A99FDF7C6F8002002F02E
:103C000035FE040005D109483A460021401C10F059
:103C1000E9FD00206560A060306B02F019FE00280D
:103C200002D0046005B0F0BD3463FBE70C1C00005B
:103C30009021002000B5062209F04AFD00BD0000D9
:103C400002484068002800D000477047383E0020F6
:103C5000F8B500236946184600930AF069FC0098FD
:103C60000321C008C000084381B2009000200AF080
:103C700083FC01256D026946284600930AF058FC32
:103C8000009902273943009189B228460AF074FC52
:103C9000662152480AF070FC504C6946E41E2046EA
:103CA00000930AF045FC3F210098C9018843FF2199
:103CB0008131084381B2009020460AF05DFC474EF6
:103CC0006946843E304600930AF032FC0098012495
:103CD000204381B2009030460AF04EFC3F486946CE
:103CE000801F00930AF024FC032100988902884376
:103CF00081B200903948801F0AF03EFC6946B01C32
:103D000000930AF015FC0098A04381B20090B01C0B
:103D10000AF032FC6946B01C00930AF009FC0098D6
:103D2000204381B20090B01C0AF026FC2B480121F0
:103D3000001F0AF021FC0093694629480AF0F8FBAD
:103D40000098C007F8D0FF20002101300AF014FCD1
:103D50002248002181380AF00FFC6946284600936A
:103D60000AF0E6FB0098B84381B2009028460AF0BA
:103D700003FC6946002000930AF0DAFB009807254F
:103D8000C008C000284381B2009000200AF0F4FB74
:103D90006946002000930AF0CBFB0098A843284313
:103DA00081B2009000200AF0E7FB0E4D4521890109
:103DB00028460AF0E1FB6521890128460AF0DCFB70
:103DC0006946304600930AF0B3FB00993046214320
:103DD000009189B20AF0D0FBF8BD0000880800000D
:103DE000110A0000021E0000F8B5002369461846BB
:103DF00000930AF09DFB00980321C008C00008430F
:103E000081B2009000200AF0B7FB012464026946E9
:103E1000204600930AF08CFB00980726C008C000DB
:103E2000304381B2009020460AF0A6FB7F4D6946E0
:103E3000284600930AF07CFB00980227384381B2A1
:103E4000009028460AF098FB6946284600930AF03D
:103E50006FFB00980421084381B2009028460AF0C5
:103E60008BFB6946284600930AF062FB00981021FC
:103E7000084381B2009028460AF07EFB6946A81CE0
:103E800000930AF055FB00990625A9436748009165
:103E900089B2801C0AF070FB64486946801C00935C
:103EA0000AF046FB00996148A9432943009189B271
:103EB000801C0AF061FB5D4D694648352846009339
:103EC0000AF036FB0098384381B2009028460AF089
:103ED00053FB6946284600930AF02AFB00984021CC
:103EE000084381B2009028460AF046FB69462846FE
:103EF00000930AF01DFB0098204381B200902846F1
:103F00000AF03AFB494F69463437384600930AF0C5
:103F10000FFB00980125284381B2009038460AF033
:103F20002BFB424F69463D37384600930AF000FBB1
:103F30000098284381B2009038460AF01DFB7F1E8E
:103F40006946384600930AF0F3FA0098284381B294
:103F5000009038460AF010FB3448FF21823162306D
:103F60000AF00AFB3248417830485D30002904D01D
:103F7000012905D0022906D156E05D21490100E062
:103F80002C490AF0F9FA29482B495E300AF0F4FA74
:103F900026482A495F300AF0EFFA2448F8216030B9
:103FA0000AF0EAFA214826494A300AF0E5FA254D96
:103FB0000093694628460AF0BBFA00984007F8D5F6
:103FC0001A48022163300AF0D7FA0093694628465E
:103FD0000AF0AEFA00988007F8D5694620460093AB
:103FE0000AF0A6FA0098C008C00081B200902046EE
:103FF0000AF0C2FA6946002000930AF099FA009884
:10400000C008C000304381B2009000200AF0B4FA2A
:104010000D4B4521890118460AF0AEFA6521890148
:1040200018460AF0A9FAF8BD0849AAE704080000F2
:10403000A03D002066170000DB060000CE03000054
:10404000BD6E0000110A0000021E000028330000AF
:1040500000B50A4A02280AD0012807D108480818E2
:104060008001C01C81B210460AF086FA00BD7D2096
:104070000001081A80013D30F4E700004E080000FE
:104080002FF8FFFF18B57F2116480AF075FA154B77
:1040900000219B1C18460AF06FFA12491846491F66
:1040A0000AF06AFA0F4B002432336946184600942E
:1040B0000AF03EFA009901200143009189B21846A6
:1040C0000AF05AFA6946184600940AF031FA009943
:1040D0000620814304200143009189B218460AF06A
:1040E0004BFA18BD04080000F3B5002785B000287E
:1040F0007ED0FF230024163301A9184601940AF04C
:1041000017FA0198022180088000084381B20190CB
:1041100018460AF031FA754D01A9284601940AF0B3
:1041200007FA032101980903884381B201902846C8
:104130000AF022FA01A9184601940AF0F9F9019847
:104140000C218843084381B2019018460AF014FA02
:1041500001A9184601940AF0EBF90198302188432F
:104160001021084381B2019018460AF005FA604E0A
:1041700000235F4D083602200699FFF769FF03947C
:1041800003A928460AF0D4F903984006F8D502A9F5
:1041900030460AF0CDF9684600895B1C3F180A2BAF
:1041A000E9D30A213846FCF795FD81B268460181C2
:1041B000FF2014300AF0E0F96846008906214143E7
:1041C0004F0A0D214843430A3802C01882B268469C
:1041D00002804021C81B0006070C68464780C81AA9
:1041E00083B268468380114602200AF0C5F900E0D8
:1041F00079E0394603200AF0BFF919460B200AF08E
:10420000BBF9FF2316336946184600940AF090F96B
:10421000009830218843084381B2009018460AF084
:10422000ABF900273B4602200699FFF711FF0394E4
:1042300003A928460AF07CF903984006F8D502A99C
:1042400030460AF075F9684600895B1C3F180A2B56
:10425000E9D30A213846FCF73DFD81B26846018169
:10426000FF2015300AF088F968460089062141438D
:104270000D225043490A420A0802801886B2684655
:1042800006804023581A0006050C68464580981A97
:1042900083B268468380314607200AF06DF92946CB
:1042A00008200AF069F919460C200AF065F9FF2385
:1042B00016336946184600940AF03AF9009902202C
:1042C0008143009189B218460AF056F969461846AA
:1042D00000940AF02DF9009930208143009189B2B1
:1042E00018460AF049F907B0F0BD000003020000CB
:1042F0001D0A0000FEB50024F64FF74EF74D00945E
:1043000000287DD0FF206A4601210230FCF716F814
:1043100000981D2180B209020090884202D9F91E3E
:10432000884202D3EB485E3800907D2138460AF07F
:1043300023F9E848EA49401C0AF01EF9E54B687881
:104340009B1C002804D001280BD0022805D108E0CE
:10435000009881B218460AF00FF9F079012803D0CD
:1043600007E000982538F4E7DA4918465A390AF088
:1043700003F9D848FF210B300AF0FEF87D20000138
:104380000FF0CAFAD34F01A97F1E384601940AF0F4
:10439000CFF801230198DB02984381B2019038469F
:1043A0000AF0EAF801A9384601940AF0C1F8019828
:1043B000184381B2019038460AF0DEF801A90120C5
:1043C00001940AF0B5F801980721C008C00008431D
:1043D00081B2019001200AF0CFF8C249B81D0AF05D
:1043E000CBF8FB1D01A9184601940AF0A1F8019829
:1043F0004021884381B2019018460AF0BDF800E0E0
:1044000013E06521890138460AF0B6F8B1486A78A8
:10441000FF21FF2301310D307F1D8133002A07D09A
:10442000012A14D0022A3CD111E07B2138469EE7B4
:104430000AF0A2F8AC4938460AF09EF801A93846BD
:1044400001940AF075F801989843184324E0A148B4
:104450000D300AF091F8A44938460AF08DF89D48CD
:1044600001A90D3001940AF063F80198F8218843FE
:10447000C821084381B2019096480D300AF07CF8BB
:1044800001A9384601940AF053F80F210198C90197
:1044900088430521C901084381B2019038460AF0DA
:1044A0006BF8FF2001A9163001940AF041F80721AA
:1044B0000198C9018843184381B20190FF2016304A
:1044C0000AF05AF8FF210F31C81D0AF055F8874944
:1044D00087480AF051F88120864980000AF04CF89C
:1044E00083488549801C0AF047F8814B01A9DB1DF0
:1044F000184601940AF01CF801980821884381B2FB
:10450000019018460AF038F801A9184601940AF0FB
:104510000FF801981027384381B2019018460AF02D
:104520002BF8FF2001A9163001940AF001F8019838
:104530008021884381B20190FF2016300AF01CF8D8
:104540006E490D200AF018F8FF23173301A9184609
:10455000019409F0EDFF0198384381B201901846AB
:104560000AF00AF801A91846019409F0E1FF3F207A
:104570000199400181432F2040010143019189B2FB
:10458000184609F0F9FFB1218900012009F0F4FF74
:1045900057485B49801E09F0EFFF554B01A95B1E90
:1045A0001846019409F0C4FF01988108890002208F
:1045B0000143019189B2184609F0DEFFFF20702106
:1045C000133009F0D9FFFF204E49313009F0D4FFF4
:1045D0004C49FF20491E323009F0CEFFFF208021D8
:1045E000333009F0C9FF4849484809F0C5FF47483A
:1045F0004749401C09F0C0FF44480321001D09F051
:10460000BBFF03203A21400209F0B6FF3F4B01A94E
:104610000A331846019409F08BFF01997801814310
:10462000019189B2184609F0A7FF0C21380209F060
:10463000A3FF2C480E217B3809F09EFF29480D214D
:104640007A3809F099FF2748432149016C3809F06D
:1046500093FF244800216B3809F08EFF2A49214836
:1046600058316A3809F088FF1E480021693809F07E
:1046700083FF1C4B1C49683B8731184609F07CFFBF
:10468000184C0121673C204609F076FF83206978A9
:104690004001451C002904D0012907D002290CD172
:1046A00004E0A22109F068FFB52103E0552109F0DB
:1046B00063FF7121284609F05FFFF079012808D1D6
:1046C00011491846633109F057FF0021204609F0CF
:1046D00053FFFEBD031E0000683D0020A03D0020EA
:1046E0008FCE00007C10000004080000554100003F
:1046F00003020000353A0000131A00000C0C000001
:104700003048000081800000288800000106000079
:10471000F634000038B5032300241E4D9B03022805
:104720000ED001286946284600941FD009F000FFEA
:1047300000999943009189B2284609F01DFF38BDC0
:1047400069462846009409F0F3FE0098984381B228
:104750000090284609F010FF69462846009409F0A9
:10476000E7FE009901209943C00311E009F0E0FE43
:104770000098984381B20090284609F0FDFE6946F2
:104780002846009409F0D4FE009901209943800343
:104790000143CFE7021E000011210348C902416016
:1047A000024981607047000000C40140FF750000AD
:1047B00002480021416081607047000000C4014050
:1047C00010B5002804D0014620220248FCF7DCFA8C
:1047D00010BD0000F03A002010B50B4800680DF045
:1047E00053F804000BD020220849FCF7CDFA2346E9
:1047F00020220021012000F071F9002801D00020C2
:1048000010BD012010BD000090020020F03A0020F1
:1048100010B500F01DFC10BD002310B51A46194656
:10482000022000F05BF910BD10B5FFF7D5FF10BDF9
:1048300070B50546084800680DF026F8040009D058
:1048400008222946FCF7A0FA234608220021062068
:1048500000F044F970BD00009002002010B5FEF792
:1048600025F910BD10B5002301461A46102000F0AE
:1048700035F910BD10B50C480078002811D00B4850
:10488000807A00280CD006F065FD044607482130E8
:10489000FCF7AEFAA04202D9001B962800D80020EF
:1048A00010BDC72010BD0000F0230020683D00208F
:1048B00010B500F0B9FB10BD10B503F0ABF810BD9A
:1048C00070B50546084800680CF0DEFF040009D00A
:1048D00016222946FCF758FA234616220021082002
:1048E00000F0FCF870BD00009002002001484088F4
:1048F00070470000E43A00200149488070470000FA
:10490000E43A002010B501460148FCF768FA10BDF2
:10491000103B002070477047704710B5FEF786FACD
:1049200010BD10B500F09CFB10BD10B500F0A6FB4B
:1049300010BD10B500F0AEFB10BD10B50AF0D8FCEC
:1049400010BD10B500F0BAFB10BD10B50AF08CFF19
:1049500010BD134610B50022890700D50122990722
:1049600001D502210A43014600230D2000F0B6F8CC
:1049700010BD10B5002301461A460C2000F0AEF819
:1049800010BD10B5002301461A460B2000F0A6F812
:1049900010BD10B5002301461A460F2000F09EF806
:1049A00010BD000070B5054608480E4600680CF0C2
:1049B0006BFF040009D010223146FCF7E5F92346CD
:1049C000102229460E2000F089F870BD90020020C8
:1049D0000149087070470000E43A00207047000069
:1049E00070B50546084800680CF04EFF040009D079
:1049F00008222946FCF7C8F923460822002107208F
:104A000000F06CF870BD00009002002010B5002886
:104A100004D0014608220248FCF7B6F910BD000098
:104A2000E83A002010B5084800680CF02DFF04009B
:104A300009D008220549FCF7A7F9234620220021C6
:104A4000032000F04BF810BD90020020E83A00204F
:104A500010B500F03DFB10BD002310B51A461946F5
:104A6000042000F03BF810BD10B50BF0E1FC10BDC8
:104A700070B50546084800680CF006FF040009D030
:104A800008222946FCF780F9234608220021472006
:104A900000F024F870BD000090020020704710B5AF
:104AA0000AF02CF810BD0A4610B501460023092073
:104AB00000F014F810BD38B5049C009403F014F90C
:104AC00038BD10B50BF062FE10BD10B50AF0C2FE85
:104AD00010BD10B5FFF756F810BD0000FFB5144D1E
:104AE00081B016460F46A8680CF0CEFE040013D025
:104AF00003202070A77001986070E67004986060D1
:104B00000C480121C90300680CF06AFFEFF305802F
:104B1000002804D0002204E0012005B0F0BD0022EE
:104B2000D243214668680CF05DFE0020F5E70000E6
:104B3000840200200402002010B5002113480CF06C
:104B400029FE134C0028206017D01048002108309F
:104B50000CF020FE6060002811D00C4810300CF0E2
:104B6000C1FEA06000280CD008481C300CF0BAFE32
:104B7000E060002807D0002010BD042010BD0520F3
:104B800010BD062010BD072010BD00004C11010013
:104B900084020020FFB5104C074681B015460E4632
:104BA000A0680CF071FE01000CD0032008708E701C
:104BB0004F70CD7004984860EFF30580002804D052
:104BC000002204E0012005B0F0BD0022D24320689D
:104BD0000CF008FE0020F6E78402002030B5C28BFE
:104BE00087B00446002A44D068460280258C458060
:104BF0008180217FC180618801811022211D0A30BE
:104C0000FCF7C2F81C48017805291CD006DC0129F4
:104C100009D003290BD0042929D10FE00A2917D084
:104C2000252924D11BE01A226946144803E01348C1
:104C30001A2269461A30FCF7A7F818E00F481A2222
:104C400069463430F7E70D481A2269464E30F2E7DC
:104C5000408800280BD0684608F048FD07E06088CF
:104C60000749401801D0012801D10648458000209D
:104C7000E08307B030BD000030020020563600202F
:104C8000FCD6FFFFEC340020FFB581B00746044698
:104C900020370B9D387E1E46022D1AD0002806D0E4
:104CA0001022201D0A9908F013FD00280FD1039847
:104CB00020770298E0832684387E002807D1022DD1
:104CC0000DD060801022201D0A99FCF75DF805B018
:104CD000F0BD0028EBD00222A01C0A99E3E70021D6
:104CE0000A9803F037FA05460146201D0CF0B2F988
:104CF0006580ECE7F8B50D46064641020C480C18F5
:104D0000C12005556946304605F0BEFE00280ED08C
:104D1000022101704570A08E04210843A08605F091
:104D2000FBFEE06468460178304604F0B3FCF8BD51
:104D30009021002030B5096872B68A68826000222E
:104D40000A808A600A734A730E4B4C6810468500CD
:104D50005D59AC4203D0401CC0B20628F7D30628E8
:104D60000DD0012585401C7E0648AC431C76803062
:104D700003785B1E0370001F4A6002F069FF62B691
:104D800030BD0000482D002002484179491C417186
:104D900070470000D83800201CB55F4C20466030BA
:104DA00001904030803400900021C94300200CF075
:104DB00025FE0F4607F0C0FCFF21F531884273D96C
:104DC000F80734D0A08C81B21B20C00208F066FC2A
:104DD000A08C0006000E2AD050480078002826D16A
:104DE00000250126606AAE40304205D0284608F012
:104DF00065FA606AB04360626D1C2D062D0EF0D01E
:104E000001980078052801D0042810D1444845496C
:104E1000007842025118FF314131C97B890701D026
:104E200006F094F9A08C81B23F4808F037FC78076F
:104E30006BD5A08C81B23C48C01F08F02FFCA08C21
:104E4000C00562D5394A3A493A4806F017F901983F
:104E50000078052801D0042810D131483149007864
:104E600042025118FF314131C97B890701D006F058
:104E70006DF9A08C81B22C4808F010FC616A2E4AB2
:104E80000802050E080E11406162244A00211170CB
:104E90000300FDF78FFB073A050A0E1A1F273A0099
:104EA00022480AF067F830E033E020480AF0A2FE1A
:104EB0002BE01E4809F08AFF20480078002824D102
:104EC0001F491A48096888471FE01849284609F011
:104ED000ABFF1AE0154928460AF00EFA28460AF0F8
:104EE00049FF12E01748C0792B280ED016480068F9
:104EF0000CF0CAFC054610220C49FBF745FF2B4677
:104F0000102200214D20FFF745FE00200099487631
:104F10004AE70120FAE7000090230020E53800204E
:104F2000E12500209021002008D800000C3E002040
:104F3000EC3D0020FC3D0020FF0E00F0DF3800209B
:104F4000EC380020080000209002002070B50D46CB
:104F5000044616460021284603F0FCF82080022172
:104F6000284603F0F7F86080002E08D068792A7987
:104F700001021143A180A01D0CF06CF870BD00204F
:104F8000A0801022291DA01DFBF7FEFE70BD0000B1
:104F900010B5084C0146206B062809D2C000001944
:104FA0000822FBF7F1FE206B401C2063002010BD9F
:104FB000012010BD9023002010B5002803D0084622
:104FC00007F0D8FF012003F0EDF810BD0B4610B537
:104FD0000749CA7C0270C87C0649012805D06131A6
:104FE00006221846FBF7D0FE10BD6731F8E7000037
:104FF000182100209023002010B5044608480078AE
:1050000001280AD010220748FBF7BEFE06222146DF
:10501000002009F001FD012010BD002010BD00009E
:10502000E5380020EC3D002001490020086370476E
:105030009023002010B505F039FE10BD10B50028F2
:1050400003D0084608F0D8F8012006F0FFFB10BD99
:105050000248807F002800D00120704718210020DE
:1050600010B54402044820188030C48C0C80418D57
:105070001180008D188010BD90210020044940024D
:10508000401800B5FF30C130C08F08F08FFC00BD64
:105090009021002010B541780278090211430129BE
:1050A00005D006220449801CFBF76EFE10BD0249A4
:1050B0000622891D801CF7E7F123002003494002E6
:1050C0004018FF304130808A704700009021002056
:1050D00002484078002800D0012070475821002065
:1050E0007047000001480078704700002802002047
:1050F00010B5084B084C012903D01A70022020700B
:1051000010BD00211970014606220448FBF73CFE41
:105110000120F4E728020020DE38002006390020B4
:10512000014948607047000028020020704770471E
:105130007047000070B506460025124C09E0E800F3
:1051400000190822314608F0C3FA002804D16D1C6A
:10515000EDB2206BA842F2D8206BA84207D10FE035
:10516000E80000198168C26806C06D1CEDB2206BB2
:10517000401EA842F4D8206B401E2063002070BD62
:10518000012070BD90230020FEB506784178841C74
:105190000291002101A8013022780270401E491CB2
:1051A000641C0629F8DB1A4D2878062803D1FD2156
:1051B0002846FBF702FE00272A2078434019417851
:1051C000B14206D106226946C01C08F081FA0028C7
:1051D0001DD07F1CFFB2062FEED32878062801D100
:1051E000052028702A21484347197E700298B8701C
:1051F000F81C06226946FBF7C7FD227838467A720A
:10520000611C0A30FBF7C0FD2878401C2870FEBDE9
:105210001335002010B5FFF76DFD10BD70B50546C4
:1052200041020D4809180C46FF314131FF3488789E
:105230006934002804D02078002803D0952070BD60
:10524000932070BD284601F01DF81F2020702846CD
:1052500000F0ACFE002070BD9021002070B5144617
:105260000D46064602F076FF2080A91C304602F06B
:1052700071FF6080291D304602F06CFFA080A91DDF
:10528000304602F067FFE0807119204610220A3094
:105290000831FBF779FD70BD70B514460D46064622
:1052A00002F058FF208071191022201D891CFBF785
:1052B0006BFD70BD70B514460D46064602F04AFF00
:1052C0002080A91C304602F045FF60807119102231
:1052D000A01D091DFBF758FD70BD000070B50D46FF
:1052E00006464102144809180C46FF314131FF348B
:1052F00088786934002804D02078002803D09520CD
:1053000070BD932070BD6888A988884204D10021AF
:10531000304601F0FBF80CE0304600F0B3FF68883F
:10532000401CA082A888E08209202070304600F04E
:105330003DFE002070BD000090210020FFB50F460B
:1053400005464102154881B008180446FF30413037
:10535000FF34807869341646002805D0207800286C
:1053600004D0952005B0F0BD9320FBE7284600F05F
:1053700089FFA782E6820121382001550026668038
:105380001022201D0499FBF7FFFCE6830720207004
:10539000284600F00BFE0020E4E7000090210020EA
:1053A000FFB50F4605464102134881B00818044670
:1053B000FF304130FF34807869341646002805D02C
:1053C0002078002804D0952005B0F0BD9320FBE79D
:1053D000284600F057FFA782E682012138200155B8
:1053E000049860800020E08307202070284600F0A9
:1053F000DDFD0020E8E700009021002070B50D469B
:1054000006464102114808180446FF304130FF3477
:1054100080786934002804D02078002803D09520B3
:1054200070BD932070BD304600F02CFF2888A0820C
:105430006888E082002038210855E083052020702C
:10544000304600F0B3FD002070BD00009021002028
:1054500010B513464A880988FFF770FF10BD10B5D4
:1054600013464A880988FFF79BFF10BD70B50546B3
:105470004102104809180C46FF314131FF34887849
:105480006934002804D02078002803D0952070BD0E
:10549000932070BD284600F0F5FE0120A082811EF9
:1054A000E182207000206080284600F07FFD00200F
:1054B00070BD00009021002070B50E4605464102E7
:1054C000124808180446FF304130FF3480786934B0
:1054D000002804D02078002803D0952070BD9320A8
:1054E00070BD284600F0CEFE0120A082801EE08222
:1054F0000020608010223146201DFBF745FC032070
:105500002070284600F052FD002070BD9021002040
:1055100070B50E46054641020F480A181446FF3280
:105520004132FF3490786934002804D02078002874
:1055300003D0952070BD932070BD284600F0A2FED8
:105540000120A082801EE082032020706680284611
:1055500000F02CFD002070BD9021002070B50546A4
:1055600041020D4809180C46FF314131FF3488785B
:105570006934002804D02078002803D0952070BD1D
:10558000932070BD284600F07DFE1D202070284627
:1055900000F00CFD002070BD9021002070B50D467C
:1055A000064641020F480A181446FF324132FF34C2
:1055B00090786934002804D02078002803D0952002
:1055C00070BD932070BD304600F05CFE2888A0823C
:1055D0006888E0820B202070304600F0E7FC002055
:1055E00070BD000090210020F8B50E46074641022C
:1055F0001E480D182C46FF34693421781C4808F0E9
:105600004DF831790A2910D1207808281AD006DC03
:10561000022813D0042811D0062806D112E00A2847
:105620000CD00C280AD0142812D0384600F0AAFC5E
:1056300028462C30012108F0F9FEF8BD384600F06C
:105640008BFA0EE0E18A01222046FFF7C7FAF5E760
:10565000384600F081FAA08A218B884201D10A21C4
:1056600000E00021384600F051FFE1E790210020E2
:1056700001DC000010B50A4604460121104602F084
:1056800069FD02460848610208180146FF314131B0
:10569000CB8A934201D98A8200E08B8201212C308F
:1056A00008F0C4FE10BD00009021002070B5054632
:1056B00041020D480C18FF206930005D1E2805D0FE
:1056C000202803D0222801D0302806D1284600F017
:1056D00043FA0021284600F019FF20462C30012112
:1056E00008F0A4FE70BD000090210020F7B584B042
:1056F000042002901E480190049841021D480C1895
:105700001D482546FF3501786935062901D007294E
:1057100021D10127194E1BE005980021C0190090E6
:1057200002F018FD30800221009802F013FD708015
:105730006888B0801022291DB01DFBF725FB0E489C
:105740004088002802D00D4808F068F802983F18F9
:1057500006988742E0DB0322019904980BF040FC95
:1057600020462C30012108F061FE07B0F0BD00009A
:10577000FFFF00009021002030020020BE360020F4
:10578000F7B582B00420009002980E4641021248FC
:1057900015460C182046FF3069300190111F304625
:1057A00002F0D8FC07467078022801D11220009040
:1057B000AD1EAAB2B11C009B019808F053FE09224D
:1057C000394602980BF00CFC20462C30012108F0E1
:1057D0002DFE05B0F0BD000090210020F7B50E466B
:1057E0000746410224480D182C46FF3469342078BE
:1057F0001A2816D01C2827D02E281AD0322834D1A7
:10580000384600F0A9F931462046029A02F04CFAD7
:10581000002801D0002100E07E21384600F076FE0D
:1058200023E00321304602F095FC1D2260841921FB
:1058300006E00321304602F08DFC2F2260842D21EA
:1058400038460BF0B3FB10E031462046029A02F0D6
:105850002BFA002807D00321304602F07BFC1D22E2
:1058600060841B21ECE72120207028462C30012188
:1058700008F0DCFDFEBD00009021002010B50D49B0
:1058800043025C18FF216931521E095D92B2122950
:1058900002D02A2908D104E0074B002119701121F8
:1058A00000E029210BF064FB20462C30012108F098
:1058B000BDFD10BD9021002030020020F7B50098FA
:1058C0000E4641021A4817460C18FF206930005D49
:1058D00002281ED117480178062901D0072918D1BE
:1058E000022514E07078001F102801DA012200E080
:1058F000002271191048FFF729FB0E484088002844
:1059000002D00D4807F08AFF7078401985B2BD4279
:10591000E8D33946304600F0CCFF0146012200981A
:105920000BF05EFB20462C30012108F07FFDFEBD10
:105930009021002030020020BE360020F7B584B050
:1059400004980E4641024A4817460C180194FF3449
:10595000693420780C2823D004DC062807D00828D6
:105960005ED111E0142869D0242859D15FE0314676
:10597000204608F097FD3946304600F08DFF054679
:1059800006E00522294648E03146204608F08AFD17
:10599000E18AA942F5D801222046FFF71FF9F0E776
:1059A00070780090072811D20221304602F0D2FB15
:1059B000A0820421304602F0CDFB20830621304630
:1059C00002F0C8FB60830D20207029E002251CE056
:1059D0002946304602F0BEFBA91C304602F0BAFB55
:1059E0002083291D304602F0B5FB60837078001FCC
:1059F000102801DA012200E0002271191D48891CDB
:105A0000FFF7A4FA0098281885B2BD42E0D33946C2
:105A1000304600F048FF0B22014604980BF0E0FAF4
:105A2000019801212C3008F001FD07B0F0BD0221E2
:105A3000304602F08FFBA0862520C5E7757800214F
:105A40000224A81E02900FE02146304602F082FB9D
:105A500000900298321983B2921C0099049800F0C9
:105A600013FE6019009984B2BC42EDD31322D4E72F
:105A700090210020BE36002070B5054643020D4837
:105A80001C18FF206930005D16280DD1521E93B2FC
:105A90004A1C0021284600F0F7FD284600F05CF87B
:105AA0000021284600F032FD20462C30012108F06C
:105AB000BDFC70BD90210020F7B50098571E410233
:105AC000214815460C182646FF36693630780E28D0
:105AD00004D0102812D028282FD11AE0102F01DA74
:105AE000012200E0002201991848491CFFF72EFA14
:105AF000B18A0B2200980BF073FA1EE0009800F0B8
:105B00002BF8019ABBB2318C521C009800F0BCFDFE
:105B10000FE0009800F020F80D480178252908D002
:105B2000272906D10B49826849192039C97F89186C
:105B300081600021009800F0E9FC20462C30012112
:105B400008F074FCFEBD000090210020BE3600204D
:105B50003002002032120100054A4102891810B5B6
:105B6000FF31002269310A7000F0A0FB10BD000077
:105B7000902100204102064810B50818FF21A231EB
:105B800001220A5411462C3008F050FC10BD0000D0
:105B90009021002070B515460E460446FCF7E8FE3D
:105BA0002A463146204600F047F804496002401872
:105BB00001212C3008F03AFC70BD0000902100203B
:105BC00070B5054641020C480C18FF206930005D95
:105BD000182803D0262801D02C2806D12846FFF704
:105BE000BBFF0021284600F091FC20462C3001210B
:105BF00008F01CFC70BD000090210020F8B50024C6
:105C000003260A4F3602D82025464543B54204D91B
:105C10002A46002106480EF0E5FDA200E9190548D4
:105C2000641CE4B28150032CEDD3F8BDE2310020B6
:105C3000141C0000D4360020F8B506460D48154661
:105C4000C0790F462B2814D00B4800680BF01CFEBF
:105C500004460A20207066700020A070EA1EF91C1D
:105C6000E01CFBF791F8EAB2234631464320FEF7E9
:105C700091FFF8BD0800002090020020FFB50F46FC
:105C800005464102114881B008180446FF304130F2
:105C9000FF34807869341E46002805D0207800281B
:105CA00004D0952005B0F0BD9320FBE7284600F016
:105CB000E9FA2784A684039860840A98A0623120B8
:105CC0002070284600F072F90020EBE790210020B8
:105CD00010B5098800F002F810BD000070B50E463E
:105CE000054641020D480A181446FF324132FF347E
:105CF00090786934002804D02078002803D09520BB
:105D000070BD932070BD284600F0BCFA2684272081
:105D10002070284600F04AF9002070BD9021002034
:105D200010B50988002200F007F810BD10B5002258
:105D300000F002F810BD0000F8B50F46054641021C
:105D40000E48164608180446FF304130FF3480786C
:105D50006934002804D02078002803D09520F8BDAD
:105D60009320F8BD284600F08DFA27846684292008
:105D70002070284600F01AF90020F8BD902100207C
:105D800010B54988002200F007F810BD10B50022B8
:105D900000F002F810BD0000F8B50F4605464102BC
:105DA0000E48164608180446FF304130FF3480780C
:105DB0006934002804D02078002803D09520F8BD4D
:105DC0009320F8BD284600F05DFA278466841120F0
:105DD0002070284600F0EAF80020F8BD902100204D
:105DE000F8B50D46064641020E4817460818044607
:105DF000FF304130FF3480786934002804D02078A7
:105E0000002803D09520F8BD9320F8BD304600F05F
:105E100039FAA585152027632070304600F0C6F8B2
:105E20000020F8BD9021002010B5498800F002F84C
:105E300010BD000070B50E46054641020E480A1816
:105E40001446FF324132FF3490786934002804D080
:105E50002078002803D0952070BD932070BD28467F
:105E600000F010FA2684002060840F20207028465D
:105E700000F09CF8002070BD90210020FFB50E4678
:105E800007464102144881B008180446FF304130EB
:105E9000FF34807869341546002805D02078002822
:105EA00004D0952005B0F0BD9320FBE7384600F004
:105EB000E9F9A682E58226836583002060801022AE
:105EC000201D0499FAF760FF13202070384600F077
:105ED0006DF80020E6E7000090210020FFB50E4697
:105EE00007464102114881B008180446FF3041308E
:105EF000FF34807869341546002805D020780028C2
:105F000004D0952005B0F0BD9320FBE7384600F0A3
:105F1000B9F9A682E5822683658304986080132000
:105F20002070384600F042F80020EBE79021002076
:105F3000FFB50F4605464102114881B008180446D6
:105F4000FF304130FF34807869341646002805D090
:105F50002078002804D0952005B0F0BD9320FBE701
:105F6000284600F08FF92784A684002060840498D6
:105F7000A0621B202070284600F018F80020EBE7F4
:105F80009021002010B50446074940024118FF3116
:105F900069310878002806D02046FFF7DDFD002192
:105FA000204600F0B3FA10BD90210020F0B506465F
:105FB0004102974800270D182C46FF3469342046CB
:105FC0002030417E89B0002905D047763046FCF765
:105FD0007DFD09B0F0BD21788E4807F05FFB217888
:105FE00008200B00FCF7E6FA361C1D1C241C331C91
:105FF000341C381C3E1C441C481C4A1C4C1C581C9D
:106000005E1C601C641C661C681C6A1C6E1C8D1C5B
:10601000771C7F1C861C991CA41C621CAC1CFE1CDB
:10602000D7E7022005212070C902324610204FE038
:10603000042020706088002801D0012300E00023A4
:1060400005213246C9020620FCF77CFFC1E7062085
:106050002070324670493AE0207031460420FCF747
:10606000EFFFB6E70C206C4920703246491E2EE047
:106070000E202070228B31E010202DE0122033E022
:10608000142020706188002901D032461FE031467B
:106090000820FDF761FA9CE7162020703046FDF7D6
:1060A00005FB96E7182026E01A2037E0322035E07D
:1060B0001C2033E01E203CE0202000E02220207045
:1060C000002238E02420544920703246FF31082055
:1060D000FDF798FA7DE728202070228C31460A20AF
:1060E000FDF73EFB75E72A20207031460C20FDF7B6
:1060F000E3F96EE72C202070A06A0090A38C228C1C
:1061000006E026202070204636300090A28E022322
:1061100031461220FDF73CFD5BE72E202070304613
:106120000AF0B6FF024631461620FDF751F950E756
:1061300030202070012231461820FCF7BDFE48E7D0
:1061400008F03AFE00288CD0A08FC0B201F096FF74
:10615000019002A9E06B01F0A1FF34202070002023
:1061600000F02AFB070004D1332200212B480EF057
:1061700039FB803503216A8CC943384602F002F8A6
:10618000A08C0121133082B2C943384601F0FAFFD6
:10619000A08C00210F3082B2384601F0F3FF0422B8
:1061A0000221384601F0EEFFD2203871228C052101
:1061B000384601F0E7FFA28CF81DA16AFAF7E4FD6A
:1061C000A18C3846C91D019A01F0E1FF1448154B16
:1061D0000670A08C3A460F30C1B202A808F016FE35
:1061E000F7E6FFE7A08FC0B201F048FF362121702B
:1061F000A18FCAB2411C104601F048FF0A4801684D
:106200003046FDF74DFC27703046FFF7A5FCE0E671
:106210009021002002DC000003280000161C000072
:10622000E0380020D5390000F0380020FFB581B0FB
:1062300001980F46410212481D4608180446FF30D7
:106240004130FF34807869341646002803D0207826
:10625000002809D102E0932005B0F0BD019809F0B3
:10626000A5FAE063002801DA9520F5E72784A684E3
:106270003320A56220700198FFF798FE0020EBE71D
:10628000902100200749420208B55118FF22F1323F
:106290005050881800901838034A00230EF07CFCF8
:1062A00008BD000090210020307500000449400224
:1062B000401810B5FF30D9300EF0C4FC10BD0000FE
:1062C0009021002010B5098800F002F810BD0000F0
:1062D000FFB50F4605464102114881B00818044633
:1062E000FF304130FF34807869341646002805D0ED
:1062F0002078002804D0952005B0F0BD9320FBE75E
:106300002846FFF7BFFF2784A684002060840498F6
:10631000A0622B2020702846FFF748FE0020EBE704
:1063200090210020F8B50D4607464102194816464F
:1063300008180446FF304130FF3480786934002863
:1063400004D02078002803D09520F8BD9320F8BD14
:10635000F00704D0A879C00601D49820F8BDB00792
:1063600004D5A879800601D49920F8BD3846FFF7F6
:1063700089FF6888A082A888E082204632460021F2
:10638000363001F0FFFE232020703846FFF70EFE66
:106390000020F8BD9021002008B50093134609881D
:1063A000002200F009F808BD08B50093134600224A
:1063B00000F002F808BD0000FFB50F460546410297
:1063C000114881B008180446FF304130FF3480780E
:1063D00069341E46002805D02078002804D0952076
:1063E00005B0F0BD9320FBE72846FFF74BFF27845D
:1063F000A684039860840A98A0622D202070284605
:10640000FFF7D4FD0020EBE79021002008B50093B2
:106410001346002200F002F808BD0000FFB50F4649
:1064200005464102114881B008180446FF3041304A
:10643000FF34807869341E46002805D02078002873
:1064400004D0952005B0F0BD9320FBE72846FFF768
:1064500019FF2784A684039860840A98A0621920F3
:1064600020702846FFF7A2FD0020EBE790210020D6
:10647000FFB50F4605464102104881B00818044692
:10648000FF304130FF34807869341646002805D04B
:106490002078002804D0952005B0F0BD9320FBE7BC
:1064A0002846FFF7EFFE2784A6840498A0621720F1
:1064B00020702846FFF77AFD0020EDE790210020AC
:1064C000F8B50C461049450269180D46FF314131B7
:1064D000FF358E786935002E04D02D78002D03D03D
:1064E0009520F8BD9320F8BD898AC91E914201DA32
:1064F0009720F8BD00931346014622465220FDF72F
:1065000047FB0020F8BD000090210020F0B50D46AB
:106510000646574940024718564CFF3787B0217846
:106520005548693707F0BAF80020002D5FD121786F
:10653000524D0A2942D007DC0B00FCF73BF8085803
:1065400012581A2C583E5258242952D004DC0B29D8
:106550003BD01A294BD141E0252965D0272946D1C6
:1065600070E00220207046493046FFF75DFC07B01E
:10657000F0BD424920701A3106A8FEF727FD4048B9
:106580003E4B1A3041881A3306223046FFF770FF1F
:1065900001202061EBE72070394C28783434002842
:1065A00002D00128E3D101E00AF032FD6188334BCB
:1065B00001223046FFF75CFFD9E720706088002891
:1065C000D5D0304607F088FAD1E76088002805D09A
:1065D000304607F03BFA60880028C8D1FCF7F6F88F
:1065E000C5E7274930466831FEF708FF0A202070CA
:1065F000BDE7788823494118252000290ED00329BA
:1066000001D00429B3D12070B98A68460180F98A83
:10661000418069463046FEF7F1FEA8E720706988A0
:106620003046FFF75BFBA2E716497888C91E401881
:1066300001D001289BD12620207069883046FFF7C1
:10664000F9FB94E7A968E868884207DA0C4940003A
:106650004639095A3046FFF741FB05E0884286D1AA
:10666000A9883046FFF7E6FBE868401CE8607EE753
:10667000902100203002002003DC0000EC340020D8
:1066800056360020FFD6FFFFFFB50E4629494002CF
:106690004018294CFF3021780025693081B0142939
:1066A00004D005DC022901D10398C55405B0F0BD22
:1066B000242910D02629F9D1408820494018F5D046
:1066C0000128F3D11A461E480399FAF75DFB2720EB
:1066D000A5602070EAE7418829221202881A9142B7
:1066E000E4DD184C01280BD00228DFD0042819D093
:1066F0000528DBD15808124FE560143FA0600AE07E
:106700006680D3E74100039801F024FDE1684A0068
:10671000B852491CE160A168E0688842F2DBE5609C
:10672000A680C3E70748072220300399FAF72CFB1D
:10673000BCE700009021002030020020FCD6FFFFC3
:1067400024360020EC34002010B50146094A002010
:10675000C300D45A8C4203D89B185B888B4202D268
:10676000401C0C28F4DBC10089184968002900D1BD
:106770000C2010BDF836002010B5064900780968D5
:10678000002902D0FCF7ACFC10BD7F21FFF7FAFB1B
:1067900010BD00001802002010B50F225B21054833
:1067A000FCF710FBFFF72AFA01F05EFC08F058FE38
:1067B00010BD0000EE100100F0B519490D7E4E7EAF
:1067C0002C46344372B6002201231F4697402742CD
:1067D00003D0521CD2B2062AF7D3062A18D00128B9
:1067E00019D093401E434E7690000A580023203A59
:1067F000D3760A58203A13770A58203A53770A5822
:10680000203A93770A58203AD37762B60858F0BDF9
:1068100062B60020F0BD93401D430D76E4E7000012
:10682000482D002010B50948027E407E024300201A
:106830000146012423468B40134201D1401CC0B2C3
:10684000491CC9B20629F5D310BD0000482D00200F
:1068500072B6002803D162B60020704708468168EE
:106860000029FBD162B6083070470000024672B6BC
:106870000849C86F002807D08368CB678031012A98
:1068800004D04A78521C4A7062B670470A78521C8B
:106890000A70F9E7482D002010B54278891AC91C02
:1068A00001F058FC10BD10B54278891A01F052FC75
:1068B00010BD10B54278891A891C01F04BFC10BD3F
:1068C00010B504F065FC10BD1FB5064C07281ECCA2
:1068D00003946C460EC400D9072040006946085A4C
:1068E00004B010BDC4100100F8B50A4604460121E9
:1068F000104601F02FFC2949620254182546FF3545
:106900004135E98A814201D9A88200E0A9820020AC
:10691000FFF752FF070005D10320AA8A0021C00219
:106920000DF060FFA220025B0321C943384601F04D
:1069300029FC01210722C943384601F023FC032228
:106940000021384601F01EFC04220221384601F0E5
:1069500019FC03203871AA8A0521384601F012FC7F
:106960000020FFF783FF060004D1AA8A00210C480B
:106970000DF038FF00207760B060206BFFF768FFF4
:10698000002801D0066000E0266320462C3001215B
:1069900007F04CFD0120FEF7A3FBF8BD902100207D
:1069A00001180000FEB50446182001900F46002093
:1069B000FFF702FF0546324960024418002D06D158
:1069C000FF205530025B00212E480DF00BFF787838
:1069D0002E1D1927002839D02B49087800280ED001
:1069E000074648880090FCF767F8FCF74DFD3B46EA
:1069F0003046009A019907F069FF074608E0002039
:106A0000034602460221009006F092FF37700127EC
:106A1000A220025B0321C943284601F0B3FB381DC5
:106A200082B20121C943284601F0ACFB3A4600215D
:106A3000284601F0A7FB04220221284601F0A2FB10
:106A40000020FFF713FF060003D008E0FCF734F83E
:106A5000DCE70C483A460021401C0DF0C3FE002044
:106A60007560B060206BFFF7F3FE002801D0066070
:106A700000E0266320462C30012107F0D7FCFEBD44
:106A800090210020141800000C020020F7B50746E2
:106A900094B0062003900020012412900490154623
:106AA0002146159801F056FB01900321159801F03D
:106AB00051FB0E900521159801F04CFBED1F119034
:106AC000A8B216900020FFF777FE064658497802D4
:106AD00045182846FF3041301090002E04D1828A9C
:106AE000002154480DF07EFE0E990198371D884212
:106AF00005D8002803D050480068089053E00246AB
:106B00003846039907F0F4FE77E008A8FCF70AFB83
:106B10006846008D002802D00199884243D30E991F
:106B2000884243D8129900291CD000280CD0052196
:106B3000C90208A8FCF75FFB002805D13F4908A857
:106B4000FCF759FB00280DD021463846049A01F085
:106B500019FB002012901098A41CA4B2818A201D59
:106B6000814223D36846008D049000281BD008A8DA
:106B70001199FCF740FB002815D06846028E169844
:106B8000824210D115980D99C01D06F0A1FD002874
:106B900009D16846028D2146384601F0F3FAA41C5B
:106BA0000120A4B2129008980028AED1012C1FD069
:106BB00007203870A220425B0321C943304601F010
:106BC000E1FA201D82B20121C943304601F0DAFA10
:106BD00022460021304601F0D5FA04220221304637
:106BE00001F0D0FA0020FFF741FE070007D00CE0CB
:106BF0003846019A039907F076FE0446DAE70D4815
:106C000022460021401C0DF0EDFD00207E60B860A2
