:020000040002F8
:10AFF0004B2A000002000A000000000000000000D0
:10B0000001488047FEE7704715B2020003460B4334
:10B010009B0703D009E008C9121F08C0042AFAD20E
:10B0200003E00B780370401C491C521EF9D2704794
:10B030000321001D401E037812021A43491EF9D550
:10B0400010467047F0B51FB40646002082B0054692
:10B050004024019100901BE0019922460F463046A2
:10B0600000F030F8049A059B801A994110D31046DD
:10B070001946224600F016F8361A8F4101972246EB
:10B0800001200021009F00F00DF838184D4100907C
:10B090002046641E0028DFDC019B009829463246CA
:10B0A00007B0F0BD10B5202A04DB0146203A9140DC
:10B0B000002010BD914020239C1A0346E340194311
:10B0C000904010BD10B5202A04DB0846203AD0403D
:10B0D000002110BD0B46D340D0402024A21A91403D
:10B0E0000843194610BD00000000000000000000E9
:10B0F0000000000000000000000000000000000050
:10B1000010B50A4800F0DEFE01F060F801F030F8FA
:10B1100000F0A8FC00F002FD00F0C6FE00F052FDB9
:10B12000E6F7A0FCE6F7C8FC10BD000080841E0016
:10B13000064C0125064E05E0E36807CC2B430C3C8A
:10B1400098471034B442F7D300F068F8B0C5020055
:10B15000D0C5020001B002000000000000000000A5
:10B1600000000000000000000000000000000000DF
:10B1700000000000000000000000000000000000CF
:10B1800000000000000000000000000000000000BF
:10B1900000000000000000000000000005B00200F8
:10B1A000A9B4020005B0020005B0020005B002001B
:10B1B00005B0020005B0020005B0020005B00200B3
:10B1C00005B00200000000000000000005B0020011
:10B1D00005B0020005B0020031B2020065B2020003
:10B1E00099B2020005B0020000000000000000005B
:10B1F000000000000000000000000000000000004F
:10B20000000000000000000000000000000000003E
:10B210000000000003488546FFF78AFF004800470A
:10B22000BFC002000080002040BA7047C0BA70471B
:10B2300070B5094D2C68E86A044068680440074806
:10B240000168002901D020468847AC6001200449EC
:10B250004004086070BD000000100040A8440020B9
:10B2600080E200E070B5094D2C68286B04406868E6
:10B27000044007484168002901D020468847AC6057
:10B28000012004498004086070BD000000100040E7
:10B29000A844002080E200E070B5094D2C68686B7E
:10B2A00004406868044007488168002901D02046AE
:10B2B0008847AC6001200449C004086070BD0000EC
:10B2C00000100040A844002080E200E08EB0FF2083
:10B2D0006A460D21813001F0D9F81CA000F0FCF87D
:10B2E0001FA0009900F0F8F822A0019900F0F4F8EE
:10B2F00025A0029900F0F0F828A0039900F0ECF8DE
:10B300002BA0049900F0E8F82EA0059900F0E4F8CD
:10B3100031A0069900F0E0F834A0079900F0DCF8BD
:10B3200037A0089900F0D8F835A0099900F0D4F8B2
:10B3300024A00A9900F0D0F836A00B9900F0CCF8C0
:10B3400039A00C9900F0C8F8FEE70000686172644B
:10B35000206661756C74206F63637572730A0000F8
:10B3600052303A2020202020203078253038780AAA
:10B370000000000052313A20202020202030782583
:10B380003038780A0000000052323A202020202075
:10B39000203078253038780A0000000052333A20F7
:10B3A00020202020203078253038780A0000000046
:10B3B0005231323A20202020203078253038780A47
:10B3C000000000004C523A20202020202030782518
:10B3D0003038780A000000004558435F5245543A1F
:10B3E000203078253038780A000000007850535219
:10B3F0003A202020203078253038780A00000000DC
:10B4000053505F4F4C443A20203078253038780A2A
:10B41000000000004552525F545950453A3078259B
:10B420003038780A0000000053503A2020202020B5
:10B43000203078253038780A00000000C106C90E97
:10B4400001208840014908607047000080E200E068
:10B45000C106C90E012088400149086070470000FC
:10B4600000E100E08307FF22DB0E9A408907090E06
:10B47000994000280BDA0007000F083883080848B5
:10B480009B001818C36993430B43C361704783083B
:10B4900004489B001B1818689043084318607047C5
:10B4A00000ED00E000E400E009488168C268114056
:10B4B000C905C90D4822114203D040220261082269
:10B4C0000261C80602D503491020086170470000D8
:10B4D00000400140003001400FB410B503A9044BF7
:10B4E000044A029800F018F810BC08BC04B01847D1
:10B4F000CFBE0200603F002002E008C8121F08C152
:10B50000002AFAD170477047002001E001C1121FE4
:10B51000002AFBD170470000FFB591B00F460546E9
:10B52000002606E025280AD0149A139990476D1C2E
:10B53000761C28780028F5D1304615B0F0BD0024DF
:10B5400000940121F34A029400E004436D1C2B781F
:10B550000846203B98401042F7D128782A280ED080
:10B56000022128780246303A092A15D8009A0A237F
:10B570005A43303A80180C436D1C0090F1E701CF1C
:10B580000090002805DA012040030443009840425F
:10B590000090022004436D1C28782E2815D1042029
:10B5A000044368786D1C2A280AD101CF6D1C0290D3
:10B5B0000BE002990A225143303940186D1C029069
:10B5C0002878014630390929F3D928786C2810D019
:10B5D00006DC4C281AD068280ED06A2817D104E05F
:10B5E000742813D07A2812D110E0012040050443BA
:10B5F0000CE00121090501E0032109050C436978EC
:10B60000814203D10120000524186D1C6D1C28788F
:10B6100003906E281ED00CDC632831D004DC002897
:10B620008AD0582811D1B2E064287BD069280CD187
:10B6300078E073282DD004DC6F2870D0702804D1F6
:10B64000A7E075286CD078286BD0149A139990478E
:10B65000761C62E06002400F022807D003280AD05F
:10B66000042838680AD006603F1D56E03868F11794
:10B6700006604160F8E738680680F5E70670F3E792
:10B680003878694608740020487404A803900120A3
:10B6900003E0386803900020C0433F1D61070FD5C9
:10B6A000002101E00199491C029A0191914213DAAB
:10B6B0008142F7DB019A0399895C0029F2D10BE002
:10B6C000002101E00199491C01918142FADB019AB4
:10B6D0000399895C0029F5D101990098139A401AC1
:10B6E00000902146149B00F03BF9019980194618FF
:10B6F00007E0039803990078491C0391149A139961
:10B7000090470198401E0190401CF2D12146149BA5
:10B71000139A009800F014F986196D1C09E741E0AE
:10B7200033E034E00A200021049005916002410FCB
:10B73000022905D001CFC2179446032905D007E09E
:10B74000FF1DFF08FF0003CF06E000B2C2179446BA
:10B75000042902D140B2C1178C46002261469445AB
:10B7600006DA0A460021404291418C462D2102E032
:10B77000210504D52B216A461176012103E0E1075A
:10B7800001D02021F7E7019154E00A200BE01020BE
:10B7900009E01020049000210420044308200591B2
:10B7A000029003E008200021059104906002410FFF
:10B7B000022905D001CF00229446032906D006E0D5
:10B7C000FF1DFF08FF0003CF8C4603E080B2042971
:10B7D00000D1C0B20021019121072BD50399702916
:10B7E00006D0049A1021059B4A401A4305D00EE06A
:10B7F00040216A461176012108E06146014306D0E6
:10B8000030216A4611760399517602210191049AFA
:10B810000821059B4A401A430CD16146014301D1DE
:10B82000610707D530216A461176012101910299FD
:10B83000491E02910399582904D037A103910FA9F9
:10B840000F910DE039A1F9E76146059B049AFFF7D6
:10B85000F9FB039B8C469B5C0F9A521E0F92137050
:10B8600061460143F0D10F9807A9081A20300390D0
:10B87000600704D5012000048443029801E0012000
:10B8800002900399884201DD401A00E0002041182F
:10B890000290019809180098401A0090E00306D41D
:10B8A0002146149B139A009800F05AF8861900203C
:10B8B000049008E006A9085C149A1399904704982C
:10B8C000401C761C049001998842F3DBE0030CD500
:10B8D0002146149B139A009800F042F8861904E060
:10B8E000149A302013999047761C0299481E0290B2
:10B8F0000029F5DC08E00F980F990078491C0F919A
:10B90000149A13999047761C0399481E03900029B6
:10B91000F1DCFBE6092801003031323334353637AB
:10B92000383961626364656600000000303132338B
:10B93000343536373839414243444546000000002B
:10B94000F8B5044600251E461746880404D405E0D1
:10B9500039462020B0476D1C641EF9D52846F8BD35
:10B96000FFB50446002581B01E46C80301D5302727
:10B9700000E02027880404D505E038460399B04745
:10B980006D1C641EF9D5284605B0F0BD10B50446FF
:10B99000002906D008A0FFF79FFD1049012008707C
:10B9A00010BD0FA0FFF798FD2046D6F7A7FE012196
:10B9B000204600F024F810BD0A3C3C616E63732001
:10B9C000736572766963652068617320626565647A
:10B9D00020666F756E643E3E0A000000283F00201E
:10B9E0000A3C3C6E6F20616E6373207365727669EA
:10B9F000636520666F756E643E3E0A00704710B541
:10BA0000D6F7D0FE10BD10B5D6F778FE10BD10B534
:10BA1000D6F7F0FF10BD10B5052100F045FB00F092
:10BA200017F810BD10B508480178002908D14178F1
:10BA3000002905D0491E41708078D6F795FE10BDCB
:10BA40000248E9F7FFF810BD283F002034440020E9
:10BA500010B502460E210248D6F7EEFF10BD0000D9
:10BA6000143F002010B50220FFF7E8FC032102205C
:10BA7000FFF7F8FC0220FFF7EBFC0920FFF7DEFCE4
:10BA800003210920FFF7EEFC0920FFF7E1FC0A2063
:10BA9000FFF7D4FC03210A20FFF7E4FC0A20FFF79C
:10BAA000D7FC0620FFF7CAFC00210620FFF7DAFCCE
:10BAB0000620FFF7CDFC0720FFF7C0FC0021072080
:10BAC000FFF7D0FC0720FFF7C3FC10BD104C114E50
:10BAD000114D0021C9432068E5F776FE0028F8D013
:10BAE0000828F6D01028F4D108780328F1D10F46A1
:10BAF000084600F08DF87968002902D03068E5F733
:10BB00000BFF002FE5D039462868E5F705FFE0E791
:10BB100084020020900200208C02002010B508480A
:10BB2000E5F7E0FE074C0021606005481038E5F7B6
:10BB300073FF2060002802D103A0FFF7CDFC10BDE9
:10BB4000A4C50200583F00200A6170702074617320
:10BB50006B20637265617465206661696C0A000020
:10BB60001CB513A103C901910090134C64202080DF
:10BB7000608006226946E01DFFF748FA00206071E8
:10BB8000A071207107216173A0730D2121740B49ED
:10BB9000616114212176094920221439E1610849A3
:10BBA0000A804A8001220A7148718871C8711CBDDF
:10BBB000AACD443322110000F03A0020483F002073
:10BBC000E83A002000B585B014220D496846FFF719
:10BBD0001DFA0C48002101704170D8F7ADFFFFF746
:10BBE000BFFF6846D8F78EFE0120D8F737FED8F79A
:10BBF000F3FD054A01210548E8F734FF05B000BD13
:10BC000080C502002B3F002025BA020034440020EA
:10BC1000FEB50546406869780446392919D024DC08
:10BC200000264E4A182969D014DC0120D71E142999
:10BC300048D00EDD15295BD017290AD15070A8789D
:10BC40000121FFF7DCFE464A002346480096E8F74C
:10BC5000A3FFFEBD30295CD0312951D03229F8D163
:10BC60000028F6D0FFF7D7FEFEBD4929FCD008DC3E
:10BC70004229F9DD4329F7D04429F5D1E9783AA0E2
:10BC800064E04A2954D04D29EED04E295CD04F298A
:10BC9000EAD10821DCF75EFA0146AD78204600F0D3
:10BCA000E1F9044637A0FFF717FC002C51DB3420E4
:10BCB00044432C48D038211828461831D8F772FE52
:10BCC0003AA03EE01070A878FFF79DFEA878B87003
:10BCD000D8F7CAFE002CC7D02079A27961796B46CB
:10BCE00007C3E378A27861783CA0FFF7F5FBFEBDBF
:10BCF000167056703E70D8F76FFDFEBD5670FEBDD3
:10BD00000028FCD0E878E11CC01EC0B2FFF776FE28
:10BD1000FEBD002CFCD000780028F9D00128F7D116
:10BD2000A8780121FFF732FE0120FFF770FEFEBD6B
:10BD3000002CFCD000F06AF9002801DB33A000E001
:10BD40003AA0FFF7C9FBFEBDE97842A0FFF7C4FBAC
:10BD5000FEBD2846D8F71DFE45A0F2E72B3F002088
:10BD6000B80B0000344400204D53475F4D54555FDD
:10BD70004556454E545F5245504F52543D25640A36
:10BD8000000000004D53475F4C544B5F5245515FDC
:10BD90005748454E5F5245434F4E4543545F4146D9
:10BDA0005445525F504149523D0A20004D53475F70
:10BDB0004C544B5F5245515F5748454E5F52454387
:10BDC0004F4E4543545F41465445525F504149529E
:10BDD0003D204F4B5F7265706C790A00626C652084
:10BDE000697320636F6E65637465642D7065657239
:10BDF00020616464723A25782D25782D25782D25CB
:10BE0000782D25782D25780A000000004D53475FD6
:10BE1000504149525F434F4D504C455445443D734A
:10BE200061766520626F6E64206F6B004D53475FD3
:10BE3000504149525F434F4D504C455445443D732A
:10BE400061766520626F6E64206572726F722D2D4F
:10BE50002D0000004D53475F504149525F46414914
:10BE60004C2020524541534F4E3D25640A000000AE
:10BE70004D53475F4C544B5F5245515F5748454EB9
:10BE80005F5245434F4E4543545F41465445525FD0
:10BE9000504149523D206E656761746976655F72F5
:10BEA00065706C790A00000010B500F017FA00F018
:10BEB00051F910BD8108002001E000BF401C8842FC
:10BEC000FBD3704700B50001FFF7F4FF00BD13B5C9
:10BED00000980A2807D10D2000900121684600F043
:10BEE0009FFA0A2000900121684600F099FA009814
:10BEF0001CBD0000F0B50D4B00229D140446D4403B
:10BF0000E60706D000290BD09600F618F76B2F43F2
:10BF1000F763002C03D0521CD2B21F2AEED3F0BD1F
:10BF20009600F618F76BAF43F2E7000000100040F0
:10BF300000220346D340DB070AD0084892001018BD
:10BF4000C26B120A1202C263C26B0A43C263704719
:10BF5000521CD2B21F2AECD37047000000100040E0
:10BF600030B5012309021B0300228031074C19431D
:10BF70000346D340DD0702D095002D19E963002B5D
:10BF800003D0521CD2B21F2AF2D330BD00100040A1
:10BF90000349896B014201D001207047002070479E
:10BFA0000010004070B5124C054660680E46A8436C
:10BFB000606000212846FFF79DFF002E02D0012E71
:10BFC00005D00BE0206828432060022103E02068B0
:10BFD000A843206001212846FFF7C2FF04484A21F8
:10BFE0004038C1636168294361600121816370BD8C
:10BFF000C0100040044841880088814201D00020E0
:10C000007047012070470000243F002070B50546AE
:10C01000134CAD202070687860700026A01C0622AA
:10C02000A91CFEF7F3FF20462946083010220831EC
:10C03000FEF7ECFF20462946183010221831FEF793
:10C04000E5FF20462946283008222831FEF7DEFF8A
:10C0500030212846DCF77EF82086304670BD00008F
:10C0600064430020F3B50025ED430E4E81B00F462A
:10C070000024204634214843315CAD290AD181197E
:10C08000088EB84206D1082228310198E1F720FB3A
:10C09000002804D0641C042CEBDB2846FEBD25469A
:10C0A000FBE700006443002010B544182046FEF76B
:10C0B000BFFF0002E178000A0906084310BD10B571
:10C0C0000020E8F7C7FC0020E8F7B2FC0120E8F701
:10C0D00057FCE5F76BFA002010BD10B500F06CF9C5
:10C0E00000F048FA10BD00008EB0FF206A46022121
:10C0F000813000F0CBF906A0FFF7EEF90BA0009914
:10C10000FFF7EAF90EA00199FFF7E6F9FEE7000054
:10C110006F735F737461636B5F6F766572666C6F6C
:10C1200077206F63637572730A0000006164723A6E
:10C130002020202020203078253038780A00000088
:10C140006572725F636F64653A20307825303878A5
:10C150000A00000010B50449002008600349086087
:10C16000E1F744FE10BD0000203E0020243E0020E8
:10C1700010B500F0AFF900F063F9E8F7B7FC012063
:10C180000521C002FFF7D4FE054800F039F900F0A0
:10C190005DF8012000F054F802A0FFF79DF910BDF2
:10C1A000100002000A4D5844204576616C75617498
:10C1B000696F6E2073616D706C652020737461729D
:10C1C0007420746F20776F726B0A000010B50848F6
:10C1D000E8F714FB0020E8F7E9FA0520E8F734FC5B
:10C1E0000121880200F068F80220E8F715FC10BD74
:10C1F000FFFF7F0010B501200521C002FFF798FE68
:10C20000002010BD10B501208002FFF7C1FE0028FC
:10C2100004D008A0FFF760F9012010BD0124E4025A
:10C2200000212046FFF784FE01212046FFF798FEFB
:10C23000002010BD4E4F20534C4545500A000000D1
:10C240000149087070470000223F00200248002189
:10C250000180418070470000243F002070B50C46EB
:10C26000054601460AA0FFF737F921460DA0FFF762
:10C2700033F929460F4D2846E1F710FAA1B22846B6
:10C28000E1F70CFA210C2846E1F708FA70BD00002E
:10C290006164723A202020202020307825303878C0
:10C2A0000A000000696E666F3A20307825303878D1
:10C2B0000A000000FFDF000010B5FFF773FE6420E6
:10C2C000FFF700FE10BD000003498988814201D1BB
:10C2D0000220704700207047023F00207CB50022FA
:10C2E000174B18491046D6F737F8002825D00024F8
:10C2F0001449FF23009405332246891C20460194EB
:10C30000D5F7F6FF002818D00D4D0E49AD1F288037
:10C31000FF23002200941133491C10460194D5F7E5
:10C32000E7FF002809D06880D5F7F7FF002804D080
:10C33000A880D5F7F7FF00207CBD01207CBD000060
:10C34000083F0020F0FF000007498988814209D199
:10C35000002A05D00448801E00781070002050701C
:10C360000220704700207047023F002006490A88DB
:10C37000824206D08988814203D103491878891EF8
:10C380000870002070470000023F002010B5084AE6
:10C390001278012A0AD109040A180549054C891C9A
:10C3A00008888300401CE250C0B2088010BD000025
:10C3B000223F0020643F002070B50F480D4B0F4D09
:10C3C000048813E0DA691207120F042A0ED88A00D3
:10C3D000AA581604360E1E60D6B21E60160E1E60D7
:10C3E0001202120E1A60491CC9B241804188A14252
:10C3F000E8D170BD00400140243F0020643F002090
:10C400000549044BCB224B61886104480861CA602E
:10C410007047000066FF4C0000400140FFFF000035
:10C4200010B50023054A06E0D469240703D1047837
:10C430001460401C5B1C8B42F6D310BD00400140D1
:10C440000949084808600A48084A0260094A4260E7
:10C450000A48094A42600A4A82600A4AC2600A4897
:10C46000486070475DC20200303E0020DBC0020021
:10C47000283E0020E9C0020005C20200383E00202C
:10C48000F5C10200F5BF02008DC30200F0B50F4BED
:10C490000D4C9C6100250E4E10E001242404044341
:10C4A0005C6001241C600024DF68FF0602D4641C69
:10C4B000B442F9D31C69401C10C26D1C8D42ECD3F0
:10C4C00000209861F0BD00000704062000400040F5
:10C4D000400D030014491348C86015481349816092
:10C4E0001449C160144901611449416114498161D1
:10C4F0001449C161144901621449416214498162BD
:10C500001449C162144981631449C1631449016427
:10C5100014494164144981641449C1641449016592
:10C5200070470000CDB20200B000002005B002004C
:10C5300030000020A9B4020005B0020005B00200DE
:10C5400005B0020005B0020005B0020005B002000F
:10C5500005B0020005B0020005B0020005B00200FF
:10C5600005B0020031B2020065B2020099B20200C9
:10C5700005B0020001490220C860704700800140F8
:10C580006576616C756174696F6E20646576696348
:10C5900065000000CDBA02000000000001000000AC
:10C5A000000600000A000000080000004C440020C3
:10C5B000D0C50200003F002064000000F8B4020073
:10C5C00034C60200643F00205005000008B5020098
:10C5D0000000000000000000C9C2020049C30200C0
:10C5E0006DC30200000000000000012000022000D6
:10C5F000040500000000000000050000000000002D
:10C600000000000013096D7864626C652D65766129
:10C610006C756174696F6E000201050319C0000535
:10C6200002F0FF0D180000000000000000000000F4
:04C630000000000006
:040000050002B00144
:00000001FF
